:020000022000DC
:1060000000F0032071630200596302005B63020029
:106010005D6302005F630200616302000000000034
:1060200000000000000000000000000063630200A8
:1060300065630200000000006763020069630200FC
:106040006B6302006B6302006B6302006B63020010
:106050006B6302006B630200FD6D02006B63020064
:106060006B6302006B630200B14103006B630200CB
:106070006B6302006B6302006B6302006B630200E0
:106080006B63020029BC030075AF02006B63020062
:10609000F9BC03006B630200D56B03006B63020065
:1060A0006B6302006B6302006B6302006B630200B0
:1060B0006B6302006B630200000000000000000040
:1060C0006B6302006B6302006B6302006B63020090
:1060D0006B6302006B6302006B6302006B63020080
:1060E0006B6302006B6302006B6302000000000040
:1060F000000000006B630200000000006B63020000
:10610000000000000000000000000000000000008F
:10611000000000000000000000000000000000007F
:10612000000000000000000000000000000000006F
:10613000000000000000000000000000000000005F
:10614000000000000000000000000000000000004F
:10615000000000000000000000000000000000003F
:10616000000000000000000000000000000000002F
:10617000000000000000000000000000000000001F
:10618000000000000000000000000000000000000F
:1061900000000000000000000000000000000000FF
:1061A00000000000000000000000000000000000EF
:1061B00000000000000000000000000000000000DF
:1061C00000000000000000000000000000000000CF
:1061D00000000000000000000000000000000000BF
:1061E00000000000000000000000000000000000AF
:1061F000000000000000000000000000000000009F
:10620000354936480A1A02D0072291438D4634494F
:1062100034480A1A06D00722914381F309880222E2
:1062200082F3148830483149314A00F043F831484C
:106230003149324A00F03EF831483249324A00F0E2
:1062400039F832483249334A00F034F83248334999
:10625000334A00F02FF833483349344A00F02AF823
:1062600033483449344A00F025F834483449002290
:1062700000F02BF833483449002200F026F8334868
:106280003349091A082903DB002202600430016047
:106290001F482049884205D00268043003B4904763
:1062A00003BCF7E700208646EC4600200021294A7F
:1062B0009047FEE7884207D0521A05D00378013094
:1062C0000B700131013AF9D17047884202D0027057
:1062D0000130FAE77047000000F0032000E80320D7
:1062E00000F0032000F00320D8DD0300A02D0020E3
:1062F000B82E0020A8630200A863020024C5030092
:10630000D8DD0300A02D0020A02D002030C6030002
:1063100030C6030030C6030030C6030030C6030099
:1063200030C6030030C6030030C60300D6DD0300CC
:10633000F0DE0300B82E0020B82E0020B82E00207A
:10634000C4580020C4580020C4580020C45800205D
:10635000C45C002055680200FEE7FEE7FEE7FEE7AA
:10636000FEE7FEE7FEE7FEE7FEE7FEE7704700BF59
:106370000948804709484FF0070188438546084887
:1063800080470848016841F470010160BFF34F8FF6
:10639000BFF36F8FFFF734BF6D63020000F003207F
:0863A000796E030088ED00E0B6
:1063A80041DF7047012A07B51FD009D3022A31D02F
:1063B800204AA021032003B05DF804EB10F041BE91
:1063C8001D4B1B6859040DD51C4B1B68032B09DD9D
:1063D8001B4B1C4AD3F80435009293221A49042017
:1063E80005F0AEFC03B05DF804FB062232214FF441
:1063F800F03000F067FC104B1B685A04F2D50F4BC5
:106408001B68032BEEDD0E4B104AD3F804350092BF
:106418009822E3E7084B1B685B04E3D5074B1B682E
:10642800032BDFDD064B0A4AD3F8043500929C2281
:10643800D4E700BF67C603001C2E0020182E0020DA
:1064480000100140C3C60300BCC60300E3C6030036
:1064580003C7030070B54F4E33685C0486B0054629
:106468000ED54D4B1B68032B0ADD4C4B4C4AD3F819
:1064780004354C49019000920420C82205F060FCC4
:10648800032D06D8DFE805F00229022901238DF83B
:106498000C30454A13788DF80D30591C117064235F
:1064A8003221CDE904313368580410D53A4B1B68C2
:1064B800032B0CDD394B9DF80C20D3F804350192E1
:1064C8003A4A00923749E322042005F039FC032DAB
:1064D80045D8DFE805F0040420200023D7E7344C32
:1064E80020880BF07BFA03A9204604AA15F062FA6B
:1064F8009DF80C1004460D2000F0CEFB072C30D080
:1065080043D864B3042C11D02A4A40F21111204612
:1065180010F097FD23E003A9022304AA264815F0EA
:1065280099FA9DF80C1004460E20E5E733685A04E2
:106538000FD5194B1B68032B0BDD184B1F4AD3F8DB
:10654800043518490092019540F20112042005F023
:10655800F7FB062232214FF4F03000F0B3FB06B00F
:1065680070BD33685B04FAD50B4B1B68032BF6DD53
:106578000A4B134AD3F804350A490092019540F2B0
:106588000D12042005F0DCFBE9E7082CCED0112C15
:10659800B9E700BF1C2E0020182E00200010014073
:1065A800A0C70300BCC60300212F0020B3C7030007
:1065B800B82E002067C60300EC2E0020CEC70300CB
:1065C800E5C703003038032801D8FFF743BF7047F9
:1065D8001E4B1B685B0437B50ED51D4B1B68032B80
:1065E8000ADD1C4B1C4AD3F804351C4900920420D0
:1065F80040F2211205F0A4FB194C1A4D2563002323
:1066080001212046A36284F82C3084F82D3015F03F
:10661800A7F920B1144A4FF4957110F012FD002328
:10662800022112486566E36584F8603084F86130B9
:1066380015F096F938B10C4A4FF4957103B0BDE8DE
:10664800304010F0FEBC03B030BD00BF1C2E00204F
:10665800182E00200010014064C80300BCC60300C7
:10666800B82E002010C8030067C60300EC2E0020D7
:1066780003781C2B07B51CD10F4B1B685B040DD589
:106688000E4B1B68032B09DD0D4B0E4AD3F804355E
:106698000D4900920420B82205F052FB0322C821BC
:1066A8004FF4F03000F00EFB03B05DF804EB08F097
:1066B800ABB803B05DF804FB1C2E0020182E002098
:1066C800001001401CC80300BCC6030010B50446F6
:1066D80000214FF4F03004EB840400F0E9FA620082
:1066E80032214FF4C030BDE8104000F0EBBA00F0A2
:1066F8001DBB00001FB51E4C226852040DD51D4B52
:106708001B68032B09DD1C4B1C4AD3F804351C49B4
:1067180000920420702205F013FB00F001FD00F048
:1067280051FD03A80CF0C2F923685B0410D5114B86
:106738001B68032B0CDD104BBDF80C20D3F8043577
:106748000192104A00920E497B22042005F0F8FAC3
:1067580000F0ECFA00214FF4F03000F0A9FA04221E
:10676800C8214FF4F03000F0ADFA04B010BD00BFFE
:106778001C2E0020182E00200010014084C80300A1
:10678800BCC603009EC803000A4B1B685B0407B520
:106798000DD5094B1B68012B09DD084B084AD3F8B6
:1067A8000435084900920220852205F0C9FA03B091
:1067B8005DF804FB1C2E0020182E0020001001405C
:1067C80048C60300BCC603007FB51A4B50681B6857
:1067D80003F48043C0B1A3B1174B1B68032B10DD32
:1067E800164BD3F80435049050780390127802922F
:1067F8004A880192124A00921249AD22042005F0FB
:106808009FFA07B05DF804FB002BFAD00A4B1B680F
:10681800032BF6DD094B1278D3F8043502924A8827
:106828000192094A00920749B222042005F088FA29
:10683800E7E700BF1C2E0020182E002000100140A2
:1068480025C70300BCC6030077C7030000B5404A4C
:106858008DB0042146F2010005F056FA3D4B1B6845
:106868005B040ED53C4B1B68032B0ADD3B4B3C4AB3
:10687800D3F804353B49009204204FF49F7205F089
:106888005FFA15F089FB20B1374A4FF4A07110F078
:10689800D8FB00F05BFA354800F084FA20B1324AA0
:1068A8004FF4A27110F0CDFB00F020FC00F038FC92
:1068B80000F088FC0021202203A815F0A8FD012380
:1068C8008DF80C3007238DF80F3006238DF814301F
:1068D800274B07932749284B0B9303A807F050FF32
:1068E80020B1214A4FF49C7110F0ABFB642123487E
:1068F80000F078F91F4B1B7883B9214D0FCD03ACFD
:106908000FC495E8030084E8030003A800F00EF91B
:1069180020B1154A40F2611110F093FB00F056FDCA
:1069280000F098FA07F062FF20B10F4A4FF4B371F4
:1069380010F087FB00214FF4F03000F0B9F9022283
:10694800C8214FF4F03000F0BDF9FFF729FDFCE74E
:10695800E5BC02001C2E0020182E0020001001406B
:1069680035C80300BCC6030067C603005D640200A7
:1069780079660200202F0020D9650200CD6502004B
:1069880030C603000349044809690323002210F0B4
:10699800F6BE00BF282F0020783100200378023B84
:1069A80010B5082B4AD8DFE803F01E05124949380C
:1069B80049493F00224B5B68002B3FD0007A0028F2
:1069C8003CD0204A0121BDE81040117018471C4BEB
:1069D8009B68002B32D01B4A117879B30021BDE89F
:1069E800104011701847184B1A784AB9144BDB68D5
:1069F80013B114490A709847BDE81040FFF7C2BFA9
:106A0800124B134801221A7003F022FA03F008FA15
:106A1800A0B1BDE8104010F007BB094B0D485969FB
:106A2800102210F0F1FEF3E7D0E9021007F05AFE49
:106A380008B110F0F9FA044B01221A7010BD00BF1A
:106A4800282F0020222F0020232F0020242F002071
:106A5800A02D00207831002030B5274D297885B049
:106A680019B1012803D003283FD005B030BD04ACCC
:106A7800002344F8083D21460FF06EFF08B110F0DE
:106A8800D3FA20460FF0BAFF08B110F0CDFA04A9E6
:106A9800012341F8043D0DF106000CF065FB08B137
:106AA80010F0C2FABDF806000CF01CF90DF1050152
:106AB8000CF0E4F908B110F0B7FA08F0B7FE9DF849
:106AC8000510002008F0A0FF10B1784600F048FC3F
:106AD80003F062F908B110F0A7FA00232B70074BF6
:106AE8001B68002BC1D09847BFE70FF0EFFF0028C5
:106AF800BBD010F099FAB8E7242F0020282F0020E7
:106B080008B503781B2B0CD1064B1B784BB110F042
:106B180019F808B110F088FA0348BDE8084003F0F6
:106B280099B908BD242F0020A02D002070B51E4A59
:106B38001E4E5168044686B0106803AB03C3118922
:106B4800927A19809A700FCC35460FC594E80300E5
:106B580085E8030073692BB31549164810F0F6FD54
:106B6800F0B9154B0093124A1249144803AB10F0C0
:106B7800B9FDA8B9124811F0F3FD01460F4810F00D
:106B8800D1FD68B90F4812F00BFA48B90D4812F058
:106B980039FA0146094810F0C5FD08B9FFF7F2FEB9
:106BA80006B070BD0720FBE7E0C80300282F0020CF
:106BB800402F0020AC320020A56902007831002067
:106BC800602F00202831002010B5054C226832B112
:106BD8000EF020FB002802DB23689847F8E710BD79
:106BE800EC320020154B164A10B50C4618600121EE
:106BF800144815F02BFA18B1134A4A2110F021FA5B
:106C0800610C0023E00341F26F728B4208BF82429D
:106C180010D24FF47A72002315F084FA014600224C
:106C28000A4815F025FA38B1074A4B21BDE810404B
:106C380010F007BA0521F2E710BD00BFEC320020C2
:106C4800D16B0200ECC80300F0C80300F03200204A
:106C580038B50D4C206808B910F0E6F94FF0A0459A
:106C68000A4AD5F8043512685340C5F80435236834
:106C7800013B236033B9064815F03EFA054B1B6803
:106C8800C5F8043538BD00BF103300201433002088
:106C98001833002040330020012303FA00F04FF09E
:106CA800A04311B1C3F80C057047C3F80805704735
:106CB8004FF0A04311B1C3F80C057047C3F808059D
:106CC80070470000F8B542B3132926D9134B144D69
:106CD8005200013A4FF0A0441A602860114BD4F8D2
:106CE80004251A604FF400404FF4FA760027E0FBC1
:106CF80001674FF47A7200233046394615F012FACC
:106D080000220146084815F0B3F930B9D4F8043523
:106D18002A6823EA0203C4F80435F8BD10330020BA
:106D280014330020403300201833002008B50548EC
:106D380015F0E2F9044B1A684FF0A043C3F8082590
:106D480008BD00BF183300201433002008B54FF0E9
:106D5800A04303224FF40051C3F83427C3F80815A1
:106D68004FF48041C3F83827C3F808154FF40041A1
:106D7800C3F83C27C3F80815C3F840274FF48032FE
:106D8800C3F808250121054A054815F05FF918B12F
:106D9800BDE8084010F048B908BD00BF596C0200B2
:106DA80044C90300D8B10F4B0F4A18604FF0A043F5
:106DB8000020C3F82C27C3F83027C3F86027C3F88E
:106DC80064270A4B4FF00042C3F80423C3F87C0140
:106DD800074BC02283F8062340221A6070470E2012
:106DE800704700BF383300200C00030000600040EB
:106DF80000E100E0124B70B50024124E124DC3F8AA
:106E08007C414FF0A043A15DD3F8102501238B40AE
:106E1800934311D00D49D5F804250B68981A48BF3B
:106E2800D01A43F23333984206D9D5F804350B60AB
:106E3800074B20461B6898470134042CE1D170BDEC
:106E48000060004048C90300001001403C330020A6
:106E58003833002070B50446CEB0002853D02B4DEF
:106E68002A68520428D52A4B1B68032B24DD294B9A
:106E78000DAA18680023E15C0E0901F00F01865D78
:106E880002F81360465C02EB43010133102B4E708D
:106E9800F1D1002382F8203003F1804303F58833D1
:106EA8001D49D3F8043502921C4A01921C4A0092EB
:106EB8000420412204F044FF2B685B0423D5144BC3
:106EC8001B68032B1FDD174BE27BD3F804350B92AD
:106ED800A27B0A92627B0992227B0892E27A07924D
:106EE800A27A0692627A0592227A0492E288039242
:106EF800A2880292226801920B4A00920649462211
:106F0800042004F01DFF4EB070BD00BF1C2E0020F1
:106F1800182E0020202E002094C90300A5C90300C4
:106F2800B7C9030000100140BFC9030072DF7047F2
:106F380073DF704774DF70472DE9F04388462F49A7
:106F48002F4C0B782F4D91462F4A0746C3EB431021
:106F5800002602440133A3B003F00103C4F806601D
:106F6800A2601F2205440B70A280A28131463C22F8
:106F780004A8E681256015F04AFA062301AA8DF8CF
:106F880013300E9201233C22314613A88DF80230AB
:106F9800ADF820308DF83C30ADF80070CDF824D035
:106FA800ADF80470ADF80890CDF80C8015F02FFA04
:106FB8000223221D294604A88DF84C300FF09EFAB2
:106FC80008B110F031F8114AA16813A80FF096FA29
:106FD80008B110F029F80E4A09490E48FFF7A6FF34
:106FE800082804D1002206490A48FFF79FFF08B184
:106FF80010F01AF823B0BDE8F08300BF4433002036
:10700800843300204533002094330020903300203F
:10701800B02D0020AC2D0020084B58B1B0F5202F22
:1070280005D20A22B0FBF2F018B9012002E04FF6AF
:10703800FF7080B298819960704700BFB02D002022
:1070480008B5064B01211878FFF772FF08B10FF059
:10705800EBFF0020BDE8084003F0B6BCAC2D0020D3
:1070680008B5054B1878FFF765FF18B1BDE808406B
:107078000FF0DABF08BD00BFAC2D002076DF7047E7
:107088007ADF70477CDF70470FF0CEBF02F0E4BEB6
:10709800037807B54BB93B214088FFF7EFFFC0B134
:1070A80003B05DF804EB0FF0BFBF012B11D10A4B01
:1070B8001B685B040DD5094B1B68032B09DD084BC6
:1070C800084AD3F80435084900920420682204F0DD
:1070D80037FE03B05DF804FB1C2E0020182E00209C
:1070E80000100140BDCA0300A4CA030013B50FF085
:1070F800EDFC08B10FF098FF02AC002344F8043D02
:10710800012021460FF028FC08B10FF08DFF204622
:107118000FF074FC08B10FF087FF02B010BD00003B
:1071280010B5204C2268520486B00DD51E4B1B6842
:10713800032B09DD1D4B1E4AD3F804351D49009267
:107148000420B12204F0FCFD11238DF80C302368D3
:107158005B040DD5144B1B68032B09DD134B164A32
:10716800D3F80435134900920420B32204F0E8FD53
:107178001122124903A8FFF785FF08B10FF054FF49
:107188000023ADF814300E4B049304A84FF4C873D1
:10719800ADF81630FFF774FF08B10FF045FF06B0E1
:1071A80010BD00BF1C2E0020182E0020001001402A
:1071B800FFC90300A4CA030022CA03004ACA030085
:1071C8007800C80000B58BB00023114AADF808302C
:1071D800CDE90633019201AB4FF4C872ADF80A202D
:1071E800039340F6CD424FF48033CDE904230323C3
:1071F8008DF81830074B089303A8074B09930FF035
:10720800E9FD08B10FF010FF0BB05DF804FB00BFFB
:107218007800C8009970020091700200062070473B
:1072280030B5454B41F201051B68A84287B00446BA
:1072380003F4804354D013D801282ED0002B3CD01F
:107248003E4B1B68002B38DD3D4B3E4AD3F80435D6
:10725800019100923C497B22012004F071FD2CE051
:1072680044F2010084424CD044F202008442E5D149
:107278001BB3324B1B68002B1FDD314B1088D3F832
:10728800043503905268CDE90112304A00922E4924
:107298006C22012004F054FD0FE073B1274B1B68EA
:1072A800002B0ADD264BD3F80435CDE90112284A14
:1072B80025490092602204F043FD4FF0A0434FF4AB
:1072C800F032C3F81825C3F80C25EFF3108372B613
:1072D8004DF6AD6C1F4A1378002B2AD107B030BD8C
:1072E800002BEAD0154B1B68002BE6DD144BD3F8B6
:1072F8000435CDE90112184A00921349632201208E
:10730800D9E7002BD9D00D4B1B68002BD5DD0C4BD2
:107318001068D3F8043504905068CDE902109268DB
:1073280001920E4A009208497722012004F008FDD4
:10733800C3E730BFCFE700BF1C2E0020182E002067
:1073480000100140BECB030031CB03007ECB03000D
:1073580042CB0300C82D00205CCB03009DCB03006B
:1073680007B50023ADF800300146054B01936A4686
:1073780044F20200FFF754FF03B05DF804FB00BFBE
:1073880093D20300044B00F1100250F8041B43F899
:10739800041B9042F9D17047D2330020094A0A4BA6
:1073A80003CA596018603C3203CADA79D9600421EB
:1073B80061F307129860DA711A7A022161F3871271
:1073C8001A72704760000010D233002000487047DE
:1073D800D2330020064B002203F580715A805A6090
:1073E80003F8082B8B42F9D1024B1A60704700BF93
:1073F800E4330020E43400200C4BF0B51B680C4C3F
:10740800064620227BB1013B14F8330050B104EB4F
:10741800C3056F88B74202D16D688D4202D0013A28
:10742800F0D11046F0BD1F23EEE700BFE434002082
:10743800E4330020084A30B51368084C04EBC30550
:107448006960012104F833100B44202B08BF002386
:107458006880136030BD00BFE4340020E4330020AE
:10746800C0F30C038B42084438BFA0F50050C01A83
:10747800704700000D4B0E4AF0B51E6800218E4281
:1074880012D0156800230AE052F8044C04EBC30735
:1074980014F83340844201D17868F0BD01339D422D
:1074A800F2D101310832EAE70020F6E7E83400209B
:1074B800F034002000B58DB040B99A1C06D00122E6
:1074C80001A88DF80420029301F08EF8034B186888
:1074D80003F074FC0DB05DF804FB00BFF434002029
:1074E800037810B5044613B97846FFF739FFE079F9
:1074F800431C01209840013810BD0000F8B50378FE
:1075080004460F4613B97846FFF72AFF0B4B0C4E7B
:107518001A68A069511C02F0070206EBC20519603F
:10752800A38AA1886B80FFF79BFFE369686003F07B
:1075380001036B7006F83270F8BD00BF38350020C3
:10754800F83400202DE9F0410E468EB015461C4651
:10755800074610B97846FFF703FF16B97846FFF7D4
:10756800FFFE636A627802330593A378A2F10800EC
:10757800002B14BF012102210DF1040842424241AF
:10758800434604F10C0003F060FD63788DF8343055
:10759800237BADF82050022B16FA85F5CDE9068736
:1075A8000B960C950FD1236913B97846FFF7D8FECF
:1075B80023690993102305A8ADF8283003F041FD8D
:1075C8000EB0BDE8F0810023F5E738B5044604F1B4
:1075D8003005C06E07F07DF8284602F094FE10B121
:1075E800284602F05DFE94F84830022B08D104F1D9
:1075F8005005284602F087FE10B1284602F050FEDA
:1076080020467022002114F002FF002084F8480070
:10761800BDE8384001F0D6BF10B590F84830012BCE
:107628008CB0044602D07846FFF79AFE01238DF805
:10763800043001A8636D029300F0D6FF2046FFF7DF
:10764800C4FF0CB010BD0000B2F5C07F2DE9F84FA3
:1076580080468946934602D97846FFF781FE2D4B2E
:10766800002670229A4602FB063595F8481041B963
:10767800584607F02CF8E86638B900252846BDE8D2
:10768800F88F0136042EEED1F7E742462C4608F172
:107698003007134603CBBB42206061601A4604F1F1
:1076A8000804F6D1702404FB06A40027E764A4F8B4
:1076B8004AB0B8F80410D8F81800FFF7D1FEB9F1AD
:1076C800010FA0611BD1144B84F852701B7D84F804
:1076D800513084F8537084F85070D8F828306365B6
:1076E8006FF00103A3620D4BA3632564012001F031
:1076F80069FF702303FB06A686F84890BEE76FF083
:107708000103A362064BA36584F868702566054BE0
:10771800EAE700BF543500203C350020597A0200C2
:107728006D850200517A02001FB500220B468DF8C4
:107738000F20E0B10230086018460DF10F0103F088
:1077480082FC9DF80F3093B10B4B1B685B070ED57D
:107758000A4B1B68032B0ADD094B0A4AD3F8043588
:1077680009490092042040F2A63204F0E9FA9DF893
:107778000F0005B05DF804FB1C2E0020182E002019
:10778800001001405CCC030050CC03002DE9F04709
:1077980099461378D2F818A0F2B0054688461446E0
:1077A80023B191885046FFF75BFE9061A378627819
:1077B800002BA2F1080003AF0CBF0221012104F144
:1077C8000C06424242413B46304603F03EFC62789A
:1077D8008DF83C201FFA88F8A8EB02039BB2CDE98C
:1077E8000875ADF828301D440023ADF83030237BF0
:1077F8000E95022B04BF1022ADF83020A278C4F8F1
:1078080018A012AF0D9704F12405002A55D04FF0A7
:10781800000A237BC4F824A0022B04BF23690B931E
:10782800206AE1782A460BF037FF606AE0B9237BCB
:10783800022B05D13146E0890BF0F2FF0028E8D190
:107848002B4B1B685B0735D52A4B1B68052B31DD95
:10785800294B2A4AD3F8043529490092062040F2D8
:10786800196204F06DFA25E007A9FFF75DFF00280B
:10787800D6D0A18A6378ADF82A1096E80300A8EB61
:107888000308012300228DF828300CAB0B9283E803
:107898000300A37D8DF84030236A0E9307A8636A1E
:1078A8008DF81C200897ADF824800F93CDF84490EC
:1078B80000F09AFE72B0BDE8F087012B626209D130
:1078C8002946E0890BF02CFF07A9606AFFF72CFF17
:1078D8000028CED100232946A08A63620BF020FF3E
:1078E80007A9606AFFF720FF0028C2D1A8E700BFF8
:1078F8001C2E0020182E00200010014093CC0300FD
:1079080050CC0300C37D0A7830B56BB3837822F07E
:107918007F0203F07F031A430A700B78027803F0A2
:107928007F0343EAC2130B700378E3B14378083B43
:107938005A425A414B7803F07F0343EAC2134B7013
:10794800858823F07F03C5F3861423434B7084791D
:10795800C4F3C10242EA85028A70C37903F01F03A7
:1079680043EA4413CB7030BD847822F0400343EAE5
:107978008413DBB20B70C27823F03F0302F03F029E
:1079880013430B70C9E7000038B590F84830012B55
:10799800044602D07846FFF7E3FC02F0CDFC237BD7
:1079A800074A012B05BFD2E90315A37DD16805FB62
:1079B8000311014404F13000BDE8384002F087BCEF
:1079C8003C35002070B50D4690B0044610B9784695
:1079D800FFF7C6FC00212046FFF790FD2C2200216E
:1079E80005A8666D14F013FD102305A88DF8143052
:1079F80006968DF81C5000F0F7FD2046FFF7E5FDD0
:107A08000C4B1B685B0712D50B4B1B68032B0EDD59
:107A18000A4B0B49D3F80435029594F84820019293
:107A2800084A0092042040F2EF1204F089F910B0DD
:107A380070BD00BF1C2E0020182E00200010014031
:107A480050CC0300DDCB030008460021FFF7BABF86
:107A580091F84830012B10B50C4602D07846FFF754
:107A68007FFC94F851305BB1013B84F8513000231E
:107A780084F85030084BBDE81040186803F09EB9F0
:107A8800217B0129204603D1BDE81040FFF79ABFAA
:107A9800BDE81040FFF7C0BDF43400202DE9F04FD9
:107AA800044689B00F4609B100230B6004F10C03AA
:107AB80094F8505001934FF001084FF0000BE27911
:107AC800AA4203D2002009B0BDE8F08FE16C08FAA1
:107AD80005F30B425BD1E37DA571002B0CBF0C268F
:107AE8000826954206FB05FA237808BFB4F84A60D1
:107AF8008DF819B008BFA6EB0A06002B14BF4FF08B
:107B080004094FF0010906EB09030593019B039350
:107B1800A36A049303A894F82C308DF8183003F066
:107B280032FC0028CFD1079B994445B994F85330CB
:107B38002BB9A36984F85380C3F30C03A380E37DB6
:107B48008BB994F8523073B915B17846FFF708FC31
:107B5800B4F84A1062788A1AE16E23460846FFF79D
:107B6800F1FC84F8528007992046FFF7CBFEE16EBE
:107B780032465144484614F021FC03A803F01FFC88
:107B880017B13B6801333B606B1C84F850300135FA
:107B9800EDB294E72DE9F041D47D8AB006460F4650
:107BA80015469846002C77D09478002C51D1062998
:107BB80039D103784278D0F8021039489B0103F490
:107BC800FE5343EA920309BA2246702606FB0204D2
:107BD80094F84870012F10D1B4F814C0EF89BC454F
:107BE8000BD1A7889F4208D1E56C0D43E564E9B93C
:107BF80003212046FFF7E6FE15E00132042AE5D10D
:107C0800284B1B685B070ED5274B1B68012B0ADD29
:107C1800264B274AD3F8043526490092022040F221
:107C2800A75204F08DF80AB0BDE8F0812046FFF7AE
:107C380057FC854203D12046FFF7EEFCF3E700210D
:107C480084F850102046FFF729FF2046FFF79CFED6
:107C5800E9E72046FFF70EFC03460028E3D005F1CC
:107C68000C012A6A089203C9AA8AADF8162006AA46
:107C780082E80300AA7D8DF824202A788DF8142044
:107C880095F82C208DF80840CDE903678DF825205C
:107C9800414602A89847C6E7FFF778FDC3E700BF4B
:107CA800543500201C2E0020182E00200010014002
:107CB800BCCC030050CC0300F0B5C37D1546427818
:107CC800002B2A4414BF4FF480734FF4C0739342BF
:107CD800C7B00E4668D3384C0023E11891F84870B5
:107CE800012F08D1B1F814C0878ABC4503D1CF89C8
:107CF800C1898F425AD07033B3F5E07FEDD10121AD
:107D0800FFF7A2FC0446002852D02A463146C06E2E
:107D180014F054FB002304A920460493FFF7BEFE89
:107D280030F0040506463AD1049B13B12046FFF70C
:107D38002BFE224B1B6813F004033BD0204B1B681F
:107D4800032B1BDDB4F84A001E4B80281E6828BF91
:107D58008020002305AA834213D1002102F81310C2
:107D6800194B1A49D3F804350292194A0192194A53
:107D78000092042040F2D14203F0E2FF284647B0C7
:107D8800F0BDE16EC95C0F0901F00F01F75D02F863
:107D98001370775C02EB430101334F70DBE7204639
:107DA800FFF713FC3546E9E70925E7E70825E5E786
:107DB8000425E3E71D46E1E7543500201C2E00208A
:107DC800182E0020202E00200010014050CC030067
:107DD80000CC0300B7C903002DE9F041044686B082
:107DE800808A0F46164601F095FE01284DD1237B67
:107DF800002B4AD0022B02D12369002B45D094F9DD
:107E08001630002B43DB22784AB1324639462046E9
:107E1800FFF752FF0546284606B0BDE8F081E17D30
:107E280063780029334414BF0B210F218B422AD8D1
:107E38000133039304F10C030193A36A029301A88D
:107E480094F82C308DF810308DF8112003F09BFA3F
:107E580005460028DFD10599204601F10108FFF702
:107E680051FDE37D43B132463946404614F0A6FA47
:107E780001A803F0A4FACEE7234632464146384625
:107E8800FFF760FBF4E70925C5E71025C3E70725D9
:107E9800C1E7000010B54FF4E0720021134814F058
:107EA800B6FA002404F01AFF114B12481C60214650
:107EB800402214F0ACFA104B1049114A9C75C3E9E2
:107EC8000012104910484CF25032C3E902211A61DD
:107ED80040F604029A8202F053FF0C4B18600C4BD8
:107EE8000C481C60BDE8104004F0D8BF5435002091
:107EF80038350020F83400203C3500208096980062
:107F0800F049020020A1070005810200F434002096
:107F1800E8340020BD74020004F07EBEF0B50446CB
:107F28008DB0002842D00569002D3FD0C369002BD1
:107F38003CD08669002E39D05A788DF803201A78FB
:107F48000993037B022B04BF214B9B7D82F0010226
:107F5800002B8DF80220828AC07A14BF08230423DC
:107F68008DF80130C3F10F0110BB8A4220DC082BC9
:107F780001D1072018E08DF8000094E8030003AF52
:107F880087E803002189ADF81410A17A8DF816103E
:107F9800216A0A910023294668468DF81730089609
:107FA8008DF82C30FFF718FF0DB0F0BD0E20FBE761
:107FB800012113448DF800100B330C2193FBF1F3CE
:107FC800013B8DF8073000238DF80630D5E700BF58
:107FD8003C350020F0B503468DB00F4600283ED052
:107FE8004468002C3BD08569002D38D0027C12F003
:107FF800FD0F36D00278110635D48DF80220002204
:10800800099282680B2A94BF017B012101F00100CB
:108018008DF8000000208DF8010031B1D11DC9088C
:1080280001398DF807108DF8060001218DF8171019
:1080380003F1100103C903AE86E80300D989ADF83E
:108048001410197F8DF816105B7F08952146684635
:108058008DF82C300A97FFF7BFFE0DB0F0BD0E204B
:10806800FBE71020F9E70720F7E7000030B5047BAD
:10807800012C8DB04FF000033BD18288CDF80A3037
:10808800C2F3861592008DF805200A0E8DF8062099
:108098000A0C8DF807200A0A8DF80E308DF8082092
:1080A800099306228DF810308DF81C30C38906928A
:1080B800ADF81E30828A90F82C30ADF822208DF869
:1080C8002D3001AA837D0592026A8DF804508DF83F
:1080D80009108DF820400A9243B96FF0010104A8F5
:1080E8008DF82C30FFF776FF0DB030BD024B5B7D6D
:1080F800F3E71846F8E700BF3C3500202DE9F341C7
:108108001F4E00243746A046351995F84830012BF4
:108118000CD102A9284641F8048DFFF7BFFC0428BA
:1081280001D0019B13B12846FFF72EFC7034B4F53B
:10813800E07FE9D100257C1994F84830022B17D14B
:1081480094F86830022B13D1E16C2046FFF78EFFBC
:1081580070B984F868002046E66CFFF7C1F98642DA
:1081680006D120460121FFF7C9F92046FFF72DFA6D
:108178007035B5F5E07FDED1012002B0BDE8F081B1
:10818800543500202DE9F0470D469CB0144698461A
:108198000646002800F0CD81002A00F0CA810DF1C2
:1081A8000C09002303934946C9F8043050880BF0A2
:1081B80037FB20B9002738461CB0BDE8F087D4E962
:1081C8000312208904F056FD82460028F2D1D4E932
:1081D8000312208904F028FD0746A8B12C22514635
:1081E80010A82589246914F012F90F238DF840305E
:1081F8009DF84630ADF8445064F3000310A88DF89C
:10820800463000F0F1F9D6E70DF14C0A524604F178
:10821800180C20686168134603C3083464451A467D
:10822800F7D133785AB2D10F8DF840109DF8571016
:1082380000293AD003F07F038DF8423000239A4298
:108248008DF8413043DB0023199398F80030052B53
:1082580002D97846FFF784F898F80030B74A99E8C9
:108268000300D35C8DF86C308AE8030002F018FD37
:108278009DF84030002B00F05581BDF85420B049DE
:108288000023702000FB031494F848C0BCF1020FCF
:1082980037D1B4F814C0944533D1BDF84420A3882D
:1082A8009A425DD202F03CFD85E7C3F38011002AB3
:1082B80003F03F038DF842108DF843301DDA96F92C
:1082C8000130002BACBF042308238DF841307278AD
:1082D800B378920102F4FE5242EA9302ADF84420C8
:1082E800DB00F27803F0180343EA521302F01F028E
:1082F8008DF846308DF84720A5E704238DF84130E6
:10830800A1E70133042BBDD100249DF8403013B9F7
:108318007846FFF725F8179ABDF844101698BDF867
:10832800549002F0010AFFF79BF8DFF830C20023EF
:108338000CEBC3014A68904218D1B1F802E0CE456F
:1083480014D14978514511D11CF83330002BA9D0EC
:1083580010A8FFF7C5F8014610A8FFF787FEA1E7A8
:10836800D3D905212046FFF72DFBCDE70133082B94
:10837800DED1002C3FD19DF857209DF84730002AC8
:108388000CBF0C22082203FB02220CBF4FF4C0735F
:108398004FF480739A4215D96A4B1B68590781D5E7
:1083A800694B1B68002B7FF77DAF684B6849D3F892
:1083B80004350192674A0092012040F2363203F0F8
:1083C800BFFC6FE7022110A8FFF73EF9044690B9F9
:1083D800014610A8FFF74AFE2C22214605A814F0F2
:1083E80016F810238DF8143005A802238DF81C30D8
:1083F80000F0FAF856E7534B1B685B0711D5524B50
:108408001B68032B0DDD514B9DF84620D3F804352E
:108418000192514A00924E4940F25132042003F031
:108428008FFC94F84830022B02D07846FEF798FF6C
:10843800DFF82C91D9F800A001F07EFF0AEB0001CB
:1084480004F1300001F043FF237B012B1AD194F88B
:108458006830BBB994F84830022B02D07846FEF752
:108468007FFFD9E9013299F8151002FB013901F0B3
:1084780063FF00EB090104F1500001F028FF01231C
:1084880084F868309DF84630E16C0120984001423C
:108498007FF408AF0143E079E1649842A5F1040252
:1084A8009DF8571033D1002914BF08210C2103FB74
:1084B8000121E56EA4F84A100CBF0C20082000FB2F
:1084C8000350311D13F07AFF2046E56CFFF708F8DA
:1084D80085427FF4E7AE022384F86830E16C2046D9
:1084E800FFF7C4FD434605462246B4F84A10E06E3D
:1084F800FFF750FB002D7FF4D5AE204684F8685076
:108508000121FEF7FBFF2046FFF75FF8CAE691B9A5
:108518000C2A02D1E56E1046D1E704212046FFF768
:1085280051FABFE6434610AA691E701CFFF732FBDA
:10853800B8E60E273FE6082AEBE700BFD7CB0300D3
:10854800543500201C2E0020182E00200010014059
:1085580050CC03006FCC030083CC0300F834002018
:108568003C35002091F84830022B10B50C4602D05B
:108578007846FEF7F5FE022384F86830E16C204661
:10858800FFF774FD08B984F8680010BD2DE9F041C3
:1085980088460746E8B1124E3468C4B925464545B1
:1085A80007D1104BC3E90075012333602046BDE8AD
:1085B800F08107EBC5035B685BB117F8350003066C
:1085C80009D450B1FEF756FF38B90135E7E704245E
:1085D800ECE70E24EAE70B24E8E70F24E6E700BF00
:1085E800E8340020EC340020F8B5074610B9784686
:1085F800FEF7B6FE0F4E346894B10F4D01232B7071
:1086080023791BB954F8043C384698472468002C51
:10861800F6D12B78022B03D13168064C09B92970A1
:10862800F8BD0B790E6813B1204603F00FFB3146F5
:10863800F4E700BF183700201437002010B50446AF
:1086480010B97846FEF78CFE00232372211D0248DC
:10865800BDE8104003F0D9BA1837002010B5044619
:1086680010B97846FEF77CFE074A1378013B012BC8
:1086780004D8022313700123237210BD211D03485F
:10868800BDE8104003F0E2BA143700201837002084
:108698000B888268D25A073222F0030213440288F8
:1086A8009BB2043A934288BF00230B80704713B5EE
:1086B8008368CB1A02A921F8023DFFF7E9FFBDF84C
:1086C80006308068184402B010BD70B506461546DD
:1086D8000C4611BB7846FEF743FEFEB17846FEF71E
:1086E8003FFE6B1E2344B3F1005F34D94FF0805234
:1086F800D2F80C2102F50022B3EB822F2ED2042DE2
:1087080002D87846FEF72CFE35800023043D73809E
:10871800B380B4602580A37070BD10B97846FEF7A9
:108728001FFEB4F1005F12D94FF08053D3F80C311B
:1087380003F50023B4EB832FD3D34FF08053D3F842
:108748000C3103F50053B4EB832FC7D2C9E7B4F556
:10875800000FF2D8C2E7B3F5000F08D94FF08052E6
:10876800D2F80C2102F50052B3EB822FC7D378461A
:10877800FEF7F6FDC3E738B5044610B97846FEF7AC
:10878800EFFD6288A36813449B78012B02D17846D9
:10879800FEF7E6FDEFF3108572B6A268A1881144D2
:1087A8008B78032B0AD12046FFF781FFA368C31AF1
:1087B80063800023837005B962B638BD00239370C7
:1087C8006380A380F7E7F8B50E461546044610B94E
:1087D8007846FEF7C5FD16B97846FEF7C1FD6288F2
:1087E800A36813449B78012B02D17846FEF7B8FDA5
:1087F800002D37D02388043B9BB29D4232D8EFF33B
:10880800108772B66188A388EA1D22F00302994294
:1088180092B204D25B1A9A4210DD042016E018D9ED
:108828002088401A904209D29A42F6D8032881BF7C
:10883800A3685B1804229A70002363806288A16889
:108848008B188D5201229A700020336007B962B6E6
:10885800F8BDA26813449B78002BDED19370638027
:10886800A380EBE70920F3E7F8B50D461646044662
:1088780010B97846FEF774FD15B97846FEF770FD15
:10888800AB78012B02D07846FEF76AFD2B88B342FD
:1088980002D27846FEF764FD16B97846FEF760FD09
:1088A800EFF3108772B60223AB70E1182E802046D2
:1088B800FFF7EEFE6288A38893421FBFA3689B1848
:1088C80000229A7007B962B6F8BD70B50D46044625
:1088D80010B97846FEF744FD15B97846FEF740FD15
:1088E800EFF3108672B6A288A36813449A78042A14
:1088F80006D1211D2046FFF7CBFEA288A3681344AA
:108908009A78022A03D0032A08D0052003E003221C
:108918009A702B60002006B962B670BD7846FEF7E3
:108928001FFDF7E738B5044610B97846FEF718FD7D
:10893800EFF3108572B6A088A16801448B78042BE8
:1089480003D12046FFF7B3FE01468878831E5842BC
:10895800584105B962B638BD38B5044610B97846ED
:10896800FEF7FEFCEFF3108572B6A088A1680144FB
:108978008878C31E012B05D9831E5842584105B972
:1089880062B638BD2046FFF792FE0146F0E7F8B51B
:108998000D46044610B97846FEF7E2FC15B978464C
:1089A800FEF7DEFCEFF3108672B6AB78012B19D018
:1089B800032B22D1A288A36813449D4202D0784693
:1089C800FEF7CEFC0027AF70211D2046FFF760FEA2
:1089D800A288A36813449B78042B00D1A78006B90A
:1089E80062B6F8BD6288A36813449D4202D07846F7
:1089F800FEF7B6FC0023AB70F1E77846FEF7B0FC53
:108A0800EDE710B5EFF3108472B6828881681144DF
:108A18008B78042B02D1FFF74AFE01468878B0FA1A
:108A280080F0400904B962B610BD037942799B1AF7
:108A380003F57F2303F6FF7300EB03307047000054
:108A480010B5054884681C22002113F0E0FC20467C
:108A5800BDE8104003F00CBF1C37002070B5194C5E
:108A6800E36813B97846FEF77BFC237E13B178469A
:108A7800FEF776FC6368092B02D97846FEF770FC8E
:108A8800114D0026636855F823309847022811D005
:108A980003280DD0012810D163680133092B6360C6
:108AA80002D97846FEF75CFC237E002BEAD004E06E
:108AB8006660F9E7237E0BB1207070BDBDE8704099
:108AC800FFF7BEBF1C370020ECCC0300038810B5AD
:108AD800044613B97846FEF743FC2088074B04EB9D
:108AE800800030EA030203D06288B2F5FE4F04D159
:108AF8001C4004F580542078204410BD00F0FFFF8E
:108B080070B504460E4647F6FE65FFF7DFFFB04234
:108B180007D2844205D24388013B9BB2AB42F4D8CA
:108B280070BD0020FCE700000A78094B032A04BF47
:108B3800002119761978012903D11B7E3BB9FFF76B
:108B48008DBF022903D1032A01D1FFF779BF7047EE
:108B58001C37002010B50C4CE3681878002203F588
:108B68008051184404F05EF950B9E1680846FFF7EF
:108B78005CFF814206D001F58051E160032010BD01
:108B88000120FCE70220FAE71C3700201FB50A4B3A
:108B980002221B688DF800200193084A4FF4805385
:108BA80069460120029300F0F1FEB0FA80F0400916
:108BB80005B05DF804FB00BF3C37002038370020C3
:108BC8001FB50123CDE902210190054A8DF8003037
:108BD8006946184600F0DAFE05B05DF804FB00BFF0
:108BE80038370020264BD86802794179013A9142FA
:108BF8002DE9F0471E4603D101205876BDE8F087DD
:108C080000F580531F491C781C440B6813F8045F57
:108C18001D44FFF70AFF6388013B9BB247F6FE62DB
:108C2800934200F58057884604D920463946FFF715
:108C380067FF0446DFF850A04FF001092CB9B4FAD9
:108C480084F4640974760120D8E7D8F800106288A3
:108C5800284601F5805104F0E5F805460028EED0D5
:108C680004225146204686F81890FFF7A9FF28B934
:108C780020463946FFF744FF0446DFE70020BDE7FA
:108C88001C3700203C3700201CCF030038B5104C9F
:108C9800E36818784FF6FF7203F58051184404F022
:108CA800C1F888B1E36819780B4498420CD0657E06
:108CB8000849094B0422002D08BF1946FFF780FF19
:108CC80020B90120207638BD0120FCE70020FAE712
:108CD8001C37002024CF030020CF030070B50C4DB3
:108CE8000C4EE96830680C7804302246FFF768FFBC
:108CF80058B9336804F0FC0404341C44EB686C6114
:108D08001A7813442B61012070BD0020FCE700BFD6
:108D18001C3700203C37002008B5054B054918686A
:108D28000422FFF74DFFB0FA80F0400908BD00BFEC
:108D38003C37002028370020074B10B51968074C2E
:108D480040F6FC720431E068FFF73AFF10B90120E1
:108D5800207610BD0020FCE73C3700201C3700209F
:108D680010B50C4CE1680846FFF75FFE81420AD156
:108D7800094B0A4918680422FFF722FF40B901236A
:108D88002376022010BD01F58051E1600320F9E748
:108D98000020F7E71C3700203C3700204037002030
:108DA8002DE9F74F324C236913B97846FEF7D8FA04
:108DB800636913B97846FEF7D3FADFF8B89047F637
:108DC800FE6A6369D4E9030603EA0908A8EB030805
:108DD800FFF72BFE7388013B9BB2534508F580587B
:108DE80000F5805B06D930465946FFF789FE0646EE
:108DF800002835D0354600275D4519D22A8807EB6B
:108E08008202904509D986EA050313EA090F04D1BD
:108E18006B88013B9BB2534502D957B9012318E02F
:108E280028460192FFF752FE019A05461746E3E7E6
:108E3800E7B13A4631466069FFF7C2FE90B9636907
:108E48001F44676115B97846FEF78AFA2561002341
:108E580035B1698847F6FF72914201D0002BB0D036
:108E6800012000E0002003B0BDE8F08F0123EFE708
:108E78001C37002000F0FFFF1FB50A4B0222DB68F9
:108E88008DF800200193084A4FF480536946012069
:108E9800029300F07BFDB0FA80F0400905B05DF860
:108EA80004FB00BF1C370020383700204FF0102388
:108EB80010B55A69013225D05A691AB35B69A3F50E
:108EC8008053A3F58053174A196813604B1E033368
:108ED80025D8C1F30B0313BB134A1448D1600121F1
:108EE8001170134913765376936051F823408442E6
:108EF8000ED1536001200F4900F038FDFFF7AEFD99
:108F0800012010BD4FF08052516913694B43D8E7D7
:108F180001330A2BE9D17846FEF722FAEAE7002066
:108F2800EFE700BF3C3700201C370020818E02008D
:108F3800ECCC0300318B020010B5044610B978461A
:108F4800FEF70EFA094B187860B1E068D9684379E2
:108F5800A0EB0333994206D3FFF767FD81428CBF2C
:108F68000020012010BD0020FCE700BF1C370020B6
:108F7800024B1878003018BF012070471C370020BA
:108F880038B50E4C2378054613B17846FEF7E8F954
:108F98002B78032B02D07846FEF7E2F9EB68E36002
:108FA800012000230649A56063602376207063765C
:108FB80000F0DCFCBDE83840FFF750BD1C3700204E
:108FC800318B0200014B1868704700BF3C37002006
:108FD80010B5044610B97846FEF7C2F963681BB1AC
:108FE80023680BB1A36813B97846FEF7B9F9A368EB
:108FF8005A1E1A4202D07846FEF7B2F90023C4E995
:10900800033310BD70B50E460446F0B18368F3B162
:10901800EFF3108572B6D0E90331994203D105B94F
:1090280062B605250FE04EB18368013B0B40D0E9DD
:109038000012304602FB031113F0C0F92369013313
:10904800236135B962B6284670BD0E25FBE70925B0
:10905800F9E70025F7E70000024AD2F80034002BB0
:10906800FBD0704700E00140C0F30B0310B5E3B933
:10907800E9B1104C0223C4F80435FFF7EDFF01F6FF
:10908800FF7121F47F6121F00F010144884205D16D
:109098000020C4F80405FFF7DFFF10BDC4F8080579
:1090A800FFF7DAFF00F58050F0E71020F5E7092018
:1090B800F3E700BF00E0014070B540EA010414F096
:1090C80003041BD1E2B195071AD10E4E0123C6F84D
:1090D80004359508FFF7C0FFAC4205D10020C6F85B
:1090E8000405FFF7B9FF70BD51F824305A1C03D0AE
:1090F80040F82430FFF7B0FF0134EDE71020F2E725
:109108000920F0E700E001404388012B05D0022B3D
:1091180001D1043008600120704704304860FAE744
:1091280008B508220221094803F0F9F920B90848CE
:10913800BDE8084003F074BB064A9168127B0272CE
:109148004160BDE8084003F019BA00BF4C37002061
:10915800DC2D00209837002010B5044610B9784659
:10916800FEF7FEF82346BDE81040184700B50A4B45
:109178001A7B9B688DB0012A08BF03F1FF33039067
:109188000CA80493022300F82C3D8DF80820FFF763
:109198002BFA0DB05DF804FB9837002038B50E4D5A
:1091A8002B78C3B90D4B5C6804F50054B4F1807F8B
:1091B80011D8042201210A4803F0B1F920B909485D
:1091C800BDE8384003F02CBB012344602B70BDE898
:1091D800384003F0D3B938BDAC37002098370020A9
:1091E8004C370020CC2D002010B501210C4803F08D
:1091F800DBF980B902210A4803F0D6F9044650B9D0
:1092080001461422074813F002F9074B1C70BDE809
:109218001040FFF7C3BF054803F002FBF7E700BFA4
:109228004C3700209837002070370020FC2D002094
:1092380030B50D468DB07AB94B88012B0AD1124C46
:10924800227812B97846FEF78BF8104B6A685A6094
:10925800002323700DB030BD032A02D07846FEF7F4
:109268007FF82C22002101A813F0D1F811238DF8E2
:109278000430074B0395DA681B69059201A8069329
:10928800FFF7B2F9E6E700BFAC37002098370020B7
:109298004C37002013B501F003FD00216B46124A3C
:1092A8001248134CCDE9001103F08CF8009B0BB168
:1092B800019A6AB900232360A3602373FFF730FF84
:1092C80023686360FFF76AFF01F02AFD02B010BD52
:1092D8001968A16019792173934202D909B92160EB
:1092E800EEE713682360EBE7119102004C3700208A
:1092F8009837002008B503F0E1FAA0F5805008BDC2
:109308007FB500211822684613F081F8FFF7F2FFB5
:109318000123009001936946054B0648039303F027
:109328006BF910B1044803F07BFA07B05DF804FB51
:10933800399202004C370020EC2D002008B5142289
:1093480000210A4813F063F800F0F6FF084B094AB9
:1093580009499A6000225860C3E903125A61074B11
:109368001A70BDE80840FFF7CBBF00BF9837002050
:10937800743700207594020000879303AD370020EE
:1093880010B5074C23784BB90648074B036000F02B
:109398005FFD064800F062FF0123237010BD00BF87
:1093A800483700208C370020D994020074370020F9
:1093B80010B501F075FC104A117B1346C9B9917BB1
:1093C800B9B9118A41F28262914202D80B4A1278E5
:1093D8007AB101221A739A68002401321C829A60B9
:1093E800FFF79EFE2046FFF7C1FE01F099FC2046DC
:1093F80010BD0824F9E700BF98370020AD370020DA
:1094080010B501F04DFC174A547B1346BCB1917B53
:1094180021BB118A41F28262914202D8124A127823
:10942800F2B11A7B002058732AB1012A0BD0784672
:10943800FDF796FF03E0FFF7BBFF0028F7D101F027
:109448006FFC204610BDC3E9000018731882FFF7AF
:109458008DFEFFF765FEFFF7A1FEF0E70024EEE7BB
:109468001446ECE798370020AD37002010B5164CAD
:10947800237B2BB1012B12D07846FDF771FF18E042
:10948800228A41F282639A4202D8104B1B7883B138
:10949800FFF7B6FF638A0BB1013B638210BD228AD6
:1094A80041F282618A4208D8084B1B780BB1FFF75A
:1094B800A7FF238A01332382ECE742F2B0118A42E4
:1094C800F5D96373E4E700BF98370020AD37002073
:1094D8000378042B10B50ED143681B785BB11D4B84
:1094E8004269197B047E71BB598A01BB012C9968BA
:1094F80002D08A4203D810BD4C1CA24219D92A3185
:109508008A42F8D8997B0029F5D184689A60124A72
:109518001A61C3E9001159731973FFF701FEFFF7C8
:109528003DFE04F11000BDE81040FFF71FBE012CFE
:10953800E1D1996801318A42DDD10122BDE81040AC
:109548005A73FFF75DBF0129D5D1012CD3D0996893
:10955800F1E700BF983700200000062D38B5164CFB
:10956800D4E900239A4205461FD2207B134B1449A5
:10957800012808BF0B469A4207D263682268403B1D
:109588009A4208D3FFF70AFE05E001236373FFF749
:1095980037FF0028F1D0EFF3108072B623685A1C09
:1095A80022602B6028B962B638BDFFF7F7FD0F209F
:1095B800FAE70020F8E700BF98370020FFFF7F0098
:1095C80000E0FF000C4A10B51368144628B10120CA
:1095D8000A4903448873136010BD13B97846FDF730
:1095E800BFFE2368013B2360002BF5D1034ABDE889
:1095F80010409373FFF704BF4437002098370020CA
:1096080000B58DB00323ADF808000CA88DF8102024
:1096180000F82C3D0391FEF7E7FF0DB05DF804FB61
:10962800014B9868704700BF98370020034B986833
:109638001B7B012B08BF00F1FF30704798370020D3
:10964800044B9B685840C20748BF03F1FF331846D4
:10965800704700BF98370020014B187B704700BF48
:109668009837002038B50A4B1C787CB9094D01227F
:109678001A702973A860FFF753FD2046FFF776FD9F
:10968800C5E90044FFF78AFD204638BD0820FCE7FD
:1096980070370020983700202DE9F8431D4CDFF87B
:1096A800789000260221204602F046F95FFA86F8F3
:1096B80005460027ADB967B12946204602F0A3F94F
:1096C800082806D154F8043C1BB12A4649464046AE
:1096D80098470136032E04F1BC04E3D10120BDE80C
:1096E800F88354F8043C34F80C2C13B1294640464E
:1096F800984734F80C3C02210133204624F80C3CEE
:1097080002F036F90221204602F016F90137054623
:10971800D0E700BFC437002014CD030038B50121BD
:1097280004460C3002F008F9054620B3164BC4F87D
:109738009C300023C4F8A03003786268012B07D05E
:10974800022B1AD07846FDF70BFE4FF4FA7306E0A9
:1097580081688B1A990829234B4303F5FA730B4A3E
:10976800934294BFC4F8A830C4F8A8200123C4F8D1
:10977800AC4084F8B830284638BD83689B1A1A0B69
:10978800034B5343E9E700BFBD9702006085010022
:10979800084C010010B50446FFF7C0FF48B104F1BA
:1097A8009C000AF08FFD20B17846BDE81040FDF717
:1097B800D7BD10BD4B4B1B782DE9F74F80460D46A2
:1097C8003BB10AF0B5FD002385F8B83003B0BDE819
:1097D800F08F01F10C09D1F8A8704846012102F078
:1097E800ABF8064610B97846FDF7BAFDDFF8FCA0DD
:1097F800A7F5FA7700244FF0290B3378012BA7EB54
:10980800040406D0022B3BD07846FDF7A9FD0023BF
:109818001FE06B68B268B4FBFBF4D21AA400944250
:1098280028BF144624B901937846FDF799FD019B9A
:10983800F168706823F00303224619441844FFF7BF
:109848003BFC10B17846FDF78BFD6B681C446C60DF
:10985800B3686A689A422AD10AF06AFD484601212B
:1098680002F086F800236B6085F8B8301E4B186844
:1098780001F0A4FA284603B0BDE8F04FFFF78ABF0D
:109888006B68B268B4FBFAF4D21A2403944228BF76
:10989800144624B901937846FDF762FD019B706870
:1098A80023F0030321461844FFF7DEFBC9E701F064
:1098B800E9F83378B0EB080448BFA8EB0004012BA3
:1098C8000DD0022B06D153462344BB4295D90AF04A
:1098D8002FFDCFE77846FDF743FD0023F4E7292362
:1098E800F2E700BFB4370020B0370020084C010071
:1098F80070B51B481B4C01F043FA1B4B186004F170
:109908001C0341F203060825636104F10C0004F10D
:1099180018032361A681A57302F051F804F1D80356
:10992800C4F8D03004F1C80004F1D403C4F8CC3032
:10993800A4F8C86084F8CA5002F041F804F5CA7364
:10994800C4F88C3104F5C873A4F8846184F886518E
:10995800C4F8883104F5C270BDE8704002F02FB831
:10996800A1960200B8370020B0370020022838B589
:1099780004460D4602D97846FDF7F2FC024BBC229C
:1099880002FB0434A56038BDB837002002282DE951
:10999800F84F05460C46924602D97846FDF7E0FC9A
:1099A80014B97846FDF7DCFC2378012B12D16368E3
:1099B800990702D07846FDF7D3FCE3689A0702D0EE
:1099C8007846FDF7CDFCA3689B0711D07846FDF7D4
:1099D800C7FC0DE0022B0DD16368C3F30B0313B171
:1099E8007846FDF7BDFCA368C3F30B03002BEDD14C
:1099F800A36813B97846FDF7B3FCEFF3108772B686
:109A0800BC266E43DFF8988006F10C0BC344002196
:109A1800584601F091FF8146002836D0002158466B
:109A280001F0A6FF04F1100354F8042B49F8042BA5
:109A38009C42F9D1BAF1000F05D0BC2303FB058382
:109A48005B88AAF80030BC2303FB05856B8895F872
:109A5800B84001336B80F4B9104B1D78B5B908EBE9
:109A68000600FFF75BFE77B962B63C4640B106F1E7
:109A78009C0040440AF026FC10B17846FDF770FCC3
:109A88002046BDE8F88F2C46F0E70424002FF7D1D4
:109A980027460020E8E70024F8E700BFB437002095
:109AA800B837002070B5EFF3108672B6144C2368EF
:109AB80018BB13B97846FDF753FC2368013B2360B4
:109AC80093B9104D95F8B83013B92846FFF762FEE0
:109AD80095F8743113B90C48FFF75CFE95F83032ED
:109AE80013B90A48FFF756FE2368094A003318BF1E
:109AF8000123137006B962B670BD01332360F3E722
:109B0800EC390020B83700207438002030390020A4
:109B1800B437002010B1800B014B185C704700BFB0
:109B280024CD030012DF7047137813B563B1042BFB
:109B38000CBF0724002410F8013C292B43D005D87A
:109B4800162B4BD002B010BD547DF4E72A2B1BD046
:109B58002B2BF7D1022CF5D110F8021C0139C9B210
:109B680003F0EAF80028EDD0234B1B685B06E9D523
:109B7800224B1B68012BE5DD214B224AD3F8043523
:109B880000920190A42219E0022C01D0072CD9D10F
:109B980010F8021C013901F035FC0028D2D0164B10
:109BA8001B685A06CED5154B1B68012BCADD144B12
:109BB800154AD3F8043500920190912213490220E6
:109BC80002F0BEF8BEE7022CBCD110F8021C013925
:109BD800C9B202B0BDE810400EF0E0BD01884FF6F2
:109BE800E4639942AED110F8021C0230033902B086
:109BF800BDE81040FDF712BB1C2E0020182E0020D7
:109C080000100140C3CD03009ACD03008FCD03009F
:109C180070B58AB00BF01CF80446002834D0002335
:109C280006468DF810300FCE05AD0FC533682B6092
:109C3800627D052A0CD9207D00F00F03072B07D081
:109C480004AB063A04F11D0100F00F0009F0E2FE32
:109C5800114B1A68AAB104AB0393237DC3F3030322
:109C68008DF80430637D062B89BF063B00238DF8F1
:109C7800053004F11D0398BF8DF80530029301A843
:109C8800904720460AF0CEFF0AF0FAFF80F0010064
:109C9800C0B20AB070BD00BFF439002000B50A4B4D
:109CA8001A78032A8DB00CD104221A7000212C22B4
:109CB80001A812F0ACFB1B2301A88DF80430FEF7B5
:109CC80093FC0DB05DF804FBF0390020F7B52E4F7A
:109CD8003A780546002A4DD100284DD0067A0F2E35
:109CE80001D0062E4AD104F0F1FCE86800283ED0E5
:109CF800FDF748FB0DF10700FFF714FF044698BB7A
:109D08009DF80730012B3BD1FDF764FB00F092FA78
:109D1800304600F077FFE87800F00AF900F0AEFD71
:109D28000AF06EFA19480BF043F809F0E7FFFFF75D
:109D3800DFFD03F001FF00F049FC04F087FC284632
:109D480001F008FB2846FEF7A5F803F04DFBFDF7E8
:109D580065FA08B1062815D10D4809F02DFE0D4BFE
:109D680000221A6001233B70204603B0F0BDFDF7C6
:109D780015FBBFE70824F7E70E24F5E70724F3E708
:109D88000224F1E70446EFE7F0390020199C0200AD
:109D98000C2E0020F439002037B51B4D2A78012AF3
:109DA80005D002D3033A012A26D908241FE00AF075
:109DB8001BFF01F0E1FAFEF7AFF8FDF72FFA0446B2
:109DC800C0B1062816D0114B1B685B040FD5104B89
:109DD8001B68012B0BDD0F4B0F4AD3F804350F49D5
:109DE80001900092022040F2971201F0A9FF20464C
:109DF80003B030BD00F032FF0AF056FA04460028DE
:109E0800F5D102232B70F2E7F03900201C2E002038
:109E1800182E00200010014028CD03008FCD03002C
:109E280008B5084B1A78022A0AD1032206481A7084
:109E38000AF008FA18B17846FDF792FA002008BD32
:109E48000820FCE7F0390020A59C0200FEF766B860
:109E5800FEF7F4BBFEF702BC08B500F0DFFC0020FB
:109E680008BD05F039BD0000044B1A680132B2F193
:109E7800704F08BF01221A6018687047F83900202F
:109E880010B5044610B97846FDF76AFA0023C4E90C
:109E9800003310BD38B50D46044610B97846FDF7B5
:109EA8005FFA15B97846FDF75BFA00236B60EFF3AC
:109EB800108372B6226822B92560656003B962B65C
:109EC80038BD62685560F8E710B5044610B97846A1
:109ED800FDF746FAEFF3108272B6206808B14368BE
:109EE8002360236803B9636002B962B610BD10B578
:109EF800044610B97846FDF733FA206810BD35DFFF
:109F08007047000008B54FF0FF30FFF7F8FFBFF3C8
:109F18004F8F0549054BCA6802F4E0621343CB60D2
:109F2800BFF34F8F00BFFDE700ED00E00400FA0526
:109F380007289ABF024B33F81000FA20704700BF79
:109F4800EECD0300024B5868103840B2704700BF8E
:109F580000ED00E0084A202390FBF3F352F8233089
:109F6800424202F01F0200F01F0058BF504223FA7D
:109F780000F000F00100704700E100E046DF7047A4
:109F880030B501F110031032103013F8014D12F8FA
:109F9800015D8B4284EA050400F8014DF5D130BD1E
:109FA8002DE9F04F91B002F10F0504AE98468A46AC
:109FB8002D11034600F11004B14618685968374658
:109FC80003C70833A3423E46F7D102F00F04002D21
:109FD80058D0002C56D10127BB461022002108A8D2
:109FE80012F015FA4846FFF7C9FF01220DF13F01AB
:109FF80010AB13F9100D1E4693F800C04FEA4C0C35
:10A008005FFA8CFC83F800C013F801EF4CEADE1C01
:10A01800994203F801CCEFD19DF83F305B00DBB2E9
:10A028000028B8BF83F087038DF83F30531C9B4549
:10A038004FF00202DCD2013D0AEB051137B30CAA3E
:10A048006846FFF79DFF102200210CA812F0DFF9E7
:10A058000024AC422CDB3246694608A8FFF790FF83
:10A068004846FFF78BFF10AA334603CB9342C8F844
:10A078000000C8F804101E4608F10808F4D111B011
:10A08800BDE8F08F00274FF0020BA6E7224668468E
:10A0980012F094F910AB2344802203F8402C0134C9
:10A0A800102C02D10CAA6946CAE70DF80470F6E72D
:10A0B8000AEB0412314608A8FFF762FF4846FFF78B
:10A0C8005DFF0134C5E7000038B5124B1A68044635
:10A0D8002AB11A6845685268AA1A002A0DDA1A685D
:10A0E80062611C609A88013292B29A8012B97846ED
:10A0F800FDF736F90123237038BD19684A691AB18A
:10A108005068401B002802DB62614C61EAE7114697
:10A11800F4E700BF003A0020124B1A68824210B5DB
:10A128001A4604460BD142691A609A8892B2511EA7
:10A1380089B299808AB97846FDF712F90DE01B6853
:10A148005BB15969A1420BD16169596193889BB28E
:10A15800591E89B29180002BEDD00023237010BDC9
:10A168000B46EDE7003A0020014B186800F026BEC8
:10A17800FC390020044B1A6822B11B68034958684F
:10A1880000F064B900F0B8B9003A002071A10200EB
:10A198002DE9F04100F0D0F8254E054637464FF03E
:10A1A8000008336823B133685B685B1B642B06D4F3
:10A1B80000F0C2F8FFF7DEFF0120BDE8F081346847
:10A1C8002378012B02D07846FDF7CAF863693B6013
:10A1D800BB88C4F814809BB25A1E92B2BA8013B9D5
:10A1E8007846FDF7BDF8A36813B97846FDF7B8F8C7
:10A1F8000223284623702169A368984700F09CF839
:10A208002378022B0546CCD1E2680AB92270C8E748
:10A2180063686FF06301891A1344091AD018C142A0
:10A2280004D463602046FFF74FFFBAE70346F5E71B
:10A23800003A002008B5064B064800221A605A600A
:10A2480000F09EFD044B1860BDE8084000F066B8B9
:10A25800003A002099A10200FC39002010B50446FC
:10A2680000F086FE10B97846FDF77AF814B97846FA
:10A27800FDF776F8A36813B97846FDF771F82378E7
:10A28800012B02D17846FDF76BF800236361204665
:10A29800FFF71AFF00F050F8BDE81040FFF76ABF5B
:10A2A80010B5044600F064FE10B97846FDF758F87A
:10A2B80014B97846FDF754F82046FFF72DFF002320
:10A2C800636100F039F8BDE81040FFF753BF38B5B7
:10A2D80004460D4600F04CFE10B97846FDF740F8EC
:10A2E80014B97846FDF73CF82046FFF715FF002320
:10A2F800636120466560FFF7E7FE00F01DF8BDE8E2
:10A308003840FFF737BF0378DBB2012B04D0007861
:10A31800831E5842584170471846704708B511F0D7
:10A32800FBFE38B911F038FE20B17846BDE8084088
:10A33800FDF716B808BD000010B5EFF3108072B62F
:10A348000C4A0D4B1968D2F80435D2F80441012C97
:10A3580004BFD2F80435013100B962B6074843EAB0
:10A3680001614FF480420023E0FB0123D00B40EA57
:10A37800434010BD00100140083A002040420F0041
:10A388000A4B10B54FF40032094CC3F84823C3F800
:10A398000823226812B97846FCF7E2FF2468FFF721
:10A3A800CBFF2346BDE81040184700BF001001400E
:10A3B800143A002010B5EFF3108072B61E4B1F49F7
:10A3C8000022C3F804210A6801320A6000B962B6A3
:10A3D8001B4A116809B31168013911601268E2B9A2
:10A3E800184AD3F804051168884217D2EFF3108091
:10A3F80072B6D3F8041514680131A1422ABFD3F804
:10A40800042512680232C3F8442500B962B64FF435
:10A418000032C3F84423C3F8042310BD0A4C226851
:10A4280012B97846FCF79CFF2468FFF785FF23469E
:10A43800BDE81040184700BF00100140083A00204E
:10A448000C3A0020103A0020143A002037B50023B7
:10A45800044601930D4611B97846FCF781FF204B5D
:10A468001D60FFF769FF031B002BB8BF241A1D48A6
:10A478001D4AA8BF00244FF4004500210023E5FB36
:10A48800040111F04FFEEFF31083019372B6174ADF
:10A49800174CD2F804350228C3F1FF1101F57F41AA
:10A4A80038BF02208142134910D30344C2F844350F
:10A4B8004FF40033C2F84433C2F804330023236056
:10A4C8000B60019B03B962B603B030BD03F17F4353
:10A4D800013303441A0E0132226023F07F43EFE771
:10A4E800143A002020A1070040420F00001001404C
:10A4F8000C3A0020103A0020074B4FF40032C3F802
:10A508004823C3F80823054A00231360044A13604C
:10A51800044A1360704700BF001001400C3A002045
:10A52800103A0020143A002030DF704731DF7047BE
:10A5380010B5D0E900238468C168A2EB731283EADE
:10A54800F43303600C441344114444608160C360D5
:10A55800184610BD37B50C46054610B97846FCF7C5
:10A56800FFFE00239C4201D803B030BD0DF1070067
:10A57800FFF7DAFF9DF807100029F7D0E21A914299
:10A5880088BF8DF80720E8189DF80710FFF7CEFF61
:10A598009DF807201344E5E737B5044602A80023D1
:10A5A80040F8043D0421FFF7D5FF074B2360019BCA
:10A5B800E360C4E9013314252046FFF7B9FF013DE4
:10A5C800FAD103B030BD00BFED5EEAF1704748DF55
:10A5D800704749DF70474ADF70470000064A032387
:10A5E80013741168054B536140F6D862914288BFD5
:10A5F80043F2B0629A607047443A0020643A0020FF
:10A60800054B1B68A0F1780228335843034BB0FB75
:10A61800F3F0101A704700BF603A002040420F0064
:10A6280038B50E4A0E4C01236371136800250133B7
:10A638001360257400F082FA09F0E8FE2068FFF73D
:10A64800DFFF084A0146284600F0EAF920B17846BB
:10A65800BDE83840FCF784BE38BD00BF783A00201A
:10A66800443A0020E5A502001F4B10B45A6928B1EE
:10A678001968DC6811440134DC60196099680124A8
:10A688000131E24001291C7499605A611C680ED09E
:10A6980002291AD05B69154A1C44944203D840F633
:10A6A800D76293421CD85DF8044BFFF7B9BFB2F5E7
:10A6B800FA7F03D130B900225A61EBE740F6D8613E
:10A6C8008A42E7D840F6D862F6E7DA68022A02D169
:10A6D800064A121BF0E7012ADCD10028EBD0D9E7A3
:10A6E8005DF8044B704700BF443A002080969800FC
:10A6F80070B5424C424D012323712B781BB1414B5D
:10A708001E78002E5BD000232374042853D8DFE87A
:10A7180000F0034D4A4844003B4DA179AA68C4E9BA
:10A72800023323682260002934D00121217437497B
:10A73800002B08BF0B46991AB1F57A7F26D39A42A7
:10A7480024D8616143F2B06043F69822C5E9020259
:10A7580001236B71A371237C023B012B0DD8637914
:10A7680043B109F06FFE2068FFF74AFF00F018FABE
:10A7780000236371234B00221A70237C2448022B88
:10A7880004BF012323760023237170BD4FF47A732D
:10A798006361D7E7FFF744FFD4E70120FFF764FFC1
:10A7A800D9E70020FAE709F0E7FDD4E700F08AF9D5
:10A7B80009F01AFECFE77846FCF7D2FDCBE700F0A8
:10A7C80061F92B782060022B0FD0032B06D0012BC8
:10A7D80010D10223237400232B70BCE70A4B0D49C8
:10A7E8000D4A5E71C3E90212A67103232374064B56
:10A7F8006361F0E77846FCF7B3FDECE7443A0020E4
:10A80800753A0020743A0020643A00208096980037
:10A81800543A0020A0860100FF1FA107043808B59C
:10A82800042825D8DFE800F016220A030F00114B90
:10A838001B7E012B1CD1FFF7CCFEC8B17846BDE8C2
:10A848000840FCF78DBD0B4B00221A76BDE8084086
:10A8580009F030BE08480123437143F6982240F6B8
:10A86800D863C0E90232FFF7B6FEE6E70248FAE726
:10A8780008BD00BF443A0020643A00200D4A4FF456
:10A8880080710023918043F2B06C43F698211370D5
:10A89800C2E902C1084A1060084A1370084A1370D6
:10A8A800084A1360084A1371537113601376012321
:10A8B80093717047643A0020603A0020743A00208F
:10A8C800753A0020783A0020443A002010B50E4C22
:10A8D800227E012A0CD004D3022A0CBF11200020AA
:10A8E80010BD0A48FFF773FE10B17846FCF738FD33
:10A8F8000748FFF770FE10B17846FCF731FD0223D8
:10A9080023760020ECE700BF443A0020F9A60200B5
:10A91800643A0020074B1B7C023B012B07D9064BEE
:10A928001878013802288CBF0020012070470120C8
:10A93800704700BF443A0020753A0020014B186860
:10A94800704700BF443A0020074B587910B548B10A
:10A958001868FFF755FE044600F094F80346201ADD
:10A9680048BF181B10BD00BF443A0020014B18799E
:10A97800704700BF443A0020024B187E003018BFD1
:10A9880001207047443A0020EFF3108372B6054A5D
:10A99800527922B1044A4FF48071C2F8001103B908
:10A9A80062B67047443A002000E100E0044B1B7E89
:10A9B800022B04D1034B01221A70FFF7E5BF704741
:10A9C800443A0020753A0020064B1B7E022B07D123
:10A9D8000128054B0CBF032202221A70FFF7D4BFCF
:10A9E800704700BF443A0020753A0020064B19789A
:10A9F8001A4631B128B90549097811B11870FFF71D
:10AA0800C3BF1070704700BF743A0020753A002029
:10AA1800024B1B6803B962B6704700BF8C3A00202E
:10AA2800022810B522D8EFF31084114B1C6072B6BF
:10AA3800104B43F82020104B002243F820200F4BE6
:10AA48001B787BB1830003F1804303F5004310308A
:10AA5800C3F84021012202FA00F0094AC2F80403AF
:10AA6800C3F84015FFF7D4FF002010BD0720FCE70E
:10AA78008C3A00207C3A0020983A0020883A00203E
:10AA88000080004008B5EFF310820A4B1A6072B6D6
:10AA9800094B1B7853B1094B0022C3F84C21012202
:10AAA800DA64D3F84C05FFF7B3FF08BD044B186808
:10AAB800F9E700BF8C3A0020883A00200080004067
:10AAC800903A00202DE9F84F174FDFF860800024F6
:10AAD800A60006F1804505F50045D5F84031EBB1F3
:10AAE800D7F8042304F1100B22FA0BF2D30715D57B
:10AAF80056F80890B9F1000F02D17846FCF730FCFF
:10AB0800012303FA0BF34FF0000A48F806A0C7F830
:10AB18000833FFF7B7FFC847C5F840A10134032C35
:10AB2800D6D1BDE8F88F00BF008000407C3A0020F5
:10AB3800014B1B6818447047943A002008B5134B22
:10AB48000022C3F84025C3F84021D3F84011C3F8C8
:10AB58004425C3F84421D3F84411C3F84825C3F861
:10AB68004821D3F848310A4B1B681BB9094B4FF4ED
:10AB780080721A60084B01221A70FFF7DDFB01464C
:10AB8800FFF780FF054B081A186008BD00800040D9
:10AB98008C3A002000E100E0883A0020943A002036
:10ABA8000B4A0C4900231360536093600A4A0B60F8
:10ABB80010600A4A4B6013708B60094B4FF0FF32EC
:10ABC800C3F80823074B4FF48072C3F880217047FD
:10ABD800983A00207C3A0020903A0020883A0020D9
:10ABE8000080004000E100E0044B1B780F2B1EBFE3
:10ABF800034B4FF48022C3F800217047EC3B002040
:10AC080000E100E010B5104C104B207010480360B4
:10AC18001023C0E90133FEF7DBF90E48FFF730F9DE
:10AC280023780F2B0AD0072B09D8EC221A41D20718
:10AC380005D55B01084ADBB282F8123310BD7846AD
:10AC4800BDE81040FCF78CBBEC3B0020B83A002074
:10AC5800A43A0020F03B002000E100E00D4B1B78F7
:10AC68000F2B0DD00C4991F812335A09EC231341DC
:10AC7800DB0706D5094B9A6832B94FF480230B607D
:10AC880070477846FCF76CBB1A6842F480221A6059
:10AC9800704700BFEC3B002000E100E0F4560020C4
:10ACA800F8B5EFF3108772B617480268511C0160B7
:10ACB80002BB164B1B780F2B21D0EFF3108C72B60A
:10ACC800134A144C95680123E5B99360124B134E4F
:10ACD800D3F8801031401160C3F88060D3F8841035
:10ACE80051604FF0FF32C3F884202570BCF1000F8B
:10ACF80000D162B6036813B97846FCF731FB07B98F
:10AD080062B6F8BD2370F1E7B83B0020EC3B0020A9
:10AD1800F4560020ED3B002000E100E0FC06FFBDFA
:10AD280038B5EFF3108572B6104C236813B978461E
:10AD3800FCF716FB2368013B2360A3B90C4B1B7877
:10AD48000F2B10D00B4B9A686AB10B4A127852B984
:10AD5800EFF3108072B609491C680C605C684C609F
:10AD68009A6000B962B605B962B638BDB83B002032
:10AD7800EC3B0020F4560020ED3B002000E100E011
:10AD880038B5054610B97846FCF7EAFA094C236845
:10AD9800092B02D97846FCF7E3FAEFF3108372B671
:10ADA8002068421C2260044A42F8205003B962B667
:10ADB80038BD00BFBC3B0020C03B00200E4B1B68C9
:10ADC800834210B5044602D87846FCF7C9FAEFF377
:10ADD800108072B6094A6109012304F01F0403FABE
:10ADE80004F452F82130234342F82130FFF7FCFEE7
:10ADF80000B962B610BD00BFBC3B0020E83B002094
:10AE080070B50D461646044610B97846FCF7A8FA00
:10AE180015B97846FCF7A4FAEFF3108372B600224E
:10AE2800C4E902562274246003B962B670BD0000FA
:10AE380070B5044610B97846FCF792FAA36813B9BE
:10AE48007846FCF78DFAEFF3108672B6237C03F090
:10AE5800FF055BB90123064823742146FFF71AF85A
:10AE6800FFF7C2FE284606B962B670BD1120FAE7A0
:10AE7800F03B002010B5044610B97846FCF770FA8C
:10AE8800207C10BD2DE9FF47324E337813B1784648
:10AE9800FCF766FA0125DFF8CC802F4FDFF8C89061
:10AEA80035700024D8F80030A34212D82B48DFF8B8
:10AEB800AC80FFF709F8002760BB294C694620469B
:10AEC800FEF7A0F8A0B300232846337004B0BDE80D
:10AED800F087630904F01F0157F82300C840C20730
:10AEE80016D5EFF3108072B6012202FA01F157F875
:10AEF800232022EA010247F8232000B962B659F854
:10AF080024309847824618B92046FFF757FF554620
:10AF18000134C7E70468237C13B97846FCF720FAA4
:10AF2800D4E90230984727744046FEF7CDFFC3E7BF
:10AF38009DF8003043B1012BC0D1019B002BBDD03F
:10AF4800DDE902019847B9E7019B002BB6D00298CA
:10AF58009847B3E7F83B0020E83B0020F03B00208F
:10AF6800A43A0020BC3B0020C03B0020FFF78ABF6A
:10AF780007B5FEF7E7FF8DF803009DF80330174982
:10AF8800F02B0DD10B780F2B25D01220FEF7E2FF06
:10AF980080F00100C0B200F0010003B05DF804FBCE
:10AFA8009DF803305BB2002BADBF03F1604303F0A3
:10AFB8000F030B4A03F56143B4BFD35C93F8003326
:10AFC8005B090193019A0B78934204D0019A93424A
:10AFD800DBD30020DFE70120DDE700BFEC3B0020EA
:10AFE80014ED00E046DF7047F0B58DB06D460B46B6
:10AFF800044600F1100C2F46206861682E4603C6EF
:10B00800083464453546F7D104AD03F110061868D5
:10B0180059682C4603C40833B3422546F7D138464D
:10B02800FFF7E0FF08AC0CAD234603CBAB42106042
:10B0380051601C4602F10802F6D10DB0F0BDFEF7D2
:10B04800AFBF01F004BD01F03ABD30B4032954D8B4
:10B05800DFE801F00225254E00241C70817A5A7819
:10B0680061F30602C17A61F3C7125A70C1680D0410
:10B07800C1F3074205F47F0501F47F412A430A43DF
:10B08800C2F307219A70120C1A71D9700189DC7108
:10B098000A0A42EA0122A3F805201C7222E019706C
:10B0A800597801F0800162F3C7115970C1680C0426
:10B0B800C1F3074204F47F0401F47F4122430A43A9
:10B0C8009A70C2F30721120C1A71D97001890A0A01
:10B0D80042EA01224188A3F805200A0A42EA01222D
:10B0E800A3F80720026912BAC3F8092030BC7047D8
:10B0F800032200241A705C70B8E7784630BCFCF76D
:10B108002FB97FB50E461546044600B112B97846E8
:10B11800FCF726F910220021684611F078F92B4631
:10B12800324621466846FEF73BFF04B070BD2DE964
:10B13800FF410B9D884616461C46074610B10AB1CA
:10B1480003B115B97846FCF70BF96B464246394608
:10B158003046FEF725FF2B469DF8282021466846F5
:10B16800FEF71EFF04B0BDE8F0810000F0B50F4601
:10B178008FB015461E46044608B101B113B978468A
:10B18800FCF7EEF81DB97846FCF7EAF801E0102D57
:10B19800F9D8274B1868009005AA04216846FFF7DC
:10B1A800B0FF01AB2146102205A8FEF7F9FE2A469A
:10B1B800394605A811F002F90EAB2B44012203F819
:10B1C800242C05ABAA18194692B201A8FEF7E8FE8E
:10B1D8009DF82330344603F07F0304F8013B2A46E8
:10B1E800394609A811F0EAF805F110070EAB1F441B
:10B1F80011350223ADB207F8243C2A46234605A997
:10B2080001A8FEF7CDFE1136234605AC186859682B
:10B21800224603C20833B3421446F7D1032207F883
:10B22800242C05A92A4601A8FEF7BAFE0FB0F0BDE6
:10B23800FECD030070B50D4688B0064600B111B9C1
:10B248007846FCF78DF8114C04212068019004AA77
:10B258000DEB0100FFF755FF04AB314618461022ED
:10B26800FEF79EFE234602A953F8040F02901B79AD
:10B278008DF80C3004AB18460522FEF791FE06AB9C
:10B2880003CB2860696008B070BD00BF02CE030020
:10B2980070B50D4686B0064600B111B97846FCF780
:10B2A8005FF80F4C54F8040B009002AA684604217A
:10B2B800FFF727FF02AB314618461022FEF770FE53
:10B2C8002068019002AB042218460DEB0201FEF73C
:10B2D80067FE9DF8173003F03F032B7006B070BD72
:10B2E8000BCE030030B50268437BD17A87B00029C2
:10B2F8008DF8043083680CBF0421082109330B44FE
:10B30800CDE90232436804930446037B8DF8143078
:10B31800694601A801F0C8FDD0B1637B012B0ED0AE
:10B328002568FEF783F9286120680C30FEF716F9C6
:10B33800054620B101F030FE284607B030BD21682F
:10B34800009800F084FA009B093323610025F3E795
:10B358000425F1E708B5074B40B91860FDF7EEFF83
:10B36800FDF798FFBDE8084002F004BA42681A6089
:10B37800F4E700BFFC3B002008B5FEF701F8BDE884
:10B38800084002F035BA10B5044610B97846FBF704
:10B39800E7FF236813B97846FBF7E2FF23685B6988
:10B3A80013B97846FBF7DCFF637B012B02D978469B
:10B3B800FBF7D6FF2046BDE81040FFF793BF10B556
:10B3C800044610B97846FBF7CBFF236913B97846D2
:10B3D800FBF7C6FF236813B97846FBF7C1FF23685C
:10B3E8005B6913B97846FBF7BBFF206900F08CFA5C
:10B3F800A16802460023206800F0EAF9BDE8104081
:10B4080001F0A4BDF0B50E4697B0174605460028D2
:10B4180000F0928000F07CFA2946421B0EA810F03A
:10B42800CDFF08AC002300932A460EAB31462046D8
:10B4380000F084F90546002868D19DF82030002BDB
:10B4480064D00B9BB3F1807F60D29DF92A30002B2A
:10B458005CDB0D9B13B97846FBF782FF3946204623
:10B4680004F066FA3146204600F046FAC6B23B467A
:10B47800224631460DF14100FCF784FE05460120C5
:10B4880003F014F900283CD09DF82A30012B38D954
:10B498009DF82030012B05D103A9BDF8220008F042
:10B4A800BFF970BB254B9DF82A201B6813BB9DF87C
:10B4B8002A300394013B8DF82A304FF0FF33049370
:10B4C80000238DF8183003A8012305968DF819304C
:10B4D800FFF708FFE8B932460DF14101079810F06F
:10B4E8006DFF03A8FFF76BFF9DF82A3001338DF835
:10B4F8002A3006E0BDF82210BDF828009847002839
:10B50800D5D10B99BDF82800FBF794FF284617B052
:10B51800F0BD0B4B1B689B07E6D50A4B1B68012B3C
:10B52800E2DD094B094AD3F80435094900920220A3
:10B53800962200F005FCD7E70E25E7E7FC3B002044
:10B548001C2E0020182E0020001001405FCE0300A2
:10B5580055CE030008B510B1012801D1032008BD5C
:10B568007846FBF7FDFE0020F9E730B589B00023E7
:10B5780004938DF81430036940691BBACDF815306F
:10B588000B46144653F8072FCDF819209A88ADF8C2
:10B598001D209B798DF81F300D466A46113004A98D
:10B5A800FFF722FDAB1D0DF10600E21D13F801198E
:10B5B80010F8014DAB4281EA040102F8011DF5D1F2
:10B5C80009B030BD2DE9F043D5B01E4600238DF8F3
:10B5D8001730ADF83C300E93D31D0C93F31D109328
:10B5E8005C9B43610F460DF118091146324604462B
:10B5F800CDF82C90FFF7B9FF7378DB09E372737805
:10B6080003F07F03A372F378B2781B0243EA024384
:10B6180032791343E3607379B07940EA03202081DB
:10B62800FEF778FA01286AD1E27A002AA7F109031D
:10B6380014BF08220422934261D3E1682089FBF7F2
:10B64800DBFE00285BD10DF14C084146208908F04B
:10B65800E7F80546002852D1E37A9DF87401002BDB
:10B6680014BF08230423073F8DF84830FF1A0C9BAA
:10B67800BFB2ADF834701F441197FFF76BFF4B460C
:10B6880001462A462046FFF7E0FC63690DF11701E1
:10B6980001330AA80A93FFF7D6FC9DF8173073B355
:10B6A800F379307A40EA03206080FEF733FA1D4BC5
:10B6B80020701B689B0722D51B4B1B68032B1EDDC4
:10B6C800BDF83420194B109C1968802A28BF8022A5
:10B6D8002846904218D1002308F8103003F180431F
:10B6E80003F58833124AD3F804350192114A0092BF
:10B6F800CDF80880E6221049042000F021FB9DF8CF
:10B70800170055B0BDE8F083235C1D0903F00F0353
:10B718004D5D08F81050CD5C08EB400301305D70BA
:10B72800D7E700BF1C2E0020182E0020202E002056
:10B73800DBCE0300B7C90300CECE03002DE9FF47D7
:10B74800894615461F469DF830A0064618B112B125
:10B758000BB19A4202D17846FBF702FEA9F1090320
:10B76800142B31D82878C009FDF76AFF002330610F
:10B77800736195F80080CDE9023308F07F0803AAC9
:10B7880002A9404607F038FF029BB3B1CDE9003A61
:10B798002A463B4649463046FFF714FF044608B19F
:10B7A80000200EE0039B43B1CDE9003A2A463B4610
:10B7B80049463046FFF706FF40B9029B002BDED111
:10B7C800052004B0BDE8F0870920FAE72046F8E72D
:10B7D800F0B50C468FB016461F46054610B9784698
:10B7E800FBF7BEFD16B97846FBF7BAFD012F02D963
:10B7F8007846FBF7B5FD3846FFF7ACFE01AF3B4690
:10B80800014600222846FFF720FCEB7A002B14BFE4
:10B81800082304238DF834306B69A11C0133CDE96A
:10B82800053789B2F31D0022ADF8201005A8194488
:10B8380007930B93ADF8282009920C91FFF701FCB0
:10B84800324631462846FFF790FE0FB0F0BD38B5B6
:10B858000D46044610B97846FBF782FD15B97846BF
:10B86800FBF77EFD2889FEF755F9012802D07846B6
:10B87800FBF776FD95F90A30002B02DA7846FBF7DC
:10B888006FFDEB68B3F1807F02D37846FBF768FD64
:10B898006B6913B97846FBF763FD2B6903F0010266
:10B8A800237803F07F0343EAC21323706A6912788E
:10B8B80023F07F0302F07F02134323706378EA7A50
:10B8C80003F07F0343EAC213DBB26370AA7A23F062
:10B8D8007F0302F07F0213436370EB6823711A0C35
:10B8E800A2701A0AE2702B89A3711A0A62716B8816
:10B8F80023721A0AE27138BDC37A002B14BF0820DC
:10B9080004200939081A7047093870470930704708
:10B9180001307047436849B9027880781A441B7827
:10B92800C31A12F8010C1844C0B270475A185B5C6D
:10B9380012F8010CC01AF7E738B50D46044610B9DD
:10B948007846FBF70DFD2378AB4202D87846FBF723
:10B9580007FD29462046FFF7DDFF40B1636862789E
:10B96800585DA378013B1840A36802FB003038BD3E
:10B9780038B50C46054610B97846FBF7F1FC2B782C
:10B98800A34202D87846FBF7EBFC21462846FFF78E
:10B99800C1FF18B16A68135D0133135538BD10B57E
:10B9A800044610B97846FBF7DBFC002319462278D9
:10B9B8009A4200D810BD6268D1540133F7E710B538
:10B9C8004378044613B97846FBF7CAFC2378012B61
:10B9D80002D87846FBF7C4FCA36813B97846FBF78E
:10B9E800BFFC636813B97846FBF7BAFCA37813B1B8
:10B9F8005A1E1A4202D07846FBF7B2FC2046BDE830
:10BA08001040FFF7CCBF38B50D46044610B978464C
:10BA1800FBF7A6FC2378AB4202D87846FBF7A0FCDC
:10BA280029462046BDE83840FFF774BF08B520B165
:10BA380019B1FFF72DFC002008BD0E20FCE713B557
:10BA48000B4650B149B102A9002401F8014D012269
:10BA5800FFF78CFB204602B010BD0E20FBE700006C
:10BA680030B50C468BB00546E0B1D9B11031FFF7BF
:10BA7800E1FB0D4B03930D4B186804909B88ADF8C0
:10BA8800143006AA042103A8FFF73BFB0623009302
:10BA98002846019404AB06AA1021FFF748FB0020B2
:10BAA8000BB030BD0E20FBE76E6B626BEECE030071
:10BAB80030B50D468BB00446C8B1C1B10D4B0393E8
:10BAC8000D4B186804909B88ADF8143006AA042121
