:020000022000DC
:1060000000F0032071630200596302005B63020029
:106010005D6302005F630200616302000000000034
:1060200000000000000000000000000063630200A8
:1060300065630200000000006763020069630200FC
:10604000C5D603006B63020079D80300B9E20300F0
:106050006B6302006B63020021D50300F5D80300D7
:106060006B63020089DD0300D93E03006B6302000D
:106070006B6302006B6302006B6302006B630200E0
:106080006B630200C5B8030055AF02006B630200EA
:1060900095B903006B630200616A03006B63020041
:1060A0006B6302006B6302006B6302006B630200B0
:1060B0006B6302006B630200000000000000000040
:1060C0006B6302006B6302006B6302006B63020090
:1060D0006B6302006B6302006B6302006B63020080
:1060E0006B6302006B6302006B6302000000000040
:1060F000000000006B630200000000006B63020000
:10610000000000000000000000000000000000008F
:10611000000000000000000000000000000000007F
:10612000000000000000000000000000000000006F
:10613000000000000000000000000000000000005F
:10614000000000000000000000000000000000004F
:10615000000000000000000000000000000000003F
:10616000000000000000000000000000000000002F
:10617000000000000000000000000000000000001F
:10618000000000000000000000000000000000000F
:1061900000000000000000000000000000000000FF
:1061A00000000000000000000000000000000000EF
:1061B00000000000000000000000000000000000DF
:1061C00000000000000000000000000000000000CF
:1061D00000000000000000000000000000000000BF
:1061E00000000000000000000000000000000000AF
:1061F000000000000000000000000000000000009F
:10620000354936480A1A02D0072291438D4634494F
:1062100034480A1A06D00722914381F309880222E2
:1062200082F3148830483149314A00F043F831484C
:106230003149324A00F03EF831483249324A00F0E2
:1062400039F832483249334A00F034F83248334999
:10625000334A00F02FF833483349344A00F02AF823
:1062600033483449344A00F025F834483449002290
:1062700000F02BF833483449002200F026F8334868
:106280003349091A082903DB002202600430016047
:106290001F482049884205D00268043003B4904763
:1062A00003BCF7E700208646EC4600200021294A7F
:1062B0009047FEE7884207D0521A05D00378013094
:1062C0000B700131013AF9D17047884202D0027057
:1062D0000130FAE77047000000F0032000E80320D7
:1062E00000F0032000F003207C330400A02D0020E8
:1062F000042F0020A8630200A863020048080400DD
:106300007C330400A02D0020A02D0020080A0400EA
:10631000080A0400080A0400080A0400080A040025
:10632000080A0400080A0400080A04007C33040078
:10633000E0340400042F0020042F0020042F00204C
:106340001D600020206000202060002020600020D0
:10635000206400207D690200FEE7FEE7FEE7FEE71D
:10636000FEE7FEE7FEE7FEE7FEE7FEE7704700BF59
:106370000948804709484FF0070188438546084887
:1063800080470848016841F470010160BFF34F8FF6
:10639000BFF36F8FFFF734BF6D63020000F003207F
:0863A0007D6D030088ED00E0B3
:1063A80041DF70477047000010B51A4B1B685B044B
:1063B8008AB00ED5184B1B68032B0ADD174B184AF9
:1063C800D3F804351749009204204FF4DA7205F027
:1063D800A7FC154C63798DF80C30E388ADF80D30C7
:1063E80015F088FE114B069303AB07930423ADF811
:1063F800203000238DF8223002238DF823308DF8C9
:106408000F0003F021FD06A9099020880AF0C6FCB8
:106418000AB010BD1C2E0020182E002000100140CC
:10642800C60A0400BF0A0400A8300020E7ACFFFF3A
:106438000448054B0549C01AC008000440F0030091
:1064480016F0E4B9B808040070080400160D04003A
:1064580013B5174C226852040ED5164B1B68032B34
:106468000ADD154B154AD3F8043515490092042066
:106478004FF4EE7205F054FC124B134859220021D8
:1064880015F03EFE90B123685B040FD5094B1B68DD
:10649800032B0BDD084B0D4AD3F80435084901904E
:1064A800009204204FF4F27205F03AFC02B010BDDD
:1064B8001C2E0020182E002000100140BF0C0400E4
:1064C800BF0A0400B1630200A8300020DF0C0400FA
:1064D8000C4B1B685B0407B50ED50B4B1B68032BD5
:1064E8000ADD0A4B0A4AD3F804350A490092042007
:1064F8004FF4A17205F014FC03B05DF804EB08F04A
:1065080073B900BF1C2E0020182E00200010014077
:10651800FD0C0400BF0A040003781C2B01D1FFF70F
:10652800D7BF704730B5214D2A68520485B00ED5C3
:106538001F4B1B68032B0ADD1E4B1F4AD3F804357B
:106548001E49009204204FF4CF7205F0E9FB1C4B62
:106558001C4C1949E41AE408240444F003042046B6
:1065680016F054F900F004FE00F054FE03A80CF0F5
:1065780031F92B685B0411D50D4B1B68032B0DDD1E
:106588000C4BBDF80C20D3F8043501920E4A00924A
:106598000A494FF4D572042005F0C2FBBDF80C205F
:1065A8000949204616F036F905B030BD1C2E0020EA
:1065B800182E0020001001402C0D0400BF0A040012
:1065C80070080400B8080400460D040037B5A0F1AF
:1065D8003005042D33D81B4C226852040FD51A4BB2
:1065E8001B68032B0BDD194B194AD3F804351949DD
:1065F800009201954FF4AA72042005F091FB032D37
:106608001DD108F0A0F840B109F0D8F908F090F8C9
:1066180003B0BDE83040FFF75BBF23685B040ED5CD
:10662800094B1B68032B0ADD084B0B4AD3F80435CA
:1066380008490092042040F27B1205F071FB03B078
:1066480030BD00BF1C2E0020182E00200010014075
:10665800200A0400BF0A0400330A04001F2886BF6A
:1066680000F01F00044B4FF0A04300F5E0708900D4
:1066780043F82010704700BF000300501F2886BF52
:1066880000F01F00044B4FF0A04300F5E070032218
:1066980043F82020704700BF000300501F2886BF22
:1066A80000F01F00044A4FF0A042012303FA00F053
:1066B800C2F80805704700BF000300501F288ABFB2
:1066C800064B4FF0A04300F01F0003EB8000D0F80A
:1066D800003743F00203C0F800377047000300504A
:1066E80008B51E20FFF7CAFF4FF0A0434FF08042C5
:1066F800C3F80C2500212220FFF7B0FF00212B2032
:10670800FFF7ACFF00212E20FFF7A8FF00212E2065
:10671800FFF7A4FF00212720FFF7A0FF00212F206B
:10672800FFF79CFF00212620FFF798FF00212D206E
:10673800FFF794FF00212A20FFF790FF00212C206B
:10674800FFF78CFF00212120FFF788FF1C20FFF7AF
:1067580095FF00210920FFF781FF0920FFF7AEFF11
:1067680000210A20FFF77AFF0A20FFF7A7FF002180
:106778001F20FFF773FF00211020FFF76FFF1B207A
:10678800FFF77CFF1B20FFF789FF0B20FFF776FF41
:106798000B20FFF783FF03210420FFF75FFF0D2085
:1067A800FFF76CFF0D20FFF779FF1A20FFF766FF50
:1067B8001A20FFF773FF0520FFF760FF0520FFF79A
:1067C8006DFF1820FFF75AFF1820FFF767FF132007
:1067D800FFF754FF1320FFF761FF03210F20FFF796
:1067E8003DFF0C20FFF74AFF0C20FFF757FF0E2054
:1067F800FFF744FF0E20FFF751FF0820FFF73EFF89
:106808000820FFF74BFF0620FFF738FF0620FFF7A9
:1068180045FF0720FFF732FF0720FFF73FFF112052
:10682800FFF72CFF1120FFF739FF2920FFF726FF7C
:106838002920FFF733FF2820FFF720FF2820FFF744
:106848002DFF00211D20FFF709FF00210320FFF77E
:1068580005FF00211620FFF701FF00211520FFF793
:10686800FDFE1420FFF70AFF1720FFF707FF02209D
:10687800FFF704FF0220FFF711FF2020FFF7FEFEBD
:106888002020FFF70BFF0D20FFF7F8FE0D20FFF784
:1068980005FF0E20FFF7F2FE0E20FFF7FFFE0F2088
:1068A800FFF7ECFE0F20BDE80840FFF7F7BE000039
:1068B800044B054A1A60054A5A60054A9A60054A17
:1068C800DA607047C0300020CD00040015010400D4
:1068D8004901040069010400F8B50E4D0E4C01226F
:1068E800C5F81427052614432520FFF7D7FE64278B
:1068F8004FF47A40A047013FFAD12023C5F80C3560
:1069080064274FF47A40A047013FFAD1013EEBD10A
:10691800F8BD00BF00030050000B040008B50021BB
:106928001020FFF79BFE4FF0A0430848D3F810252E
:10693800074B0849C01AC0080004C2F3004240F0DF
:106948000300BDE8084015F065BF00BFB8080400A3
:1069580070080400E90A040000B50378012BC3B0ED
:1069680004D183680DF1070102A8984743B05DF888
:1069780004FB000000B54FF400418DB0002015F075
:106988007FFD08B110F0D2FA15F0B2FC704C714BD3
:106998007149E41AE408240444F00304204615F07D
:1069A80035FF6E49204615F031FF6D49204615F038
:1069B8002DFFFFF795FE6B49204615F027FF15F0D0
:1069C80039F908B110F0B2FA6749204615F01EFFF0
:1069D80019F040FB6549204615F018FF644A142158
:1069E8000C2016F0B1F908B110F0A0FA6149204660
:1069F80015F00CFFFFF792FFFFF76EFF5E49204688
:106A080015F004FF19F040FB5C49204615F0FEFE26
:106A1800FFF74EFF5A49204615F0F8FE594819F07D
:106A2800A3FC5949204615F0F1FE19F035FA19F082
:106A380073FA5649204615F0E9FE5549204615F0E7
:106A4800E5FE544A042146F2010005F04DF9524B87
:106A58001B685B040ED5514B1B68032B0ADD504B9A
:106A6800504AD3F804355049009204204FF4047278
:106A780005F056F915F0DEF820B14C4A40F2122123
:106A880010F061FA00F05AFB00F072FB00F0C2FB54
:106A98000021202203A819F04CFE01238DF80C30A8
:106AA80007238DF80F3006238DF81430404B0793D9
:106AB8004049414B0B9303A807F052FE20B13B4AD3
:106AC80040F2F51110F03FFA3C49204615F09EFEC1
:106AD80064213B4800F0B0F9364B1B7883B9394E36
:106AE8000FCE03AD0FC596E8030085E8030003A8A1
:106AF80000F046F920B12D4A40F2332110F023FA74
:106B080000F054FC00F0CEF907F060FE20B1274AEF
:106B18004FF40E7110F017FA2B49204615F076FE47
:106B280007F011FE90B12949204615F06FFE07F0D5
:106B3800FFFDFFF7CDFC2649204615F067FEFFF75D
:106B48002FFC16F085F915F0F5FCF8E72149F3E775
:106B5800B808040070080400060B04001F0B0400AA
:106B6800470B04005E0B04006B0B0400720B04005F
:106B7800042F0020790B0400830B0400930B0400FE
:106B8800970B0400C0300020AA0B0400B20B0400CD
:106B9800CA0B0400C5BC02001C2E0020182E0020C1
:106BA80000100140F10B0400BF0A04006A0A040047
:106BB80021650200BC30002059640200200C04004A
:106BC800D5650200080A04003F0C0400610C0400AB
:106BD800820C0400A60C0400034904480969032335
:106BE800002210F04EBD00BFD43000202433002016
:106BF8000378023B10B5082B4AD8DFE803F01E05DE
:106C08001249493849493F00224B5B68002B3FD065
:106C1800007A00283CD0204A0121BDE810401170BC
:106C280018471C4B9B68002B32D01B4A117879B34C
:106C38000021BDE8104011701847184B1A784AB95E
:106C4800144BDB6813B114490A709847BDE810402B
:106C5800FFF7C2BF124B134801221A7003F0E8F87D
:106C680003F0CEF8A0B1BDE8104010F05FB9094BB1
:106C78000D485969102210F049FDF3E7D0E90210D8
:106C880007F020FD08B110F051F9044B01221A70E9
:106C980010BD00BFD4300020D0300020D1300020FB
:106CA800D2300020A02D00202433002030B5274DFD
:106CB800297885B019B1012803D003283FD005B041
:106CC80030BD04AC002344F8083D21460FF0D8FC41
:106CD80008B110F02BF920460FF090FD08B110F024
:106CE80025F904A9012341F8043D0DF106000CF033
:106CF800CFF808B110F01AF9BDF806000BF086FEBF
:106D08000DF105010BF04EFF08B110F00FF908F076
:106D18007DFD9DF80510002008F066FE10B178464C
:106D280000F0A6FA03F028F808B110F0FFF80023E5
:106D38002B70074B1B68002BC1D09847BFE70FF09B
:106D480005FE0028BBD010F0F1F8B8E7D2300020DB
:106D5800D430002008B503781B2B0CD1064B1B78C8
:106D68004BB10FF02FFE08B110F0E0F80348BDE872
:106D7800084003F05FB808BDD2300020A02D0020E5
:106D880070B51E4A1E4E5168044686B0106803ABA3
:106D980003C31189927A19809A700FCC35460FC5B2
:106DA80094E8030085E8030073692BB31549164876
:106DB80010F04EFCF0B9154B0093124A12491448D2
:106DC80003AB10F011FCA8B9124811F04BFC0146B6
:106DD8000F4810F029FC68B90F4812F063F848B959
:106DE8000D4812F091F80146094810F01DFC08B949
:106DF800FFF7F2FE06B070BD0720FBE7880D040020
:106E0800D4300020EC30002058340020F96B020008
:106E1800243300200C310020D432002010B5054C5A
:106E2800226832B10EF08AF8002802DB23689847FE
:106E3800F8E710BD98340020154B164A10B50C46DB
:106E480018600121144814F04FFF18B1134A4A2161
:106E580010F079F8610C0023E00341F26F728B4265
:106E680008BF824210D24FF47A72002319F08EFACA
:106E7800014600220A4814F049FF38B1074A4B215D
:106E8800BDE8104010F05FB80521F2E710BD00BF63
:106E980098340020256E0200940D0400980D04001B
:106EA8009C34002070B50446CEB0002853D02B4D3A
:106EB8002A68520428D52A4B1B68032B24DD294B4A
:106EC8000DAA18680023E15C0E0901F00F01865D28
:106ED80002F81360465C02EB43010133102B4E703D
:106EE800F1D1002382F8203003F1804303F5883381
:106EF8001D49D3F8043502921C4A01921C4A00929B
:106F08000420412204F00CFF2B685B0423D5144BAA
:106F18001B68032B1FDD174BE27BD3F804350B925C
:106F2800A27B0A92627B0992227B0892E27A0792FC
:106F3800A27A0692627A0592227A0492E2880392F1
:106F4800A2880292226801920B4A009206494622C0
:106F5800042004F0E5FE4EB070BD00BF1C2E0020DA
:106F6800182E0020202E0020340E0400450E0400A8
:106F7800570E0400001001405F0E040072DF7047D6
:106F880073DF704774DF70472DE9F04388462F4957
:106F98002F4C0B782F4D91462F4A0746C3EB4310D1
:106FA800002602440133A3B003F00103C4F80660CD
:106FB800A2601F2205440B70A280A28131463C22A8
:106FC80004A8E681256019F0B4FB062301AA8DF810
:106FD80013300E9201233C22314613A88DF802305B
:106FE800ADF820308DF83C30ADF80070CDF824D0E5
:106FF800ADF80470ADF80890CDF80C8019F099FB45
:107008000223221D294604A88DF84C300FF00AF9F6
:1070180008B10FF08BFF114AA16813A80FF002F90D
:1070280008B10FF083FF0E4A09490E48FFF7A6FF83
:10703800082804D1002206490A48FFF79FFF08B133
:107048000FF074FF23B0BDE8F08300BFBC3400200C
:10705800FC340020BD3400200C3500200835002009
:10706800B02D0020AC2D0020084B58B1B0F5202FD2
:1070780005D20A22B0FBF2F018B9012002E04FF65F
:10708800FF7080B298819960704700BFB02D0020D2
:1070980008B5064B01211878FFF772FF08B10FF009
:1070A80045FF0020BDE8084003F07EBCAC2D002061
:1070B80008B5054B1878FFF765FF18B1BDE808401B
:1070C8000FF034BF08BD00BFAC2D002076DF70473D
:1070D8007ADF70477CDF70470FF028BF02F0ACBE44
:1070E800037807B54BB93B214088FFF7EFFFC0B1E4
:1070F80003B05DF804EB0FF019BF012B11D10A4B57
:107108001B685B040DD5094B1B68032B09DD084B75
:10711800084AD3F80435084900920420682204F08C
:10712800FFFD03B05DF804FB1C2E0020182E002084
:10713800001001405C0F0400430F040013B50FF06A
:1071480005FC08B10FF0F2FE02AC002344F8043D40
:10715800012021460FF094FA08B10FF0E7FE20460F
:107168000FF04CFB08B10FF0E1FE02B010BD0000BB
:1071780010B5204C2268520486B00DD51E4B1B68F2
:10718800032B09DD1D4B1E4AD3F804351D49009217
:107198000420B12204F0C4FD11238DF80C302368BB
:1071A8005B040DD5144B1B68032B09DD134B164AE2
:1071B800D3F80435134900920420B32204F0B0FD3B
:1071C8001022124903A8FFF785FF08B10FF0AEFEA1
:1071D8000023ADF814300E4B049304A84FF4C87381
:1071E800ADF81630FFF774FF08B10FF09FFE06B038
:1071F80010BD00BF1C2E0020182E002000100140DA
:107208009F0E0400430F0400C20E0400EA0E04009F
:107218007800C80000B58BB00023114AADF80830DB
:10722800CDE90633019201AB4FF4C872ADF80A20DC
:10723800039340F6CD424FF48033CDE90423032372
:107248008DF81830074B089303A8074B09930FF0E4
:1072580007FD08B10FF06AFE0BB05DF804FB00BF34
:107268007800C800E9700200E1700200062070474B
:1072780007B50023ADF800300146054B01936A4677
:1072880044F2020000F006F803B05DF804FB00BF0A
:107298005B300400F7B52A4B2A4CE41AE4082404AE
:1072A80044F0030407460E4620462749154615F0C4
:1072B800ADFA41F201039F4231D007D8012F16D011
:1072C80032462249204615F0A5FA16E044F2010399
:1072D8009F4228D044F202039F42F1D12B880093A9
:1072E8006B681B493246204615F0A8FA05E0194993
:1072F8002B463246204615F097FA4FF0A0434FF43C
:10730800F032C3F81825C3F80C25EFF3108372B6D2
:107318004DF6AD6C104A137883B903B0F0BD2B4617
:1073280032460E49E6E72B6801936B680093AA681A
:107338000B493346204615F08DFADEE730BFEAE701
:1073480070080400B8080400880F040082100400C4
:1073580010100400A20F0400C82D0020D50F04004F
:1073680048100400044B00F1100250F8041B43F8C5
:10737800041B9042F9D170474A350020094A0A4B4C
:1073880003CA596018603C3203CADA79D96004210B
:1073980061F307129860DA711A7A022161F3871291
:1073A8001A727047600000104A3500200048704784
:1073B8004A350020064B002203F580715A805A6036
:1073C80003F8082B8B42F9D1024B1A60704700BFB3
:1073D8005C3500205C3600200C4BF0B51B680C4C6B
:1073E800064620227BB1013B14F8330050B104EB70
:1073F800C3056F88B74202D16D688D4202D0013A49
:10740800F0D11046F0BD1F23EEE700BF5C36002028
:107418005C350020084A30B51368084C04EBC305F6
:107428006960012104F833100B44202B08BF0023A6
:107438006880136030BD00BF5C3600205C350020DA
:10744800C0F30C038B42084438BFA0F50050C01AA3
:10745800704700000D4B0E4AF0B51E6800218E42A1
:1074680012D0156800230AE052F8044C04EBC30755
:1074780014F83340844201D17868F0BD01339D424D
:10748800F2D101310832EAE70020F6E76036002041
:107498006836002000B58DB040B99A1C06D001228C
:1074A80001A88DF80420029301F08EF8034B1868A8
:1074B80003F074FC0DB05DF804FB00BF6C360020CF
:1074C800037810B5044613B97846FFF7D1FEE07982
:1074D800431C01209840013810BD0000F8B503781E
:1074E80004460F4613B97846FFF7C2FE0B4B0C4E05
:1074F8001A68A069511C02F0070206EBC205196060
:10750800A38AA1886B80FFF79BFFE369686003F09B
:1075180001036B7006F83270F8BD00BFB03600206A
:10752800703600202DE9F0410E468EB015461C46F7
:10753800074610B97846FFF79BFE16B97846FFF75D
:1075480097FE636A627802330593A378A2F1080074
:10755800002B14BF012102210DF1040842424241CF
:10756800434604F10C0003F060FD63788DF8343075
:10757800237BADF82050022B16FA85F5CDE9068756
:107588000B960C950FD1236913B97846FFF770FE57
:1075980023690993102305A8ADF8283003F041FDAD
:1075A8000EB0BDE8F0810023F5E738B5044604F1D4
:1075B8003005C06E07F07DF8284602F094FE10B141
:1075C800284602F05DFE94F84830022B08D104F1F9
:1075D8005005284602F087FE10B1284602F050FEFA
:1075E80020467022002119F0A4F8002084F84800F1
:1075F800BDE8384001F0D6BF10B590F84830012BEF
:107608008CB0044602D07846FFF732FE01238DF88D
:10761800043001A8636D029300F0D6FF2046FFF7FF
:10762800C4FF0CB010BD0000B2F5C07F2DE9F84FC3
:1076380080468946934602D97846FFF719FE2D4BB6
:10764800002670229A4602FB063595F8481041B983
:10765800584607F02CF8E86638B900252846BDE8F2
:10766800F88F0136042EEED1F7E742462C4608F192
:107678003007134603CBBB42206061601A4604F111
:107688000804F6D1702404FB06A40027E764A4F8D4
:107698004AB0B8F80410D8F81800FFF7D1FEB9F1CD
:1076A800010FA0611BD1144B84F852701B7D84F824
:1076B800513084F8537084F85070D8F828306365D6
:1076C8006FF00103A3620D4BA3632564012001F051
:1076D80069FF702303FB06A686F84890BEE76FF0A3
:1076E8000103A362064BA36584F868702566054B01
:1076F800EAE700BFCC360020B4360020397A020011
:107708004D850200317A02001FB500220B468DF824
:107718000F20E0B10230086018460DF10F0103F0A8
:1077280082FC9DF80F3093B10B4B1B685B070ED59D
:107738000A4B1B68032B0ADD094B0A4AD3F80435A8
:1077480009490092042040F2A63204F0E9FA9DF8B3
:107758000F0005B05DF804FB1C2E0020182E002039
:1077680000100140391104002D1104002DE9F047E3
:1077780099461378D2F818A0F2B005468846144600
:1077880023B191885046FFF75BFE9061A378627839
:10779800002BA2F1080003AF0CBF0221012104F164
:1077A8000C06424242413B46304603F03EFC6278BA
:1077B8008DF83C201FFA88F8A8EB02039BB2CDE9AC
:1077C8000875ADF828301D440023ADF83030237B10
:1077D8000E95022B04BF1022ADF83020A278C4F811
:1077E80018A012AF0D9704F12405002A55D04FF0C8
:1077F800000A237BC4F824A0022B04BF23690B933F
:10780800206AE1782A460BF0DBFD606AE0B9237B49
:10781800022B05D13146E0890BF096FE0028E8D10D
:107828002B4B1B685B0735D52A4B1B68052B31DDB5
:10783800294B2A4AD3F8043529490092062040F2F8
:10784800196204F06DFA25E007A9FFF75DFF00282B
:10785800D6D0A18A6378ADF82A1096E80300A8EB81
:107868000308012300228DF828300CAB0B9283E823
:107878000300A37D8DF84030236A0E9307A8636A3E
:107888008DF81C200897ADF824800F93CDF844900C
:1078980000F09AFE72B0BDE8F087012B626209D150
:1078A8002946E0890BF0D0FD07A9606AFFF72CFF95
:1078B8000028CED100232946A08A63620BF0C4FDBC
:1078C80007A9606AFFF720FF0028C2D1A8E700BF18
:1078D8001C2E0020182E00200010014070110400FA
:1078E8002D110400C37D0A7830B56BB3837822F07C
:1078F8007F0203F07F031A430A700B78027803F0C3
:107908007F0343EAC2130B700378E3B14378083B63
:107918005A425A414B7803F07F0343EAC2134B7033
:10792800858823F07F03C5F3861423434B7084793D
:10793800C4F3C10242EA85028A70C37903F01F03C7
:1079480043EA4413CB7030BD847822F0400343EA05
:107958008413DBB20B70C27823F03F0302F03F02BE
:1079680013430B70C9E7000038B590F84830012B75
:10797800044602D07846FFF77BFC02F0CDFC237B5F
:10798800074A012B05BFD2E90315A37DD16805FB82
:107998000311014404F13000BDE8384002F087BC0F
:1079A800B436002070B50D4690B0044610B978463C
:1079B800FFF75EFC00212046FFF790FD2C220021F6
:1079C80005A8666D18F0B5FE102305A88DF81430CB
:1079D80006968DF81C5000F0F7FD2046FFF7E5FDF0
:1079E8000C4B1B685B0712D50B4B1B68032B0EDD7A
:1079F8000A4B0B49D3F80435029594F848200192B4
:107A0800084A0092042040F2EF1204F089F910B0FD
:107A180070BD00BF1C2E0020182E00200010014051
:107A28002D110400BA10040008460021FFF7BABF60
:107A380091F84830012B10B50C4602D07846FFF774
:107A480017FC94F851305BB1013B84F851300023A6
:107A580084F85030084BBDE81040186803F09EB910
:107A6800217B0129204603D1BDE81040FFF79ABFCA
:107A7800BDE81040FFF7C0BD6C3600202DE9F04F7F
:107A8800044689B00F4609B100230B6004F10C03CA
:107A980094F8505001934FF001084FF0000BE27931
:107AA800AA4203D2002009B0BDE8F08FE16C08FAC1
:107AB80005F30B425BD1E37DA571002B0CBF0C26AF
:107AC8000826954206FB05FA237808BFB4F84A60F1
:107AD8008DF819B008BFA6EB0A06002B14BF4FF0AB
:107AE80004094FF0010906EB09030593019B039371
:107AF800A36A049303A894F82C308DF8183003F087
:107B080032FC0028CFD1079B994445B994F85330EB
:107B18002BB9A36984F85380C3F30C03A380E37DD6
:107B28008BB994F8523073B915B17846FFF7A0FBBA
:107B3800B4F84A1062788A1AE16E23460846FFF7BD
:107B4800F1FC84F8528007992046FFF7CBFEE16EDE
:107B580032465144484618F0C3FD03A803F01FFC01
:107B680017B13B6801333B606B1C84F8503001351A
:107B7800EDB294E72DE9F041D47D8AB006460F4670
:107B880015469846002C77D09478002C51D10629B8
:107B980039D103784278D0F8021039489B0103F4B0
:107BA800FE5343EA920309BA2246702606FB0204F2
:107BB80094F84870012F10D1B4F814C0EF89BC456F
:107BC8000BD1A7889F4208D1E56C0D43E564E9B95C
:107BD80003212046FFF7E6FE15E00132042AE5D12D
:107BE800284B1B685B070ED5274B1B68012B0ADD4A
:107BF800264B274AD3F8043526490092022040F242
:107C0800A75204F08DF80AB0BDE8F0812046FFF7CE
:107C180057FC854203D12046FFF7EEFCF3E700212D
:107C280084F850102046FFF729FF2046FFF79CFEF6
:107C3800E9E72046FFF70EFC03460028E3D005F1EC
:107C48000C012A6A089203C9AA8AADF8162006AA66
:107C580082E80300AA7D8DF824202A788DF8142064
:107C680095F82C208DF80840CDE903678DF825207C
:107C7800414602A89847C6E7FFF778FDC3E700BF6B
:107C8800CC3600201C2E0020182E002000100140A9
:107C9800991104002D110400F0B5C37D15464278F2
:107CA800002B2A4414BF4FF480734FF4C0739342DF
:107CB800C7B00E4668D3384C0023E11891F84870D5
:107CC800012F08D1B1F814C0878ABC4503D1CF89E8
:107CD800C1898F425AD07033B3F5E07FEDD10121CD
:107CE800FFF7A2FC0446002852D02A463146C06E4F
:107CF80018F0F6FC002304A920460493FFF7BEFE03
:107D080030F0040506463AD1049B13B12046FFF72C
:107D18002BFE224B1B6813F004033BD0204B1B683F
:107D2800032B1BDDB4F84A001E4B80281E6828BFB1
:107D38008020002305AA834213D1002102F81310E2
:107D4800194B1A49D3F804350292194A0192194A73
:107D58000092042040F2D14203F0E2FF284647B0E7
:107D6800F0BDE16EC95C0F0901F00F01F75D02F883
:107D78001370775C02EB430101334F70DBE7204659
:107D8800FFF713FC3546E9E70925E7E70825E5E7A6
:107D98000425E3E71D46E1E7CC3600201C2E002031
:107DA800182E0020202E0020001001402D11040064
:107DB800DD100400570E04002DE9F041044686B09A
:107DC800808A0F46164601F095FE01284DD1237B87
:107DD800002B4AD0022B02D12369002B45D094F9FD
:107DE8001630002B43DB22784AB13246394620460A
:107DF800FFF752FF0546284606B0BDE8F081E17D51
:107E080063780029334414BF0B210F218B422AD8F1
:107E18000133039304F10C030193A36A029301A8AD
:107E280094F82C308DF810308DF8112003F09BFA5F
:107E380005460028DFD10599204601F10108FFF722
:107E480051FDE37D43B132463946404618F048FCBF
:107E580001A803F0A4FACEE7234632464146384645
:107E6800FFF760FBF4E70925C5E71025C3E70725F9
:107E7800C1E7000010B54FF4E0720021134818F074
:107E880058FC002404F01AFF114B12481C602146CC
:107E9800402218F04EFC104B1049114A9C75C3E95A
:107EA8000012104910484CF25032C3E902211A61FD
:107EB80040F604029A8202F053FF0C4B18600C4BF8
:107EC8000C481C60BDE8104004F0D8BFCC36002038
:107ED800B036002070360020B43600208096980016
:107EE800F049020020A10700E58002006C3600205E
:107EF800603600209D74020004F07EBEF0B5044692
:107F08008DB0002842D00569002D3FD0C369002BF1
:107F18003CD08669002E39D05A788DF803201A781B
:107F28000993037B022B04BF214B9B7D82F0010246
:107F3800002B8DF80220828AC07A14BF08230423FC
:107F48008DF80130C3F10F0110BB8A4220DC082BE9
:107F580001D1072018E08DF8000094E8030003AF72
:107F680087E803002189ADF81410A17A8DF816105E
:107F7800216A0A910023294668468DF81730089629
:107F88008DF82C30FFF718FF0DB0F0BD0E20FBE781
:107F9800012113448DF800100B330C2193FBF1F3EE
:107FA800013B8DF8073000238DF80630D5E700BF78
:107FB800B4360020F0B503468DB00F4600283ED0F9
:107FC8004468002C3BD08569002D38D0027C12F023
:107FD800FD0F36D00278110635D48DF80220002224
:107FE800099282680B2A94BF017B012101F00100EC
:107FF8008DF8000000208DF8010031B1D11DC908AD
:1080080001398DF807108DF8060001218DF8171039
:1080180003F1100103C903AE86E80300D989ADF85E
:108028001410197F8DF816105B7F08952146684655
:108038008DF82C300A97FFF7BFFE0DB0F0BD0E206B
:10804800FBE71020F9E70720F7E7000030B5047BCD
:10805800012C8DB04FF000033BD18288CDF80A3057
:10806800C2F3861592008DF805200A0E8DF80620B9
:108078000A0C8DF807200A0A8DF80E308DF80820B2
:10808800099306228DF810308DF81C30C3890692AA
:10809800ADF81E30828A90F82C30ADF822208DF889
:1080A8002D3001AA837D0592026A8DF804508DF85F
:1080B80009108DF820400A9243B96FF0010104A815
:1080C8008DF82C30FFF776FF0DB030BD024B5B7D8D
:1080D800F3E71846F8E700BFB43600202DE9F3416E
:1080E8001F4E00243746A046351995F84830012B15
:1080F8000CD102A9284641F8048DFFF7BFFC0428DB
:1081080001D0019B13B12846FFF72EFC7034B4F55B
:10811800E07FE9D100257C1994F84830022B17D16B
:1081280094F86830022B13D1E16C2046FFF78EFFDC
:1081380070B984F868002046E66CFFF7C1F98642FA
:1081480006D120460121FFF7C9F92046FFF72DFA8D
:108158007035B5F5E07FDED1012002B0BDE8F081D1
:10816800CC3600202DE9F0470D469CB014469846C1
:108178000646002800F0CD81002A00F0CA810DF1E2
:108188000C09002303934946C9F8043050880BF0C2
:10819800DBF920B9002738461CB0BDE8F087D4E9E0
:1081A8000312208904F056FD82460028F2D1D4E952
:1081B8000312208904F028FD0746A8B12C22514655
:1081C80010A82589246918F0B4FA0F238DF84030D7
:1081D8009DF84630ADF8445064F3000310A88DF8BC
:1081E800463000F0F1F9D6E70DF14C0A524604F199
:1081F800180C20686168134603C3083464451A469E
:10820800F7D133785AB2D10F8DF840109DF8571036
:1082180000293AD003F07F038DF8423000239A42B8
:108228008DF8413043DB0023199398F80030052B73
:1082380002D97846FFF71CF898F80030B74A99E851
:108248000300D35C8DF86C308AE8030002F018FD57
:108258009DF84030002B00F05581BDF85420B049FE
:108268000023702000FB031494F848C0BCF1020FEF
:1082780037D1B4F814C0944533D1BDF84420A3884D
:108288009A425DD202F03CFD85E7C3F38011002AD3
:1082980003F03F038DF842108DF843301DDA96F94C
:1082A8000130002BACBF042308238DF841307278CD
:1082B800B378920102F4FE5242EA9302ADF84420E8
:1082C800DB00F27803F0180343EA521302F01F02AE
:1082D8008DF846308DF84720A5E704238DF8413006
:1082E800A1E70133042BBDD100249DF8403013B918
:1082F8007846FEF7BDFF179ABDF844101698BDF8EA
:10830800549002F0010AFFF79BF8DFF830C200230F
:108318000CEBC3014A68904218D1B1F802E0CE458F
:1083280014D14978514511D11CF83330002BA9D00C
:1083380010A8FFF7C5F8014610A8FFF787FEA1E7C8
:10834800D3D905212046FFF72DFBCDE70133082BB4
:10835800DED1002C3FD19DF857209DF84730002AE8
:108368000CBF0C22082203FB02220CBF4FF4C0737F
:108378004FF480739A4215D96A4B1B68590781D507
:10838800694B1B68002B7FF77DAF684B6849D3F8B2
:1083980004350192674A0092012040F2363203F018
:1083A800BFFC6FE7022110A8FFF73EF9044690B919
:1083B800014610A8FFF74AFE2C22214605A818F00E
:1083C800B8F910238DF8143005A802238DF81C3055
:1083D80000F0FAF856E7534B1B685B0711D5524B70
:1083E8001B68032B0DDD514B9DF84620D3F804354F
:1083F8000192514A00924E4940F25132042003F052
:108408008FFC94F84830022B02D07846FEF730FFF4
:10841800DFF82C91D9F800A001F07EFF0AEB0001EB
:1084280004F1300001F043FF237B012B1AD194F8AB
:108438006830BBB994F84830022B02D07846FEF772
:1084480017FFD9E9013299F8151002FB013901F03B
:1084580063FF00EB090104F1500001F028FF01233C
:1084680084F868309DF84630E16C0120984001425C
:108478007FF408AF0143E079E1649842A5F1040272
:108488009DF8571033D1002914BF08210C2103FB94
:108498000121E56EA4F84A100CBF0C20082000FB4F
:1084A8000350311D18F01CF92046E56CFFF708F859
:1084B80085427FF4E7AE022384F86830E16C2046F9
:1084C800FFF7C4FD434605462246B4F84A10E06E5D
:1084D800FFF750FB002D7FF4D5AE204684F8685096
:1084E8000121FEF7FBFF2046FFF75FF8CAE691B9C6
:1084F8000C2A02D1E56E1046D1E704212046FFF789
:1085080051FABFE6434610AA691E701CFFF732FBFA
:10851800B8E60E273FE6082AEBE700BFB4100400D0
:10852800CC3600201C2E0020182E00200010014000
:108538002D1104004C110400601104007036002055
:10854800B436002091F84830022B10B50C4602D002
:108558007846FEF78DFE022384F86830E16C2046E9
:10856800FFF774FD08B984F8680010BD2DE9F041E3
:1085780088460746E8B1124E3468C4B925464545D1
:1085880007D1104BC3E90075012333602046BDE8CD
:10859800F08107EBC5035B685BB117F8350003068C
:1085A80009D450B1FEF756FF38B90135E7E704247E
:1085B800ECE70E24EAE70B24E8E70F24E6E700BF20
:1085C8006036002064360020F8B5074610B97846B2
:1085D800FEF74EFE0F4E346894B10F4D01232B70F9
:1085E80023791BB954F8043C384698472468002C72
:1085F800F6D12B78022B03D13168064C09B92970C2
:10860800F8BD0B790E6813B1204603F00FFB314615
:10861800F4E700BF903800208C38002010B50446DD
:1086280010B97846FEF724FE00232372211D024864
:10863800BDE8104003F0D9BA9038002010B50446C0
:1086480010B97846FEF714FE074A1378013B012B50
:1086580004D8022313700123237210BD211D03487F
:10866800BDE8104003F0E2BA8C38002090380020B2
:108678000B888268D25A073222F003021344028818
:108688009BB2043A934288BF00230B80704713B50E
:108698008368CB1A02A921F8023DFFF7E9FFBDF86C
:1086A80006308068184402B010BD70B506461546FD
:1086B8000C4611BB7846FEF7DBFDFEB17846FEF7A7
:1086C800D7FD6B1E2344B3F1005F34D94FF08052BD
:1086D800D2F80C2102F50022B3EB822F2ED2042D02
:1086E80002D87846FEF7C4FD35800023043D738028
:1086F800B380B4602580A37070BD10B97846FEF7CA
:10870800B7FDB4F1005F12D94FF08053D3F80C31A4
:1087180003F50023B4EB832FD3D34FF08053D3F862
:108728000C3103F50053B4EB832FC7D2C9E7B4F576
:10873800000FF2D8C2E7B3F5000F08D94FF0805206
:10874800D2F80C2102F50052B3EB822FC7D378463A
:10875800FEF78EFDC3E738B5044610B97846FEF734
:1087680087FD6288A36813449B78012B02D1784661
:10877800FEF77EFDEFF3108572B6A268A18811445A
:108788008B78032B0AD12046FFF781FFA368C31A11
:1087980063800023837005B962B638BD00239370E7
:1087A8006380A380F7E7F8B50E461546044610B96E
:1087B8007846FEF75DFD16B97846FEF759FD6288E2
:1087C800A36813449B78012B02D17846FEF750FD2D
:1087D800002D37D02388043B9BB29D4232D8EFF35B
:1087E800108772B66188A388EA1D22F003029942B5
:1087F80092B204D25B1A9A4210DD042016E018D90E
:108808002088401A904209D29A42F6D8032881BF9C
:10881800A3685B1804229A70002363806288A168A9
:108828008B188D5201229A700020336007B962B606
:10883800F8BDA26813449B78002BDED19370638047
:10884800A380EBE70920F3E7F8B50D461646044682
:1088580010B97846FEF70CFD15B97846FEF708FD05
:10886800AB78012B02D07846FEF702FD2B88B34285
:1088780002D27846FEF7FCFC16B97846FEF7F8FCFB
:10888800EFF3108772B60223AB70E1182E802046F2
:10889800FFF7EEFE6288A38893421FBFA3689B1868
:1088A80000229A7007B962B6F8BD70B50D46044645
:1088B80010B97846FEF7DCFC15B97846FEF7D8FC07
:1088C800EFF3108672B6A288A36813449A78042A34
:1088D80006D1211D2046FFF7CBFEA288A3681344CA
:1088E8009A78022A03D0032A08D0052003E003223D
:1088F8009A702B60002006B962B670BD7846FEF704
:10890800B7FCF7E738B5044610B97846FEF7B0FC6F
:10891800EFF3108572B6A088A16801448B78042B08
:1089280003D12046FFF7B3FE01468878831E5842DC
:10893800584105B962B638BD38B5044610B978460D
:10894800FEF796FCEFF3108572B6A088A168014483
:108958008878C31E012B05D9831E5842584105B992
:1089680062B638BD2046FFF792FE0146F0E7F8B53B
:108978000D46044610B97846FEF77AFC15B97846D4
:10898800FEF776FCEFF3108672B6AB78012B19D0A0
:10899800032B22D1A288A36813449D4202D07846B3
:1089A800FEF766FC0027AF70211D2046FFF760FE2A
:1089B800A288A36813449B78042B00D1A78006B92A
:1089C80062B6F8BD6288A36813449D4202D0784617
:1089D800FEF74EFC0023AB70F1E77846FEF748FC43
:1089E800EDE710B5EFF3108472B682888168114400
:1089F8008B78042B02D1FFF74AFE01468878B0FA3B
:108A080080F0400904B962B610BD037942799B1A17
:108A180003F57F2303F6FF7300EB03307047000074
:108A280010B5054884681C22002117F082FE2046F4
:108A3800BDE8104003F00CBF9438002070B5194C05
:108A4800E36813B97846FEF713FC237E13B1784622
:108A5800FEF70EFC6368092B02D97846FEF708FC7E
:108A6800114D0026636855F823309847022811D025
:108A780003280DD0012810D163680133092B6360E6
:108A880002D97846FEF7F4FB237E002BEAD004E0F7
:108A98006660F9E7237E0BB1207070BDBDE87040B9
:108AA800FFF7BEBF94380020C8110400038810B532
:108AB800044613B97846FEF7DBFB2088074B04EB26
:108AC800800030EA030203D06288B2F5FE4F04D179
:108AD8001C4004F580542078204410BD00F0FFFFAE
:108AE80070B504460E4647F6FE65FFF7DFFFB04255
:108AF80007D2844205D24388013B9BB2AB42F4D8EB
:108B080070BD0020FCE700000A78094B032A04BF67
:108B1800002119761978012903D11B7E3BB9FFF78B
:108B28008DBF022903D1032A01D1FFF779BF70470E
:108B38009438002010B50C4CE3681878002203F52F
:108B48008051184404F05EF950B9E1680846FFF70F
:108B58005CFF814206D001F58051E160032010BD21
:108B68000120FCE70220FAE7943800201FB50A4BE1
:108B780002221B688DF800200193084A4FF48053A5
:108B880069460120029300F0F1FEB0FA80F0400936
:108B980005B05DF804FB00BFB4380020B0380020F1
:108BA8001FB50123CDE902210190054A8DF8003057
:108BB8006946184600F0DAFE05B05DF804FB00BF10
:108BC800B0380020264BD86802794179013A9142A1
:108BD8002DE9F0471E4603D101205876BDE8F087FD
:108BE80000F580531F491C781C440B6813F8045F78
:108BF8001D44FFF70AFF6388013B9BB247F6FE62FC
:108C0800934200F58057884604D920463946FFF735
:108C180067FF0446DFF850A04FF001092CB9B4FAF9
:108C280084F4640974760120D8E7D8F800106288C3
:108C3800284601F5805104F0E5F805460028EED0F5
:108C480004225146204686F81890FFF7A9FF28B954
:108C580020463946FFF744FF0446DFE70020BDE71A
:108C680094380020B4380020F813040038B5104CAC
:108C7800E36818784FF6FF7203F58051184404F042
:108C8800C1F888B1E36819780B4498420CD0657E26
:108C98000849094B0422002D08BF1946FFF780FF39
:108CA80020B90120207638BD0120FCE70020FAE732
:108CB8009438002000140400FC13040070B50C4D17
:108CC8000C4EE96830680C7804302246FFF768FFDC
:108CD80058B9336804F0FC0404341C44EB686C6134
:108CE8001A7813442B61012070BD0020FCE700BFF7
:108CF80094380020B438002008B5054B0549186899
:108D08000422FFF74DFFB0FA80F0400908BD00BF0C
:108D1800B4380020A0380020074B10B51968074C5C
:108D280040F6FC720431E068FFF73AFF10B9012001
:108D3800207610BD0020FCE7B438002094380020CD
:108D480010B50C4CE1680846FFF75FFE81420AD176
:108D5800094B0A4918680422FFF722FF40B901238A
:108D68002376022010BD01F58051E1600320F9E768
:108D78000020F7E794380020B4380020B8380020E5
:108D88002DE9F74F324C236913B97846FEF770FA8C
:108D9800636913B97846FEF76BFADFF8B89047F6BF
:108DA800FE6A6369D4E9030603EA0908A8EB030825
:108DB800FFF72BFE7388013B9BB2534508F580589B
:108DC80000F5805B06D930465946FFF789FE06460E
:108DD800002835D0354600275D4519D22A8807EB8B
:108DE8008202904509D986EA050313EA090F04D1DE
:108DF8006B88013B9BB2534502D957B9012318E050
:108E080028460192FFF752FE019A05461746E3E706
:108E1800E7B13A4631466069FFF7C2FE90B9636927
:108E28001F44676115B97846FEF722FA25610023C9
:108E380035B1698847F6FF72914201D0002BB0D056
:108E4800012000E0002003B0BDE8F08F0123EFE728
:108E58009438002000F0FFFF1FB50A4B0222DB68A0
:108E68008DF800200193084A4FF480536946012089
:108E7800029300F07BFDB0FA80F0400905B05DF880
:108E880004FB00BF94380020B03800204FF01023B6
:108E980010B55A69013225D05A691AB35B69A3F52E
:108EA8008053A3F58053174A196813604B1E033388
:108EB80025D8C1F30B0313BB134A1448D160012111
:108EC8001170134913765376936051F82340844206
:108ED8000ED1536001200F4900F038FDFFF7AEFDB9
:108EE800012010BD4FF08052516913694B43D8E7F8
:108EF80001330A2BE9D17846FEF7BAF9EAE70020F0
:108F0800EFE700BFB438002094380020618E0200DB
:108F1800C8110400118B020010B5044610B9784638
:108F2800FEF7A6F9094B187860B1E068D96843796B
:108F3800A0EB0333994206D3FFF767FD81428CBF4C
:108F48000020012010BD0020FCE700BF943800205D
:108F5800024B1878003018BF012070479438002061
:108F680038B50E4C2378054613B17846FEF780F9DC
:108F78002B78032B02D07846FEF77AF9EB68E3608A
:108F8800012000230649A56063602376207063767C
:108F980000F0DCFCBDE83840FFF750BD94380020F5
:108FA800118B0200014B1868704700BFB4380020CD
:108FB80010B5044610B97846FEF75AF963681BB134
:108FC80023680BB1A36813B97846FEF751F9A36873
:108FD8005A1E1A4202D07846FEF74AF90023C4E91D
:108FE800033310BD70B50E460446F0B18368F3B183
:108FF800EFF3108572B6D0E90331994203D105B970
:1090080062B605250FE04EB18368013B0B40D0E9FD
:109018000012304602FB031117F062FB236901338B
:10902800236135B962B6284670BD0E25FBE70925D0
:10903800F9E70025F7E70000024AD2F80034002BD0
:10904800FBD0704700E00140C0F30B0310B5E3B953
:10905800E9B1104C0223C4F80435FFF7EDFF01F61F
:10906800FF7121F47F6121F00F010144884205D18D
:109078000020C4F80405FFF7DFFF10BDC4F8080599
:10908800FFF7DAFF00F58050F0E71020F5E7092038
:10909800F3E700BF00E0014070B540EA010414F0B6
:1090A80003041BD1E2B195071AD10E4E0123C6F86D
:1090B80004359508FFF7C0FFAC4205D10020C6F87B
:1090C8000405FFF7B9FF70BD51F824305A1C03D0CE
:1090D80040F82430FFF7B0FF0134EDE71020F2E745
:1090E8000920F0E700E001404388012B05D0022B5E
:1090F80001D1043008600120704704304860FAE765
:1091080008B508220221094803F0F9F920B90848EE
:10911800BDE8084003F074BB064A9168127B0272EE
:109128004160BDE8084003F019BA00BFC438002008
:10913800DC2D00201039002010B5044610B97846FF
:10914800FEF796F82346BDE81040184700B50A4BCD
:109158001A7B9B688DB0012A08BF03F1FF33039087
:109168000CA80493022300F82C3D8DF80820FFF783
:109178002BFA0DB05DF804FB1039002038B50E4D00
:109188002B78C3B90D4B5C6804F50054B4F1807FAB
:1091980011D8042201210A4803F0B1F920B909487D
:1091A800BDE8384003F02CBB012344602B70BDE8B8
:1091B800384003F0D3B938BD2439002010390020D5
:1091C800C4380020CC2D002010B501210C4803F034
:1091D800DBF980B902210A4803F0D6F9044650B9F0
:1091E80001461422074817F0A4FA074B1C70BDE883
:1091F8001040FFF7C3BF054803F002FBF7E700BFC5
:10920800C438002010390020E8380020FC2D002048
:1092180030B50D468DB07AB94B88012B0AD1124C66
:10922800227812B97846FEF723F8104B6A685A601C
:10923800002323700DB030BD032A02D07846FEF714
:1092480017F82C22002101A817F073FA11238DF8C2
:109258000430074B0395DA681B69059201A8069349
:10926800FFF7B2F9E6E700BF2439002010390020E3
:10927800C438002013B501F003FD00216B46124AE3
:109288001248134CCDE9001103F08CF8009B0BB188
:10929800019A6AB900232360A3602373FFF730FFA4
:1092A80023686360FFF76AFF01F02AFD02B010BD72
:1092B8001968A16019792173934202D909B921600B
:1092C800EEE713682360EBE7F1900200C438002052
:1092D8001039002008B503F0E1FAA0F5805008BD68
:1092E8007FB500211822684617F023FAFFF7F2FF2E
:1092F8000123009001936946054B0648039303F048
:109308006BF910B1044803F07BFA07B05DF804FB71
:1093180019920200C4380020EC2D002008B5142250
:1093280000210A4817F005FA00F0F6FF084B094A31
:1093380009499A6000225860C3E903125A61074B31
:109348001A70BDE80840FFF7CBBF00BF10390020F6
:10935800EC3800205594020000879303253900203B
:1093680010B5074C23784BB90648074B036000F04B
:109378005FFD064800F062FF0123237010BD00BFA7
:10938800C038002004390020B9940200EC380020CD
:1093980010B501F075FC104A117B1346C9B9917BD1
:1093A800B9B9118A41F28262914202D80B4A127805
:1093B8007AB101221A739A68002401321C829A60D9
:1093C800FFF79EFE2046FFF7C1FE01F099FC2046FC
:1093D80010BD0824F9E700BF103900202539002006
:1093E80010B501F04DFC174A547B1346BCB1917B74
:1093F80021BB118A41F28262914202D8124A127844
:10940800F2B11A7B002058732AB1012A0BD0784692
:10941800FDF72EFF03E0FFF7BBFF0028F7D101F0AF
:109428006FFC204610BDC3E9000018731882FFF7CF
:109438008DFEFFF765FEFFF7A1FEF0E70024EEE7DB
:109448001446ECE7103900202539002010B5164CD9
:10945800237B2BB1012B12D07846FDF709FF18E0CA
:10946800228A41F282639A4202D8104B1B7883B158
:10947800FFF7B6FF638A0BB1013B638210BD228AF6
:1094880041F282618A4208D8084B1B780BB1FFF77A
:10949800A7FF238A01332382ECE742F2B0118A4204
:1094A800F5D96373E4E700BF10390020253900209F
:1094B8000378042B10B50ED143681B785BB11D4BA4
:1094C8004269197B047E71BB598A01BB012C9968DA
:1094D80002D08A4203D810BD4C1CA24219D92A31A5
:1094E8008A42F8D8997B0029F5D184689A60124A93
:1094F8001A61C3E9001159731973FFF701FEFFF7E9
:109508003DFE04F11000BDE81040FFF71FBE012C1E
:10951800E1D1996801318A42DDD10122BDE81040CC
:109528005A73FFF75DBF0129D5D1012CD3D09968B3
:10953800F1E700BF103900200000062D38B5164CA1
:10954800D4E900239A4205461FD2207B134B1449C5
:10955800012808BF0B469A4207D263682268403B3D
:109568009A4208D3FFF70AFE05E001236373FFF769
:1095780037FF0028F1D0EFF3108072B623685A1C29
:1095880022602B6028B962B638BDFFF7F7FD0F20BF
:10959800FAE70020F8E700BF10390020FFFF7F003E
:1095A80000E0FF000C4A10B51368144628B10120EA
:1095B8000A4903448873136010BD13B97846FDF750
:1095C80057FE2368013B2360002BF5D1034ABDE811
:1095D80010409373FFF704BFBC38002010390020F7
:1095E80000B58DB00323ADF808000CA88DF8102045
:1095F80000F82C3D0391FEF7E7FF0DB05DF804FB82
:10960800014B9868704700BF10390020034B9868D9
:109618001B7B012B08BF00F1FF3070471039002079
:10962800044B9B685840C20748BF03F1FF331846F4
:10963800704700BF10390020014B187B704700BFEE
:109648001039002038B50A4B1C787CB9094D012225
:109658001A702973A860FFF753FD2046FFF776FDBF
:10966800C5E90044FFF78AFD204638BD0820FCE71D
:10967800E8380020103900202DE9F8431D4CDFF8A8
:10968800789000260221204602F046F95FFA86F813
:1096980005460027ADB967B12946204602F0A3F96F
:1096A800082806D154F8043C1BB12A4649464046CE
:1096B80098470136032E04F1BC04E3D10120BDE82C
:1096C800F88354F8043C34F80C2C13B1294640466E
:1096D800984734F80C3C02210133204624F80C3C0E
:1096E80002F036F90221204602F016F90137054644
:1096F800D0E700BF3C390020F011040038B5012143
:1097080004460C3002F008F9054620B3164BC4F89D
:109718009C300023C4F8A03003786268012B07D07E
:10972800022B1AD07846FDF7A3FD4FF4FA7306E032
:1097380081688B1A990829234B4303F5FA730B4A5E
:10974800934294BFC4F8A830C4F8A8200123C4F8F1
:10975800AC4084F8B830284638BD83689B1A1A0B89
:10976800034B5343E9E700BF9D9702006085010062
:10977800084C010010B50446FFF7C0FF48B104F1DA
:109788009C000AF033FC20B17846BDE81040FDF794
:109798006FBD10BD4B4B1B782DE9F74F80460D462A
:1097A8003BB10AF059FC002385F8B83003B0BDE896
:1097B800F08F01F10C09D1F8A8704846012102F098
:1097C800ABF8064610B97846FDF752FDDFF8FCA065
:1097D800A7F5FA7700244FF0290B3378012BA7EB74
:1097E800040406D0022B3BD07846FDF741FD002348
:1097F8001FE06B68B268B4FBFBF4D21AA400944271
:1098080028BF144624B901937846FDF731FD019B22
:10981800F168706823F00303224619441844FFF7DF
:109828003BFC10B17846FDF723FD6B681C446C6067
:10983800B3686A689A422AD10AF00EFC48460121A8
:1098480002F086F800236B6085F8B8301E4B186864
:1098580001F0A4FA284603B0BDE8F04FFFF78ABF2D
:109868006B68B268B4FBFAF4D21A2403944228BF96
:10987800144624B901937846FDF7FAFC019B7068F9
:1098880023F0030321461844FFF7DEFBC9E701F084
:10989800E9F83378B0EB080448BFA8EB0004012BC3
:1098A8000DD0022B06D153462344BB4295D90AF06A
:1098B800D3FBCFE77846FDF7DBFC0023F4E7292349
:1098C800F2E700BF2C39002028390020084C01009D
:1098D80070B51B481B4C01F043FA1B4B186004F190
:1098E8001C0341F203060825636104F10C0004F12E
:1098F80018032361A681A57302F051F804F1D80377
:10990800C4F8D03004F1C80004F1D403C4F8CC3052
:10991800A4F8C86084F8CA5002F041F804F5CA7384
:10992800C4F88C3104F5C873A4F8846184F88651AE
:10993800C4F8883104F5C270BDE8704002F02FB851
:10994800819602003039002028390020022838B5D5
:1099580004460D4602D97846FDF78AFC024BBC2224
:1099680002FB0434A56038BD3039002002282DE9F7
:10997800F84F05460C46924602D97846FDF778FC22
:1099880014B97846FDF774FC2378012B12D163686B
:10999800990702D07846FDF76BFCE3689A0702D076
:1099A8007846FDF765FCA3689B0711D07846FDF75C
:1099B8005FFC0DE0022B0DD16368C3F30B0313B1F9
:1099C8007846FDF755FCA368C3F30B03002BEDD1D4
:1099D800A36813B97846FDF74BFCEFF3108772B60E
:1099E800BC266E43DFF8988006F10C0BC3440021B7
:1099F800584601F091FF8146002836D0002158468C
:109A080001F0A6FF04F1100354F8042B49F8042BC5
:109A18009C42F9D1BAF1000F05D0BC2303FB0583A2
:109A28005B88AAF80030BC2303FB05856B8895F892
:109A3800B84001336B80F4B9104B1D78B5B908EB09
:109A48000600FFF75BFE77B962B63C4640B106F107
:109A58009C0040440AF0CAFA10B17846FDF708FCA9
:109A68002046BDE8F88F2C46F0E70424002FF7D1F4
:109A780027460020E8E70024F8E700BF2C3900203B
:109A88003039002070B5EFF3108672B6144C236895
:109A980018BB13B97846FDF7EBFB2368013B23603D
:109AA80093B9104D95F8B83013B92846FFF762FE00
:109AB80095F8743113B90C48FFF75CFE95F830320D
:109AC80013B90A48FFF756FE2368094A003318BF3E
:109AD8000123137006B962B670BD01332360F3E742
:109AE800643B002030390020EC390020A83A0020DF
:109AF8002C39002010B1800B014B185C704700BF57
:109B08000012040012DF7047137813B563B1042BF9
:109B18000CBF0724002410F8013C292B43D005D89A
:109B2800162B4BD002B010BD547DF4E72A2B1BD066
:109B38002B2BF7D1022CF5D110F8021C0139C9B230
:109B480003F0EAF80028EDD0234B1B685B06E9D543
:109B5800224B1B68012BE5DD214B224AD3F8043543
:109B680000920190A42219E0022C01D0072CD9D12F
:109B780010F8021C013901F035FC0028D2D0164B30
:109B88001B685A06CED5154B1B68012BCADD144B32
:109B9800154AD3F804350092019091221349022006
:109BA80002F0BEF8BEE7022CBCD110F8021C013945
:109BB800C9B202B0BDE810400EF072BD01884FF680
:109BC800E4639942AED110F8021C0230033902B0A6
:109BD800BDE81040FDF74ABB1C2E0020182E0020BF
:109BE800001001409F120400761204006B1204005A
:109BF80070B58AB00AF0C0FE0446002834D00023AD
:109C080006468DF810300FCE05AD0FC533682B60B2
:109C1800627D052A0CD9207D00F00F03072B07D0A1
:109C280004AB063A04F11D0100F00F0009F086FDAF
:109C3800114B1A68AAB104AB0393237DC3F3030342
:109C48008DF80430637D062B89BF063B00238DF811
:109C5800053004F11D0398BF8DF80530029301A863
:109C6800904720460AF072FE0AF09EFE80F001003E
:109C7800C0B20AB070BD00BF6C3B002000B50A4BF3
:109C88001A78032A8DB00CD104221A7000212C22D4
:109C980001A816F04EFD1B2301A88DF80430FEF72D
:109CA80093FC0DB05DF804FB683B0020F7B52E4F20
:109CB8003A780546002A4DD100284DD0067A0F2E55
:109CC80001D0062E4AD104F0F1FCE86800283ED005
:109CD800FDF748FB0DF10700FFF714FF044698BB9A
:109CE8009DF80730012B3BD1FDF764FB00F092FA99
:109CF800304600F077FFE87800F00AF900F0AEFD92
:109D08000AF012F919480AF0E7FE09F08BFEFFF78E
:109D1800DFFD03F001FF00F049FC04F087FC284652
:109D280001F008FB2846FEF7A5F803F04DFBFDF708
:109D38009DFA08B1062815D10D4809F0D1FC0D4B44
:109D480000221A6001233B70204603B0F0BDFDF7E6
:109D580015FBBFE70824F7E70E24F5E70724F3E728
:109D68000224F1E70446EFE7683B0020F99B020074
:109D78000C2E00206C3B002037B51B4D2A78012A99
:109D880005D002D3033A012A26D908241FE00AF095
:109D9800BFFD01F0E1FAFEF7AFF8FDF767FA0446F8
:109DA800C0B1062816D0114B1B685B040FD5104BA9
:109DB8001B68012B0BDD0F4B0F4AD3F804350F49F5
:109DC80001900092022040F2971201F0A9FF20466C
:109DD80003B030BD00F032FF0AF0FAF8044600285C
:109DE800F5D102232B70F2E7683B00201C2E0020DF
:109DF800182E002000100140041204006B12040009
:109E080008B5084B1A78022A0AD1032206481A70A4
:109E18000AF0ACF818B17846FDF72AFA002008BD18
:109E28000820FCE7683B0020859C0200FEF766B826
:109E3800FEF7F4BBFEF702BC08B500F0DFFC00201B
:109E480008BD05F039BD0000044B1A680132B2F1B3
:109E5800704F08BF01221A6018687047703B0020D5
:109E680010B5044610B97846FDF702FA0023C4E994
:109E7800003310BD38B50D46044610B97846FDF7D5
:109E8800F7F915B97846FDF7F3F900236B60EFF39E
:109E9800108372B6226822B92560656003B962B67C
:109EA80038BD62685560F8E710B5044610B97846C1
:109EB800FDF7DEF9EFF3108272B6206808B1436847
:109EC8002360236803B9636002B962B610BD10B598
:109ED800044610B97846FDF7CBF9206810BD35DF88
:109EE8007047000008B54FF0FF30FFF7F8FFBFF3E9
:109EF8004F8F0549054BCA6802F4E0621343CB60F3
:109F0800BFF34F8F00BFFDE700ED00E00400FA0546
:109F180007289ABF024B33F81000FA20704700BF99
:109F2800CA120400024B5868103840B2704700BF8C
:109F380000ED00E0084A202390FBF3F352F82330A9
:109F4800424202F01F0200F01F0058BF504223FA9D
:109F580000F000F00100704700E100E046DF7047C4
:109F680030B501F110031032103013F8014D12F81A
:109F7800015D8B4284EA050400F8014DF5D130BD3E
:109F88002DE9F04F91B002F10F0504AE98468A46CC
:109F98002D11034600F11004B14618685968374678
:109FA80003C70833A3423E46F7D102F00F04002D41
:109FB80058D0002C56D10127BB461022002108A8F2
:109FC80016F0B7FB4846FFF7C9FF01220DF13F0124
:109FD80010AB13F9100D1E4693F800C04FEA4C0C55
:109FE8005FFA8CFC83F800C013F801EF4CEADE1C22
:109FF800994203F801CCEFD19DF83F305B00DBB20A
:10A008000028B8BF83F087038DF83F30531C9B4569
:10A018004FF00202DCD2013D0AEB051137B30CAA5E
:10A028006846FFF79DFF102200210CA816F081FB5F
:10A038000024AC422CDB3246694608A8FFF790FFA3
:10A048004846FFF78BFF10AA334603CB9342C8F864
:10A058000000C8F804101E4608F10808F4D111B031
:10A06800BDE8F08F00274FF0020BA6E722466846AE
:10A0780016F036FB10AB2344802203F8402C013441
:10A08800102C02D10CAA6946CAE70DF80470F6E74D
:10A098000AEB0412314608A8FFF762FF4846FFF7AB
:10A0A8005DFF0134C5E7000038B5124B1A68044655
:10A0B8002AB11A6845685268AA1A002A0DDA1A687D
:10A0C80062611C609A88013292B29A8012B978460D
:10A0D800FDF7CEF80123237038BD19684A691AB113
:10A0E8005068401B002802DB62614C61EAE71146B8
:10A0F800F4E700BF783B0020124B1A68824210B583
:10A108001A4604460BD142691A609A8892B2511EC7
:10A1180089B299808AB97846FDF7AAF80DE01B68DC
:10A128005BB15969A1420BD16169596193889BB2AE
:10A13800591E89B29180002BEDD00023237010BDE9
:10A148000B46EDE7783B0020014B186800F026BE6F
:10A15800743B0020044B1A6822B11B6803495868F5
:10A1680000F064B900F0B8B9783B002051A10200B2
:10A178002DE9F04100F0D0F8254E054637464FF05E
:10A188000008336823B133685B685B1B642B06D413
:10A1980000F0C2F8FFF7DEFF0120BDE8F081346867
:10A1A8002378012B02D07846FDF762F863693B609B
:10A1B800BB88C4F814809BB25A1E92B2BA8013B9F5
:10A1C8007846FDF755F8A36813B97846FDF750F8B7
:10A1D8000223284623702169A368984700F09CF859
:10A1E8002378022B0546CCD1E2680AB92270C8E769
:10A1F80063686FF06301891A1344091AD018C142C1
:10A2080004D463602046FFF74FFFBAE70346F5E73B
:10A21800783B002008B5064B064800221A605A60B1
:10A2280000F09EFD044B1860BDE8084000F066B8D9
:10A23800783B002079A10200743B002010B5044649
:10A2480000F086FE10B97846FDF712F814B9784682
:10A25800FDF70EF8A36813B97846FDF709F82378D7
:10A26800012B02D17846FDF703F8002363612046ED
:10A27800FFF71AFF00F050F8BDE81040FFF76ABF7B
:10A2880010B5044600F064FE10B97846FCF7F0FFFC
:10A2980014B97846FCF7ECFF2046FFF72DFF0023A2
:10A2A800636100F039F8BDE81040FFF753BF38B5D7
:10A2B80004460D4600F04CFE10B97846FCF7D8FF6E
:10A2C80014B97846FCF7D4FF2046FFF715FF0023A2
:10A2D800636120466560FFF7E7FE00F01DF8BDE802
:10A2E8003840FFF737BF0378DBB2012B04D0007882
:10A2F800831E5842584170471846704708B511F0F8
:10A3080059FD38B911F096FC20B17846BDE80840EF
:10A31800FCF7AEBF08BD000010B5EFF3108072B6B1
:10A328000C4A0D4B1968D2F80435D2F80441012CB7
:10A3380004BFD2F80435013100B962B6074843EAD0
:10A3480001614FF480420023E0FB0123D00B40EA77
:10A35800434010BD00100140803B002040420F00E8
:10A368000A4B10B54FF40032094CC3F84823C3F820
:10A378000823226812B97846FCF77AFF2468FFF7A9
:10A38800CBFF2346BDE81040184700BF001001402E
:10A398008C3B002010B5EFF3108072B61E4B1F499E
:10A3A8000022C3F804210A6801320A6000B962B6C3
:10A3B8001B4A116809B31168013911601268E2B9C2
:10A3C800184AD3F804051168884217D2EFF31080B1
:10A3D80072B6D3F8041514680131A1422ABFD3F824
:10A3E800042512680232C3F8442500B962B64FF456
:10A3F8000032C3F84423C3F8042310BD0A4C226872
:10A4080012B97846FCF734FF2468FFF785FF234626
:10A41800BDE81040184700BF00100140803B0020F5
:10A42800843B0020883B00208C3B002037B500236C
:10A43800044601930D4611B97846FCF719FF204BE5
:10A448001D60FFF769FF031B002BB8BF241A1D48C6
:10A458001D4AA8BF00244FF4004500210023E5FB56
:10A46800040115F093FFEFF31083019372B6174AB6
:10A47800174CD2F804350228C3F1FF1101F57F41CA
:10A4880038BF02208142134910D30344C2F844352F
:10A498004FF40033C2F84433C2F804330023236076
:10A4A8000B60019B03B962B603B030BD03F17F4373
:10A4B800013303441A0E0132226023F07F43EFE791
:10A4C8008C3B002020A1070040420F0000100140F3
:10A4D800843B0020883B0020074B4FF40032C3F830
:10A4E8004823C3F80823054A00231360044A13606D
:10A4F800044A1360704700BF00100140843B0020ED
:10A50800883B00208C3B002030DF704731DF7047EC
:10A5180010B5D0E900238468C168A2EB731283EAFE
:10A52800F43303600C441344114444608160C360F5
:10A53800184610BD37B50C46054610B97846FCF7E5
:10A5480097FE00239C4201D803B030BD0DF10700EF
:10A55800FFF7DAFF9DF807100029F7D0E21A9142B9
:10A5680088BF8DF80720E8189DF80710FFF7CEFF81
:10A578009DF807201344E5E737B5044602A80023F1
:10A5880040F8043D0421FFF7D5FF074B2360019BEA
:10A59800E360C4E9013314252046FFF7B9FF013D04
:10A5A800FAD103B030BD00BFED5EEAF1704748DF75
:10A5B800704749DF70474ADF70470000064A0323A7
:10A5C80013741168054B536140F6D862914288BFF5
:10A5D80043F2B0629A607047BC3B0020DC3B00202D
:10A5E800054B1B68A0F1780228335843034BB0FB96
:10A5F800F3F0101A704700BFD83B002040420F000C
:10A6080038B50E4A0E4C01236371136800250133D7
:10A618001360257400F082FA09F08CFD2068FFF7BA
:10A62800DFFF084A0146284600F0EAF920B17846DB
:10A63800BDE83840FCF71CBE38BD00BFF03B002029
:10A64800BC3B0020C5A502001F4B10B45A6928B1B5
:10A658001968DC6811440134DC60196099680124C8
:10A668000131E24001291C7499605A611C680ED0BE
:10A6780002291AD05B69154A1C44944203D840F653
:10A68800D76293421CD85DF8044BFFF7B9BFB2F507
:10A69800FA7F03D130B900225A61EBE740F6D8615E
:10A6A8008A42E7D840F6D862F6E7DA68022A02D189
:10A6B800064A121BF0E7012ADCD10028EBD0D9E7C3
:10A6C8005DF8044B704700BFBC3B002080969800A3
:10A6D80070B5424C424D012323712B781BB1414B7D
:10A6E8001E78002E5BD000232374042853D8DFE89B
:10A6F80000F0034D4A4844003B4DA179AA68C4E9DB
:10A70800023323682260002934D00121217437499B
:10A71800002B08BF0B46991AB1F57A7F26D39A42C7
:10A7280024D8616143F2B06043F69822C5E9020279
:10A7380001236B71A371237C023B012B0DD8637934
:10A7480043B109F013FD2068FFF74AFF00F018FA3B
:10A7580000236371234B00221A70237C2448022BA8
:10A7680004BF012323760023237170BD4FF47A734D
:10A778006361D7E7FFF744FFD4E70120FFF764FFE1
:10A78800D9E70020FAE709F08BFCD4E700F08AF952
:10A7980009F0BEFCCFE77846FCF76AFDCBE700F08E
:10A7A80061F92B782060022B0FD0032B06D0012BE8
:10A7B80010D10223237400232B70BCE70A4B0D49E8
:10A7C8000D4A5E71C3E90212A67103232374064B76
:10A7D8006361F0E77846FCF74BFDECE7BC3B0020F3
:10A7E800ED3B0020EC3B0020DC3B002080969800ED
:10A7F800CC3B0020A0860100FF1FA107043808B544
:10A80800042825D8DFE800F016220A030F00114BB0
:10A818001B7E012B1CD1FFF7CCFEC8B17846BDE8E2
:10A828000840FCF725BD0B4B00221A76BDE808400E
:10A8380009F0D4BC08480123437143F6982240F636
:10A84800D863C0E90232FFF7B6FEE6E70248FAE746
:10A8580008BD00BFBC3B0020DC3B00200D4A4FF484
:10A8680080710023918043F2B06C43F698211370F5
:10A87800C2E902C1084A1060084A1370084A1370F6
:10A88800084A1360084A1371537113601376012341
:10A8980093717047DC3B0020D83B0020EC3B002044
:10A8A800ED3B0020F03B0020BC3B002010B50E4CD7
:10A8B800227E012A0CD004D3022A0CBF11200020CA
:10A8C80010BD0A48FFF773FE10B17846FCF7D0FCBC
:10A8D8000748FFF770FE10B17846FCF7C9FC022361
:10A8E80023760020ECE700BFBC3B0020D9A602007D
:10A8F800DC3B0020074B1B7C023B012B07D9064B96
:10A908001878013802288CBF0020012070470120E8
:10A91800704700BFBC3B0020ED3B0020014B18688E
:10A92800704700BFBC3B0020074B587910B548B1B1
:10A938001868FFF755FE044600F094F80346201AFD
:10A9480048BF181B10BD00BFBC3B0020014B187945
:10A95800704700BFBC3B0020024B187E003018BF78
:10A9680001207047BC3B0020EFF3108372B6054A04
:10A97800527922B1044A4FF48071C2F8001103B928
:10A9880062B67047BC3B002000E100E0044B1B7E30
:10A99800022B04D1034B01221A70FFF7E5BF704761
:10A9A800BC3B0020ED3B0020064B1B7E022B07D151
:10A9B8000128054B0CBF032202221A70FFF7D4BFEF
:10A9C800704700BFBC3B0020ED3B0020064B1978C8
:10A9D8001A4631B128B90549097811B11870FFF73D
:10A9E800C3BF1070704700BFEC3B0020ED3B002058
:10A9F800024B1B6803B962B6704700BF043C0020D5
:10AA0800022810B522D8EFF31084114B1C6072B6DF
:10AA1800104B43F82020104B002243F820200F4B06
:10AA28001B787BB1830003F1804303F500431030AA
:10AA3800C3F84021012202FA00F0094AC2F80403CF
:10AA4800C3F84015FFF7D4FF002010BD0720FCE72E
:10AA5800043C0020F43B0020103C0020003C002077
:10AA68000080004008B5EFF310820A4B1A6072B6F6
:10AA7800094B1B7853B1094B0022C3F84C21012222
:10AA8800DA64D3F84C05FFF7B3FF08BD044B186828
:10AA9800F9E700BF043C0020003C00200080004093
:10AAA800083C00202DE9F84F174FDFF8608000249C
:10AAB800A60006F1804505F50045D5F84031EBB113
:10AAC800D7F8042304F1100B22FA0BF2D30715D59B
:10AAD80056F80890B9F1000F02D17846FCF7C8FB88
:10AAE800012303FA0BF34FF0000A48F806A0C7F851
:10AAF8000833FFF7B7FFC847C5F840A10134032C56
:10AB0800D6D1BDE8F88F00BF00800040F43B00209C
:10AB1800014B1B68184470470C3C002008B5134BC8
:10AB28000022C3F84025C3F84021D3F84011C3F8E8
:10AB38004425C3F84421D3F84411C3F84825C3F881
:10AB48004821D3F848310A4B1B681BB9094B4FF40D
:10AB580080721A60084B01221A70FFF7DDFB01466C
:10AB6800FFF780FF054B081A186008BD00800040F9
:10AB7800043C002000E100E0003C00200C3C0020E8
:10AB88000B4A0C4900231360536093600A4A0B6018
:10AB980010600A4A4B6013708B60094B4FF0FF320C
:10ABA800C3F80823074B4FF48072C3F8802170471D
:10ABB800103C0020F43B0020083C0020003C002012
:10ABC8000080004000E100E0044B1B780F2B1EBF03
:10ABD800034B4FF48022C3F800217047643D0020E6
:10ABE80000E100E010B5104C104B207010480360D5
:10ABF8001023C0E90133FEF7DBF90E48FFF730F9FF
:10AC080023780F2B0AD0072B09D8EC221A41D20738
:10AC180005D55B01084ADBB282F8123310BD7846CD
:10AC2800BDE81040FCF724BB643D0020303C002008
:10AC38001C3C0020683D002000E100E00D4B1B7823
:10AC48000F2B0DD00C4991F812335A09EC231341FC
:10AC5800DB0706D5094B9A6832B94FF480230B609D
:10AC680070477846FCF704BB1A6842F480221A60E1
:10AC7800704700BF643D002000E100E09C560020C2
:10AC8800F8B5EFF3108772B617480268511C0160D7
:10AC980002BB164B1B780F2B21D0EFF3108C72B62A
:10ACA800134A144C95680123E5B99360124B134E6F
:10ACB800D3F8801031401160C3F88060D3F8841055
:10ACC80051604FF0FF32C3F884202570BCF1000FAB
:10ACD80000D162B6036813B97846FCF7C9FA07B918
:10ACE80062B6F8BD2370F1E7303D0020643D0020D6
:10ACF8009C560020653D002000E100E0FC06FFBDF9
:10AD080038B5EFF3108572B6104C236813B978463E
:10AD1800FCF7AEFA2368013B2360A3B90C4B1B7800
:10AD28000F2B10D00B4B9A686AB10B4A127852B9A4
:10AD3800EFF3108072B609491C680C605C684C60BF
:10AD48009A6000B962B605B962B638BD303D0020D8
:10AD5800643D00209C560020653D002000E100E095
:10AD680038B5054610B97846FCF782FA094C2368CD
:10AD7800092B02D97846FCF77BFAEFF3108372B6F9
:10AD88002068421C2260044A42F8205003B962B687
:10AD980038BD00BF343D0020383D00200E4B1B68F5
:10ADA800834210B5044602D87846FCF761FAEFF3FF
:10ADB800108072B6094A6109012304F01F0403FADE
:10ADC80004F452F82130234342F82130FFF7FCFE07
:10ADD80000B962B610BD00BF343D0020603D0020C0
:10ADE80070B50D461646044610B97846FCF740FA89
:10ADF80015B97846FCF73CFAEFF3108372B60022D7
:10AE0800C4E902562274246003B962B670BD00001A
:10AE180070B5044610B97846FCF72AFAA36813B946
:10AE28007846FCF725FAEFF3108672B6237C03F018
:10AE3800FF055BB90123064823742146FFF71AF87A
:10AE4800FFF7C2FE284606B962B670BD1120FAE7C0
:10AE5800683D002010B5044610B97846FCF708FA9A
:10AE6800207C10BD2DE9FF47324E337813B1784668
:10AE7800FCF7FEF90125DFF8CC802F4FDFF8C890EA
:10AE880035700024D8F80030A34212D82B48DFF8D8
:10AE9800AC80FFF709F8002760BB294C69462046BB
:10AEA800FEF7A0F8A0B300232846337004B0BDE82D
:10AEB800F087630904F01F0157F82300C840C20750
:10AEC80016D5EFF3108072B6012202FA01F157F895
:10AED800232022EA010247F8232000B962B659F874
:10AEE80024309847824618B92046FFF757FF554641
:10AEF8000134C7E70468237C13B97846FCF7B8F92E
:10AF0800D4E90230984727744046FEF7CDFFC3E7DF
:10AF18009DF8003043B1012BC0D1019B002BBDD05F
:10AF2800DDE902019847B9E7019B002BB6D00298EA
:10AF38009847B3E7703D0020603D0020683D002041
:10AF48001C3C0020343D0020383D0020FFF78ABF1C
:10AF580007B5FEF7E7FF8DF803009DF803301749A2
:10AF6800F02B0DD10B780F2B25D01220FEF7E2FF26
:10AF780080F00100C0B200F0010003B05DF804FBEE
:10AF88009DF803305BB2002BADBF03F1604303F0C3
:10AF98000F030B4A03F56143B4BFD35C93F8003346
:10AFA8005B090193019A0B78934204D0019A93426A
:10AFB800DBD30020DFE70120DDE700BF643D002090
:10AFC80014ED00E046DF7047F0B58DB06D460B46D6
:10AFD800044600F1100C2F46206861682E4603C60F
:10AFE800083464453546F7D104AD03F110061868F6
:10AFF80059682C4603C40833B3422546F7D138466E
:10B00800FFF7E0FF08AC0CAD234603CBAB42106062
:10B0180051601C4602F10802F6D10DB0F0BDFEF7F2
:10B02800AFBF01F004BD01F03ABD30B4032954D8D4
:10B03800DFE801F00225254E00241C70817A5A7839
:10B0480061F30602C17A61F3C7125A70C1680D0430
:10B05800C1F3074205F47F0501F47F412A430A43FF
:10B06800C2F307219A70120C1A71D9700189DC7128
:10B078000A0A42EA0122A3F805201C7222E019708C
:10B08800597801F0800162F3C7115970C1680C0446
:10B09800C1F3074204F47F0401F47F4122430A43C9
:10B0A8009A70C2F30721120C1A71D97001890A0A21
:10B0B80042EA01224188A3F805200A0A42EA01224D
:10B0C800A3F80720026912BAC3F8092030BC7047F8
:10B0D800032200241A705C70B8E7784630BCFCF78D
:10B0E800C7B87FB50E461546044600B112B9784672
:10B0F800FCF7BEF810220021684615F01AFB2B4613
:10B10800324621466846FEF73BFF04B070BD2DE984
:10B11800FF410B9D884616461C46074610B10AB1EA
:10B1280003B115B97846FCF7A3F86B464246394691
:10B138003046FEF725FF2B469DF828202146684615
:10B14800FEF71EFF04B0BDE8F0810000F0B50F4621
:10B158008FB015461E46044608B101B113B97846AA
:10B16800FCF786F81DB97846FCF782F801E0102D47
:10B17800F9D8274B1868009005AA04216846FFF7FC
:10B18800B0FF01AB2146102205A8FEF7F9FE2A46BA
:10B19800394605A815F0A4FA0EAB2B44012203F892
:10B1A800242C05ABAA18194692B201A8FEF7E8FEAE
:10B1B8009DF82330344603F07F0304F8013B2A4608
:10B1C800394609A815F08CFA05F110070EAB1F4493
:10B1D80011350223ADB207F8243C2A46234605A9B7
:10B1E80001A8FEF7CDFE1136234605AC186859684C
:10B1F800224603C20833B3421446F7D1032207F8A4
:10B20800242C05A92A4601A8FEF7BAFE0FB0F0BD06
:10B21800DA12040070B50D4688B0064600B111B9BF
:10B228007846FCF725F8114C04212068019004AAFF
:10B238000DEB0100FFF755FF04AB3146184610220D
:10B24800FEF79EFE234602A953F8040F02901B79CD
:10B258008DF80C3004AB18460522FEF791FE06ABBC
:10B2680003CB2860696008B070BD00BFDE1204001F
:10B2780070B50D4686B0064600B111B97846FBF7A1
:10B28800F7FF0F4C54F8040B009002AA68460421FB
:10B29800FFF727FF02AB314618461022FEF770FE73
:10B2A8002068019002AB042218460DEB0201FEF75C
:10B2B80067FE9DF8173003F03F032B7006B070BD92
:10B2C800E712040030B50268437BD17A87B00029C1
:10B2D8008DF8043083680CBF0421082109330B441E
:10B2E800CDE90232436804930446037B8DF8143099
:10B2F800694601A801F0C8FDD0B1637B012B0ED0CF
:10B308002568FEF783F9286120680C30FEF716F9E6
:10B31800054620B101F030FE284607B030BD21684F
:10B32800009800F084FA009B093323610025F3E7B5
:10B338000425F1E708B5074B40B91860FDF7EEFFA3
:10B34800FDF798FFBDE8084002F004BA42681A60A9
:10B35800F4E700BF743D002008B5FEF701F8BDE82A
:10B36800084002F035BA10B5044610B97846FBF724
:10B378007FFF236813B97846FBF77AFF23685B6978
:10B3880013B97846FBF774FF637B012B02D9784623
:10B39800FBF76EFF2046BDE81040FFF793BF10B5DE
:10B3A800044610B97846FBF763FF236913B978465A
:10B3B800FBF75EFF236813B97846FBF759FF23684C
:10B3C8005B6913B97846FBF753FF206900F08CFAE4
:10B3D800A16802460023206800F0EAF9BDE81040A1
:10B3E80001F0A4BDF0B50E4697B0174605460028F3
:10B3F80000F0928000F07CFA2946421B0EA815F056
:10B408006FF908AC002300932A460EAB314620465C
:10B4180000F084F90546002868D19DF82030002BFB
:10B4280064D00B9BB3F1807F60D29DF92A30002B4A
:10B438005CDB0D9B13B97846FBF71AFF39462046AB
:10B4480004F066FA3146204600F046FAC6B23B469A
:10B45800224631460DF14100FCF784FE05460120E5
:10B4680003F014F900283CD09DF82A30012B38D974
:10B478009DF82030012B05D103A9BDF8220008F062
:10B4880063F870BB254B9DF82A201B6813BB9DF8F9
:10B498002A300394013B8DF82A304FF0FF33049390
:10B4A80000238DF8183003A8012305968DF819306C
:10B4B800FFF708FFE8B932460DF14101079815F08A
:10B4C8000FF903A8FFF76BFF9DF82A3001338DF8B9
:10B4D8002A3006E0BDF82210BDF828009847002859
:10B4E800D5D10B99BDF82800FBF794FF284617B073
:10B4F800F0BD0B4B1B689B07E6D50A4B1B68012B5D
:10B50800E2DD094B094AD3F80435094900920220C3
:10B51800962200F005FCD7E70E25E7E7743D0020EA
:10B528001C2E0020182E0020001001403B130400A0
:10B538003113040008B510B1012801D1032008BD5A
:10B548007846FBF795FE0020F9E730B589B000236F
:10B5580004938DF81430036940691BBACDF815308F
:10B568000B46144653F8072FCDF819209A88ADF8E2
:10B578001D209B798DF81F300D466A46113004A9AD
:10B58800FFF722FDAB1D0DF10600E21D13F80119AE
:10B5980010F8014DAB4281EA040102F8011DF5D112
:10B5A80009B030BD2DE9F043D5B01E4600238DF813
:10B5B8001730ADF83C300E93D31D0C93F31D109348
:10B5C8005C9B43610F460DF118091146324604464B
:10B5D800CDF82C90FFF7B9FF7378DB09E372737825
:10B5E80003F07F03A372F378B2781B0243EA0243A5
:10B5F80032791343E3607379B07940EA03202081FC
:10B60800FEF778FA01286AD1E27A002AA7F109033D
:10B6180014BF08220422934261D3E1682089FBF712
:10B62800DBFE00285BD10DF14C084146208907F06C
:10B638008BFF0546002852D1E37A9DF87401002B50
:10B6480014BF08230423073F8DF84830FF1A0C9BCA
:10B65800BFB2ADF834701F441197FFF76BFF4B462C
:10B6680001462A462046FFF7E0FC63690DF1170101
:10B6780001330AA80A93FFF7D6FC9DF8173073B375
:10B68800F379307A40EA03206080FEF733FA1D4BE5
:10B6980020701B689B0722D51B4B1B68032B1EDDE4
:10B6A800BDF83420194B109C1968802A28BF8022C5
:10B6B8002846904218D1002308F8103003F180433F
:10B6C80003F58833124AD3F804350192114A0092DF
:10B6D800CDF80880E6221049042000F021FB9DF8EF
:10B6E800170055B0BDE8F083235C1D0903F00F0374
:10B6F8004D5D08F81050CD5C08EB400301305D70DB
:10B70800D7E700BF1C2E0020182E0020202E002076
:10B71800B7130400570E0400AA1304002DE9FF47CD
:10B72800894615461F469DF830A0064618B112B145
:10B738000BB19A4202D17846FBF79AFDA9F10903A9
:10B74800142B31D82878C009FDF76AFF002330612F
:10B75800736195F80080CDE9023308F07F0803AAE9
:10B7680002A9404607F0DCFD029BB3B1CDE9003ADF
:10B778002A463B4649463046FFF714FF044608B1BF
:10B7880000200EE0039B43B1CDE9003A2A463B4630
:10B7980049463046FFF706FF40B9029B002BDED131
:10B7A800052004B0BDE8F0870920FAE72046F8E74D
:10B7B800F0B50C468FB016461F46054610B97846B8
:10B7C800FBF756FD16B97846FBF752FD012F02D953
:10B7D8007846FBF74DFD3846FFF7ACFE01AF3B4618
:10B7E800014600222846FFF720FCEB7A002B14BF05
:10B7F800082304238DF834306B69A11C0133CDE98B
:10B80800053789B2F31D0022ADF8201005A81944A8
:10B8180007930B93ADF8282009920C91FFF701FCD0
:10B82800324631462846FFF790FE0FB0F0BD38B5D6
:10B838000D46044610B97846FBF71AFD15B9784647
:10B84800FBF716FD2889FEF755F9012802D078463E
:10B85800FBF70EFD95F90A30002B02DA7846FBF764
:10B8680007FDEB68B3F1807F02D37846FBF700FD54
:10B878006B6913B97846FBF7FBFC2B6903F00102EF
:10B88800237803F07F0343EAC21323706A691278AE
:10B8980023F07F0302F07F02134323706378EA7A70
:10B8A80003F07F0343EAC213DBB26370AA7A23F082
:10B8B8007F0302F07F0213436370EB6823711A0C55
:10B8C800A2701A0AE2702B89A3711A0A62716B8836
:10B8D80023721A0AE27138BDC37A002B14BF0820FC
:10B8E80004200939081A7047093870470930704729
:10B8F80001307047436849B9027880781A441B7848
:10B90800C31A12F8010C1844C0B270475A185B5C8D
:10B9180012F8010CC01AF7E738B50D46044610B9FD
:10B928007846FBF7A5FC2378AB4202D87846FBF7AC
:10B938009FFC29462046FFF7DDFF40B16368627827
:10B94800585DA378013B1840A36802FB003038BD5E
:10B9580038B50C46054610B97846FBF789FC2B78B4
:10B96800A34202D87846FBF783FC21462846FFF716
:10B97800C1FF18B16A68135D0133135538BD10B59E
:10B98800044610B97846FBF773FC00231946227861
:10B998009A4200D810BD6268D1540133F7E710B558
:10B9A8004378044613B97846FBF762FC2378012BE9
:10B9B80002D87846FBF75CFCA36813B97846FBF716
:10B9C80057FC636813B97846FBF752FCA37813B1A8
:10B9D8005A1E1A4202D07846FBF74AFC2046BDE8B8
:10B9E8001040FFF7CCBF38B50D46044610B978466D
:10B9F800FBF73EFC2378AB4202D87846FBF738FCCD
:10BA080029462046BDE83840FFF774BF08B520B185
:10BA180019B1FFF72DFC002008BD0E20FCE713B577
:10BA28000B4650B149B102A9002401F8014D012289
:10BA3800FFF78CFB204602B010BD0E20FBE700008C
:10BA480030B50C468BB00546E0B1D9B11031FFF7DF
:10BA5800E1FB0D4B03930D4B186804909B88ADF8E0
:10BA6800143006AA042103A8FFF73BFB0623009322
:10BA78002846019404AB06AA1021FFF748FB0020D2
:10BA88000BB030BD0E20FBE76E6B626BCA1304006F
:10BA980030B50D468BB00446C8B1C1B10D4B039308
:10BAA8000D4B186804909B88ADF8143006AA042141
:10BAB80003A8FFF716FB062300932046019504AB65
:10BAC80006AA1021FFF723FB00200BB030BD0E2083
