:020000022000DC
:1060000000F0032071630200596302005B63020029
:106010005D6302005F630200616302000000000034
:1060200000000000000000000000000063630200A8
:1060300065630200000000006763020069630200FC
:106040006B6302006B6302006B6302006B63020010
:106050006B6302006B630200418502006B63020008
:106060006B6302006B630200293C03006B63020058
:106070006B6302006B6302006B6302006B630200E0
:106080006B630200F9AC0300C1C202006B63020043
:10609000C9AD03006B630200516003006B63020033
:1060A0006B6302006B6302006B6302006B630200B0
:1060B0006B6302006B630200000000000000000040
:1060C0006B6302006B6302006B6302006B63020090
:1060D0006B6302006B6302006B6302006B63020080
:1060E0006B6302006B6302006B6302000000000040
:1060F000000000006B630200000000006B63020000
:10610000000000000000000000000000000000008F
:10611000000000000000000000000000000000007F
:10612000000000000000000000000000000000006F
:10613000000000000000000000000000000000005F
:10614000000000000000000000000000000000004F
:10615000000000000000000000000000000000003F
:10616000000000000000000000000000000000002F
:10617000000000000000000000000000000000001F
:10618000000000000000000000000000000000000F
:1061900000000000000000000000000000000000FF
:1061A00000000000000000000000000000000000EF
:1061B00000000000000000000000000000000000DF
:1061C00000000000000000000000000000000000CF
:1061D00000000000000000000000000000000000BF
:1061E00000000000000000000000000000000000AF
:1061F000000000000000000000000000000000009F
:10620000354936480A1A02D0072291438D4634494F
:1062100034480A1A06D00722914381F309880222E2
:1062200082F3148830483149314A00F043F831484C
:106230003149324A00F03EF831483249324A00F0E2
:1062400039F832483249334A00F034F83248334999
:10625000334A00F02FF833483349344A00F02AF823
:1062600033483449344A00F025F834483449002290
:1062700000F02BF833483449002200F026F8334868
:106280003349091A082903DB002202600430016047
:106290001F482049884205D00268043003B4904763
:1062A00003BCF7E700208646EC4600200021294A7F
:1062B0009047FEE7884207D0521A05D00378013094
:1062C0000B700131013AF9D17047884202D0027057
:1062D0000130FAE77047000000F0032000E80320D7
:1062E00000F0032000F0032068D50300A02D00205B
:1062F000CC2E0020A8630200A863020042B603006F
:1063000068D50300A02D0020A02D002014B70300A5
:1063100014B7030014B7030014B7030014B7030045
:1063200014B7030014B7030014B7030066D50300C5
:1063300094D60300CC2E0020CC2E0020CC2E0020A2
:10634000405400204054002040540020405400207D
:1063500040580020516E0200FEE7FEE7FEE7FEE730
:10636000FEE7FEE7FEE7FEE7FEE7FEE7704700BF59
:106370000948804709484FF0070188438546084887
:1063800080470848016841F470010160BFF34F8FF6
:10639000BFF36F8FFFF734BF6D63020000F003207F
:0863A0007560030088ED00E0C8
:1063A80041DF704700470000024A7D2103200FF0BB
:1063B80046BF00BF92BA030070B5674C23685E04FD
:1063C800C6B00ED5654B1B68032B0ADD644B654AC6
:1063D800D3F8043564490092042040F2592206F0AB
:1063E800D9FD23685D0415D55C4B1B68032B11DDB3
:1063F8005E4A5B4BD188D3F80435039151880291EA
:10640800128801925A4A0092574940F25B220420AE
:1064180006F0C0FD236858042CD5504B1B68032B8D
:1064280028DD544B514E186805AA0023F11891F83D
:106438002C100D0901F00F01455D02F81350455C61
:1064480002EB43010133102B4D70EFD1002382F88A
:10645800203003F1804303F588334349D3F80435EA
:106468000292454A0192454A009204204FF417725D
:1064780006F090FD236859042BD5384B1B68032B75
:1064880027DD3C4B394E186805AA0023F118097B13
:106498000D0901F00F01455D02F81350455C02EB50
:1064A80043010133102B4D70F0D1002382F82030C6
:1064B80003F1804303F588332B49D3F8043502925E
:1064C8002F4A01922D4A0092042040F25D2206F0E4
:1064D80061FD23685A042BD5204B1B68032B27DD4D
:1064E800244B224E186805AA0023F118097F0D09CC
:1064F80001F00F01455D02F81350455C02EB4301C2
:106508000133102B4D70F0D1002382F8203003F1B5
:10651800804303F588331449D3F804350292194AA5
:106528000192164A0092042040F25E2206F032FDE3
:1065380023685B040ED5094B1B68032B0ADD084B47
:10654800114AD3F8043508490092042040F25F222A
:1065580006F020FD46B070BD402E00203C2E0020E5
:106568000010014097B80300ECBA0300102F002078
:10657800B1B80300442E0020F2B80300FBB80300B2
:1065880003B903000CB9030015B90300194B1B68C4
:106598005B0407B50ED5184B1B68032B0ADD174B98
:1065A800174AD3F804351749009204204FF40172B2
:1065B80006F0F0FC144B15484FF0FF321A609A8031
:1065C80011F022FD20B1124A4FF403710FF037FE8B
:1065D800104A1148002114F01DFB38B10C4A40F252
:1065E8000D2103B05DF804EB0FF029BE03B05DF890
:1065F80004FB00BF402E00203C2E0020001001406C
:10660800BDBB0300ECBA0300CC2E002025660200B7
:1066180092BA030081680200D42E00200F4B1B6839
:106628005B0473B504460D4616460ED50C4B1B6825
:10663800032B0ADD0B4B0C4AD3F804350B490092A7
:1066480004204FF4AF7206F0A5FC324629462046D6
:1066580002B0BDE8704001F04FBC00BF402E0020E2
:106668003C2E0020001001402CB70300ECBA0300B8
:106678000F4B1B685B0407B511D50E4B1B68032B2A
:106688000DDD0D4A0D4B5288D3F8043501920C4AA2
:1066980000920C4940F22312042006F07BFC0A4BBE
:1066A80000210E20197003B05DF804EB01F0A6BEBE
:1066B800402E00203C2E0020102F0020001001400A
:1066C80041B70300ECBA03000C2F00200E4B1B68E7
:1066D8005B0407B50ED50D4B1B68032B0ADD0C4B6D
:1066E8000C4AD3F804350C49009204204FF49A72EE
:1066F80006F050FC094B00210D20197003B05DF81D
:1067080004EB01F07BBE00BF402E00203C2E002091
:10671800001001404FB80300ECBA03000C2F002012
:1067280008B53C220021064814F0D9FE054806F0B9
:1067380061FF20B10448BDE8084007F09BB908BDD7
:10674800102F0020E82E0020CC2D002070B53C2210
:1067580001210E4807F00DF8054620B90C4807F04E
:1067680089F9002070BD0B4A031D02F13806144652
:1067780003CCB44218605960224603F10803F6D1ED
:1067880020681860284607F023F8EAE7E82E00207A
:10679800B02D0020102F0020144B1B685B0407B598
:1067A8000ED5134B1B68032B0ADD124B124AD3F884
:1067B80004351249009204204FF4957206F0EAFB62
:1067C80000210D2001F01AFE01210E2001F016FE15
:1067D800FFF7BCFF38B10A4A40F22F1103B05DF849
:1067E80004EB0FF02CBD03B05DF804FB402E002035
:1067F8003C2E0020001001407EB80300ECBA0300D4
:1068080092BA030008B5FFF7A1FF28B1034AEE21A9
:10681800BDE808400FF013BD08BD00BF92BA0300E1
:10682800104B1B685B0413B5044610D50E4B1B6850
:10683800032B0CDD0D4B0278D3F8043501920C4A7A
:1068480000920C494FF4A972042006F0A3FB2378A8
:106858001C2B05D1002002B0BDE8104004F000BD9B
:1068680002B010BD402E00203C2E00200010014038
:106878007EB70300ECBA030030B50A7885B0EAB9F0
:106888000F4B1B685B0419D50E4B1B68032B15DDDA
:1068980048680D7B41690C4B44880878D3F8043567
:1068A80008B991F90D200194CDE90252074A0092E6
:1068B800074940F24912042006F06CFB05B030BDD0
:1068C800402E00203C2E00200010014001B803009B
:1068D800ECBA030003780E2B13B519D10D4B1B68C6
:1068E8005B040ED50C4B1B68042B0ADD0B4B0C4AC2
:1068F800D3F804350B49009205204FF4D37206F003
:1069080049FB094C23781BB9FFF756FD0123237077
:1069180002B010BD402E00203C2E00200010014087
:1069280036B80300ECBA03004C2F00200A4B1B6852
:106938005B0407B50DD5094B1B68032B09DD084B14
:10694800084AD3F80435084900920420892206F041
:1069580021FB03B05DF804FB402E00203C2E0020F4
:1069680000100140F3BA0300ECBA030013B515494F
:10697800044614F009FE08B31349204614F004FE37
:10698800E0B11249204614F0FFFDC8B1104B1B6856
:106998005B040DD50F4B1B68002B09DB0E4B0F4A10
:1069A800D3F804350E4900920020FC2206F0F2FAD2
:1069B800784601F0E9FE002002B010BD0948FBE767
:1069C8000948F9E718BC030033BC03004CBC0300BA
:1069D800402E00203C2E0020001001406CBC03001B
:1069E800ECBA0300DDBB0300F8BB030037B52C4D40
:1069F8002C4C2A6812F4804F10D02B4B1B68032BA9
:106A08000CDD2A4B6288D3F804350192284A00929B
:106A1800284940F20712042006F0BCFA00210E2093
:106A280001F0ECFC63880133638009F09BFCFFF7FD
:106A38008DFE20B1204A40F20D110FF000FC638852
:106A48001E2B12D8A068FFF791FF1C4AE18810603E
:106A58000123022000F008FE00F080FE01210D2035
:106A680003B0BDE8304001F0C9BC2B685B040ED50B
:106A78000D4B1B68032B0ADD0C4B114AD3F8043568
:106A88000C490092042040F21B1206F083FA0422FB
:106A9800C8214FF4F03003B0BDE8304001F0C4BC69
:106AA800402E0020102F00203C2E00200010014016
:106AB80097B70300ECBA030092BA0300502F0020E6
:106AC800BEB70300144B1B685B0413B514460DD501
:106AD800124B1B68032B09DD114B124AD3F80435FE
:106AE8001149009204206D2206F054FA012C05D1B8
:106AF800784602B0BDE8104001F046BE022CF7D03F
:106B0800032C07D1094A7621042002B0BDE81040C1
:106B18000FF095BB02B010BD402E00203C2E002087
:106B2800001001400ABB0300ECBA030092BA03004C
:106B380073B5774D2B680446580440F1DA80754EDA
:106B48003268032A40F3DC80734B7449D3F8043568
:106B5800621C0192724A009204204FF4EE7206F011
:106B680019FA24B1032C00F0988002B070BD6D4E64
:106B78002B68317803F4804300297ED16A4C22883F
:106B8800618891421ED273B1624B1B68032B0ADDE8
:106B9800614B664AD3F804356049009204204FF4EB
:106BA800B87206F0F7F9A368A088614A0093022139
:106BB800002301F09DFA01210E2001F01FFC0123A2
:106BC8003370D2E7D2B973B1524B1B68032B0ADD7D
:106BD800514B584AD3F804355049009204204FF4D9
:106BE800BD7206F0D7F9544A0323E188022000F069
:106BF8003BFD00F0B3FD01210D20DEE71E2A2AD857
:106C080073B1444B1B68032B0ADD434B4B4AD3F843
:106C180004354249009204204FF4C37206F0BAF9D1
:106C2800A068FFF7A3FE464B18602B6859040FD5E0
:106C3800384B1B68032B0BDD374B424AD3F804351E
:106C480036490190009204204FF4C57206F0A2F96B
:106C580001233B4AC9E7002B87D02E4B1B68032B27
:106C680083DD2D4B384AD3F80435009240F2931255
:106C78002A49042006F08EF977E7002B3FF475AF18
:106C8800244B1B68032B7FF770AF234B2F4AD3F895
:106C98000435009240F29B12EAE72B685A040DD59E
:106CA8003368032B0ADD1C4B294AD3F804351B49EA
:106CB800009204204FF4F57206F06CF9FFF730FDEE
:106CC80008F079FD0422C8214FF4803001F0ACFBB4
:106CD8002B685B047FF549AF0E4B1B68032B7FF7CE
:106CE80044AF0D4B1B4AD3F8043500924FF4F872A9
:106CF800BEE7002C3FF43BAF032C7FF436AFDDE753
:106D0800002C3FF434AF032C7FF42FAFC8E700BF4B
:106D1800402E00203C2E002000100140ECBA030059
:106D280057B903000C2F0020102F00206AB9030068
:106D38002C2F00209DB90300DC2D0020CCB90300C6
:106D4800542F0020FBB90300BEB7030011BA03009B
:106D58003FBA030057BA03003038042801D8FFF7B8
:106D6800E7BE704710B58AB003A902A808F06CFD09
:106D780018B1174A96210FF062FA164B0793164B73
:106D88000893164B099304230693029B1448A3F512
:106D98008053012404A90493059406F057FDA0B17B
:106DA800104806F067FE104B1B685B040DD50F4BAF
:106DB8001B68002B09DD0E4B0E4AD3F804350E492B
:106DC80000922046A32206F0E5F80AB010BD00BFE5
:106DD80092BA0300CD6A0200B1630200356902006D
:106DE800E82E0020A02D0020402E00203C2E002060
:106DF80000100140D7B70300ECBA030010B5104CDF
:106E0800A18820890AF024F820B10E4A40F2BD1169
:106E18000FF015FAA18820890AF09AF820B1094ADA
:106E28004FF4DF710FF00BFA208813F089FC30B1B2
:106E3800044A40F2C111BDE810400FF000BA10BD7D
:106E4800CC2E002092BA030080B57C4E7C4A92B0CA
:106E580004214FF4C04006F081F833685C040ED575
:106E6800784B1B68032B0ADD774B784AD3F8043537
:106E780077490092042040F2432206F08BF814F080
:106E8800F3F820B1734A40F245210FF0D8F901F028
:106E9800FFFA714801F028FB20B16E4A4FF41371D4
:106EA8000FF0CDF901F07EFB0021202209A814F093
:106EB80016FB01238DF8243007238DF8273006238D
:106EC8008DF82C30654B0D930DF10B01644B11932C
:106ED80009A808F087FC20B15E4A40F21A210FF099
:106EE800AEF912AF5F483C2504F064F9FFF73AFFAA
:106EF80047F83C5D5C4A5D483B46012106F002FCD0
:106F0800594B044628B118462A46002114F0E7FADE
:106F18000346002C0CBF0124002467D000221A600D
:106F28004FF48072DA80FFF711FC20B1494A40F231
:106F3800D1110FF084F94E4B4E4D1C760FCD3C46C7
:106F48000FC495E8030084E80300384600F094FC79
:106F58009DF80B30002B5CD1336859040ED5394BA2
:106F68001B68032B0ADD384B434AD3F804353849EC
:106F7800009204204FF40C7206F00CF800F0A0FC0C
:106F8800FFF73CFF09F0EEF9FFF73CFC3B493C48B2
:106F980001F0B8F964213B4801F0D6F933685B0485
:106FA8000ED5284B1B68032B0ADD274B364AD3F82E
:106FB800043527490092042040F2652205F0EAFFD3
:106FC80004F0B2F820B1234A40F26B210FF037F9F0
:106FD80000214FF4F03001F01DFA0522C8214FF4CA
:106FE800F03001F021FAFFF7DBF9FCE733685804C9
:106FF800A1D5144B1B68032B9DDD134B234AD3F8F3
:10700800043513490092042040F2D51205F0C2FF5E
:1070180091E733685A040ED50A4B1B68032B0ADD27
:10702800094B1B4AD3F8043509490092042040F261
:10703800392205F0AFFF00F0C3FBA7E7402E002080
:1070480039CF02003C2E00200010014020BB030075
:10705800ECBA030092BA0300396B020029680200F7
:1070680095650200C02D0020102F0020E82E00207A
:10707800CC2E002014B7030068BB03007966020019
:10708800F5690200616D0200B3BB030054BB030045
:107098009FBB03002DE9F04F0378C9B004460A2BC3
:1070A80000F2F380DFE813F00B00A002F600F10015
:1070B800F100F100F1007302F1002202B1019E4FCC
:1070C8003B78012B40F0E1809C4D2B685E042DD568
:1070D8009B4B1B68032B29DD9A4B261D186807AAB2
:1070E800002316F8011B4FEA111C01F00F0110F8DC
:1070F8000CC003F802C010F801C0D1180233202BCD
:1071080081F801C0EDD1002382F8203003F18043DB
:1071180003F588338C49D3F8043502928B4A0192DF
:107128008B4A009204208A2205F034FFE269137822
:107138009BB92B68580410D5814B1B68032B0CDDB9
:10714800844B92F90D20D3F804350192824A0092BB
:107158007D498E22042005F01DFF637D002B00F081
:1071680094802B6859042DD5754B1B68032B29DD9A
:10717800744B04F11606186807AA002316F8011BB9
:107188004FEA111C01F00F0110F80CC003F802C0FF
:1071980010F801C0D1180233082B81F801C0EDD1D5
:1071A8000023137203F1804303F588336649D3F84B
:1071B80004350292694A0192654A0092042093229A
:1071C80005F0E8FEDFF8C0A1DFF8C09100269AF8C4
:1071D8000030B34259D9D9F8003053F826804FEA25
:1071E800860BB8F1000F53D0404614F0F4F907AA03
:1071F80081B2404605F02BF9042207A904F11600D4
:1072080014F00EF9002843D12B685A040DD54C4BC5
:107218001B68032B09DD4F4B514AD3F804354A4903
:1072280000920420992205F0B5FED9F8003053F8F1
:107238000B204C4B00211A6007A8192214F04FF9B3
:10724800494B1A89ADF82C20484A5D681288ADF878
:1072580032200DF11C0C05F10C021C351068516828
:10726800664603C60832AA42B446F7D19A7A40481D
:1072780001230093211D07AB0FF0B2FA18B13D4A64
:107288006E210EF0DCFF03233B7049B0BDE8F08FA0
:1072980001369CE7294E284D336813F4804F12D0ED
:1072A800274B1B68032B0EDD334A2A4B1278D3F881
:1072B800043502922A780192304A00922249A62285
:1072C800042005F067FE2B78032B61D133682A4E22
:1072D800327803F48043A2B16BB1194B1B68032BBE
:1072E80009DD1C4B264AD3F80435174900920420BF
:1072F800AB2205F04FFE01232B703378013B33702E
:10730800C3E793B10E4B1B68002B0EDD174A114BD8
:107318001288D3F804350292227A0192194A00920F
:107328000949B222012005F035FE00232B700E4BCF
:107338005B699847A9E700BF78320020402E0020FB
:107348003C2E0020442E002002BD030017BD030080
:10735800FBB80300001001401DBD030028BD030059
:1073680032BD0300DC3200207C320020D6320020FF
:1073780044310020A8BC0300D532002056BD0300CC
:107388009DBD0300BFBD0300DA320020E0320020BB
:10739800022B7FF47AAF9D4C9D4A636810881A8847
:1073A8009C49988001320F881A80DA88B0F5807F6E
:1073B8003A44DA8002BF984A12689A60E3680F4636
:1073C80098472369984733685B0412D5934B1B6829
:1073D800032B0EDD924B3A88D3F80435029262688B
:1073E800904992880192904A00920420C42205F0A4
:1073F800D1FD62689368908800931C3200230221B3
:1074080000F076FE00232B703FE7884F3A68560459
:107418000DD5824B1B68032B09DD814B844AD3F8B9
:107428000435804900920420CF2205F0B3FD814B3A
:1074380002221A703B685D040DD5784B1B68032B3C
:1074480009DD774B7C4AD3F804357649009204204D
:10745800D42205F09FFDE3687849D88A0BF044F9F7
:1074680018B1774AD6210EF0EAFE684DE06829681F
:10747800744BA2684988C08A0BF05CFCA84618B116
:107488006F4ADA210EF0DBFE6E4E308810F028FECF
:1074980018B16B4ADD210EF0D2FE684D308829887C
:1074A80010F0DAFD18B1664ADF210EF0C8FE3B681D
:1074B80058047FF5EAAE594B1B68032B7FF7E5AEFE
:1074C800574B3288D3F804350492D8F80020554930
:1074D800528803922A880292E268D28A01925A4A12
:1074E80000920420E52205F055FDCEE6494B027ACC
:1074F8001A8001211023002240680FF09DF900280E
:107508003FF4C3AE494C226851040ED5434B1B6867
:10751800002B0ADD424B4D4AD3F80435414901900E
:1075280000920120F52205F035FD2368484C414DB5
:10753800217803F48043A1B16BB1384B1B68032B4E
:1075480009DD374B434AD3F8043536490092042005
:10755800F82205F01FFD01232B702378013B2370CF
:1075680093E6002B3FF4E1AE2C4B1B68032B7FF70F
:10757800DCAE274A2A4B1288D3F804350192364AE2
:1075880000922849FF22042005F004FDCDE6334B84
:1075980007AD03F11006186859682A4603C2083374
:1075A800B3421546F7D1102207A960680FF050F9C9
:1075B80020B1234A4FF486710EF041FE1B4B1B6825
:1075C8005A047FF562AE154B1B68032B7FF75DAE3F
:1075D800134B234AD3F80435009240F20D12114997
:1075E800042005F0D7FC50E6104B1B685B047FF5C0
:1075F8004CAE0A4B1B68032B7FF747AE084B194A62
:10760800D3F8043500924FF48972E8E77C32002001
:10761800D6320020D8320020DC3200203C2E002058
:107628000010014002BD030002BE0300402E0020EE
:1076380039BE0300783200205ABE0300582F0020BC
:10764800A8BC03005A2F002082BE0300C4BE03005A
:10765800D5320020F4BE030002BF030088BC03003B
:1076680069BF03008EBF030010B586B002B1A3B98D
:10767800284B1B685B040ED5274B1B68002B0ADDC3
:10768800264B274AD3F804352649009201204FF4A7
:10769800907205F07FFC06B010BD234C2070234883
:1076A800234C018023490120087023490A60234A9A
:1076B8001370227852BB224A1068516803AB03C387
:1076C80011891980927A1F491F489A700FF086F81D
:1076D80018B11E4A77210EF0B2FD1D4B0093194ACE
:1076E80019491C4803AB0FF046F818B1174A78211E
:1076F8000EF0A5FD184810F053F8014615480FF094
:1077080059F818B1114A79210EF099FD0123237017
:10771800C1E700BF402E00203C2E00200010014091
:10772800ECBF030002BD0300D5320020D632002092
:107738009432002078320020E0320020DA32002033
:1077480098BC03005C2F002095320020A8BC0300E1
:107758009D700200443100207C2F0020114B1B68D3
:107768005B0407B50ED5104B1B68032B0ADD0F4BC6
:107778000F4AD3F804350F490092042040F22F1223
:1077880005F008FC0C480FF0DEF838B10B4A4FF44E
:10779800987103B05DF804EB0EF051BD03B05DF8CD
:1077A80004FB00BF402E00203C2E002000100140AA
:1077B80039C0030002BD03009D700200A8BC03008D
:1077C80030B587B006AD254C012345F8043D206847
:1077D800294602300BF090FA20B1214A40F23911C3
:1077E8000EF02DFD059B012B02D0784600F0CCFF52
:1077F80023682A46191D58880BF0D0FB20B1184A77
:1078080040F23B110EF01BFD04A80AF061FF21684D
:10781800BDF810000BF0C8FA20B1114A40F23F1130
:107828000EF00DFD0F4B1B685B0415D50E4B1B6846
:10783800032B11DD22680D4B1188D3F80435039111
:107848009188029152880192094A009209494FF49D
:10785800A172042005F09EFB07B030BD7C320020E9
:10786800A8BC0300402E00203C2E00200010014040
:10787800ADBF030002BD030038B5C368044613B9A1
:10788800784600F081FF636913B9784600F07CFF01
:10789800236913B9784600F077FF0FCC054D0FC563
:1078A800054A002394E803001370044A85E803009E
:1078B800137038BD7C3200209432002078320020CA
:1078C8001FB52E4B1868039003A80AF0C7FE20B115
:1078D8002B4A40F255110EF0B2FC2A4C6068102178
:1078E8000C3003F0E5FF606810211C3003F0E0FF66
:1078F800606810212C3003F0DBFFD4E90021002060
:1079080002320C310BF086F820B11D4A40F25D11AD
:107918000EF095FC1C4B1B685B0411D51B4B1B68B8
:10792800032B0DDD22681A4B5288D3F804350192D7
:10793800184A009218494FF4AF72042005F02AFB48
:10794800D4E9001200200B1D1C3249880BF046FABE
:1079580020B10B4A40F25F110EF071FCD4E90032FD
:1079680001202C3259880BF0E5F920B1044A4FF474
:10797800B1710EF064FC04B010BD00BFA4BC0300DC
:10798800A8BC03007C320020402E00203C2E0020A2
:107998000010014026C0030002BD030030B50446B4
:1079A800018085B01046154603F094FA154B2071F6
:1079B8001B88A3810023A3731E222374A374124B74
:1079C800E273012262741A88E580A4F813205B88A8
:1079D800A4F815300D4B1B685B0411D50C4B1B68C4
:1079E800032B0DDD0B4B2288D3F8043501920A4A8C
:1079F8000092029540F223120849042005F0CAFAC1
:107A080005B030BDE4320020E6320020402E0020D0
:107A18003C2E002000100140CDC00300C0C0030070
:107A280010B5054803F0EAFD044B054A1A60054BFA
:107A3800BDE810401B68184704330020E82D0020DB
:107A48000EC20300F43200209F4B30B51B681B7830
:107A5800013B8DB0092B00F22482DFE813F00A0005
:107A68003A005C007F00B100F3006901EE010802F2
:107A7800B201964B1B685A040ED5954B1B68032B15
:107A88000ADD944B944AD3F80435944900920420B3
:107A980040F25B1205F07EFA002010F039FB904BA3
:107AA80002225A8000221A705A60002800F0C8800A
:107AB8008C4C10F061FC2378002B00F0F981013B1D
:107AC800237003F0E7FD88490144201D03F0ADFD54
:107AD800B6E07E4B1B685B040ED57D4B1B68032B01
:107AE8000ADD7C4B814AD3F804357C490092042096
:107AF80040F2651205F04EFA7D4B1A687D4B002066
:107B0800198810F029FB764B48F203025A800222AA
:107B18001A70794AC8E76D4B1B685D040ED56C4B2B
:107B28001B68032B0ADD6B4B744AD3F804356B4989
:107B3800009204204FF4B87205F02CFA6D4B704A8D
:107B48001988704B0692188810F00EFC644B48F2A6
:107B58003E025A8001221A706B4AA5E75B4B6B4CB8
:107B68001B6813F4804F10D0594B1B68032B0CDD96
:107B7800584B6288D3F804350192654A00925749F8
:107B880040F27F12042005F005FA6278237843EA70
:107B98000223ADF81830E278A37843EA0223ADF85F
:107BA8001A30544B069A1988564B188810F0DCFB8B
:107BB8004B4B48F23E025A8001221A70554A73E72D
:107BC800554C23881BB94F4B1B88013323803F4BEF
:107BD800524D1B6813F4804F12D03D4B1B68032B8A
:107BE8000EDD3C4B2288D3F8043502926A88019254
:107BF8004B4A009239494FF4C972042005F0CAF97A
:107C08006A782B78208843EA0223ADF81830EA789E
:107C1800AB7843EA0223ADF81A30364B069A198836
:107C280010F0A2FB2E4B48F23E025A8001221A7035
:107C38003C4A5A6000287FF43BAF238801332380F5
:107C48000DB030BD162200210DF11A0013F047FCCB
:107C58002C4B1B88ADF818301E238DF827300623CF
:107C68008DF828304FF0FF338DF82B308DF82C30FD
:107C780002238DF82D3000238DF82E30134B1B680E
:107C880001225C048DF81C20ADF81E208DF82920F7
:107C98000FD50F4B1B68032B0BDD0E4B0F49D3F889
:107CA80004350192204A0092042040F2B31205F0F4
:107CB80071F906A810F08CFA094B48F219025A809B
:107CC80001221A70194AEFE6E82D0020402E002004
:107CD8003C2E002000100140FBC00300C0C0030080
:107CE800EC32002000330020404B4C0015C103004B
:107CF80024330020E432002004C2030024C103001E
:107D0800FFFF0200EA32002006C203001C330020F5
:107D180041C1030007C2030020330020E6320020DF
:107D28005EC1030008C203008DC1030009C203003D
:107D3800162200210DF11A0013F0D1FB5E4B1B88AF
:107D4800ADF81830D80754BF4FF4817340F20113CF
:107D5800ADF81E30594B1B88ADF824301E238DF822
:107D6800273001238DF82930554B01228DF81C202E
:107D78001A88ADF82B205B88ADF82D309AB2514B9C
:107D88001B68590412D5504B1B68032B0EDDBDF838
:107D98001E104E4BD3F80435CDE901214C4A009210
:107DA8004C4940F2D512042005F0F4F806A810F06A
:107DB8000FFA494B48F219025A8001221A70474AB1
:107DC80072E6404B1B685A040ED53F4B1B68032BC9
:107DD8000ADD3E4B424AD3F804353E49009204205E
:107DE8004FF4F07205F0D6F8334B18880023079348
:107DF80003238DF81830C3074CBF4CF203034CF231
:107E08000203ADF81A302E4B59781A7842EA01224B
:107E1800ADF814209A78DB7842EA0323ADF81630DF
:107E280006AA059B06CA10F079FA2B4B48F21F02E6
:107E38005A8001221A702B4A36E6182200210DEBCF
:107E4800020013F04CFB1C4B198801314CF2030261
:107E580089B206A8FFF7A2FD06A810F0B9F91E4BD3
:107E680048F219025A8001221A701F4A1CE6182289
:107E780000210DEB020013F032FB0F4B1988023181
:107E88004CF2020289B206A8FFF788FD06A810F096
:107E98009FF9114B48F219025A8001221A70134AAD
:107EA80002E6134A40F2112105200EF0C8F9FFE559
:107EB800FFF7B6FDC4E600BFEA320020E432002036
:107EC8001C330020402E00203C2E002000100140D2
:107ED800CAC10300C0C00300EC3200200AC203007C
:107EE800EFC103000BC203000CC203000DC2030064
:107EF80066C00300FFF7A8BD7FB50C46002830D147
:107F08006A4D2A6856040ED5694B1B68032B0ADD97
:107F1800684B694AD3F8043568490092042040F256
:107F2800672205F037F8664C2388002B7FD02B6832
:107F38005D040ED55E4B1B68032B0ADD5D4B614A61
:107F4800D3F804355D490092042040F26B2205F015
:107F580021F82388013B238004B0BDE87040FFF777
:107F680073BD02281DD111B9784600F00DFC564D9D
:107F78002B681A780AB10B2A15D14C4B1B685C0484
:107F88000FD54B4B1B68012B0BDD4A4B4B49D3F8E4
:107F9800043501924D4A0092022040F23F2204F03B
:107FA800F9FF04B070BD4A4E228871888A4214D005
:107FB8003E4B1B685804F4D53D4B1B68002BF0DD85
:107FC8003C4BD3F80435CDE90112424A00923B49B3
:107FD800E122012004F0DEFFE3E748F219018A42BA
:107FE800636806D028D8022A44D048F203018A429E
:107FF80029D11C783378002B42D02C4B1B685B04AA
:108008000FD52B4B1B68032B0BDD2A4B324AD3F8B9
:1080180004352A49009201944FF48372042004F035
:10802800B9FF726830781346991A884224D804B088
:10803800BDE87040FFF7F4BC48F21F018A42D8D06F
:1080480048F23E01D3E7194B1B685A040DD5184B6B
:108058001B68002B09DD174B204AD3F80435174954
:1080680000920120FD2204F095FF1D4AFE21052003
:108078000EF0E5F8FF24BDE713F8011B8C42D3D1BD
:108088002B6818485A1C5B782A600B2B4FF00302A8
:1080980002707FF461AF043003F0B0FA124B2B602A
:1080A800124B1B6804B0BDE870401847402E0020F2
:1080B8003C2E0020001001400FC20300C0C0030086
:1080C800FC3200203AC20300E82D002045C203001C
:1080D800EC32002077C20300C1C20300A1C2030032
:1080E80066C00300003300200EC20300F8320020EF
:1080F8002DE9F0476C4C6D4F256805F480493D68C3
:108108002D7888B0A046A5B1B9F1000F0ED0684B04
:108118001B68002B0ADD674B674AD3F804356749AB
:108128000092012040F2832204F034FF08B0BDE839
:10813800F087634C634E20806348644D0180644936
:108148006448C8604FF0030A81F800A0624910989B
:108158000A60624A6249138013F016FA28B161492D
:10816800109813F011FA00287CD10123B370102362
:10817800F3700022AA70EB704FF0FF333370737006
:108188002B706B70D8F800305A0410D5484B1B6818
:10819800032B0CDD474B2288D3F804350192524A51
:1081A8000092464940F2A122042004F0F3FE4FF663
:1081B800FF732288ADF81430ADF8163005A90123F5
:1081C80006A88DF81830ADF81A200AF055FB20B132
:1081D800464A40F231210EF032F80DF11601BDF891
:1081E8001A000AF0E1FD20B1404A40F232210EF0B7
:1081F80026F8BDF816000FF073FF20B13B4A40F295
:1082080035210EF01CF8BDF81410BDF816000FF05B
:1082180023FF20B1354A40F236210EF010F8D8F885
:1082280000305B0414D5224B1B68032B10DD214B57
:10823800BDF81420D3F804350292BDF81620019237
:108248002B4A00921D4940F23722042004F0A2FE76
:108258002388B3F5807F0CBF264B274B3B60FFF785
:10826800F3FB63E72549109813F08EF928B910231A
:1082780086F802A0F37002227CE7B9F1000F0ED055
:108288000B4B1B68002B0ADD0A4B1D4AD3F804353B
:108298000A490092012040F29A2204F07BFE7846B7
:1082A80000F072FA68E700BF402E0020E82D002099
:1082B8003C2E002000100140DBC20300C0C00300B8
:1082C800EA320020E6320020FC3200201C33002075
:1082D80000330020FD7E020024330020E432002019
:1082E80018BC030033BC03002FC3030066C003009F
:1082F80049C303005DC003007FC303004CBC0300F7
:108308000FC3030038B50C46054610B9784600F08F
:108318003BFA14B9784600F037FA024B1D60024B5D
:108328001C6038BDF8320020F432002010B5054C2E
:10833800226832B10CF08EFC002802DB23689847D3
:10834800F8E710BD28330020154B164A10B50C4627
:1083580018600121144812F0E1FE18B1134A4A21AD
:108368000DF06DFF610C0023E00341F26F728B4248
:1083780008BF824210D24FF47A72002312F03AFFFB
:10838800014600220A4812F0DBFE38B1074A4B21A9
:10839800BDE810400DF053BF0521F2E710BD00BF46
:1083A800283300203583020088C303008CC30300F0
:1083B8002C33002038B50D4C206808B90DF032FF79
:1083C8004FF0A0450A4AD5F8043512685340C5F85D
:1083D80004352368013B236033B9064812F0F4FEE4
:1083E800054B1B68C5F8043538BD00BF4C33002069
:1083F80050330020543300207C330020012303FA3B
:1084080000F04FF0A04311B1C3F80C057047C3F852
:10841800080570474FF0A04311B1C3F80C05704729
:10842800C3F8080570470000F8B542B3132926D9E8
:10843800134B144D5200013A4FF0A0441A602860C3
:10844800114BD4F804251A604FF400404FF4FA7623
:108458000027E0FB01674FF47A7200233046394663
:1084680012F0C8FE00220146084812F069FE30B931
:10847800D4F804352A6823EA0203C4F80435F8BDA1
:108488004C330020503300207C330020543300202C
:1084980008B54FF0A04303224FF40051C3F8342726
:1084A800C3F808154FF48041C3F83827C3F80815F6
:1084B8004FF40041C3F83C27C3F80815C3F8402718
:1084C8004FF48032C3F808250121054A054812F007
:1084D80025FE18B1BDE808400DF0A4BE08BD00BFD8
:1084E800BD830200E0C30300D8B10F4B0F4A1860E8
:1084F8004FF0A0430020C3F82C27C3F83027C3F857
:108508006027C3F864270A4B4FF00042C3F80423DE
:10851800C3F87C01074BC02283F8062340221A6067
:1085280070470E20704700BF743300200C00030012
:108538000060004000E100E0124B70B50024124ECC
:10854800124DC3F87C414FF0A043A15DD3F810252C
:1085580001238B40934311D00D49D5F804250B68AE
:10856800981A48BFD01A43F23333984206D9D5F83F
:1085780004350B60074B20461B6898470134042CD0
:10858800E1D170BD00600040E4C303000010014069
:10859800783300207433002060DF704769DF70474C
:1085A80002F00ABE10B588B00DF0FEFC08B10DF05F
:1085B80039FE1E4B03930024039A049205A9012057
:1085C800CDE905440794FFF7E9FF08B10DF02AFE4D
:1085D800F823049A059305A9A120CDE90644FFF7DD
:1085E800DDFF08B10DF01EFE04A8FFF7D5FF049AC1
:1085F800039B9A42044612D00D4B1B685B040ED5B0
:108608000C4B1B68012B0ADD0B4B0C49D3F80435C6
:1086180001920B4A00920220A22204F0BBFC14B182
:1086280020460DF0FFFD08B010BD00BFA02D0020B2
:10863800402E00203C2E00200010014030C40300D2
:1086480049C403000620704730B5454B41F2010587
:108658001B68A84287B0044603F4804354D013D85B
:1086680001282ED0002B3CD03E4B1B68002B38DD58
:108678003D4B3E4AD3F80435019100923C497B2298
:10868800012004F087FC2CE044F2010084424CD025
:1086980044F202008442E5D11BB3324B1B68002B25
:1086A8001FDD314B1088D3F8043503905268CDE9AB
:1086B8000112304A00922E496C22012004F06AFC13
:1086C8000FE073B1274B1B68002B0ADD264BD3F84C
:1086D8000435CDE90112284A25490092602204F0A8
:1086E80059FC4FF0A0434FF4F032C3F81825C3F8F3
:1086F8000C25EFF3108372B64DF6AD6C1F4A137854
:10870800002B2AD107B030BD002BEAD0154B1B68CF
:10871800002BE6DD144BD3F80435CDE90112184AD5
:108728000092134963220120D9E7002BD9D00D4BC1
:108738001B68002BD5DD0C4B1068D3F8043504906A
:108748005068CDE90210926801920E4A00920849D9
:108758007722012004F01EFCC3E730BFCFE700BF3B
:10876800402E00203C2E00200010014057C5030079
:10877800CAC4030017C50300DBC40300EC2D0020A6
:10878800F5C4030036C5030007B50023ADF8003073
:108798000146054B01936A4644F20200FFF754FF75
:1087A80003B05DF804FB00BF56B90300044B00F1A9
:1087B800100250F8041B43F8041B9042F9D170478B
:1087C80080330020094A0A4B03CA596018603C32BA
:1087D80003CADA79D960042161F307129860DA7163
:1087E8001A7A022161F387121A727047600000102A
:1087F800803300200048704780330020064B002259
:1088080003F580715A805A6003F8082B8B42F9D11E
:10881800024B1A60704700BF90330020903400204C
:108828000C4BF0B51B680C4C064620227BB1013B73
:1088380014F8330050B104EBC3056F88B74202D176
:108848006D688D4202D0013AF0D11046F0BD1F2369
:10885800EEE700BF9034002090330020084A30B57E
:108868001368084C04EBC3056960012104F8331050
:108878000B44202B08BF00236880136030BD00BF65
:108888009034002090330020C0F30C038B4208443E
:1088980038BFA0F50050C01A704700000D4B0E4AB3
:1088A800F0B51E6800218E4212D0156800230AE038
:1088B80052F8044C04EBC30714F83340844201D146
:1088C8007868F0BD01339D42F2D101310832EAE700
:1088D8000020F6E7943400209C34002000B58DB0C9
:1088E80040B99A1C06D0012201A88DF804200293F1
:1088F80001F08EF8034B186803F006FC0DB05DF824
:1089080004FB00BFA0340020037810B5044613B957
:108918007846FFF739FFE079431C01209840013879
:1089280010BD0000F8B5037804460F4613B9784621
:10893800FFF72AFF0B4B0C4E1A68A069511C02F076
:10894800070206EBC2051960A38AA1886B80FFF7AE
:108958009BFFE369686003F001036B7006F83270EF
:10896800F8BD00BFE4340020A43400202DE9F04114
:108978000E468EB015461C46074610B97846FFF7D6
:1089880003FF16B97846FFF7FFFE636A6278023381
:108998000593A378A2F10800002B14BF012102213E
:1089A8000DF1040842424241434604F10C0003F031
:1089B800F2FC63788DF83430237BADF82050022B1D
:1089C80016FA85F5CDE906870B960C950FD1236924
:1089D80013B97846FFF7D8FE23690993102305A831
:1089E800ADF8283003F0D3FC0EB0BDE8F0810023C9
:1089F800F5E738B5044604F13005C06E06F0D9FE37
:108A0800284602F02EFE10B1284602F0F7FD94F831
:108A18004830022B08D104F15005284602F021FE07
:108A280010B1284602F0EAFD20467022002112F01B
:108A380056FD002084F84800BDE8384001F0BCBF6E
:108A480010B590F84830012B8CB0044602D0784617
:108A5800FFF79AFE01238DF8043001A8636D029395
:108A680000F0D6FF2046FFF7C4FF0CB010BD000091
:108A7800B2F5C07F2DE9F84F80468946934602D962
:108A88007846FFF781FE2D4B002670229A4602FB9E
:108A9800063595F8481041B9584606F088FEE8664C
:108AA80038B900252846BDE8F88F0136042EEED1E6
:108AB800F7E742462C4608F13007134603CBBB4282
:108AC800206061601A4604F10804F6D1702404FBA2
:108AD80006A40027E764A4F84AB0B8F80410D8F848
:108AE8001800FFF7D1FEB9F1010FA0611BD1144B9B
:108AF80084F852701B7D84F8513084F8537084F8E0
:108B08005070D8F8283063656FF00103A3620D4BED
:108B1800A3632564012001F04FFF702303FB06A621
:108B280086F84890BEE76FF00103A362064BA36581
:108B380084F868702566054BEAE700BF0035002019
:108B4800E8340020818E020095990200798E020097
:108B58001FB500220B468DF80F20E0B102300860E7
:108B680018460DF10F0103F014FC9DF80F3093B176
:108B78000B4B1B685B070ED50A4B1B68032B0ADDE2
:108B8800094B0A4AD3F8043509490092042040F2F7
:108B9800A63204F0FFF99DF80F0005B05DF804FB5C
:108BA800402E00203C2E002000100140F5C5030097
:108BB800E9C503002DE9F04799461378D2F818A0C3
:108BC800F2B005468846144623B191885046FFF70F
:108BD8005BFE9061A3786278002BA2F1080003AFD6
:108BE8000CBF0221012104F10C06424242413B46DE
:108BF800304603F0D0FB62788DF83C201FFA88F8E5
:108C0800A8EB02039BB2CDE90875ADF828301D44E6
:108C18000023ADF83030237B0E95022B04BF1022C1
:108C2800ADF83020A278C4F818A012AF0D9704F15F
:108C38002405002A55D04FF0000A237BC4F824A04D
:108C4800022B04BF23690B93206AE1782A460AF0B5
:108C580083FA606AE0B9237B022B05D13146E089AB
:108C68000AF01CFB0028E8D12B4B1B685B0735D5A5
:108C78002A4B1B68052B31DD294B2A4AD3F80435CA
:108C880029490092062040F2196204F083F925E090
:108C980007A9FFF75DFF0028D6D0A18A6378ADF851
:108CA8002A1096E80300A8EB0308012300228DF898
:108CB80028300CAB0B9283E80300A37D8DF840307D
:108CC800236A0E9307A8636A8DF81C200897ADF8ED
:108CD80024800F93CDF8449000F09AFE72B0BDE85E
:108CE800F087012B626209D12946E0890AF068FA07
:108CF80007A9606AFFF72CFF0028CED10023294678
:108D0800A08A63620AF05CFA07A9606AFFF720FF8D
:108D18000028C2D1A8E700BF402E00203C2E00202A
:108D2800001001402CC60300E9C50300C37D0A7882
:108D380030B56BB3837822F07F0203F07F031A43C8
:108D48000A700B78027803F07F0343EAC2130B70B2
:108D58000378E3B14378083B5A425A414B7803F011
:108D68007F0343EAC2134B70858823F07F03C5F362
:108D7800861423434B708479C4F3C10242EA850206
:108D88008A70C37903F01F0343EA4413CB7030BDE4
:108D9800847822F0400343EA8413DBB20B70C27874
:108DA80023F03F0302F03F0213430B70C9E70000B2
:108DB80038B590F84830012B044602D07846FFF7C2
:108DC800E3FC02F067FC237B074A012B05BFD2E9CD
:108DD8000315A37DD16805FB0311014404F130009C
:108DE800BDE8384002F021BCE834002070B50D46DB
:108DF80090B0044610B97846FFF7C6FC002120461B
:108E0800FFF790FD2C22002105A8666D12F067FB84
:108E1800102305A88DF8143006968DF81C5000F024
:108E2800F7FD2046FFF7E5FD0C4B1B685B0712D5E5
:108E38000B4B1B68032B0EDD0A4B0B49D3F804358B
:108E4800029594F848200192084A0092042040F2C2
:108E5800EF1204F09FF810B070BD00BF402E002044
:108E68003C2E002000100140E9C5030076C5030030
:108E780008460021FFF7BABF91F84830012B10B51A
:108E88000C4602D07846FFF77FFC94F851305BB16E
:108E9800013B84F85130002384F85030084BBDE87A
:108EA8001040186803F030B9217B0129204603D10E
:108EB800BDE81040FFF79ABFBDE81040FFF7C0BDFE
:108EC800A03400202DE9F04F044689B00F4609B1BF
:108ED80000230B6004F10C0394F8505001934FF0F9
:108EE80001084FF0000BE279AA4203D2002009B032
:108EF800BDE8F08FE16C08FA05F30B425BD1E37D26
:108F0800A571002B0CBF0C260826954206FB05FA16
:108F1800237808BFB4F84A608DF819B008BFA6EBEB
:108F28000A06002B14BF4FF004094FF0010906EBA5
:108F380009030593019B0393A36A049303A894F878
:108F48002C308DF8183003F0C4FB0028CFD1079BD4
:108F5800994445B994F853302BB9A36984F85380E0
:108F6800C3F30C03A380E37D8BB994F8523073B933
:108F780015B17846FFF708FCB4F84A1062788A1AE7
:108F8800E16E23460846FFF7F1FC84F85280079902
:108F98002046FFF7CBFEE16E32465144484612F0B8
:108FA80075FA03A803F0B1FB17B13B6801333B60C6
:108FB8006B1C84F850300135EDB294E72DE9F0418F
:108FC800D47D8AB006460F4615469846002C77D0C1
:108FD8009478002C51D1062939D103784278D0F8F9
:108FE800021039489B0103F4FE5343EA920309BA7D
:108FF8002246702606FB020494F84870012F10D10F
:10900800B4F814C0EF89BC450BD1A7889F4208D19A
:10901800E56C0D43E564E9B903212046FFF7E6FE58
:1090280015E00132042AE5D1284B1B685B070ED5F1
:10903800274B1B68012B0ADD264B274AD3F804353A
:1090480026490092022040F2A75203F0A3FF0AB07B
:10905800BDE8F0812046FFF757FC854203D1204642
:10906800FFF7EEFCF3E7002184F850102046FFF7E5
:1090780029FF2046FFF79CFEE9E72046FFF70EFC94
:1090880003460028E3D005F10C012A6A089203C9B7
:10909800AA8AADF8162006AA82E80300AA7D8DF8F0
:1090A80024202A788DF8142095F82C208DF8084073
:1090B800CDE903678DF82520414602A89847C6E701
:1090C800FFF778FDC3E700BF00350020402E0020E1
:1090D8003C2E00200010014055C60300E9C50300DE
:1090E800F0B5C37D15464278002B2A4414BF4FF4CF
:1090F80080734FF4C0739342C7B00E4668D3384CA0
:109108000023E11891F84870012F08D1B1F814C074
:10911800878ABC4503D1CF89C1898F425AD0703321
:10912800B3F5E07FEDD10121FFF7A2FC044600284A
:1091380052D02A463146C06E12F0A8F9002304A97D
:1091480020460493FFF7BEFE30F0040506463AD1E8
:10915800049B13B12046FFF72BFE224B1B6813F02C
:1091680004033BD0204B1B68032B1BDDB4F84A00DB
:109178001E4B80281E6828BF8020002305AA834232
:1091880013D1002102F81310194B1A49D3F80435EA
:109198000292194A0192194A0092042040F2D142DF
:1091A80003F0F8FE284647B0F0BDE16EC95C0F0930
:1091B80001F00F01F75D02F81370775C02EB4301D1
:1091C80001334F70DBE72046FFF713FC3546E9E72C
:1091D8000925E7E70825E5E70425E3E71D46E1E774
:1091E80000350020402E00203C2E0020442E002078
:1091F80000100140E9C5030099C50300FBB803004E
:109208002DE9F041044686B0808A0F46164601F0E3
:1092180061FE01284DD1237B002B4AD0022B02D1BD
:109228002369002B45D094F91630002B43DB2278B4
:109238004AB1324639462046FFF752FF05462846CE
:1092480006B0BDE8F081E17D63780029334414BF9E
:109258000B210F218B422AD80133039304F10C030D
:109268000193A36A029301A894F82C308DF810306A
:109278008DF8112003F02DFA05460028DFD1059955
:10928800204601F10108FFF751FDE37D43B1324665
:109298003946404612F0FAF801A803F036FACEE74C
:1092A8002346324641463846FFF760FBF4E7092576
:1092B800C5E71025C3E70725C1E7000010B54FF43F
:1092C800E0720021134812F00AF9002404F030FE7D
:1092D800114B12481C602146402212F000F9104B35
:1092E8001049114A9C75C3E90012104910484CF204
:1092F8005032C3E902211A6140F604029A8202F050
:10930800E5FE0C4B18600C4B0C481C60BDE8104087
:1093180004F0EEBE00350020E4340020A434002020
:10932800E834002080969800F049020020A1070048
:109338002D950200A034002094340020E588020016
:1093480004F094BDF0B504468DB0002842D00569FC
:10935800002D3FD0C369002B3CD08669002E39D040
:109368005A788DF803201A780993037B022B04BFDF
:10937800214B9B7D82F00102002B8DF80220828A0E
:10938800C07A14BF082304238DF80130C3F10F01FC
:1093980010BB8A4220DC082B01D1072018E08DF889
:1093A800000094E8030003AF87E803002189ADF8C3
:1093B8001410A17A8DF81610216A0A910023294603
:1093C80068468DF8173008968DF82C30FFF718FF8F
:1093D8000DB0F0BD0E20FBE7012113448DF80010FD
:1093E8000B330C2193FBF1F3013B8DF8073000237D
:1093F8008DF80630D5E700BFE8340020F0B5034605
:109408008DB00F4600283ED04468002C3BD08569BB
:10941800002D38D0027C12F0FD0F36D002781106EC
:1094280035D48DF802200022099282680B2A94BF55
:10943800017B012101F001008DF8000000208DF86A
:10944800010031B1D11DC90801398DF807108DF817
:10945800060001218DF8171003F1100103C903AEAE
:1094680086E80300D989ADF81410197F8DF8161015
:109478005B7F0895214668468DF82C300A97FFF7E0
:10948800BFFE0DB0F0BD0E20FBE71020F9E7072066
:10949800F7E7000030B5047B012C8DB04FF00003D6
:1094A8003BD18288CDF80A30C2F3861592008DF838
:1094B80005200A0E8DF806200A0C8DF807200A0AE6
:1094C8008DF80E308DF80820099306228DF810309B
:1094D8008DF81C30C3890692ADF81E30828A90F848
:1094E8002C30ADF822208DF82D3001AA837D05920D
:1094F800026A8DF804508DF809108DF820400A9200
:1095080043B96FF0010104A88DF82C30FFF776FFFE
:109518000DB030BD024B5B7DF3E71846F8E700BF9E
:10952800E83400202DE9F3411F4E00243746A046B9
:10953800351995F84830012B0CD102A9284641F875
:10954800048DFFF7BFFC042801D0019B13B1284606
:10955800FFF72EFC7034B4F5E07FE9D100257C19C3
:1095680094F84830022B17D194F86830022B13D1A5
:10957800E16C2046FFF78EFF70B984F8680020463A
:10958800E66CFFF7C1F9864206D120460121FFF7B4
:10959800C9F92046FFF72DFA7035B5F5E07FDED121
:1095A800012002B0BDE8F081003500202DE9F04728
:1095B8000D469CB0144698460646002800F0CD811A
:1095C800002A00F0CA810DF10C09002303934946D3
:1095D800C9F80430508809F061FE20B900273846E0
:1095E8001CB0BDE8F087D4E90312208904F06CFCB4
:1095F80082460028F2D1D4E90312208904F03EFC07
:109608000746A8B12C22514610A82589246911F0D3
:1096180066FF0F238DF840309DF84630ADF8445072
:1096280064F3000310A88DF8463000F0F1F9D6E78E
:109638000DF14C0A524604F1180C20686168134673
:1096480003C3083464451A46F7D133785AB2D10FA8
:109658008DF840109DF8571000293AD003F07F0389
:109668008DF8423000239A428DF8413043DB0023C5
:10967800199398F80030052B02D97846FFF784F83B
:1096880098F80030B74A99E80300D35C8DF86C303D
:109698008AE8030002F0AAFC9DF84030002B00F095
:1096A8005581BDF85420B0490023702000FB0314F5
:1096B80094F848C0BCF1020F37D1B4F814C09445EF
:1096C80033D1BDF84420A3889A425DD202F0CEFC83
:1096D80085E7C3F38011002A03F03F038DF8421099
:1096E8008DF843301DDA96F90130002BACBF042306
:1096F80008238DF841307278B378920102F4FE5253
:1097080042EA9302ADF84420DB00F27803F0180334
:1097180043EA521302F01F028DF846308DF84720B5
:10972800A5E704238DF84130A1E70133042BBDD10F
:1097380000249DF8403013B97846FFF725F8179AAA
:10974800BDF844101698BDF8549002F0010AFFF7CE
:109758009BF8DFF830C200230CEBC3014A68904243
:1097680018D1B1F802E0CE4514D14978514511D14C
:109778001CF83330002BA9D010A8FFF7C5F8014614
:1097880010A8FFF787FEA1E7D3D905212046FFF7E8
:109798002DFBCDE70133082BDED1002C3FD19DF8FE
:1097A80057209DF84730002A0CBF0C22082203FBE3
:1097B80002220CBF4FF4C0734FF480739A4215D93C
:1097C8006A4B1B68590781D5694B1B68002B7FF7CB
:1097D8007DAF684B6849D3F804350192674A009217
:1097E800012040F2363203F0D5FB6FE7022110A8C2
:1097F800FFF73EF9044690B9014610A8FFF74AFE64
:109808002C22214605A811F06AFE10238DF8143089
:1098180005A802238DF81C3000F0FAF856E7534BE0
:109828001B685B0711D5524B1B68032B0DDD514B91
:109838009DF84620D3F804350192514A00924E49CA
:1098480040F25132042003F0A5FB94F84830022B73
:1098580002D07846FEF798FFDFF82C91D9F800A0DF
:1098680001F018FF0AEB000104F1300001F0DDFE01
:10987800237B012B1AD194F86830BBB994F848308F
:10988800022B02D07846FEF77FFFD9E9013299F81A
:10989800151002FB013901F0FDFE00EB090104F18E
:1098A800500001F0C2FE012384F868309DF846306C
:1098B800E16C0120984001427FF408AF0143E07950
:1098C800E1649842A5F104029DF8571033D10029AC
:1098D80014BF08210C2103FB0121E56EA4F84A10EE
:1098E8000CBF0C20082000FB0350311D11F0CEFDE9
:1098F8002046E56CFFF708F885427FF4E7AE0223BF
:1099080084F86830E16C2046FFF7C4FD43460546FD
:109918002246B4F84A10E06EFFF750FB002D7FF4A2
:10992800D5AE204684F868500121FEF7FBFF20469B
:10993800FFF75FF8CAE691B90C2A02D1E56E104626
:10994800D1E704212046FFF751FABFE6434610AAA3
:10995800691E701CFFF732FBB8E60E273FE6082A9F
:10996800EBE700BF70C5030000350020402E002043
:109978003C2E002000100140E9C5030008C6030082
:109988001CC60300A4340020E834002091F84830B5
:10999800022B10B50C4602D07846FEF7F5FE0223DE
:1099A80084F86830E16C2046FFF774FD08B984F844
:1099B800680010BD2DE9F04188460746E8B1124E0F
:1099C8003468C4B92546454507D1104BC3E900752D
:1099D800012333602046BDE8F08107EBC5035B68CF
:1099E8005BB117F83500030609D450B1FEF756FFEE
:1099F80038B90135E7E70424ECE70E24EAE70B243D
:109A0800E8E70F24E6E700BF9434002098340020EC
:109A1800F8B5074610B97846FEF7B6FE0F4E34681B
:109A280094B10F4D01232B7023791BB954F8043CD2
:109A3800384698472468002CF6D12B78022B03D19E
:109A48003168064C09B92970F8BD0B790E6813B155
:109A5800204603F024FA3146F4E700BFC43600205C
:109A6800C036002010B5044610B97846FEF78CFEC3
:109A780000232372211D0248BDE8104003F0EEB90F
:109A8800C43600200B888268D25A073222F00302BB
:109A9800134402889BB2043A934288BF00230B8088
:109AA800704713B58368CB1A02A921F8023DFFF766
:109AB800E9FFBDF806308068184402B010BD70B5E3
:109AC800064615460C4611BB7846FEF75DFEFEB10C
:109AD8007846FEF759FE6B1E2344B3F1005F34D974
:109AE8004FF08052D2F80C2102F50022B3EB822FFE
:109AF8002ED2042D02D87846FEF746FE3580002384
:109B0800043D7380B380B4602580A37070BD10B924
:109B18007846FEF739FEB4F1005F12D94FF0805352
:109B2800D3F80C3103F50023B4EB832FD3D34FF0D4
:109B38008053D3F80C3103F50053B4EB832FC7D20D
:109B4800C9E7B4F5000FF2D8C2E7B3F5000F08D99A
:109B58004FF08052D2F80C2102F50052B3EB822F5D
:109B6800C7D37846FEF710FEC3E738B5044610B9E8
:109B78007846FEF709FE6288A36813449B78012B98
:109B880002D17846FEF700FEEFF3108572B6A268A0
:109B9800A18811448B78032B0AD12046FFF781FF57
:109BA800A368C31A63800023837005B962B638BD01
:109BB800002393706380A380F7E7F8B50E46154637
:109BC800044610B97846FEF7DFFD16B97846FEF769
:109BD800DBFD6288A36813449B78012B02D1784689
:109BE800FEF7D2FD002D37D02388043B9BB29D425F
:109BF80032D8EFF3108772B66188A388EA1D22F085
:109C08000302994292B204D25B1A9A4210DD0420F0
:109C180016E018D92088401A904209D29A42F6D8FC
:109C2800032881BFA3685B1804229A70002363800D
:109C38006288A1688B188D5201229A7000203360C7
:109C480007B962B6F8BDA26813449B78002BDED131
:109C580093706380A380EBE70920F3E7F8B50D461E
:109C68001646044610B97846FEF78EFD15B97846B3
:109C7800FEF78AFDAB78012B02D07846FEF784FD0B
:109C88002B88B34202D27846FEF77EFD16B9784695
:109C9800FEF77AFDEFF3108772B60223AB70E11876
:109CA8002E802046FFF7EEFE6288A38893421FBFEE
:109CB800A3689B1800229A7007B962B6F8BD70B500
:109CC8000D46044610B97846FEF75EFD15B978468C
:109CD800FEF75AFDEFF3108672B6A288A368134404
:109CE8009A78042A06D1211D2046FFF7CBFEA288C8
:109CF800A36813449A78022A03D0032A08D00520BF
:109D080003E003229A702B60002006B962B670BD8A
:109D18007846FEF739FDF7E738B5044610B97846B6
:109D2800FEF732FDEFF3108572B6A088A1680144F2
:109D38008B78042B03D12046FFF7B3FE01468878C1
:109D4800831E5842584105B962B638BD38B5044635
:109D580010B97846FEF718FDEFF3108572B6A088A3
:109D6800A16801448878C31E012B05D9831E584277
:109D7800584105B962B638BD2046FFF792FE014644
:109D8800F0E7F8B50D46044610B97846FEF7FCFC36
:109D980015B97846FEF7F8FCEFF3108672B6AB7883
:109DA800012B19D0032B22D1A288A36813449D420A
:109DB80002D07846FEF7E8FC0027AF70211D204648
:109DC800FFF760FEA288A36813449B78042B00D198
:109DD800A78006B962B6F8BD6288A36813449D429D
:109DE80002D07846FEF7D0FC0023AB70F1E7784646
:109DF800FEF7CAFCEDE710B5EFF3108472B682885F
:109E0800816811448B78042B02D1FFF74AFE014682
:109E18008878B0FA80F0400904B962B610BD0379B9
:109E280042799B1A03F57F2303F6FF7300EB033097
:109E38007047000010B5054884681C22002111F005
:109E48004EFB2046BDE8104003F03CBEC83600205B
:109E580070B5194CE36813B97846FEF795FC237E74
:109E680013B17846FEF790FC6368092B02D978464F
:109E7800FEF78AFC114D0026636855F82330984791
:109E8800022811D003280DD0012810D163680133AE
:109E9800092B636002D97846FEF776FC237E002BF7
:109EA800EAD004E06660F9E7237E0BB1207070BD4C
:109EB800BDE87040FFF7BEBFC836002084C6030067
:109EC800038810B5044613B97846FEF75DFC208870
:109ED800074B04EB800030EA030203D06288B2F536
:109EE800FE4F04D11C4004F580542078204410BD56
:109EF80000F0FFFF70B504460E4647F6FE65FFF713
:109F0800DFFFB04207D2844205D24388013B9BB2AF
:109F1800AB42F4D870BD0020FCE700000A78094B7A
:109F2800032A04BF002119761978012903D11B7E61
:109F38003BB9FFF78DBF022903D1032A01D1FFF7EF
:109F480079BF7047C836002010B50C4CE368187804
:109F5800002203F58051184404F08EF850B9E168E6
:109F68000846FFF75CFF814206D001F58051E160A9
:109F7800032010BD0120FCE70220FAE7C8360020C4
:109F88001FB50A4B02221B688DF800200193084A6E
:109F98004FF4805369460120029300F0D7FEB0FACF
:109FA80080F0400905B05DF804FB00BFE8360020EA
:109FB800E43600201FB50123CDE902210190054AAE
:109FC8008DF800306946184600F0C0FE05B05DF80F
:109FD80004FB00BFE4360020264BD868027941799B
:109FE800013A91422DE9F0471E4603D101205876E7
:109FF800BDE8F08700F580531F491C781C440B68A6
:10A0080013F8045F1D44FFF70AFF6388013B9BB206
:10A0180047F6FE62934200F58057884604D92046E9
:10A028003946FFF767FF0446DFF850A04FF00109F3
:10A038002CB9B4FA84F4640974760120D8E7D8F806
:10A0480000106288284601F5805104F015F805468D
:10A058000028EED004225146204686F81890FFF7D3
:10A06800A9FF28B920463946FFF744FF0446DFE731
:10A078000020BDE7C8360020E8360020B4C8030039
:10A0880038B5104CE36818784FF6FF7203F5805125
:10A09800184403F0F1FF88B1E36819780B4498423B
:10A0A8000CD0657E0849094B0422002D08BF1946CB
:10A0B800FFF780FF20B90120207638BD0120FCE79A
:10A0C8000020FAE7C8360020BCC80300B8C803005F
:10A0D80070B50C4D0C4EE96830680C780430224697
:10A0E800FFF768FF58B9336804F0FC0404341C44D3
:10A0F800EB686C611A7813442B61012070BD002055
:10A10800FCE700BFC8360020E836002008B5054B3C
:10A11800054918680422FFF74DFFB0FA80F040099E
:10A1280008BD00BFE8360020D4360020074B10B524
:10A138001968074C40F6FC720431E068FFF73AFFF3
:10A1480010B90120207610BD0020FCE7E836002079
:10A15800C836002010B50C4CE1680846FFF75FFED2
:10A1680081420AD1094B0A4918680422FFF722FFE5
:10A1780040B901232376022010BD01F58051E1602A
:10A188000320F9E70020F7E7C8360020E83600206A
:10A19800EC3600202DE9F74F324C236913B9784685
:10A1A800FEF7F2FA636913B97846FEF7EDFADFF8BD
:10A1B800B89047F6FE6A6369D4E9030603EA09081A
:10A1C800A8EB0308FFF72BFE7388013B9BB25345AE
:10A1D80008F5805800F5805B06D930465946FFF7E8
:10A1E80089FE0646002835D0354600275D4519D238
:10A1F8002A8807EB8202904509D986EA050313EA03
:10A20800090F04D16B88013B9BB2534502D957B95A
:10A21800012318E028460192FFF752FE019A0546ED
:10A228001746E3E7E7B13A4631466069FFF7C2FEF1
:10A2380090B963691F44676115B97846FEF7A4FAB7
:10A248002561002335B1698847F6FF72914201D034
:10A25800002BB0D0012000E0002003B0BDE8F08F53
:10A268000123EFE7C836002000F0FFFF1FB50A4BB7
:10A278000222DB688DF800200193084A4FF48053CE
:10A2880069460120029300F061FDB0FA80F04009B0
:10A2980005B05DF804FB00BFC8360020E436002096
:10A2A8004FF0102310B55A69013225D05A691AB3F4
:10A2B8005B69A3F58053A3F58053174A19681360A7
:10A2C8004B1E033325D8C1F30B0313BB134A1448A1
:10A2D800D16001211170134913765376936051F8B8
:10A2E800234084420ED1536001200F4900F01EFD27
:10A2F800FFF7AEFD012010BD4FF080525169136980
:10A308004B43D8E701330A2BE9D17846FEF73CFAEC
:10A31800EAE70020EFE700BFE8360020C836002053
:10A3280075A2020084C60300259F020010B50446EA
:10A3380010B97846FEF728FA094B187860B1E0683A
:10A34800D9684379A0EB0333994206D3FFF767FD39
:10A3580081428CBF0020012010BD0020FCE700BF17
:10A36800C8360020024B1878003018BF012070470B
:10A37800C836002038B50E4C2378054613B1784608
:10A38800FEF702FA2B78032B02D07846FEF7FCF989
:10A39800EB68E360012000230649A560636023762B
:10A3A8002070637600F0C2FCBDE83840FFF750BD6E
:10A3B800C8360020259F0200014B1868704700BF6F
:10A3C800E836002010B5044610B97846FEF7DCF9E7
:10A3D80063681BB123680BB1A36813B97846FEF70D
:10A3E800D3F9A3685A1E1A4202D07846FEF7CCF970
:10A3F8000023C4E9033310BD70B50E460446F0B11E
:10A408008368F3B1EFF3108572B6D0E9033199424E
:10A4180003D105B962B605250FE04EB18368013B4B
:10A428000B40D0E90012304602FB031111F02EF860
:10A4380023690133236135B962B6284670BD0E25FC
:10A44800FBE70925F9E70025F7E70000024AD2F8FB
:10A458000034002BFBD0704700E00140C0F30B0331
:10A4680010B5E3B9E9B1104C0223C4F80435FFF77D
:10A47800EDFF01F6FF7121F47F6121F00F01014426
:10A48800884205D10020C4F80405FFF7DFFF10BD9E
:10A49800C4F80805FFF7DAFF00F58050F0E7102050
:10A4A800F5E70920F3E700BF00E0014070B540EA96
:10A4B800010414F003041BD1E2B195071AD10E4E22
:10A4C8000123C6F804359508FFF7C0FFAC4205D153
:10A4D8000020C6F80405FFF7B9FF70BD51F8243015
:10A4E8005A1C03D040F82430FFF7B0FF0134EDE7E1
:10A4F8001020F2E70920F0E700E001404388012B33
:10A5080005D0022B01D104300860012070470430C7
:10A518004860FAE708B508220221094803F029F93A
:10A5280020B90848BDE8084003F0A4BA064A916873
:10A53800127B02724160BDE8084003F049B900BFD0
:10A54800F8360020002E00204437002010B50446BD
:10A5580010B97846FEF718F92346BDE810401847A9
:10A5680000B50A4B1A7B9B688DB0012A08BF03F11E
:10A57800FF3303900CA80493022300F82C3D8DF8B8
:10A588000820FFF745FA0DB05DF804FB44370020BA
:10A5980038B50E4D2B78C3B90D4B5C6804F50054E3
:10A5A800B4F1807F11D8042201210A4803F0E1F8B0
:10A5B80020B90948BDE8384003F05CBA012344607B
:10A5C8002B70BDE8384003F003B938BD5837002078
:10A5D80044370020F8360020F02D002010B5012166
:10A5E8000C4803F00BF980B902210A4803F006F978
:10A5F800044650B901461422074810F070FF074B73
:10A608001C70BDE81040FFF7C3BF054803F032FADD
:10A61800F7E700BFF8360020443700201C37002039
:10A62800202E002030B50D468DB07AB94B88012B0D
:10A638000AD1124C227812B97846FEF7A5F8104BC9
:10A648006A685A60002323700DB030BD032A02D017
:10A658007846FEF799F82C22002101A810F03FFF58
:10A6680011238DF80430074B0395DA681B690592AE
:10A6780001A80693FFF7CCF9E6E700BF583700209A
:10A6880044370020F836002013B501F0AFFC002154
:10A698006B46124A1248134CCDE9001102F0BCFF78
:10A6A800009B0BB1019A6AB900232360A36023734E
:10A6B800FFF730FF23686360FFF76AFF01F0D6FCFD
:10A6C80002B010BD1968A16019792173934202D9AB
:10A6D80009B92160EEE713682360EBE705A50200DE
:10A6E800F83600204437002008B503F011FAA0F529
:10A6F800805008BD7FB500211822684610F0EFFE93
:10A70800FFF7F2FF0123009001936946054B0648C5
:10A71800039303F09BF810B1044803F0ABF907B0BA
:10A728005DF804FB2DA60200F8360020102E00204C
:10A7380008B5142200210A4810F0D1FE00F0AAFF43
:10A74800084B094A09499A6000225860C3E9031274
:10A758005A61074B1A70BDE80840FFF7CBBF00BF2E
:10A76800443700202037002069A80200008793039F
:10A778005937002010B5074C23784BB90648074BCA
:10A78800036000F017FD064800F016FF0123237050
:10A7980010BD00BFF436002038370020CDA80200D5
:10A7A8002037002010B501F021FC104A117B134618
:10A7B800C9B9917BB9B9118A41F28262914202D832
:10A7C8000B4A12787AB101221A739A68002401326E
:10A7D8001C829A60FFF79EFE2046FFF7C1FE01F03B
:10A7E80045FC204610BD0824F9E700BF4437002087
:10A7F8005937002010B501F0F9FB174A547B13466E
:10A80800BCB1917B21BB118A41F28262914202D88C
:10A81800124A1278F2B11A7B002058732AB1012A21
:10A828000BD07846FDF7B0FF03E0FFF7BBFF002829
:10A83800F7D101F01BFC204610BDC3E900001873D6
:10A848001882FFF78DFEFFF765FEFFF7A1FEF0E720
:10A858000024EEE71446ECE744370020593700207F
:10A8680010B5164C237B2BB1012B12D07846FDF77F
:10A878008BFF18E0228A41F282639A4202D8104B79
:10A888001B7883B1FFF7B6FF638A0BB1013B638284
:10A8980010BD228A41F282618A4208D8084B1B788F
:10A8A8000BB1FFF7A7FF238A01332382ECE742F2BB
:10A8B800B0118A42F5D96373E4E700BF443700203A
:10A8C800593700200378042B10B50ED143681B7844
:10A8D8005BB11D4B4269197B047E71BB598A01BB70
:10A8E800012C996802D08A4203D810BD4C1CA242A0
:10A8F80019D92A318A42F8D8997B0029F5D1846878
:10A908009A60124A1A61C3E9001159731973FFF763
:10A9180001FEFFF73DFE04F11000BDE81040FFF70F
:10A928001FBE012CE1D1996801318A42DDD1012293
:10A93800BDE810405A73FFF75DBF0129D5D1012C3E
:10A94800D3D09968F1E700BF443700200000062DF6
:10A9580038B5164CD4E900239A4205461FD2207B0D
:10A96800134B1449012808BF0B469A4207D2636863
:10A978002268403B9A4208D3FFF70AFE05E001230C
:10A988006373FFF737FF0028F1D0EFF3108072B63A
:10A9980023685A1C22602B6028B962B638BDFFF7BD
:10A9A800F7FD0F20FAE70020F8E700BF4437002042
:10A9B800FFFF7F0000E0FF000C4A10B51368144643
:10A9C80028B101200A4903448873136010BD13B9E4
:10A9D8007846FDF7D9FE2368013B2360002BF5D1AB
:10A9E800034ABDE810409373FFF704BFF036002018
:10A9F8004437002000B58DB00323ADF808000CA83B
:10AA08008DF8102000F82C3D0391FFF701F80DB0E8
:10AA18005DF804FB014B9868704700BF443700207D
:10AA2800034B98681B7B012B08BF00F1FF30704770
:10AA380044370020044B9B685840C20748BF03F1C5
:10AA4800FF331846704700BF44370020014B187B7E
:10AA5800704700BF443700202DE9F8431D4CDFF84C
:10AA6800789000260221204602F006F95FFA86F85F
:10AA780005460027ADB967B12946204602F063F9BB
:10AA8800082806D154F8043C1BB12A4649464046DA
:10AA980098470136032E04F1BC04E3D10120BDE838
:10AAA800F88354F8043C34F80C2C13B1294640467A
:10AAB800984734F80C3C02210133204624F80C3C1A
:10AAC80002F0F6F80221204602F0D6F801370546D2
:10AAD800D0E700BF70370020ACC6030038B50121AD
:10AAE80004460C3002F0C8F8054620B3164BC4F8EB
:10AAF8009C300023C4F8A03003786268012B07D08B
:10AB0800022B1AD07846FDF73FFE4FF4FA7306E0A1
:10AB180081688B1A990829234B4303F5FA730B4A6A
:10AB2800934294BFC4F8A830C4F8A8200123C4F8FD
:10AB3800AC4084F8B830284638BD83689B1A1A0B95
:10AB4800034B5343E9E700BF7DAB0200608501007A
:10AB5800084C010010B50446FFF7C0FF48B104F1E6
:10AB68009C0009F0CFF820B17846BDE81040FDF709
:10AB78000BBE10BD4B4B1B782DE9F74F80460D4699
:10AB88003BB109F0F5F8002385F8B83003B0BDE80B
:10AB9800F08F01F10C09D1F8A8704846012102F0A4
:10ABA8006BF8064610B97846FDF7EEFDDFF8FCA015
:10ABB800A7F5FA7700244FF0290B3378012BA7EB80
:10ABC800040406D0022B3BD07846FDF7DDFD0023B8
:10ABD8001FE06B68B268B4FBFBF4D21AA40094427D
:10ABE80028BF144624B901937846FDF7CDFD019B93
:10ABF800F168706823F00303224619441844FFF7EC
:10AC080055FC10B17846FDF7BFFD6B681C446C60BD
:10AC1800B3686A689A422AD109F0AAF8484601211D
:10AC280002F046F800236B6085F8B8301E4B1868B0
:10AC380001F06AFA284603B0BDE8F04FFFF78ABF73
:10AC48006B68B268B4FBFAF4D21A2403944228BFA2
:10AC5800144624B901937846FDF796FD019B706868
:10AC680023F0030321461844FFF7F8FBC9E701F076
:10AC7800AFF83378B0EB080448BFA8EB0004012B09
:10AC88000DD0022B06D153462344BB4295D909F077
:10AC98006FF8CFE77846FDF777FD0023F4E729231F
:10ACA800F2E700BF603700205C370020084C010045
:10ACB80070B51B481B4C01F009FA1B4B186004F1D6
:10ACC8001C0341F203060825636104F10C0004F13A
:10ACD80018032361A681A57302F011F804F1D803C3
:10ACE800C4F8D03004F1C80004F1D403C4F8CC305F
:10ACF800A4F8C86084F8CA5002F001F804F5CA73D1
:10AD0800C4F88C3104F5C873A4F8846184F88651BA
:10AD1800C4F8883104F5C270BDE8704001F0EFBF97
:10AD280061AA0200643700205C370020022838B589
:10AD380004460D4602D97846FDF726FD024BBC2293
:10AD480002FB0434A56038BD6437002002282DE9D1
:10AD5800F84F05460C46924602D97846FDF714FD91
:10AD680014B97846FDF710FD2378012B12D16368DA
:10AD7800990702D07846FDF707FDE3689A0702D0E5
:10AD88007846FDF701FDA3689B0711D07846FDF7CB
:10AD9800FBFC0DE0022B0DD16368C3F30B0313B169
:10ADA8007846FDF7F1FCA368C3F30B03002BEDD144
:10ADB800A36813B97846FDF7E7FCEFF3108772B67E
:10ADC800BC266E43DFF8988006F10C0BC3440021C3
:10ADD800584601F051FF8146002836D000215846D8
:10ADE80001F066FF04F1100354F8042B49F8042B12
:10ADF8009C42F9D1BAF1000F05D0BC2303FB0583AF
:10AE08005B88AAF80030BC2303FB05856B8895F89E
:10AE1800B84001336B80F4B9104B1D78B5B908EB15
:10AE28000600FFF75BFE77B962B63C4640B106F113
:10AE38009C00404408F066FF10B17846FDF7A4FC7A
:10AE48002046BDE8F88F2C46F0E70424002FF7D100
:10AE580027460020E8E70024F8E700BF6037002015
:10AE68006437002070B5EFF3108672B6144C23686F
:10AE780018BB13B97846FDF787FC2368013B2360AC
:10AE880093B9104D95F8B83013B92846FFF762FE0C
:10AE980095F8743113B90C48FFF75CFE95F8303219
:10AEA80013B90A48FFF756FE2368094A003318BF4A
:10AEB8000123137006B962B670BD01332360F3E74E
:10AEC800983900206437002020380020DC38002022
:10AED8006037002010B1800B014B185C704700BF31
:10AEE800BCC6030012DF7047137813B563B1042B97
:10AEF8000CBF0724002410F8013C292B43D005D8A7
:10AF0800162B4BD002B010BD547DF4E72A2B1BD072
:10AF18002B2BF7D1022CF5D110F8021C0139C9B23C
:10AF280003F034F80028EDD0234B1B685B06E9D505
:10AF3800224B1B68012BE5DD214B224AD3F804354F
:10AF480000920190A42219E0022C01D0072CD9D13B
:10AF580010F8021C013901F0FBFB0028D2D0164B77
:10AF68001B685A06CED5154B1B68012BCADD144B3E
:10AF7800154AD3F804350092019091221349022012
:10AF880002F008F8BEE7022CBCD110F8021C013907
:10AF9800C9B202B0BDE810400CF020BC01884FF6E1
:10AFA800E4639942AED110F8021C0230033902B0B2
:10AFB800BDE81040FDF746BB402E00203C2E002087
:10AFC800001001405BC7030032C7030027C7030016
:10AFD80070B58AB009F05CFB0446002834D0002321
:10AFE80006468DF810300FCE05AD0FC533682B60BF
:10AFF800627D052A0CD9207D00F00F03072B07D0AE
:10B0080004AB063A04F11D0100F00F0008F03EFA07
:10B01800114B1A68AAB104AB0393237DC3F303034E
:10B028008DF80430637D062B89BF063B00238DF81D
:10B03800053004F11D0398BF8DF80530029301A86F
:10B048009047204609F00EFB09F03AFB80F001001A
:10B05800C0B20AB070BD00BFA0390020F7B52E4FAE
:10B068003A780546002A4DD100284DD0067A0F2E91
:10B0780001D0062E4AD104F099FBE86800283ED09A
:10B08800FDF794FB0DF10700FFF72CFF044698BB72
:10B098009DF80730012B3BD1FDF7B0FB00F078FAA3
:10B0A800304600F055FFE87800F0F0F800F094FD25
:10B0B80008F0E2FD194809F09BFB08F05BFBFFF77D
:10B0C800F7FD03F043FE00F02FFC04F02FFB2846A9
:10B0D80001F0E6FA2846FEF7F1F803F0A1FAFDF7C9
:10B0E800B1FA08B1062815D10D4808F0A1F90D4BA1
:10B0F80000221A6001233B70204603B0F0BDFDF723
:10B1080061FBBFE70824F7E70E24F5E70724F3E718
:10B118000224F1E70446EFE79C390020D9AF02008A
:10B12800302E0020A039002037B51B4D2A78012A7F
:10B1380005D002D3033A012A26D908241FE009F0D2
:10B1480073FA01F0BFFAFEF7FBF8FDF77BFA044645
:10B15800C0B1062816D0114B1B685B040FD5104BE5
:10B168001B68012B0BDD0F4B0F4AD3F804350F4931
:10B1780001900092022040F2971201F00BFF204646
:10B1880003B030BD00F010FF08F0AEFD0446002803
:10B19800F5D102232B70F2E79C390020402E0020C5
:10B1A8003C2E002000100140C0C6030027C7030042
:10B1B800FEF7C8B8FEF756BC08B500F0DDFC002065
:10B1C80008BD7047044B1A680132B2F1704F08BFCE
:10B1D80001221A6018687047A439002010B5044687
:10B1E80010B97846FDF7D0FA0023C4E9003310BD42
:10B1F80038B50D46044610B97846FDF7C5FA15B9B5
:10B208007846FDF7C1FA00236B60EFF3108372B63E
:10B21800226822B92560656003B962B638BD6268E4
:10B228005560F8E710B5044610B97846FDF7ACFA52
:10B23800EFF3108272B6206808B143682360236870
:10B2480003B9636002B962B610BD10B5044610B9FF
:10B258007846FDF799FA206810BD35DF7047000081
:10B2680008B54FF0FF30FFF7F8FFBFF34F8F0549E0
:10B27800054BCA6802F4E0621343CB60BFF34F8FFB
:10B2880000BFFDE700ED00E00400FA0507289ABFBB
:10B29800024B33F81000FA20704700BF86C703003E
:10B2A800024B5868103840B2704700BF00ED00E00C
:10B2B800084A202390FBF3F352F82330424202F06D
:10B2C8001F0200F01F0058BF504223FA00F000F0A0
:10B2D8000100704700E100E046DF704730B501F13A
:10B2E80010031032103013F8014D12F8015D8B4233
:10B2F80084EA050400F8014DF5D130BD2DE9F04F81
:10B3080091B002F10F0504AE98468A462D11034606
:10B3180000F11004B14618685968374603C7083366
:10B32800A3423E46F7D102F00F04002D58D0002C5E
:10B3380056D10127BB461022002108A810F0CFF8EB
:10B348004846FFF7C9FF01220DF13F0110AB13F981
:10B35800100D1E4693F800C04FEA4C0C5FFA8CFCA7
:10B3680083F800C013F801EF4CEADE1C994203F899
:10B3780001CCEFD19DF83F305B00DBB20028B8BFAD
:10B3880083F087038DF83F30531C9B454FF0020232
:10B39800DCD2013D0AEB051137B30CAA6846FFF76A
:10B3A8009DFF102200210CA810F099F80024AC424F
:10B3B8002CDB3246694608A8FFF790FF4846FFF79E
:10B3C8008BFF10AA334603CB9342C8F80000C8F895
:10B3D80004101E4608F10808F4D111B0BDE8F08F3A
:10B3E80000274FF0020BA6E72246684610F04EF8F9
:10B3F80010AB2344802203F8402C0134102C02D1D6
:10B408000CAA6946CAE70DF80470F6E70AEB0412BD
:10B41800314608A8FFF762FF4846FFF75DFF013491
:10B42800C5E7000038B5124B1A6804462AB11A68F5
:10B4380045685268AA1A002A0DDA1A6862611C6007
:10B448009A88013292B29A8012B97846FDF79CF92F
:10B458000123237038BD19684A691AB15068401B26
:10B46800002802DB62614C61EAE71146F4E700BF9D
:10B47800AC390020124B1A68824210B51A460446AD
:10B488000BD142691A609A8892B2511E89B299808A
:10B498008AB97846FDF778F90DE01B685BB1596900
:10B4A800A1420BD16169596193889BB2591E89B237
:10B4B8009180002BEDD00023237010BD0B46EDE7E3
:10B4C800AC390020014B186800F01EBEA8390020D6
:10B4D800044B1A6822B11B680349586800F064B924
:10B4E80000F0B8B9AC390020CDB402002DE9F04124
:10B4F80000F0D0F8254E054637464FF0000833686F
:10B5080023B133685B685B1B642B06D400F0C2F878
:10B51800FFF7DEFF0120BDE8F08134682378012BB6
:10B5280002D07846FDF730F963693B60BB88C4F800
:10B5380014809BB25A1E92B2BA8013B97846FDF7AE
:10B5480023F9A36813B97846FDF71EF902232846A4
:10B5580023702169A368984700F09CF82378022B90
:10B568000546CCD1E2680AB92270C8E763686FF073
:10B578006301891A1344091AD018C14204D46360BC
:10B588002046FFF74FFFBAE70346F5E7AC3900203E
:10B5980008B5064B064800221A605A6000F096FD6E
:10B5A800044B1860BDE8084000F066B8AC390020CC
:10B5B800F5B40200A839002010B5044600F07EFE5C
:10B5C80010B97846FDF7E0F814B97846FDF7DCF8CD
:10B5D800A36813B97846FDF7D7F82378012B02D171
:10B5E8007846FDF7D1F8002363612046FFF71AFF7C
:10B5F80000F050F8BDE81040FFF76ABF10B50446E8
:10B6080000F05CFE10B97846FDF7BEF814B978462C
:10B61800FDF7BAF82046FFF72DFF0023636100F01D
:10B6280039F8BDE81040FFF753BF38B504460D465A
:10B6380000F044FE10B97846FDF7A6F814B978462C
:10B64800FDF7A2F82046FFF715FF002363612046A7
:10B658006560FFF7E7FE00F01DF8BDE83840FFF72A
:10B6680037BF0378DBB2012B04D00078831E584221
:10B67800584170471846704708B50FF0B5FD38B9FE
:10B688000FF0F2FC20B17846BDE80840FDF77CB821
:10B6980008BD000010B5EFF3108072B60C4A0D4BD0
:10B6A8001968D2F80435D2F80441012C04BFD2F845
:10B6B8000435013100B962B6074843EA01614FF425
:10B6C80080420023E0FB0123D00B40EA434010BD39
:10B6D80000100140B439002040420F000A4B10B559
:10B6E8004FF40032094CC3F84823C3F808232268F2
:10B6F80012B97846FDF748F82468FFF7CBFF2346D0
:10B70800BDE81040184700BF00100140C0390020B4
:10B7180010B5EFF3108072B61E4B1F490022C3F814
:10B7280004210A6801320A6000B962B61B4A11682E
:10B7380009B31168013911601268E2B9184AD3F8DF
:10B7480004051168884217D2EFF3108072B6D3F857
:10B75800041514680131A1422ABFD3F804251268E0
:10B768000232C3F8442500B962B64FF40032C3F878
:10B778004423C3F8042310BD0A4C226812B9784642
:10B78800FDF702F82468FFF785FF2346BDE810405F
:10B79800184700BF00100140B4390020B839002014
:10B7A800BC390020C039002037B500230446019376
:10B7B8000D4611B97846FCF7E7FF204B1D60FFF7EF
:10B7C80069FF031B002BB8BF241A1D481D4AA8BFD8
:10B7D80000244FF4004500210023E5FB04010FF08D
:10B7E80009FDEFF31083019372B6174A174CD2F88C
:10B7F80004350228C3F1FF1101F57F4138BF02204B
:10B808008142134910D30344C2F844354FF400333E
:10B81800C2F84433C2F80433002323600B60019B51
:10B8280003B962B603B030BD03F17F43013303446B
:10B838001A0E0132226023F07F43EFE7C03900205F
:10B8480020A1070040420F0000100140B839002035
:10B85800BC390020074B4FF40032C3F84823C3F823
:10B868000823054A00231360044A1360044A13603E
:10B87800704700BF00100140B8390020BC390020D3
:10B88800C039002030DF704731DF704710B5D0E98C
:10B8980000238468C168A2EB731283EAF43303605F
:10B8A8000C441344114444608160C360184610BDC1
:10B8B80037B50C46054610B97846FCF765FF0023F6
:10B8C8009C4201D803B030BD0DF10700FFF7DAFF45
:10B8D8009DF807100029F7D0E21A914288BF8DF829
:10B8E8000720E8189DF80710FFF7CEFF9DF80720FE
:10B8F8001344E5E737B5044602A8002340F8043DA1
:10B908000421FFF7D5FF074B2360019BE360C4E9DF
:10B91800013314252046FFF7B9FF013DFAD103B0E2
:10B9280030BD00BFED5EEAF1704748DF704749DF80
:10B9380070474ADF70470000064A032313741168F2
:10B94800054B536140F6D862914288BF43F2B0621A
:10B958009A607047F0390020103A0020054B1B68A8
:10B96800A0F1780228335843034BB0FBF3F0101AC8
:10B97800704700BF0C3A002040420F0038B50E4A0D
:10B988000E4C01236371136800250133136025747D
:10B9980000F07AFA08F05AFA2068FFF7DFFF084A41
:10B9A8000146284600F0E2F920B17846BDE8384063
:10B9B800FCF7EABE38BD00BF243A0020F039002069
:10B9C80041B902001F4B10B45A6928B11968DC68E4
:10B9D80011440134DC601960996801240131E240A6
:10B9E80001291C7499605A611C680ED002291AD06A
:10B9F8005B69154A1C44944203D840F6D7629342C7
:10BA08001CD85DF8044BFFF7B9BFB2F5FA7F03D134
:10BA180030B900225A61EBE740F6D8618A42E7D88C
:10BA280040F6D862F6E7DA68022A02D1064A121B03
:10BA3800F0E7012ADCD10028EBD0D9E75DF8044B08
:10BA4800704700BFF03900208096980070B5424CCE
:10BA5800424D012323712B781BB1414B1E78002ED8
:10BA68005BD000232374042853D8DFE800F0034D8B
:10BA78004A4844003B4DA179AA68C4E902332368C7
:10BA88002260002934D0012121743749002B08BFD6
:10BA98000B46991AB1F57A7F26D39A4224D8616168
:10BAA80043F2B06043F69822C5E9020201236B71A4
:10BAB800A371237C023B012B0DD8637943B108F0B5
:10BAC800E1F92068FFF74AFF00F010FA00236371DC
