:020000022000DC
:1060000000F0032071630200596302005B63020029
:106010005D6302005F630200616302000000000034
:1060200000000000000000000000000063630200A8
:1060300065630200000000006763020069630200FC
:106040006B6302006B6302006B6302006B63020010
:106050006B6302006B630200658B02006B630200DE
:106060006B6302006B630200194303006B63020061
:106070006B6302006B6302006B6302006B630200E0
:106080006B630200E1B50300E5C802006B63020028
:10609000B1B603006B630200416703006B6302004B
:1060A0006B6302006B6302006B6302006B630200B0
:1060B0006B6302006B630200000000000000000040
:1060C0006B6302006B6302006B6302006B63020090
:1060D0006B6302006B6302006B6302006B63020080
:1060E0006B6302006B6302006B6302000000000040
:1060F000000000006B630200000000006B63020000
:10610000000000000000000000000000000000008F
:10611000000000000000000000000000000000007F
:10612000000000000000000000000000000000006F
:10613000000000000000000000000000000000005F
:10614000000000000000000000000000000000004F
:10615000000000000000000000000000000000003F
:10616000000000000000000000000000000000002F
:10617000000000000000000000000000000000001F
:10618000000000000000000000000000000000000F
:1061900000000000000000000000000000000000FF
:1061A00000000000000000000000000000000000EF
:1061B00000000000000000000000000000000000DF
:1061C00000000000000000000000000000000000CF
:1061D00000000000000000000000000000000000BF
:1061E00000000000000000000000000000000000AF
:1061F000000000000000000000000000000000009F
:10620000354936480A1A02D0072291438D4634494F
:1062100034480A1A06D00722914381F309880222E2
:1062200082F3148830483149314A00F043F831484C
:106230003149324A00F03EF831483249324A00F0E2
:1062400039F832483249334A00F034F83248334999
:10625000334A00F02FF833483349344A00F02AF823
:1062600033483449344A00F025F834483449002290
:1062700000F02BF833483449002200F026F8334868
:106280003349091A082903DB002202600430016047
:106290001F482049884205D00268043003B4904763
:1062A00003BCF7E700208646EC4600200021294A7F
:1062B0009047FEE7884207D0521A05D00378013094
:1062C0000B700131013AF9D17047884202D0027057
:1062D0000130FAE77047000000F0032000E80320D7
:1062E00000F0032000F00320E8E20300A02D0020CE
:1062F000C02E0020A8630200A863020026C003008D
:10630000E8E20300A02D0020A02D002000C1030022
:1063100000C1030000C1030000C1030000C103006D
:1063200000C1030000C1030000C10300E8E2030054
:1063300008E40300C02E0020C02E0020C02E002044
:106340002C5500202C5500202C5500202C550020C9
:106350002C59002055700200FEE7FEE7FEE7FEE73D
:10636000FEE7FEE7FEE7FEE7FEE7FEE7704700BF59
:106370000948804709484FF0070188438546084887
:1063800080470848016841F470010160BFF34F8FF6
:10639000BFF36F8FFFF734BF6D63020000F003207F
:0863A000F568030088ED00E040
:1063A80041DF704700470000024A8D21032010F0AA
:1063B80086BB00BF85C5030070B5674C23685E04C3
:1063C800C6B00ED5654B1B68032B0ADD644B654AC6
:1063D800D3F8043564490092042040F2AB2207F058
:1063E800EBF823685D0415D55C4B1B68032B11DDA6
:1063F8005E4A5B4BD188D3F80435039151880291EA
:10640800128801925A4A0092574940F2AD2204205C
:1064180007F0D2F8236858042CD5504B1B68032B7F
:1064280028DD544B514E186805AA0023F11891F83D
:106438002C100D0901F00F01455D02F81350455C61
:1064480002EB43010133102B4D70EFD1002382F88A
:10645800203003F1804303F588334349D3F80435EA
:106468000292454A0192454A0092042040F2AE2227
:1064780007F0A2F8236859042BD5384B1B68032B67
:1064880027DD3C4B394E186805AA0023F118097B13
:106498000D0901F00F01455D02F81350455C02EB50
:1064A80043010133102B4D70F0D1002382F82030C6
:1064B80003F1804303F588332B49D3F8043502925E
:1064C8002F4A01922D4A0092042040F2AF2207F091
:1064D80073F823685A042BD5204B1B68032B27DD40
:1064E800244B224E186805AA0023F118097F0D09CC
:1064F80001F00F01455D02F81350455C02EB4301C2
:106508000133102B4D70F0D1002382F8203003F1B5
:10651800804303F588331449D3F804350292194AA5
:106528000192164A009204204FF42C7207F044F8A6
:1065380023685B040ED5094B1B68032B0ADD084B47
:10654800114AD3F8043508490092042040F2B122D8
:1065580007F032F846B070BD342E0020302E0020EF
:10656800001001405BC30300E0C50300142F0020A6
:1065780075C30300382E0020B6C30300BFC3030051
:10658800C7C30300D0C30300D9C3030037B5454CC4
:1065980023685D040ED5444B1B68032B0ADD434B6F
:1065A800434AD3F8043543490092042040F24E226E
:1065B80007F002F8404D41484FF0FF332B60AB80A5
:1065C80012F062F920B13E4A40F2562110F077FAF3
:1065D8003C4A3D48002114F091FF20B1384A40F26E
:1065E800572110F06CFA394A3948002115F0CCFAD5
:1065F80020B1334A40F2592110F061FA2368580457
:1066080010D5294B1B68032B0CDD284B2A89D3F89E
:10661800043501922F4A0092264940F25A2204205A
:1066280006F0CAFF2368590411D51F4B1B68032BBA
:106638000DDD274A1D4B1288D3F804350192264AEE
:1066480000921C4940F25B22042006F0B5FF236843
:106658005A0410D5144B1B68032B0CDD134B6A69C5
:10666800D3F8043501921D4A009212494FF417726B
:10667800042006F0A1FF23685B0411D50A4B1B68B0
:10668800032B0DDD124A094BD268D3F80435019269
:10669800134A0092074940F25D22042006F08CFF5D
:1066A80003B030BD342E0020302E002000100140F1
:1066B800B1C60300E0C50300D02E0020ED6602003D
:1066C80085C50300916D0200D82E00200D6D0200D3
:1066D800C02E0020D1C60300EAC6030003C703008A
:1066E8001BC703000F4B1B685B0473B504460D46BC
:1066F80016460ED50C4B1B68032B0ADD0B4B0C4AB8
:10670800D3F804350B490092042040F2931206F0A6
:1067180053FF32462946204602B0BDE8704001F0DA
:10672800A5BE00BF342E0020302E002000100140EE
:1067380064C10300E0C503000F4B1B685B0407B589
:1067480011D50E4B1B68032B0DDD0D4A0D4B5288DE
:10675800D3F8043501920C4A00920C4940F23312E6
:10676800042006F029FF0A4B00210E20197003B0FF
:106778005DF804EB02F054B9342E0020302E0020CE
:10678800142F00200010014079C10300E0C5030068
:10679800102F00200E4B1B685B0407B50ED50D4B60
:1067A8001B68032B0ADD0C4B0C4AD3F804350C4943
:1067B800009204204FF4A27206F0FEFE094B00215D
:1067C8000D20197003B05DF804EB02F029B900BF81
:1067D800342E0020302E00200010014013C3030087
:1067E800E0C50300102F002008B53C220021064810
:1067F80015F067FB054807F00FFA20B10448BDE81B
:10680800084007F049BC08BD142F0020EC2E0020DA
:10681800CC2D002073B58A4C23685E04054640F1F0
:106828000181884E3268032A40F3ED80864B874900
:10683800D3F80435421C0192854A009204204FF493
:10684800067206F0B9FE032D2FD8DFE815F0040014
:1068580083009200BF007F4E2368317803F48043A1
:10686800002969D17C4D2A88698891421FD273B169
:10687800744B1B68032B0ADD734B784AD3F8043535
:1068880072490092042040F2A51206F095FEAB680A
:10689800A888734A00930221002301F033FF0121E5
:1068A8000E2002F0BDF80123337002B070BD1E2A1D
:1068B80030D873B1634B1B68032B0ADD624B694AFE
:1068C800D3F8043561490092042040F2BD1206F065
:1068D80073FE654B654A1A6023685C040FD5594BF3
:1068E8001B68032B0BDD584B5849D3F8043501922C
:1068F8005F4A0092042040F2C31206F05DFEE98868
:10690800594A0220012300F0CDFF01F045F801218A
:106918000D20C6E7002BC8D04A4B1B68032BC4DDEB
:10692800494B544AD3F8043500924FF4E67247496C
:10693800042006F041FEB8E7002BB6D0414B1B6897
:10694800032BB2DD404B4C4AD3F8043500924FF488
:10695800EA72ECE723685804A7D53A4B1B68032B67
:10696800A3DD394B454AD3F80435009240F225227D
:10697800DDE7236859040ED5324B1B68032B0ADD6B
:10698800314B3F4AD3F804353049009204204FF484
:106998000B7206F011FEFFF727FF09F01EFA04221A
:1069A800C8214FF4804002F051F823685A047FF55B
:1069B8007CAF244B1B68032B7FF777AF224B314A00
:1069C800D3F80435009240F23222B0E723685B0422
:1069D8000DD53368032B0ADD1B4B2B4AD3F804353E
:1069E8001A49009204204FF40E7206F0E5FD1020BB
:1069F80002F00AF880F00101C9B2102002B0BDE827
:106A0800704002F00DB803283FF64FAF01A353F8CA
:106A180020F000BF5F680200636902007B69020022
:106A2800D569020003283FF640AF01A353F820F0D0
:106A38005F6802005D6902007B690200F769020075
:106A4800342E0020302E002000100140E0C5030045
:106A58001BC40300102F0020142F00202EC4030095
:106A6800302F002061C40300582F002090C4030079
:106A7800ABC40300C1C40300DAC4030008C50300A3
:106A880019C5030031C503006CC50300303804285C
:106A980001D8FFF7BFBE704770B53C2201210E48F0
:106AA80007F079F9054620B90C4807F0F5FA0020F7
:106AB80070BD0B4A031D02F13806144603CCB442DC
:106AC80018605960224603F10803F6D1206818605F
:106AD800284607F08FF9EAE7EC2E0020B02D0020B9
:106AE800142F0020144B1B685B0407B50ED5134BFD
:106AF8001B68032B0ADD124B124AD3F804351249DE
:106B0800009204204FF49D7206F056FD00210D20DE
:106B180001F086FF01210E2001F082FFFFF7BCFF84
:106B280038B10A4A40F23F1103B05DF804EB0FF0A8
:106B3800C6BF03B05DF804FB342E0020302E0020C1
:106B48000010014042C30300E0C5030085C50300EF
:106B580008B5FFF7A1FF28B1034AFE21BDE80840A8
:106B68000FF0ADBF08BD00BF85C5030073B5404D2C
:106B7800404C2B6813F4804F10D03F4B1B68032BFD
:106B88000CDD3E4B6288D3F8043501923C4A0092F2
:106B98003C4940F21712042006F00EFD00210E2099
:106BA80001F03EFF63880133638009F04BFDFFF776
:106BB80073FF20B1344A40F21D110FF080FF638843
:106BC8001E2B3AD8A6683149304615F0CFF900286F
:106BD8002FD02F49304615F0C9F950B32D4930460A
:106BE80015F0C4F938B32B685A040ED5224B1B682C
:106BF800002B0ADB214B284AD3F80435214900929F
:106C080000204FF4867206F0D7FC784602F0CEF8E2
:106C18000023224AE18813600220012300F042FE8B
:106C280000F0BAFE01210D2002B0BDE8704001F06D
:106C3800F7BE1B4BEDE71B4BEBE72B685B040ED550
:106C48000D4B1B68032B0ADD0C4B174AD3F8043590
:106C58000C490092042040F22B1206F0ADFC0422ED
:106C6800C8214FF4F03002B0BDE8704001F0EEBE2C
:106C7800342E0020142F0020302E00200010014058
:106C88000AC20300E0C5030085C5030090C40300E1
:106C980031C203004AC203006AC20300542F002015
:106CA800CFC10300EAC10300C1C40300104B1B6835
:106CB8005B0413B5044610D50E4B1B68032B0CDD83
:106CC8000D4B0278D3F8043501920C4A00920C4916
:106CD80040F28712042006F06FFC23781C2B05D1A4
:106CE800002002B0BDE8104004F0CCBD02B010BDD9
:106CF800342E0020302E002000100140B6C10300C1
:106D0800E0C503001FB51A4B0A781B6803F48043DB
:106D1800D2B9B3B1174B1B68032B12DD0A69164BA6
:106D28005078D3F80435039049684988029112785D
:106D38000192124A009212494FF4BA72042006F0E6
:106D48003BFC05B05DF804FB002BFAD0094B1B682F
:106D5800032BF6DD084B0A49D3F804350192094A9A
:106D6800009204204FF4C07206F026FCE9E700BF49
:106D7800342E0020302E00200010014018C10300DE
:106D8800E0C5030047C103002DE9F0430A7885B048
:106D98000C46FAB9214E3168490419D5204B1B68B5
:106DA800032B15DD61681F4B48884969D3F8043502
:106DB8000F78257B0FB991F90D200190CDE902528A
:106DC800194A0092194940F25B12042006F0F4FBBC
:106DD800237BE3B905B0BDE8F08333685B0410D5C5
:106DE8003B68032B0DDD2169D8F80435895CCDF8A3
:106DF8000090CDE9012104204FF4B0720B4906F050
:106E0800DBFB0135237BEAB29342E6D8E2E70025B3
:106E1800034FDFF81080DFF81890F3E7342E0020D6
:106E2800302E002000100140AFC20300E0C503006F
:106E3800E4C2030003780E2B13B519D10D4B1B6860
:106E48005B040ED50C4B1B68042B0ADD0B4B0C4A5C
:106E5800D3F804350B490092052040F2DF1206F002
:106E6800ABFB094C23781BB9FFF7A6FA0123237063
:106E780002B010BD342E0020302E0020001001403A
:106E8800FAC20300E0C50300502F00200A4B1B681C
:106E98005B0407B50DD5094B1B68032B09DD084BAF
:106EA800084AD3F80435084900920420992206F0CC
:106EB80083FB03B05DF804FB342E0020302E002045
:106EC80000100140E7C50300E0C50300144B1B6830
:106ED8005B0413B514460DD5124B1B68032B09DD53
:106EE800114B124AD3F804351149009204207D222F
:106EF80006F062FB012C05D1784602B0BDE81040CF
:106F080001F054BF022CF7D0032C07D1094A86217F
:106F1800042002B0BDE810400FF0D1BD02B010BD92
:106F2800342E0020302E002000100140FEC5030042
:106F3800E0C5030085C5030010B58AB003A902A8FF
:106F480008F094FF18B1174AA6210FF0B8FD164BA8
:106F58000793164B0893164B099304230693029B39
:106F68001448A3F58053012404A90493059406F05A
:106F78007FFFA0B1104807F08FF8104B1B685B0427
:106F88000DD50F4B1B68002B09DD0E4B0E4AD3F8AD
:106F980004350E4900922046B32206F00DFB0AB0D4
:106FA80010BD00BF85C50300D56E0200B1630200A5
:106FB800956E0200EC2E0020A02D0020342E00201B
:106FC800302E00200010014085C20300E0C50300F8
:106FD80038B51B4CA18820890AF092FA20B1194AC9
:106FE8004FF4FB710FF06BFDA18820890AF008FBB4
:106FF80020B1144A40F2F7110FF061FD124DA1883B
:1070080028880AF07DFA20B10E4A40F2F9110FF0F3
:1070180056FDA18828880AF0F3FA20B1094A4FF4EE
:10702800FD710FF04CFD208813F0E0FF30B1054AE8
:1070380040F2FD11BDE838400FF041BD38BD00BF3A
:10704800D02E002085C50300C02E002080B57C4EC0
:107058007C4A92B004214FF4C04006F091FA33689C
:107068005C040ED5784B1B68032B0ADD774B784AF6
:10707800D3F8043577490092042040F2952206F0AF
:107088009BFA14F065FC20B1734A40F297210FF087
:1070980016FD01F00FFD714801F038FD20B16E4A70
:1070A80040F29E210FF00BFD01F08EFD0021202201
:1070B80009A814F006FF01238DF8243007238DF862
:1070C800273006238DF82C30654B0D930DF10B01FD
:1070D800644B119309A808F097FE20B15E4A40F26C
:1070E8006B210FF0ECFC12AF5F483C2504F074FBF9
:1070F800FFF722FF47F83C5D5C4A5D483B460121AB
:1071080006F012FE594B044628B118462A460021BB
:1071180014F0D7FE0346002C0CBF0124002467D0CE
:1071280000221A6040F20312DA80FFF7B5FC20B1A2
:10713800494A40F20D210FF0C2FC4E4B4E4D1C76D1
:107148000FCD3C460FC495E8030084E80300384699
:1071580000F0B0FC9DF80B30002B5CD1336859046B
:107168000ED5394B1B68032B0ADD384B434AD3F83D
:10717800043538490092042040F2812206F01CFAB6
:1071880000F0BCFCFFF724FF09F05CFAFFF7E0FC15
:107198003B493C4801F0BCFB64213B4801F0DAFB69
:1071A80033685B040ED5284B1B68032B0ADD274B7D
:1071B800364AD3F8043527490092042040F2B72212
:1071C80006F0FAF904F0C2FA20B1234A40F2BD21D0
:1071D8000FF075FC00214FF4F03001F02DFC052272
:1071E800C8214FF4F03001F031FCFFF7D9F8FCE783
:1071F80033685804A1D5144B1B68032B9DDD134B32
:10720800234AD3F8043513490092042040F211228E
:1072180006F0D2F991E733685A040ED50A4B1B6879
:10722800032B0ADD094B1B4AD3F8043509490092A0
:10723800042040F28B2206F0BFF900F0DFFBA7E73D
:10724800342E00205DD50200302E002000100140B1
:1072580014C60300E0C5030085C503001D680200CD
:10726800B56C020095650200C02D0020142F002087
:10727800EC2E0020D02E002000C103005CC60300C5
:1072880041670200756B0200956A0200A7C60300F9
:1072980048C6030093C603002DE9F0410378C8B03F
:1072A80004460A2B00F20B81DFE813F00B00BC0246
:1072B8000C0109010901090109018F0209013B02B9
:1072C800CA01A84E3378012B40F0F980A64D2B68EF
:1072D8005B042DD5A54B1B68032B29DDA44B271D6B
:1072E800186807AA002317F8011B4FEA111C01F0C0
:1072F8000F0110F80CC003F802C010F801C0D11833
:107308000233202B81F801C0EDD1002382F8203010
:1073180003F1804303F588339649D3F80435029284
:10732800954A0192954A00920420962206F044F963
:10733800E26913789BB92B685F0410D58B4B1B68E7
:10734800032B0CDD8E4B92F90D20D3F804350192F6
:107358008C4A009287499A22042006F02DF9637D11
:10736800002B00F0AC802B6858042DD57F4B1B6890
:10737800032B29DD7E4B04F11607186807AA0023A2
:1073880017F8011B4FEA111C01F00F0110F80CC08F
:1073980003F802C010F801C0D1180233082B81F895
:1073A80001C0EDD10023137203F1804303F5883344
:1073B8007049D3F804350292734A01926F4A0092D9
:1073C80004209F2206F0F8F8704B1B78002B76D02B
:1073D8002B68590410D5654B1B68032B0CDD684BD3
:1073E8006449D3F8043504F116020192684A009200
:1073F8000420A32206F0E0F82B68664F13F4804FB0
:1074080010D05A4B1B68032B0CDD3A685C4B126892
:10741800D3F804350192604A00925649A422042008
:1074280006F0CAF83B68D3F80080B8F1000F07D01F
:10743800404614F0C2FD07AA81B2404605F019FB88
:107448002B685A040DD5494B1B68032B09DD4C4B9F
:10745800524AD3F80435474900920420A82206F07E
:10746800ABF83B681A684E4B00211A6007A819222E
:1074780014F027FD4B4B1A89ADF82C204A4A5D6859
:107488001288ADF832200DF11C0C05F10C021C35E8
:1074980010685168674603C70832AA42BC46F7D14C
:1074A8009A7A424801230093211D07AB0FF0D8FDBB
:1074B80018B13F4A7A210FF002FB0323337048B01A
:1074C800BDE8F081284E274D336813F4804F12D061
:1074D800264B1B68032B0EDD364A294B1278D3F84E
:1074E800043502922A780192334A00922149B52242
:1074F800042006F061F82B78032B63D133682D4EF6
:10750800327803F480439AB16BB1184B1B68032B94
:1075180009DD1B4B294AD3F804351649009204208B
:10752800BA2206F049F801232B703378013BC5E7EE
:1075380093B10E4B1B68002B0EDD1B4A104B1288B3
:10754800D3F804350292227A01921D4A0092094921
:10755800C122012006F030F800232B70114B5B6923
:107568009847ACE77C320020342E0020302E0020D3
:10757800382E0020AFC70300C4C70300BFC30300F1
:1075880000100140CAC70300D5C70300DE3200203F
:10759800DFC70300E4320020F3C7030009C8030073
:1075A800E032002080320020DA320020483100200A
:1075B80054C70300D93200202DC8030074C8030043
:1075C80096C80300022B7FF47AAF9F4C9F4A6368EA
:1075D80010881A889E49988001320F881A80DA88A4
:1075E8003A44DA8040F20312904202BF994A126884
:1075F8009A60E3680F4698472369984733685B04A5
:1076080012D5954B1B68032B0EDD944B3A88D3F8A3
:10761800043502926268924992880192914A0092D6
:107628000420D32205F0C8FF62689368908800930D
:107638001C320023022101F065F800232B703EE77D
:10764800894F3A6856040DD5834B1B68032B09DD17
:10765800824B864AD3F80435814900920420DE2201
:1076680005F0AAFF824B02221A703B685D040DD513
:10767800794B1B68032B09DD784B7E4AD3F8043518
:10768800774900920420E32205F096FFE3687A49DF
:10769800D88A0BF0A1FB18B1784AE5210FF00FFA50
:1076A800694DE0682968764BA2684988C08A0BF062
:1076B800B9FEA84618B1714AE9210FF000FA704ED8
:1076C800308811F04DF918B16C4AEC210FF0F7F938
:1076D800694D3088298811F0FFF818B1674AEE2102
:1076E8000FF0EDF93B6858047FF5E9AE5A4B1B687B
:1076F800032B7FF7E4AE594B3288D3F80435049254
:10770800D8F800205649528803922A880292E268E3
:10771800D28A01925B4A00920420F42205F04CFFC1
:10772800CDE64B4B027A1A800121102300224068D3
:107738000FF0C2FC00283FF4C2AE4B4C2268510443
:107748000FD5454B1B68002B0BDD444B4E4AD3F835
:10775800043543490190009201204FF4827205F0EC
:107768002BFF2368494C424D217803F48043A9B18B
:1077780073B1394B1B68032B0ADD384B444AD3F8E5
:10778800043537490092042040F2071205F014FF2F
:1077980001232B702378013B237090E6002B3FF4E4
:1077A800DBAE2D4B1B68032B7FF7D6AE274A2B4B3E
:1077B8001288D3F804350192364A009228494FF4CA
:1077C8008772042005F0F8FEC6E6334B07AD03F1D7
:1077D8001006186859682A4603C20833B34215468A
:1077E800F7D1102207A960680FF072FC20B1234A74
:1077F80040F21B110FF063F91B4B1B685A047FF50D
:107808005EAE154B1B68032B7FF759AE134B234A0B
:10781800D3F8043500924FF48E721149042005F014
:10782800CBFE4CE6104B1B685B047FF548AE0A4B59
:107838001B68032B7FF743AE084B194AD3F804356E
:10784800009240F22112E8E780320020DA3200206C
:10785800DC320020E0320020302E002000100140F1
:10786800AFC70300D9C80300342E002010C9030095
:107878007C32002031C903005C2F002054C703006C
:107888005E2F002059C903009BC90300D93200208C
:10789800CBC90300D9C9030034C7030040CA030099
:1078A80065CA030010B586B002B1A3B9284B1B689E
:1078B8005B040ED5274B1B68002B0ADD264B274A95
:1078C800D3F8043526490092012040F22F1205F022
:1078D80073FE06B010BD234C20702348234C018052
:1078E80023490120087023490A60234A137022782B
:1078F80052BB224A1068516803AB03C3118919802F
:10790800927A1F491F489A700FF0A8FB18B11E4AB7
:1079180083210FF0D4F81D4B0093194A19491C48CC
:1079280003AB0FF068FB18B1174A84210FF0C7F8B2
:10793800184810F075FB014615480FF07BFB18B18D
:10794800114A85210FF0BBF801232370C1E700BF5E
:10795800342E0020302E002000100140C3CA03003E
:10796800AFC70300D9320020DA3200209832002055
:107978007C320020E4320020DE32002044C70300BD
:10798800602F00209932002054C70300A172020022
:1079980048310020802F0020114B1B685B0407B57D
:1079A8000ED5104B1B68032B0ADD0F4B0F4AD3F87B
:1079B80004350F49009204204FF49F7205F0FCFD36
:1079C8000C480FF000FC38B10B4A40F23F1103B0ED
:1079D8005DF804EB0FF073B803B05DF804FB00BF6B
:1079E800342E0020302E00200010014010CB030060
:1079F800AFC70300A172020054C7030030B587B0B7
:107A080006AD254C012345F8043D2068294602307F
:107A18000BF0EAFC20B1214A4FF4A4710FF04FF8A3
:107A2800059B012B02D0784601F0C0F923682A464D
:107A3800191D58880BF02AFE20B1184A4FF4A57179
:107A48000FF03DF804A80BF0BBF92168BDF8100051
:107A58000BF022FD20B1114A4FF4A7710FF02FF857
:107A68000F4B1B685B0415D50E4B1B68032B11DDF0
:107A780022680D4B1188D3F804350391918802913F
:107A880052880192094A0092094940F25112042091
:107A980005F092FD07B030BD8032002054C70300C6
:107AA800342E0020302E00200010014084CA03002C
:107AB800AFC7030038B5C368044613B9784601F068
:107AC80075F9636913B9784601F070F9236913B938
:107AD800784601F06BF90FCC054D0FC5054A002318
:107AE80094E803001370044A85E80300137038BD56
:107AF80080320020983200207C3200201FB52E4BA7
:107B08001868039003A80BF021F920B12B4A4FF411
:107B1800B2710EF0D4FF2A4C606810210C3004F0CA
:107B2800D9F9606810211C3004F0D4F9606810217C
:107B38002C3004F0CFF9D4E90021002002320C31B6
:107B48000BF0E0FA20B11D4A4FF4B7710EF0B7FF01
:107B58001C4B1B685B0411D51B4B1B68032B0DDDED
:107B680022681A4B5288D3F804350192184A0092B9
:107B7800184940F26F12042005F01EFDD4E90012E6
:107B880000200B1D1C3249880BF0A0FC20B10B4AC9
:107B98004FF4B8710EF093FFD4E9003201202C3273
:107BA80059880BF03FFC20B1044A40F273110EF0E3
:107BB80086FF04B010BD00BF50C7030054C70300C0
:107BC80080320020342E0020302E0020001001408A
:107BD800FDCA0300AFC703001FB5044601804CF27D
:107BE800020003F089FC174B20711B88A381002336
:107BF800A3731E212374A374134BE17301216174D1
:107C08004CF202021988E280A4F813105B88A4F8E9
:107C180015300E4B1B685B0411D50D4B1B68032BED
:107C28000DDD0C4B0C49D3F80435029222880192E1
:107C38000A4A0092042040F2231205F0BDFC04B069
:107C480010BD00BFE8320020EA320020342E0020A8
:107C5800302E00200010014096CB0300A3CB030078
:107C680010B5054803F0DCFF044B054A1A60054BC4
:107C7800BDE810401B68184708330020DC2D0020A1
:107C880083CE0300F8320020F0B5A04CA04D236845
:107C980013F4804F8DB011D09E4B1B68032B0DDD64
:107CA8002A689D4B1278D3F8043501929B4A0092BA
:107CB8009B494FF4AB72042005F07EFC2B681B78BF
:107CC800013B0B2B00F2A683DFE813F00C003C000D
:107CD8005E005601B201BF00B0024402F102720315
:107CE8008B033A0323685C040ED58A4B1B68032B6D
:107CF8000ADD894B8B4AD3F8043589490092042060
:107D08004FF4AE7205F058FC002010F041FE864B8F
:107D180002225A80002205461A705A60002D00F08F
:107D28001782824C10F068FF2378002B00F07983CB
:107D3800013B237003F0C0FF7D490144201D03F07F
:107D480086FF05E2236858040ED5724B1B68032B87
:107D58000ADD714B774AD3F8043571490092042043
:107D68004FF4B37205F028FC734B1A68734B00206C
:107D7800198810F031FE6C4B48F203025A80022237
:107D88001A7005466E4AC8E7236859040ED5614B38
:107D98001B68032B0ADD604B6A4AD3F80435604937
:107DA8000092042040F2711205F006FC664B06931F
:107DB800664B1D8823685A040FD5564B1B68032B46
:107DC8000BDD554B624AD3F80435554900920195AD
:107DD8004FF4BB72042005F0EFFB2368574E13F4F1
:107DE800804F10D04B4B1B68032B0CDD4A4B32885D
:107DF800D3F804350192574A0092494940F2771264
:107E0800042005F0D9FB23685B0410D5414B1B689F
:107E1800032B0CDD404B069AD3F8043501924E4AE9
:107E280000923F494FF4BC72042005F0C5FB069A46
:107E38003188284610F0D8FE3B4B48F23E025A8063
:107E480001221A700546454A67E723685F040ED584
:107E5800304B1B68032B0ADD2F4B414AD3F80435FE
:107E68002F490092042040F2831205F0A5FB3D4BF8
:107E78000693364B1D8823685E040FD5254B1B6877
:107E8800032B0BDD244B384AD3F8043524490092E0
:107E980001954FF4C472042005F08EFB2368274E29
:107EA80013F4804F10D01B4B1B68032B0CDD1A4BAF
:107EB8003288D3F8043501922C4A0092184940F2CE
:107EC8008912042005F078FB23685C0410D5114B57
:107ED8001B68032B0CDD104B069AD3F8043501926E
:107EE800234A00920E494FF4C572042005F064FB42
:107EF800069A3188284610F077FE0B4B48F23E026E
:107F08005A8001221A7005461A4A06E7342E0020C4
:107F1800DC2D0020302E002000100140D1CB0300C2
:107F280096CB0300EFCB0300F0320020043300208F
:107F3800404B4C0009CC030028330020E8320020D5
:107F480077CE030018CC0300FFFF0200EE320020BA
:107F580035CC03004ECC030066CC030079CE030079
:107F680078CC0300FFFFCE0A95CC0300AECC03000B
:107F7800C6CC03007ACE03002368974D13F4804FD4
:107F880010D0964B1B68032B0CDD954B6A88D3F8F1
:107F980004350192934A0092934940F295120420C5
:107FA80005F00AFB6A782B7843EA0223ADF818300B
:107FB800AB78EA788D4D43EA0223ADF81A308C4B42
:107FC8001E88236813F4804F10D0844B1B68032B42
:107FD8000CDD834B2A88D3F804350192854A009238
:107FE800814940F29B12042005F0E6FA2368580400
:107FF80010D57A4B1B68032B0CDD794B069AD3F806
:10800800043501927C4A009277494FF4CE720420DD
:1080180005F0D2FA069A2988304610F0E5FD774B2C
:1080280048F23E025A8001221A700546744A74E6E4
:10803800744E754D3388BBB96D4A23681288013276
:1080480092B25904328025D5644B1B68032B0EDD90
:10805800634B6549D3F8043501926C4A00920420B9
:1080680040F2AB1205F0A8FA23685A0412D55B4B0C
:108078001B68032B0EDD5A4B3288D3F80435029265
:108088006A880192624A009257494FF4D8720420D4
:1080980005F092FA6A782B78378843EA0223ADF81C
:1080A8001830AB78EA78514D43EA0223ADF81A301C
:1080B800236813F4804F10D0484B1B68032B0CDD4A
:1080C800474B2A88D3F804350192524A0092464910
:1080D80040F2B712042005F06FFA23685B0410D54C
:1080E8003E4B1B68032B0CDD3D4B069AD3F8043539
:1080F8000192494A00923C494FF4DC72042005F091
:108108005BFA2988069A384610F06EFD23685F04EA
:1081180005460FD5314B1B68032B0BDD304B3F4A0F
:10812800D3F80435304901900092042040F2BB1284
:1081380005F042FA314B48F23E025A8001221A7089
:10814800374A5A60002D7FF4ECAD33880133338011
:108158000DB0F0BD162200210DF11A0013F0B1FE8A
:10816800234B1B88ADF818301E238DF827300623C3
:108178008DF828304FF0FF338DF82B308DF82C30E8
:1081880002238DF82D3000238DF82E30236801222C
:108198005D048DF81C20ADF81E208DF829200FD520
:1081A8000E4B1B68032B0BDD0D4B0F49D3F8043521
:1081B80001921C4A0092042040F2D71205F0FCF903
:1081C80006A810F045FC0D4B48F219025A8001220E
:1081D8001A700546144AA0E520330020302E0020EE
:1081E80000100140D8CC030096CB0300E8320020F1
:1081F800EE320020F5CC03000ECD0300F032002053
:108208007BCE030024330020EA32002023CD030074
:1082180051CD030080CD030099CD0300B2CD0300FA
:108228007CCE0300C3CD03007DCE030016220021BF
:108238000DF11A0013F045FE7B4B1B88ADF8183082
:108248001E238DF8273009238DF828304FF0FF338F
:108258008DF82B308DF82C306FF031038DF82D30E0
:108268000A238DF82E30236801225C048DF81C2027
:10827800ADF81E200FD56D4B1B68032B0BDD6C4B27
:108288006C49D3F8043501926B4A0092042040F2FD
:10829800F31205F091F906A810F0DAFB674B48F2E3
:1082A80019025A8001221A700546654A35E51622D8
:1082B80000210DF11A0013F004FE5B4B1B88ADF88A
:1082C8001830D80754BF40F205134FF48273ADF845
:1082D8001E305C4B1B88ADF824301E238DF82730E8
:1082E80001238DF82930584B01228DF81C201A885B
:1082F800ADF82B205B88ADF82D309AB2236859046D
:1083080012D54A4B1B68032B0EDDBDF81E10484BD7
:10831800D3F80435CDE901214C4A0092454940F291
:108328001522042005F048F906A810F091FB434BEC
:1083380048F219025A8001221A700546444AECE4B0
:1083480023685B040ED5394B1B68032B0ADD384BB9
:10835800404AD3F804353749009204204FF4087294
:1083680005F02AF9304B18880023079303238DF86A
:1083780018304CF20203ADF81A30334B59781A789A
:1083880042EA0122ADF814209A78DB7842EA032306
:10839800ADF8163006AA059B06CA10F0FFFB274B5E
:1083A80048F21F025A8001221A7005462A4AB4E48C
:1083B80018220DEB0200002113F083FD1A4B1988D7
:1083C800013189B206A8FFF707FC06A810F040FBA8
:1083D8001A4B48F219025A8001221A7005461F4AA0
:1083E8009BE418220DEB0200002113F06AFD0E4BEE
:1083F8001988023189B206A8FFF7EEFB06A810F02B
:1084080027FB0E4B48F219025A8001221A700546C2
:10841800134A82E4134A40F24A2105200EF04FFB2A
:108428007FE4FFF71DFC93E6EE320020302E00209B
:108438000010014096CB030000CE0300F03200206C
:108448007ECE0300E8320020203300203DCE03001A
:108458007FCE030062CE030080CE030081CE0300EE
:1084680082CE03003BCB0300FFF70EBC2DE9FF4192
:10847800904C23685B040546884640F116818E4E71
:108488003268032A40F3E9808C4A8D4B1268D3F88E
:108498000435127801928B4A00928B4940F29E2251
:1084A800042005F089F8002D40F0DA8023685F0485
:1084B8000DD53368032B0ADD814B844AD3F8043584
:1084C80081490092042040F2A32205F075F8804DFE
:1084D8002B88002B71D023685E040ED5764B1B6861
:1084E800032B0ADD764B7B4AD3F804357649009294
:1084F800042040F2A72205F05FF82B88013B2B806F
:1085080004B0BDE8F041FFF7BFBB734FB8F80020D7
:1085180079888A4215D023685C0440F1C380664B91
:108528001B68002B40F3BE80654BD3F80435CDE9BA
:1085380001126A4A00926449DF22012005F03CF8E2
:10854800B0E048F219018A42D8F8043006D039D888
:10855800022A54D048F203018A423AD11D783B7866
:10856800002B64D0236859040FD5534B1B68032B89
:108578000BDD534B5A4AD3F8043553490092019501
:108588004FF48272042005F017F87A683878134699
:10859800991A884235D823685B040ED5464B1B6868
:1085A800032B0ADD464B4F4AD3F80435464900925F
:1085B800042040F20D1204F0FFFF04B0BDE8F041C2
:1085C800FFF74EBB48F21F018A42C7D048F23E016E
:1085D800C2E7236858040DD5374B1B68002B09DD0B
:1085E800374B414AD3F80435374900920120FB2222
:1085F80004F0E2FF3D4AFC2105200EF060FAFF2559
:10860800ADE713F8011B8D42C2D123685A040ED579
:10861800294B1B68032B0ADD294B354AD3F804354F
:1086280029490092042040F2091204F0C5FF33687A
:1086380030485A1C5B7832600D2B4FF003020270F1
:108648007FF45EAF043003F0EBFA2B4B33602B4B17
:108658001B6804B0BDE8F041184700283FF429AF73
:10866800022D1FD1B8F1000F02D1784600F09EFB11
:10867800124E33681A7812B10D2A7FF446AF236878
:108688005D040FD50C4B1B68012B0BDD0C4B0E4901
:10869800D3F8043501921A4A009202204FF41E7250
:1086A80004F08AFF04B0BDE8F08100283FF40FAF62
:1086B800D6E700BF342E0020302E0020DC2D00200D
:1086C8000010014084CE030096CB030098CE03002F
:1086D80000330020C3CE0300F032002000CF030097
:1086E8004ACF030078CF03002ACF03003BCB030017
:1086F80064CF03000433002083CE0300FC32002043
:10870800CECE03002DE9F0436A4E6B4D346804F475
:1087180080492C68247889B0A4B1B9F1000F0ED033
:10872800664B1B68002B0ADD654B664AD3F8043597
:1087380065490092012040F2BF2204F03DFF09B0D4
:10874800BDE8F083614CDFF8C48120806048614F48
:10875800018061496148C860032008706049109829
:108768000A60604A6049138013F000FC28B15F4931
:10877800109813F0FBFB00287ED16FF0310388F8C6
:1087880002301A22BB700A2388F80320FB704FF0CE
:10879800FF3388F8003088F801303B707B7033680D
:1087A8005A0410D5454B1B68032B0CDD444B22881B
:1087B800D3F8043501924E4A0092434940F2DD2233
:1087C800042004F0F9FE4FF6FF732288ADF8143048
:1087D800ADF8163005A9012306A88DF81830ADF8B4
:1087E8001A200AF0C1FB20B1424A40F26A210EF079
:1087F80066F90DF11601BDF81A000AF04DFE20B118
:108808003C4A40F26B210EF05AF9BDF8160010F000
:10881800A7F820B1374A40F26E210EF050F9BDF8A2
:108828001410BDF8160010F057F820B1314A40F284
:108838006F210EF044F933685B0414D51F4B1B6895
:10884800032B10DD1E4BBDF81420D3F8043502921B
:10885800BDF816200192284A00921B494FF41C7259
:10886800042004F0A9FE2388012B0CBF234B244BC2
:108878002B60FFF709FA62E72249109813F076FB9C
:1088880000283FF47AAFB9F1000F0ED00B4B1B68EC
:10889800002B0ADD0A4B1C4AD3F804350A4900921A
:1088A800012040F2D62204F087FE784600F07EFAD6
:1088B8006DE700BF342E0020DC2D0020302E002074
:1088C800001001408CCF030096CB0300EE3200204D
:1088D800003300202033002004330020718402007C
:1088E80028330020E832002090C4030031C203007E
:1088F800E0CF03003BCB0300FACF030034CB0300E7
:1089080030D003004AC20300C0CF0300EA3200207F
:1089180038B50C46054610B9784600F047FA14B940
:10892800784600F043FA024B1D60024B1C6038BDCC
:10893800FC320020F832002010B5054C226832B114
:108948000CF000FD002802DB23689847F8E710BD0B
:108958002C330020154B164A10B50C46186001211F
:10896800144813F04FF818B1134A4A210EF0A7F82B
:10897800610C0023E00341F26F728B4208BF824210
:1089880010D24FF47A72002313F026F90146002220
:108998000A4813F049F838B1074A4B21BDE810409E
:1089A8000EF08DB80521F2E710BD00BF2C33002072
:1089B8004189020038D003003CD003003033002046
:1089C80038B50D4C206808B90EF06CF84FF0A0458A
:1089D8000A4AD5F8043512685340C5F804352368A7
:1089E800013B236033B9064813F062F8054B1B6856
:1089F800C5F8043538BD00BF50330020543300207B
:108A080058330020803300204FF0A043D3F80425CA
:108A1800012303FA00F010420CBF184600207047EB
:108A2800012303FA00F04FF0A04311B1C3F80C057D
:108A38007047C3F8080570474FF0A04311B1C3F859
:108A48000C057047C3F8080570470000F8B542B335
:108A5800132926D9134B144D5200013A4FF0A04464
:108A68001A602860114BD4F804251A604FF40040AE
:108A78004FF4FA760027E0FB01674FF47A7200237F
:108A88003046394613F0A8F800220146084812F08B
:108A9800CBFF30B9D4F804352A6823EA0203C4F8B6
:108AA8000435F8BD503300205433002080330020B3
:108AB8005833002008B54FF0A04303224FF400516B
:108AC800C3F83427C3F808154FF48041C3F8382792
:108AD800C3F808154FF40041C3F83C27C3F808153C
:108AE800C3F840274FF48032C3F808250121054A0E
:108AF800054812F087FF18B1BDE808400DF0D2BF55
:108B080008BD00BFC989020090D00300D8B10F4B3F
:108B18000F4A18604FF0A0430020C3F82C27C3F871
:108B28003027C3F86027C3F864270A4B4FF0004288
:108B3800C3F80423C3F87C01074BC02283F806233B
:108B480040221A6070470E20704700BF783300201B
:108B58000C0003000060004000E100E0124B70B51B
:108B68000024124E124DC3F87C414FF0A043A15D82
:108B7800D3F8102501238B40934311D00D49D5F824
:108B880004250B68981A48BFD01A43F23333984229
:108B980006D9D5F804350B60074B20461B68984763
:108BA8000134042CE1D170BD0060004094D0030072
:108BB800001001407C3300207833002060DF7047CC
:108BC80069DF704702F00ABE10B588B00DF064FD89
:108BD80008B10DF067FF1E4B03930024039A04921B
:108BE80005A90120CDE905440794FFF7E9FF08B17D
:108BF8000DF058FFF823049A059305A9A120CDE9A3
:108C08000644FFF7DDFF08B10DF04CFF04A8FFF79D
:108C1800D5FF049A039B9A42044612D00D4B1B6859
:108C28005B040ED50C4B1B68012B0ADD0B4B0C4962
:108C3800D3F8043501920B4A00920220A22204F0D4
:108C4800BBFC14B120460DF02DFF08B010BD00BFCD
:108C5800A02D0020342E0020302E002000100140CE
:108C6800E0D00300F9D003000620704730B5454B2B
:108C780041F201051B68A84287B0044603F480430B
:108C880054D013D801282ED0002B3CD03E4B1B6863
:108C9800002B38DD3D4B3E4AD3F804350191009254
:108CA8003C497B22012004F087FC2CE044F20100BF
:108CB80084424CD044F202008442E5D11BB3324BCB
:108CC8001B68002B1FDD314B1088D3F80435039047
:108CD8005268CDE90112304A00922E496C220120D7
:108CE80004F06AFC0FE073B1274B1B68002B0ADD08
:108CF800264BD3F80435CDE90112284A25490092BC
:108D0800602204F059FC4FF0A0434FF4F032C3F84E
:108D18001825C3F80C25EFF3108372B64DF6AD6C29
:108D28001F4A1378002B2AD107B030BD002BEAD098
:108D3800154B1B68002BE6DD144BD3F80435CDE941
:108D48000112184A0092134963220120D9E7002B27
:108D5800D9D00D4B1B68002BD5DD0C4B1068D3F810
:108D6800043504905068CDE90210926801920E4AC9
:108D7800009208497722012004F01EFCC3E730BFA7
:108D8800CFE700BF342E0020302E00200010014015
:108D980007D203007AD10300C7D103008BD10300A7
:108DA800E02D0020A5D10300E6D1030007B500237C
:108DB800ADF800300146054B01936A4644F20200C3
:108DC800FFF754FF03B05DF804FB00BF1AC40300AB
:108DD800044B00F1100250F8041B43F8041B9042A6
:108DE800F9D1704784330020094A0A4B03CA5960F5
:108DF80018603C3203CADA79D960042161F307129A
:108E08009860DA711A7A022161F387121A72704730
:108E1800600000108433002000487047843300202D
:108E2800064B002203F580715A805A6003F8082B1C
:108E38008B42F9D1024B1A60704700BF943300206F
:108E4800943400200C4BF0B51B680C4C06462022CD
:108E58007BB1013B14F8330050B104EBC3056F88B4
:108E6800B74202D16D688D4202D0013AF0D1104666
:108E7800F0BD1F23EEE700BF943400209433002098
:108E8800084A30B51368084C04EBC3056960012132
:108E980004F833100B44202B08BF002368801360AC
:108EA80030BD00BF9434002094330020C0F30C037D
:108EB8008B42084438BFA0F50050C01A7047000024
:108EC8000D4B0E4AF0B51E6800218E4212D015686F
:108ED80000230AE052F8044C04EBC30714F83340AB
:108EE800844201D17868F0BD01339D42F2D101314D
:108EF8000832EAE70020F6E798340020A034002082
:108F080000B58DB040B99A1C06D0012201A88DF891
:108F18000420029301F08EF8034B186803F006FC56
:108F28000DB05DF804FB00BFA4340020037810B531
:108F3800044613B97846FFF739FFE079431C01204E
:108F48009840013810BD0000F8B5037804460F4674
:108F580013B97846FFF72AFF0B4B0C4E1A68A06925
:108F6800511C02F0070206EBC2051960A38AA1880A
:108F78006B80FFF79BFFE369686003F001036B7088
:108F880006F83270F8BD00BFE8340020A83400208D
:108F98002DE9F0410E468EB015461C46074610B91D
:108FA8007846FFF703FF16B97846FFF7FFFE636AB6
:108FB800627802330593A378A2F10800002B14BF4E
:108FC800012102210DF1040842424241434604F1C5
:108FD8000C0003F0F2FC63788DF83430237BADF895
:108FE8002050022B16FA85F5CDE906870B960C95CD
:108FF8000FD1236913B97846FFF7D8FE236909937F
:10900800102305A8ADF8283003F0D3FC0EB0BDE856
:10901800F0810023F5E738B5044604F13005C06E49
:1090280006F0D9FE284602F02EFE10B1284602F0BE
:10903800F7FD94F84830022B08D104F15005284672
:1090480002F021FE10B1284602F0EAFD2046702207
:10905800002112F036FF002084F84800BDE83840AF
:1090680001F0BCBF10B590F84830012B8CB0044615
:1090780002D07846FFF79AFE01238DF8043001A844
:10908800636D029300F0D6FF2046FFF7C4FF0CB0D3
:1090980010BD0000B2F5C07F2DE9F84F8046894623
:1090A800934602D97846FFF781FE2D4B00267022A1
:1090B8009A4602FB063595F8481041B9584606F01D
:1090C80088FEE86638B900252846BDE8F88F0136DD
:1090D800042EEED1F7E742462C4608F13007134636
:1090E80003CBBB42206061601A4604F10804F6D144
:1090F800702404FB06A40027E764A4F84AB0B8F873
:109108000410D8F81800FFF7D1FEB9F1010FA061DB
:109118001BD1144B84F852701B7D84F8513084F8AD
:10912800537084F85070D8F8283063656FF00103E5
:10913800A3620D4BA3632564012001F04FFF702348
:1091480003FB06A686F84890BEE76FF00103A3620A
:10915800064BA36584F868702566054BEAE700BFEF
:1091680004350020EC340020A5940200B99F0200C9
:109178009D9402001FB500220B468DF80F20E0B128
:109188000230086018460DF10F0103F014FC9DF839
:109198000F3093B10B4B1B685B070ED50A4B1B684E
:1091A800032B0ADD094B0A4AD3F804350949009212
:1091B800042040F2A63204F0FFF99DF80F0005B034
:1091C8005DF804FB342E0020302E002000100140F2
:1091D800A5D2030099D203002DE9F04799461378E8
:1091E800D2F818A0F2B005468846144623B19188F3
:1091F8005046FFF75BFE9061A3786278002BA2F1DE
:10920800080003AF0CBF0221012104F10C06424201
:1092180042413B46304603F0D0FB62788DF83C2053
:109228001FFA88F8A8EB02039BB2CDE90875ADF8E0
:1092380028301D440023ADF83030237B0E95022BD7
:1092480004BF1022ADF83020A278C4F818A012AFDD
:109258000D9704F12405002A55D04FF0000A237B0E
:10926800C4F824A0022B04BF23690B93206AE17879
:109278002A460AF0E9FA606AE0B9237B022B05D195
:109288003146E0890AF082FB0028E8D12B4B1B68A5
:109298005B0735D52A4B1B68052B31DD294B2A4A3C
:1092A800D3F8043529490092062040F2196204F0E7
:1092B80083F925E007A9FFF75DFF0028D6D0A18A2A
:1092C8006378ADF82A1096E80300A8EB0308012399
:1092D80000228DF828300CAB0B9283E80300A37DA5
:1092E8008DF84030236A0E9307A8636A8DF81C2016
:1092F8000897ADF824800F93CDF8449000F09AFEBB
:1093080072B0BDE8F087012B626209D12946E08975
:109318000AF0CEFA07A9606AFFF72CFF0028CED121
:1093280000232946A08A63620AF0C2FA07A9606A84
:10933800FFF720FF0028C2D1A8E700BF342E002085
:10934800302E002000100140DCD2030099D2030027
:10935800C37D0A7830B56BB3837822F07F0203F0BF
:109368007F031A430A700B78027803F07F0343EAFD
:10937800C2130B700378E3B14378083B5A425A4151
:109388004B7803F07F0343EAC2134B70858823F0C0
:109398007F03C5F3861423434B708479C4F3C10259
:1093A80042EA85028A70C37903F01F0343EA441333
:1093B800CB7030BD847822F0400343EA8413DBB2DB
:1093C8000B70C27823F03F0302F03F0213430B7087
:1093D800C9E7000038B590F84830012B044602D0A0
:1093E8007846FFF7E3FC02F067FC237B074A012B72
:1093F80005BFD2E90315A37DD16805FB031101441C
:1094080004F13000BDE8384002F021BCEC34002003
:1094180070B50D4690B0044610B97846FFF7C6FC03
:1094280000212046FFF790FD2C22002105A8666D3B
:1094380012F047FD102305A88DF8143006968DF814
:109448001C5000F0F7FD2046FFF7E5FD0C4B1B68AC
:109458005B0712D50B4B1B68032B0EDD0A4B0B4920
:10946800D3F80435029594F848200192084A0092EE
:10947800042040F2EF1204F09FF810B070BD00BF56
:10948800342E0020302E00200010014099D2030015
:1094980026D2030008460021FFF7BABF91F84830EA
:1094A800012B10B50C4602D07846FFF77FFC94F8E4
:1094B80051305BB1013B84F85130002384F85030BF
:1094C800084BBDE81040186803F030B9217B01292A
:1094D800204603D1BDE81040FFF79ABFBDE8104011
:1094E800FFF7C0BDA43400202DE9F04F044689B031
:1094F8000F4609B100230B6004F10C0394F8505097
:1095080001934FF001084FF0000BE279AA4203D211
:10951800002009B0BDE8F08FE16C08FA05F30B42B2
:109528005BD1E37DA571002B0CBF0C260826954264
:1095380006FB05FA237808BFB4F84A608DF819B01D
:1095480008BFA6EB0A06002B14BF4FF004094FF022
:10955800010906EB09030593019B0393A36A04938E
:1095680003A894F82C308DF8183003F0C4FB0028B9
:10957800CFD1079B994445B994F853302BB9A369C7
:1095880084F85380C3F30C03A380E37D8BB994F86C
:10959800523073B915B17846FFF708FCB4F84A1091
:1095A80062788A1AE16E23460846FFF7F1FC84F8D0
:1095B800528007992046FFF7CBFEE16E32465144B0
:1095C800484612F055FC03A803F0B1FB17B13B68FD
:1095D80001333B606B1C84F850300135EDB294E7E1
:1095E8002DE9F041D47D8AB006460F4615469846C7
:1095F800002C77D09478002C51D1062939D10378E2
:109608004278D0F8021039489B0103F4FE5343EA2C
:10961800920309BA2246702606FB020494F84870A1
:10962800012F10D1B4F814C0EF89BC450BD1A7881D
:109638009F4208D1E56C0D43E564E9B90321204652
:10964800FFF7E6FE15E00132042AE5D1284B1B6836
:109658005B070ED5274B1B68012B0ADD264B274AD3
:10966800D3F8043526490092022040F2A75203F0AD
:10967800A3FF0AB0BDE8F0812046FFF757FC8542FA
:1096880003D12046FFF7EEFCF3E7002184F85010E1
:109698002046FFF729FF2046FFF79CFEE9E7204612
:1096A800FFF70EFC03460028E3D005F10C012A6AF7
:1096B800089203C9AA8AADF8162006AA82E8030010
:1096C800AA7D8DF824202A788DF8142095F82C206E
:1096D8008DF80840CDE903678DF82520414602A89A
:1096E8009847C6E7FFF778FDC3E700BF04350020B9
:1096F800342E0020302E00200010014005D3030036
:1097080099D20300F0B5C37D15464278002B2A4450
:1097180014BF4FF480734FF4C0739342C7B00E4622
:1097280068D3384C0023E11891F84870012F08D10C
:10973800B1F814C0878ABC4503D1CF89C1898F424B
:109748005AD07033B3F5E07FEDD10121FFF7A2FCC9
:109758000446002852D02A463146C06E12F088FBD3
:10976800002304A920460493FFF7BEFE30F0040549
:1097780006463AD1049B13B12046FFF72BFE224B35
:109788001B6813F004033BD0204B1B68032B1BDD25
:10979800B4F84A001E4B80281E6828BF802000238A
:1097A80005AA834213D1002102F81310194B1A4954
:1097B800D3F804350292194A0192194A00920420FA
:1097C80040F2D14203F0F8FE284647B0F0BDE16E02
:1097D800C95C0F0901F00F01F75D02F81370775C9F
:1097E80002EB430101334F70DBE72046FFF713FC20
:1097F8003546E9E70925E7E70825E5E70425E3E72E
:109808001D46E1E704350020342E0020302E0020CC
:10981800382E00200010014099D2030049D20300DD
:10982800BFC303002DE9F041044686B0808A0F4685
:10983800164601F061FE01284DD1237B002B4AD04A
:10984800022B02D12369002B45D094F91630002B46
:1098580043DB22784AB1324639462046FFF752FFA9
:109868000546284606B0BDE8F081E17D6378002909
:10987800334414BF0B210F218B422AD801330393A1
:1098880004F10C030193A36A029301A894F82C3005
:109898008DF810308DF8112003F02DFA05460028B8
:1098A800DFD10599204601F10108FFF751FDE37D5D
:1098B80043B132463946404612F0DAFA01A803F0BD
:1098C80036FACEE72346324641463846FFF760FB74
:1098D800F4E70925C5E71025C3E70725C1E7000018
:1098E80010B54FF4E0720021134812F0EAFA002490
:1098F80004F030FE114B12481C602146402212F041
:10990800E0FA104B1049114A9C75C3E9001210493E
:1099180010484CF25032C3E902211A6140F60402A1
:109928009A8202F0E5FE0C4B18600C4B0C481C6048
:10993800BDE8104004F0EEBE04350020E8340020F5
:10994800A8340020EC34002080969800F0490200EA
:1099580020A10700519B0200A43400209834002065
:10996800098F020004F094BDF0B504468DB00028BC
:1099780042D00569002D3FD0C369002B3CD08669D1
:10998800002E39D05A788DF803201A780993037B72
:10999800022B04BF214B9B7D82F00102002B8DF826
:1099A8000220828AC07A14BF082304238DF801306C
:1099B800C3F10F0110BB8A4220DC082B01D107201C
:1099C80018E08DF8000094E8030003AF87E803006F
:1099D8002189ADF81410A17A8DF81610216A0A9120
:1099E8000023294668468DF8173008968DF82C30E4
:1099F800FFF718FF0DB0F0BD0E20FBE7012113445F
:109A08008DF800100B330C2193FBF1F3013B8DF81B
:109A1800073000238DF80630D5E700BFEC3400206E
:109A2800F0B503468DB00F4600283ED04468002CA0
:109A38003BD08569002D38D0027C12F0FD0F36D05E
:109A48000278110635D48DF8022000220992826826
:109A58000B2A94BF017B012101F001008DF8000061
:109A680000208DF8010031B1D11DC90801398DF8E8
:109A780007108DF8060001218DF8171003F1100169
:109A880003C903AE86E80300D989ADF81410197F1D
:109A98008DF816105B7F0895214668468DF82C30A6
:109AA8000A97FFF7BFFE0DB0F0BD0E20FBE71020B0
:109AB800F9E70720F7E7000030B5047B012C8DB0EB
:109AC8004FF000033BD18288CDF80A30C2F38615E7
:109AD80092008DF805200A0E8DF806200A0C8DF8E4
:109AE80007200A0A8DF80E308DF8082009930622FF
:109AF8008DF810308DF81C30C3890692ADF81E30F1
:109B0800828A90F82C30ADF822208DF82D3001AAE9
:109B1800837D0592026A8DF804508DF809108DF83E
:109B280020400A9243B96FF0010104A88DF82C3047
:109B3800FFF776FF0DB030BD024B5B7DF3E71846AB
:109B4800F8E700BFEC3400202DE9F3411F4E002454
:109B58003746A046351995F84830012B0CD102A993
:109B6800284641F8048DFFF7BFFC042801D0019B6B
:109B780013B12846FFF72EFC7034B4F5E07FE9D125
:109B880000257C1994F84830022B17D194F86830D6
:109B9800022B13D1E16C2046FFF78EFF70B984F8D1
:109BA80068002046E66CFFF7C1F9864206D12046D8
:109BB8000121FFF7C9F92046FFF72DFA7035B5F5F1
:109BC800E07FDED1012002B0BDE8F081043500203D
:109BD8002DE9F0470D469CB01446984606460028E5
:109BE80000F0CD81002A00F0CA810DF10C09002394
:109BF80003934946C9F80430508809F0C7FE20B9D4
:109C0800002738461CB0BDE8F087D4E90312208944
:109C180004F06CFC82460028F2D1D4E903122089B2
:109C280004F03EFC0746A8B12C22514610A825890D
:109C3800246912F046F90F238DF840309DF846301C
:109C4800ADF8445064F3000310A88DF8463000F0D6
:109C5800F1F9D6E70DF14C0A524604F1180C2068C8
:109C68006168134603C3083464451A46F7D133784C
:109C78005AB2D10F8DF840109DF8571000293AD0EC
:109C880003F07F038DF8423000239A428DF841306B
:109C980043DB0023199398F80030052B02D9784646
:109CA800FFF784F898F80030B74A99E80300D35CC6
:109CB8008DF86C308AE8030002F0AAFC9DF8403069
:109CC800002B00F05581BDF85420B04900237020C6
:109CD80000FB031494F848C0BCF1020F37D1B4F864
:109CE80014C0944533D1BDF84420A3889A425DD26C
:109CF80002F0CEFC85E7C3F38011002A03F03F038E
:109D08008DF842108DF843301DDA96F90130002B9A
:109D1800ACBF042308238DF841307278B3789201E0
:109D280002F4FE5242EA9302ADF84420DB00F278D6
:109D380003F0180343EA521302F01F028DF846306D
:109D48008DF84720A5E704238DF84130A1E70133BA
:109D5800042BBDD100249DF8403013B97846FFF795
:109D680025F8179ABDF844101698BDF8549002F0DB
:109D7800010AFFF79BF8DFF830C200230CEBC301A0
:109D88004A68904218D1B1F802E0CE4514D149781A
:109D9800514511D11CF83330002BA9D010A8FFF77A
:109DA800C5F8014610A8FFF787FEA1E7D3D905211A
:109DB8002046FFF72DFBCDE70133082BDED1002C21
:109DC8003FD19DF857209DF84730002A0CBF0C2240
:109DD800082203FB02220CBF4FF4C0734FF48073B8
:109DE8009A4215D96A4B1B68590781D5694B1B687C
:109DF800002B7FF77DAF684B6849D3F80435019293
:109E0800674A0092012040F2363203F0D5FB6FE733
:109E1800022110A8FFF73EF9044690B9014610A8A0
:109E2800FFF74AFE2C22214605A812F04AF8102313
:109E38008DF8143005A802238DF81C3000F0FAF8CC
:109E480056E7534B1B685B0711D5524B1B68032B16
:109E58000DDD514B9DF84620D3F804350192514A47
:109E680000924E4940F25132042003F0A5FB94F8C9
:109E78004830022B02D07846FEF798FFDFF82C9185
:109E8800D9F800A001F018FF0AEB000104F1300036
:109E980001F0DDFE237B012B1AD194F86830BBB9A1
:109EA80094F84830022B02D07846FEF77FFFD9E9B4
:109EB800013299F8151002FB013901F0FDFE00EBA3
:109EC800090104F1500001F0C2FE012384F8683052
:109ED8009DF84630E16C0120984001427FF408AFBC
:109EE8000143E079E1649842A5F104029DF8571016
:109EF80033D1002914BF08210C2103FB0121E56E91
:109F0800A4F84A100CBF0C20082000FB0350311D98
:109F180011F0AEFF2046E56CFFF708F885427FF4A4
:109F2800E7AE022384F86830E16C2046FFF7C4FDF1
:109F3800434605462246B4F84A10E06EFFF750FB48
:109F4800002D7FF4D5AE204684F868500121FEF735
:109F5800FBFF2046FFF75FF8CAE691B90C2A02D149
:109F6800E56E1046D1E704212046FFF751FABFE617
:109F7800434610AA691E701CFFF732FBB8E60E278D
:109F88003FE6082AEBE700BF20D203000435002093
:109F9800342E0020302E00200010014099D20300FA
:109FA800B8D20300CCD20300A8340020EC3400203F
:109FB80091F84830022B10B50C4602D07846FEF7CF
:109FC800F5FE022384F86830E16C2046FFF774FD43
:109FD80008B984F8680010BD2DE9F04188460746A5
:109FE800E8B1124E3468C4B92546454507D1104B2F
:109FF800C3E90075012333602046BDE8F08107EB13
:10A00800C5035B685BB117F83500030609D450B186
:10A01800FEF756FF38B90135E7E70424ECE70E24CC
:10A02800EAE70B24E8E70F24E6E700BF98340020AE
:10A038009C340020F8B5074610B97846FEF7B6FEFE
:10A048000F4E346894B10F4D01232B7023791BB93F
:10A0580054F8043C384698472468002CF6D12B78ED
:10A06800022B03D13168064C09B92970F8BD0B7968
:10A078000E6813B1204603F024FA3146F4E700BF16
:10A08800C8360020C436002010B5044610B97846FA
:10A09800FEF78CFE00232372211D0248BDE8104004
:10A0A80003F0EEB9C83600200B888268D25A07320E
:10A0B80022F00302134402889BB2043A934288BFF9
:10A0C80000230B80704713B58368CB1A02A921F8C7
:10A0D800023DFFF7E9FFBDF806308068184402B07A
:10A0E80010BD70B5064615460C4611BB7846FEF7FE
:10A0F8005DFEFEB17846FEF759FE6B1E2344B3F1B0
:10A10800005F34D94FF08052D2F80C2102F50022BA
:10A11800B3EB822F2ED2042D02D87846FEF746FEE6
:10A1280035800023043D7380B380B4602580A3701C
:10A1380070BD10B97846FEF739FEB4F1005F12D948
:10A148004FF08053D3F80C3103F50023B4EB832F81
:10A15800D3D34FF08053D3F80C3103F50053B4EB4D
:10A16800832FC7D2C9E7B4F5000FF2D8C2E7B3F519
:10A17800000F08D94FF08052D2F80C2102F5005296
:10A18800B3EB822FC7D37846FEF710FEC3E738B586
:10A19800044610B97846FEF709FE6288A36813449E
:10A1A8009B78012B02D17846FEF700FEEFF310856D
:10A1B80072B6A268A18811448B78032B0AD1204675
:10A1C800FFF781FFA368C31A63800023837005B972
:10A1D80062B638BD002393706380A380F7E7F8B5B3
:10A1E8000E461546044610B97846FEF7DFFD16B947
:10A1F8007846FEF7DBFD6288A36813449B78012B41
:10A2080002D17846FEF7D2FD002D37D02388043BD3
:10A218009BB29D4232D8EFF3108772B66188A3884B
:10A22800EA1D22F00302994292B204D25B1A9A42C2
:10A2380010DD042016E018D92088401A904209D26F
:10A248009A42F6D8032881BFA3685B1804229A7043
:10A25800002363806288A1688B188D5201229A704E
:10A268000020336007B962B6F8BDA26813449B7832
:10A27800002BDED193706380A380EBE70920F3E71E
:10A28800F8B50D461646044610B97846FEF78EFD19
:10A2980015B97846FEF78AFDAB78012B02D07846CF
:10A2A800FEF784FD2B88B34202D27846FEF77EFD86
:10A2B80016B97846FEF77AFDEFF3108772B60223D7
:10A2C800AB70E1182E802046FFF7EEFE6288A38867
:10A2D80093421FBFA3689B1800229A7007B962B601
:10A2E800F8BD70B50D46044610B97846FEF75EFD18
:10A2F80015B97846FEF75AFDEFF3108672B6A288B4
:10A30800A36813449A78042A06D1211D2046FFF732
:10A31800CBFEA288A36813449A78022A03D0032AA2
:10A3280008D0052003E003229A702B60002006B9AC
:10A3380062B670BD7846FEF739FDF7E738B50446D2
:10A3480010B97846FEF732FDEFF3108572B6A08893
:10A35800A16801448B78042B03D12046FFF7B3FE94
:10A3680001468878831E5842584105B962B638BDFF
:10A3780038B5044610B97846FEF718FDEFF3108596
:10A3880072B6A088A16801448878C31E012B05D93C
:10A39800831E5842584105B962B638BD2046FFF7BA
:10A3A80092FE0146F0E7F8B50D46044610B9784626
:10A3B800FEF7FCFC15B97846FEF7F8FCEFF31086BB
:10A3C80072B6AB78012B19D0032B22D1A288A368CF
:10A3D80013449D4202D07846FEF7E8FC0027AF7090
:10A3E800211D2046FFF760FEA288A36813449B78CE
:10A3F800042B00D1A78006B962B6F8BD6288A368AD
:10A4080013449D4202D07846FEF7D0FC0023AB707F
:10A41800F1E77846FEF7CAFCEDE710B5EFF31084D4
:10A4280072B68288816811448B78042B02D1FFF7B9
:10A438004AFE01468878B0FA80F0400904B962B64D
:10A4480010BD037942799B1A03F57F2303F6FF7346
:10A4580000EB03307047000010B5054884681C22E3
:10A46800002111F02EFD2046BDE8104003F03CBE4F
:10A47800CC36002070B5194CE36813B97846FEF75E
:10A4880095FC237E13B17846FEF790FC6368092B90
:10A4980002D97846FEF78AFC114D0026636855F804
:10A4A80023309847022811D003280DD0012810D155
:10A4B80063680133092B636002D97846FEF776FC9E
:10A4C800237E002BEAD004E06660F9E7237E0BB117
:10A4D800207070BDBDE87040FFF7BEBFCC360020CD
:10A4E80034D30300038810B5044613B97846FEF741
:10A4F8005DFC2088074B04EB800030EA030203D0A0
:10A508006288B2F5FE4F04D11C4004F580542078CF
:10A51800204410BD00F0FFFF70B504460E4647F614
:10A52800FE65FFF7DFFFB04207D2844205D24388B9
:10A53800013B9BB2AB42F4D870BD0020FCE70000A1
:10A548000A78094B032A04BF0021197619780129D2
:10A5580003D11B7E3BB9FFF78DBF022903D1032A24
:10A5680001D1FFF779BF7047CC36002010B50C4CED
:10A57800E3681878002203F58051184404F08EF837
:10A5880050B9E1680846FFF75CFF814206D001F543
:10A598008051E160032010BD0120FCE70220FAE7AA
:10A5A800CC3600201FB50A4B02221B688DF800200C
:10A5B8000193084A4FF4805369460120029300F042
:10A5C800D7FEB0FA80F0400905B05DF804FB00BF83
:10A5D800EC360020E83600201FB50123CDE9022122
:10A5E8000190054A8DF800306946184600F0C0FE13
:10A5F80005B05DF804FB00BFE8360020264BD8689C
:10A6080002794179013A91422DE9F0471E4603D17A
:10A6180001205876BDE8F08700F580531F491C7863
:10A628001C440B6813F8045F1D44FFF70AFF638896
:10A63800013B9BB247F6FE62934200F5805788467D
:10A6480004D920463946FFF767FF0446DFF850A0D3
:10A658004FF001092CB9B4FA84F464097476012026
:10A66800D8E7D8F800106288284601F5805104F030
:10A6780015F805460028EED004225146204686F8F3
:10A688001890FFF7A9FF28B920463946FFF744FF7D
:10A698000446DFE70020BDE7CC360020EC3600207A
:10A6A80064D5030038B5104CE36818784FF6FF728C
:10A6B80003F58051184403F0F1FF88B1E368197875
:10A6C8000B4498420CD0657E0849094B0422002DA2
:10A6D80008BF1946FFF780FF20B90120207638BD52
:10A6E8000120FCE70020FAE7CC3600206CD50300F7
:10A6F80068D5030070B50C4D0C4EE96830680C78CD
:10A7080004302246FFF768FF58B9336804F0FC04A8
:10A7180004341C44EB686C611A7813442B610120E3
:10A7280070BD0020FCE700BFCC360020EC360020CE
:10A7380008B5054B054918680422FFF74DFFB0FA24
:10A7480080F0400908BD00BFEC360020D836002054
:10A75800074B10B51968074C40F6FC720431E068E5
:10A76800FFF73AFF10B90120207610BD0020FCE762
:10A77800EC360020CC36002010B50C4CE1680846B9
:10A78800FFF75FFE81420AD1094B0A491868042283
:10A79800FFF722FF40B901232376022010BD01F5FF
:10A7A8008051E1600320F9E70020F7E7CC3600206C
:10A7B800EC360020F03600202DE9F74F324C2369A3
:10A7C80013B97846FEF7F2FA636913B97846FEF7CB
:10A7D800EDFADFF8B89047F6FE6A6369D4E9030634
:10A7E80003EA0908A8EB0308FFF72BFE7388013B6F
:10A7F8009BB2534508F5805800F5805B06D9304672
:10A808005946FFF789FE0646002835D03546002709
:10A818005D4519D22A8807EB8202904509D986EA54
:10A82800050313EA090F04D16B88013B9BB253451A
:10A8380002D957B9012318E028460192FFF752FEC2
:10A84800019A05461746E3E7E7B13A46314660699B
:10A85800FFF7C2FE90B963691F44676115B978466E
:10A86800FEF7A4FA2561002335B1698847F6FF721F
:10A87800914201D0002BB0D0012000E0002003B0AD
:10A88800BDE8F08F0123EFE7CC36002000F0FFFF92
:10A898001FB50A4B0222DB688DF800200193084A95
:10A8A8004FF4805369460120029300F061FDB0FA2D
:10A8B80080F0400905B05DF804FB00BFCC360020ED
:10A8C800E83600204FF0102310B55A69013225D020
:10A8D8005A691AB35B69A3F58053A3F58053174AE5
:10A8E800196813604B1E033325D8C1F30B0313BB40
:10A8F800134A1448D1600121117013491376537615
:10A90800936051F8234084420ED1536001200F49CF
:10A9180000F01EFDFFF7AEFD012010BD4FF0805284
:10A92800516913694B43D8E701330A2BE9D17846BB
:10A93800FEF73CFAEAE70020EFE700BFEC3600201C
:10A94800CC36002099A8020034D3030049A50200A0
:10A9580010B5044610B97846FEF728FA094B18785E
:10A9680060B1E068D9684379A0EB0333994206D314
:10A97800FFF767FD81428CBF0020012010BD002039
:10A98800FCE700BFCC360020024B1878003018BF17
:10A9980001207047CC36002038B50E4C2378054688
:10A9A80013B17846FEF702FA2B78032B02D07846CB
:10A9B800FEF7FCF9EB68E360012000230649A56077
:10A9C800636023762070637600F0C2FCBDE83840EF
:10A9D800FFF750BDCC36002049A50200014B18688E
:10A9E800704700BFEC36002010B5044610B9784611
:10A9F800FEF7DCF963681BB123680BB1A36813B9D0
:10AA08007846FEF7D3F9A3685A1E1A4202D0784650
:10AA1800FEF7CCF90023C4E9033310BD70B50E4628
:10AA28000446F0B18368F3B1EFF3108572B6D0E94C
:10AA38000331994203D105B962B605250FE04EB13D
:10AA48008368013B0B40D0E90012304602FB03113A
:10AA580011F00EFA23690133236135B962B628462D
:10AA680070BD0E25FBE70925F9E70025F7E700008B
:10AA7800024AD2F80034002BFBD0704700E00140B6
:10AA8800C0F30B0310B5E3B9E9B1104C0223C4F8C5
:10AA98000435FFF7EDFF01F6FF7121F47F6121F026
:10AAA8000F010144884205D10020C4F80405FFF7CE
:10AAB800DFFF10BDC4F80805FFF7DAFF00F5805086
:10AAC800F0E71020F5E70920F3E700BF00E00140B8
:10AAD80070B540EA010414F003041BD1E2B19507F4
:10AAE8001AD10E4E0123C6F804359508FFF7C0FFAA
:10AAF800AC4205D10020C6F80405FFF7B9FF70BDC8
:10AB080051F824305A1C03D040F82430FFF7B0FF26
:10AB18000134EDE71020F2E70920F0E700E00140FA
:10AB28004388012B05D0022B01D104300860012095
:10AB3800704704304860FAE708B50822022109483E
:10AB480003F029F920B90848BDE8084003F0A4BA81
:10AB5800064A9168127B02724160BDE8084003F022
:10AB680049B900BFFC360020F42D002048370020EA
:10AB780010B5044610B97846FEF718F92346BDE823
:10AB88001040184700B50A4B1A7B9B688DB0012A04
:10AB980008BF03F1FF3303900CA80493022300F8C5
:10ABA8002C3D8DF80820FFF745FA0DB05DF804FB41
:10ABB8004837002038B50E4D2B78C3B90D4B5C686B
:10ABC80004F50054B4F1807F11D8042201210A4809
:10ABD80003F0E1F820B90948BDE8384003F05CBA51
:10ABE800012344602B70BDE8384003F003B938BD39
:10ABF8005C37002048370020FC360020E42D002078
:10AC080010B501210C4803F00BF980B902210A485C
:10AC180003F006F9044650B901461422074811F01A
:10AC280050F9074B1C70BDE81040FFF7C3BF05483B
:10AC380003F032FAF7E700BFFC360020483700205F
:10AC480020370020142E002030B50D468DB07AB97B
:10AC58004B88012B0AD1124C227812B97846FEF79C
:10AC6800A5F8104B6A685A60002323700DB030BDF8
:10AC7800032A02D07846FEF799F82C22002101A871
:10AC880011F01FF911238DF80430074B0395DA688A
:10AC98001B69059201A80693FFF7CCF9E6E700BF08
:10ACA8005C37002048370020FC36002013B501F03F
:10ACB800AFFC00216B46124A1248134CCDE9001133
:10ACC80002F0BCFF009B0BB1019A6AB90023236014
:10ACD800A3602373FFF730FF23686360FFF76AFF01
:10ACE80001F0D6FC02B010BD1968A1601979217372
:10ACF800934202D909B92160EEE713682360EBE7B4
:10AD080029AB0200FC3600204837002008B503F0C4
:10AD180011FAA0F5805008BD7FB5002118226846B9
:10AD280011F0CFF8FFF7F2FF012300900193694675
:10AD3800054B0648039303F09BF810B1044803F051
:10AD4800ABF907B05DF804FB51AC0200FC360020FB
:10AD5800042E002008B5142200210A4811F0B1F889
:10AD680000F0AAFF084B094A09499A600022586076
:10AD7800C3E903125A61074B1A70BDE80840FFF790
:10AD8800CBBF00BF48370020243700208DAE02001B
:10AD9800008793035D37002010B5074C23784BB923
:10ADA8000648074B036000F017FD064800F016FF41
:10ADB8000123237010BD00BFF83600203C37002067
:10ADC800F1AE02002437002010B501F021FC104A32
:10ADD800117B1346C9B9917BB9B9118A41F28262D4
:10ADE800914202D80B4A12787AB101221A739A68F2
:10ADF800002401321C829A60FFF79EFE2046FFF76E
:10AE0800C1FE01F045FC204610BD0824F9E700BF4B
:10AE1800483700205D37002010B501F0F9FB174ACC
:10AE2800547B1346BCB1917B21BB118A41F28262EB
:10AE3800914202D8124A1278F2B11A7B0020587354
:10AE48002AB1012A0BD07846FDF7B0FF03E0FFF7DF
:10AE5800BBFF0028F7D101F01BFC204610BDC3E959
:10AE6800000018731882FFF78DFEFFF765FEFFF7E5
:10AE7800A1FEF0E70024EEE71446ECE7483700208F
:10AE88005D37002010B5164C237B2BB1012B12D057
:10AE98007846FDF78BFF18E0228A41F282639A42D6
:10AEA80002D8104B1B7883B1FFF7B6FF638A0BB14A
:10AEB800013B638210BD228A41F282618A4208D82E
:10AEC800084B1B780BB1FFF7A7FF238A01332382B6
:10AED800ECE742F2B0118A42F5D96373E4E700BFA8
:10AEE800483700205D3700200378042B10B50ED1B9
:10AEF80043681B785BB11D4B4269197B047E71BBAB
:10AF0800598A01BB012C996802D08A4203D810BD26
:10AF18004C1CA24219D92A318A42F8D8997B0029B7
:10AF2800F5D184689A60124A1A61C3E9001159730D
:10AF38001973FFF701FEFFF73DFE04F11000BDE8AD
:10AF48001040FFF71FBE012CE1D1996801318A42F8
:10AF5800DDD10122BDE810405A73FFF75DBF01291A
:10AF6800D5D1012CD3D09968F1E700BF483700202C
:10AF78000000062D38B5164CD4E900239A42054640
:10AF88001FD2207B134B1449012808BF0B469A4255
:10AF980007D263682268403B9A4208D3FFF70AFE4B
:10AFA80005E001236373FFF737FF0028F1D0EFF3C3
:10AFB800108072B623685A1C22602B6028B962B6CA
:10AFC80038BDFFF7F7FD0F20FAE70020F8E700BFCC
:10AFD80048370020FFFF7F0000E0FF000C4A10B553
:10AFE8001368144628B101200A4903448873136082
:10AFF80010BD13B97846FDF7D9FE2368013B2360DD
:10B00800002BF5D1034ABDE810409373FFF704BF46
:10B01800F43600204837002000B58DB00323ADF882
:10B0280008000CA88DF8102000F82C3D0391FFF7BC
:10B0380001F80DB05DF804FB014B9868704700BF3C
:10B0480048370020034B98681B7B012B08BF00F191
:10B05800FF30704748370020044B9B685840C207B0
:10B0680048BF03F1FF331846704700BF4837002038
:10B07800014B187B704700BF483700202DE9F84383
:10B088001D4CDFF8789000260221204602F006F9D0
:10B098005FFA86F805460027ADB967B1294620460C
:10B0A80002F063F9082806D154F8043C1BB12A467B
:10B0B8004946404698470136032E04F1BC04E3D1C3
:10B0C8000120BDE8F88354F8043C34F80C2C13B183
:10B0D80029464046984734F80C3C02210133204663
:10B0E80024F80C3C02F0F6F80221204602F0D6F8CB
:10B0F80001370546D0E700BF743700205CD3030052
:10B1080038B5012104460C3002F0C8F8054620B3D2
:10B11800164BC4F89C300023C4F8A030037862684A
:10B12800012B07D0022B1AD07846FDF73FFE4FF4CB
:10B13800FA7306E081688B1A990829234B4303F5B3
:10B14800FA730B4A934294BFC4F8A830C4F8A820F5
:10B158000123C4F8AC4084F8B830284638BD836869
:10B168009B1A1A0B034B5343E9E700BFA1B1020036
:10B1780060850100084C010010B50446FFF7C0FFC8
:10B1880048B104F19C0009F035F920B17846BDE8D2
:10B198001040FDF70BBE10BD4B4B1B782DE9F74F48
:10B1A80080460D463BB109F05BF9002385F8B830BD
:10B1B80003B0BDE8F08F01F10C09D1F8A87048463A
:10B1C800012102F06BF8064610B97846FDF7EEFD4E
:10B1D800DFF8FCA0A7F5FA7700244FF0290B3378A5
:10B1E800012BA7EB040406D0022B3BD07846FDF7D1
:10B1F800DDFD00231FE06B68B268B4FBFBF4D21AD4
:10B20800A400944228BF144624B901937846FDF758
:10B21800CDFD019BF168706823F0030322461944B1
:10B228001844FFF755FC10B17846FDF7BFFD6B6871
:10B238001C446C60B3686A689A422AD109F010F914
:10B248004846012102F046F800236B6085F8B830C3
:10B258001E4B186801F06AFA284603B0BDE8F04FA3
:10B26800FFF78ABF6B68B268B4FBFAF4D21A2403FA
:10B27800944228BF144624B901937846FDF796FDF9
:10B28800019B706823F0030321461844FFF7F8FB7D
:10B29800C9E701F0AFF83378B0EB080448BFA8EB72
:10B2A8000004012B0DD0022B06D153462344BB4288
:10B2B80095D909F0D5F8CFE77846FDF777FD002353
:10B2C800F4E72923F2E700BF643700206037002045
:10B2D800084C010070B51B481B4C01F009FA1B4BC8
:10B2E800186004F11C0341F203060825636104F1A8
:10B2F8000C0004F118032361A681A57302F011F86C
:10B3080004F1D803C4F8D03004F1C80004F1D40320
:10B31800C4F8CC30A4F8C86084F8CA5002F001F828
:10B3280004F5CA73C4F88C3104F5C873A4F88461B1
:10B3380084F88651C4F8883104F5C270BDE87040BD
:10B3480001F0EFBF85B002006837002060370020A9
:10B35800022838B504460D4602D97846FDF726FD81
:10B36800024BBC2202FB0434A56038BD68370020BC
:10B3780002282DE9F84F05460C46924602D9784630
:10B38800FDF714FD14B97846FDF710FD2378012B5D
:10B3980012D16368990702D07846FDF707FDE36884
:10B3A8009A0702D07846FDF701FDA3689B0711D0E4
:10B3B8007846FDF7FBFC0DE0022B0DD16368C3F363
:10B3C8000B0313B17846FDF7F1FCA368C3F30B0335
:10B3D800002BEDD1A36813B97846FDF7E7FCEFF32E
:10B3E800108772B6BC266E43DFF8988006F10C0B06
:10B3F800C3440021584601F051FF8146002836D049
:10B408000021584601F066FF04F1100354F8042B9C
:10B4180049F8042B9C42F9D1BAF1000F05D0BC239E
:10B4280003FB05835B88AAF80030BC2303FB058572
:10B438006B8895F8B84001336B80F4B9104B1D78D0
:10B44800B5B908EB0600FFF75BFE77B962B63C4674
:10B4580040B106F19C00404408F0CCFF10B178469A
:10B46800FDF7A4FC2046BDE8F88F2C46F0E704243D
:10B47800002FF7D127460020E8E70024F8E700BFAF
:10B48800643700206837002070B5EFF3108672B675
:10B49800144C236818BB13B97846FDF787FC23685A
:10B4A800013B236093B9104D95F8B83013B928467D
:10B4B800FFF762FE95F8743113B90C48FFF75CFE8C
:10B4C80095F8303213B90A48FFF756FE2368094A3F
:10B4D800003318BF0123137006B962B670BD01337B
:10B4E8002360F3E79C3900206837002024380020C7
:10B4F800E03800206437002010B1800B014B185C45
:10B50800704700BF6CD3030012DF7047137813B580
:10B5180063B1042B0CBF0724002410F8013C292B2D
:10B5280043D005D8162B4BD002B010BD547DF4E79C
:10B538002A2B1BD02B2BF7D1022CF5D110F8021C8B
:10B548000139C9B203F034F80028EDD0234B1B6849
:10B558005B06E9D5224B1B68012BE5DD214B224A0E
:10B56800D3F8043500920190A42219E0022C01D0EE
:10B57800072CD9D110F8021C013901F0FBFB002877
:10B58800D2D0164B1B685A06CED5154B1B68012B1B
:10B59800CADD144B154AD3F8043500920190912264
:10B5A8001349022002F008F8BEE7022CBCD110F8BB
:10B5B800021C0139C9B202B0BDE810400CF04EBD02
:10B5C80001884FF6E4639942AED110F8021C0230AC
:10B5D800033902B0BDE81040FDF746BB342E002009
:10B5E800302E0020001001400BD40300E2D30300EA
:10B5F800D7D3030070B58AB009F0C2FB044600280F
:10B6080034D0002306468DF810300FCE05AD0FC597
:10B6180033682B60627D052A0CD9207D00F00F036A
:10B62800072B07D004AB063A04F11D0100F00F0008
:10B6380008F0A4FA114B1A68AAB104AB0393237D4E
:10B64800C3F303038DF80430637D062B89BF063BE3
:10B6580000238DF8053004F11D0398BF8DF80530DF
:10B66800029301A89047204609F074FB09F0A0FB5B
:10B6780080F00100C0B20AB070BD00BFA43900203C
:10B68800F7B52E4F3A780546002A4DD100284DD0FF
:10B69800067A0F2E01D0062E4AD104F099FBE868ED
:10B6A80000283ED0FDF794FB0DF10700FFF72CFFB3
:10B6B800044698BB9DF80730012B3BD1FDF7B0FB42
:10B6C80000F078FA304600F055FFE87800F0F0F81E
:10B6D80000F094FD08F048FE194809F001FC08F054
:10B6E800C1FBFFF7F7FD03F043FE00F02FFC04F069
:10B6F8002FFB284601F0E6FA2846FEF7F1F803F09A
:10B70800A1FAFDF7B1FA08B1062815D10D4808F0DD
:10B7180007FA0D4B00221A6001233B70204603B044
:10B72800F0BDFDF761FBBFE70824F7E70E24F5E756
:10B738000724F3E70224F1E70446EFE7A0390020E5
:10B74800FDB50200242E0020A439002037B51B4D7A
:10B758002A78012A05D002D3033A012A26D90824D7
:10B768001FE009F0D9FA01F0BFFAFEF7FBF8FDF780
:10B778007BFA0446C0B1062816D0114B1B685B043F
:10B788000FD5104B1B68012B0BDD0F4B0F4AD3F85D
:10B7980004350F4901900092022040F2971201F0FF
:10B7A8000BFF204603B030BD00F010FF08F014FE78
:10B7B80004460028F5D102232B70F2E7A0390020B7
:10B7C800342E0020302E00200010014070D30300DA
:10B7D800D7D30300FEF7C8B8FEF756BC08B500F08B
:10B7E800DDFC002008BD7047044B1A680132B2F135
:10B7F800704F08BF01221A6018687047A8390020E6
:10B8080010B5044610B97846FDF7D0FA0023C4E90C
:10B81800003310BD38B50D46044610B97846FDF71B
:10B82800C5FA15B97846FDF7C1FA00236B60EFF346
:10B83800108372B6226822B92560656003B962B6C2
:10B8480038BD62685560F8E710B5044610B9784607
:10B85800FDF7ACFAEFF3108272B6206808B14368BE
:10B868002360236803B9636002B962B610BD10B5DE
:10B87800044610B97846FDF799FA206810BD35DFFF
:10B888007047000008B54FF0FF30FFF7F8FFBFF32F
:10B898004F8F0549054BCA6802F4E0621343CB6039
:10B8A800BFF34F8F00BFFDE700ED00E00400FA058D
:10B8B80007289ABF024B33F81000FA20704700BFE0
:10B8C80036D40300024B5868103840B2704700BFA6
:10B8D80000ED00E0084A202390FBF3F352F82330F0
:10B8E800424202F01F0200F01F0058BF504223FAE4
:10B8F80000F000F00100704700E100E046DF70470B
:10B9080030B501F110031032103013F8014D12F860
:10B91800015D8B4284EA050400F8014DF5D130BD84
:10B928002DE9F04F91B002F10F0504AE98468A4612
:10B938002D11034600F11004B146186859683746BE
:10B9480003C70833A3423E46F7D102F00F04002D87
:10B9580058D0002C56D10127BB461022002108A838
:10B9680010F0AFFA4846FFF7C9FF01220DF13F0179
:10B9780010AB13F9100D1E4693F800C04FEA4C0C9B
:10B988005FFA8CFC83F800C013F801EF4CEADE1C68
:10B99800994203F801CCEFD19DF83F305B00DBB250
:10B9A8000028B8BF83F087038DF83F30531C9B45B0
:10B9B8004FF00202DCD2013D0AEB051137B30CAAA5
:10B9C8006846FFF79DFF102200210CA810F079FAB5
:10B9D8000024AC422CDB3246694608A8FFF790FFEA
:10B9E8004846FFF78BFF10AA334603CB9342C8F8AB
:10B9F8000000C8F804101E4608F10808F4D111B078
:10BA0800BDE8F08F00274FF0020BA6E722466846F4
:10BA180010F02EFA10AB2344802203F8402C013496
:10BA2800102C02D10CAA6946CAE70DF80470F6E793
:10BA38000AEB0412314608A8FFF762FF4846FFF7F1
:10BA48005DFF0134C5E7000038B5124B1A6804469B
:10BA58002AB11A6845685268AA1A002A0DDA1A68C3
:10BA680062611C609A88013292B29A8012B9784653
:10BA7800FDF79CF90123237038BD19684A691AB18A
:10BA88005068401B002802DB62614C61EAE71146FE
:10BA9800F4E700BFB0390020124B1A68824210B593
:10BAA8001A4604460BD142691A609A8892B2511E0E
:10BAB80089B299808AB97846FDF778F90DE01B6854
:10BAC8005BB15969A1420BD16169596193889BB2F5
