:020000021000EC
:10F0000000F0002035F2010065F201000106020067
:10F0100069F201006BF201006DF2010000000000D6
:10F020000000000000000000000000006FF201007E
:10F0300071F201000000000073F2010075F201009E
:10F0400079F201007BF201007DF201007FF2010004
:10F0500081F2010083F201001D0B020087F2010022
:10F0600089F201008BF20100F10802008FF2010029
:10F0700091F2010093F2010095F2010097F2010074
:10F0800099F201009BF20100515C02009FF2010025
:10F09000A1F20100A3F201004D060200A7F2010057
:10F0A000A9F20100ABF20100ADF20100AFF20100E4
:10F0B000B1F20100B3F2010077F2010077F2010032
:10F0C000B5F20100B7F20100B9F20100BBF2010094
:0CF0D000BDF20100BFF20100C1F201001E
:10F0DC00354936480A1A02D0072291438D463449E5
:10F0EC0034480A1A06D00722914381F30988022278
:10F0FC0082F3148830483149314A00F043F83148E2
:10F10C003149324A00F03EF831483249324A00F077
:10F11C0039F832483249334A00F034F8324833492E
:10F12C00334A00F02FF833483349344A00F02AF8B8
:10F13C0033483449344A00F025F834483449002225
:10F14C0000F02BF833483449002200F026F83348FD
:10F15C003349091A082903DB0022026004300160DC
:10F16C001F482049884205D00268043003B49047F8
:10F17C0003BCF7E700208646EC4600200021294A14
:10F18C009047FEE7884207D0521A05D00378013029
:10F19C000B700131013AF9D17047884202D00270EC
:10F1AC000130FAE77047000000F0002000E8002072
:10F1BC0000F0002000F00020843E0300C019002065
:10F1CC00701A0020C4F20100C4F201006C2B030081
:10F1DC00843E0300C0190020C01900206C2B0300D2
:10F1EC006C2B03006C2B03006C2B03006C2B0300AB
:10F1FC006C2B03006C2B03006C2B0300843E030070
:10F20C00343F0300E84A0020E84A0020701A00202E
:10F21C00E54A0020E84A0020E84A0020E84A00209D
:10F22C00E84E0020C1FB010008484FF0070188435D
:10F23C008546074880470748016841F47001016022
:10F24C00BFF34F8FBFF36F8FFFF742BF00F000206B
:10F25C00B593020088ED00E0FEE7FEE7FEE7FEE76F
:10F26C00FEE7FEE7FEE7FEE7FEE7FEE7FEE7FEE76A
:10F27C00FEE7FEE7FEE7FEE7FEE7FEE7FEE7FEE75A
:10F28C00FEE7FEE7FEE7FEE7FEE7FEE7FEE7FEE74A
:10F29C00FEE7FEE7FEE7FEE7FEE7FEE7FEE7FEE73A
:10F2AC00FEE7FEE7FEE7FEE7FEE7FEE7FEE7FEE72A
:08F2BC00FEE7FEE7FEE700BFDC
:10F2C4003EDF704710B5084C041B0848A0FB04340B
:10F2D400E408022C04D97846054B1B6813B19847FF
:10F2E400204610BD00DEFBE7741A0020ABAAAAAAD0
:10F2F400983400200B7843B9104B1B6813F4804FEB
:10F3040003D00F4B1B68032B00DC704700B585B09E
:10F314000C4BD3F804354A685088097B92F91420C1
:10F32400039202910190084A009240F23112074977
:10F33400042007F09BFC05B05DF804FB001A0020D4
:10F34400FC19002000B00040642C03005C2C030076
:10F3540010B50C46FFF7B6FF012C19D03CB1022CB6
:10F364001BD07846144B1B68F3B1984703E0012186
:10F37400113001F025FB1124104B1B881133A342DB
:10F3840014D9204601F010FB014680B10134F3E7A3
:10F394000021113001F014FBEDE7062264214FF443
:10F3A400F01001F01FFBE6E700DEE4E70121142082
:10F3B40001F006FB10BD00BF98340020A41A002001
:10F3C40030B583B00446494B1B6813F4804F03D017
:10F3D400474B1B68032B17DC464B1B880BBB434B6B
:10F3E4001B6813F4804F73D0414B1B68012B6FDDF6
:10F3F400414BD3F80435414A009240F23D12404952
:10F40400022007F033FC63E03B4BD3F80435019052
:10F414003C4A00924FF49D723949042007F026FCBF
:10F42400DAE7A34217D8032C15D0304B1B6813F42A
:10F43400804F4DD02E4B1B68012B49DD2E4BD3F84A
:10F4440004350194304A00924FF4A1722C490220F1
:10F4540007F00CFC3CE0022C03D9032C1DD0002047
:10F4640010E004EB44029300284D1D4404F1110004
:10F4740001F09AFA80F00101C9B2284613F04EF95E
:10F48400082816D0042814D0112812D000B3204A1A
:10F4940040F2631101F08AF81AE004F1110001F05E
:10F4A40083FA80F001010322C9B21A4813F058F913
:10F4B400E6E70E4B1B6813F4804F03D00C4B1B681C
:10F4C400032B07DC042232214FF4F01001F08AFAF6
:10F4D40003B030BD084BD3F804350F4A00924FF403
:10F4E400AF720749042007F0C1FBEBE7001A0020C4
:10F4F400FC190020A41A002000B00040A82B03002F
:10F504005C2C0300942B0300C02B0300741A00200E
:10F51400002C0300981A0020E02B03003038032845
:10F5240000D9704708B5FFF74BFF08BD70B586B02A
:10F5340006A9012341F8043D37480DF0A9FBA0B901
:10F5440006AA012342F8043D3449334B18880DF0D0
:10F554007BFC78B906A9042341F8043D02A80DF008
:10F5640083F960B90024254617E02D4A762101F07D
:10F574001DF8E5E72A4A782101F018F8EAE7284A55
:10F584007D2101F013F8EDE79DF80030012B16D032
:10F594009DF80030032B31D00134059BA34238D9A8
:10F5A400694606AB03EB440333F8100C0DF016F96F
:10F5B4000028E9D01A4A822100F0F8FFE4E719494B
:10F5C40001EB4501BDF802000DF0E0FB0028DFD19E
:10F5D400144B33F815204FF6FF739A42D8D01249D2
:10F5E40001EB450168460DF07FF910B90135ADB264
:10F5F400D2E70B4A8C2100F0D9FFF7E70B496846A4
:10F604000DF072F90028C7D0054A912100F0CEFF11
:10F61400C2E7284606B070BDC01A0020701A002048
:10F62400002C0300A81A0020C41A0020AE1A0020DF
:10F6340030B583B000242546022C16D802A94FF613
:10F64400FF7321F8023D04EB44029300084AD05AA8
:10F654000BF03EFA48B9BDF806204FF6FF739A4204
:10F6640003D00135ADB20134E6E7284603B030BD1E
:10F67400741A002010B584B08B4B1B6813F4804FB0
:10F6840003D08A4B1B68032B0BDC0CF025FF0BF01B
:10F6940027F94FF6FF73864A1380864A13800023A6
:10F6A40013E0854BD3F80435844A0092B722844989
:10F6B400042007F0DBFAE8E74FF6FF72814921F8EE
:10F6C4001320814921F813200133022BF4D97F4BF5
:10F6D4004FF6FF721A807E4812F086FD38B97D4AD3
:10F6E40000217D4812F044FF30B900240AE07B4A2F
:10F6F400C62100F05BFFF2E7784AC72100F056FF0D
:10F70400F3E70134032C10D8630023449A007448AF
:10F714001044744B4360A1B212F0DEFF0028F0D015
:10F724006E4ACC2100F042FFEBE70CF00DFEC8B1AD
:10F73400FFF7FCFE6C4B18800AF0ECFF002842D067
:10F74400FFF776FF694B188000F07AFE674B1B8841
:10F75400654A10888342C0F09A80022840F29D8056
:10F7640004B010BD624B1B6804A840F8043D0CF0C3
:10F77400C7FEC8B955494CF6FE200CF01DFFC0B9B0
:10F784004B4A5C4900200DF0EBF8B8B9494B5A4A92
:10F794004749098800200DF015FB0028CCD04F4ABA
:10F7A400DA2100F003FFC7E74C4AD72100F0FEFE40
:10F7B400E0E74A4AD82100F0F9FEE1E7474AD921B7
:10F7C40000F0F4FEE2E73B4B1988434B18880BF03A
:10F7D400DBF940B9374B19883F4B18880BF014FA02
:10F7E40030B900240FE03D4AE42100F0DFFEF1E7E8
:10F7F4003A4AE52100F0DAFEF3E7384AEA2100F05C
:10F80400D5FE0DE00134022C1AD804EB4402930017
:10F81400284A1188324AD05A0BF0B6F90028ECD1A4
:10F8240004EB44029300234A11882D4AD05A0BF06A
:10F83400EBF90028E6D0294AEB2100F0B7FEE1E716
:10F844001C4B1988264B988C0BF09EF980B9194BE8
:10F854001988234B988C0BF0D7F970B91B4B198876
:10F864001F4B988C0BF004F960B90AF01FFB6BE78F
:10F874001A4AEE2100F09AFEE9E7184AEF2100F057
:10F8840095FEEBE7154AF02100F090FEEDE703F555
:10F89400807080B200F0A2FC62E700F5807080B254
:10F8A40000F0B2FC5CE700BF001A0020FC19002045
:10F8B400C01A0020701A002000B00040702B030012
:10F8C4005C2C0300A81A0020C41A0020AE1A0020E1
:10F8D40021020200F9F20100B01A0020002C0300FA
:10F8E400741A002055F30100C21A0020A41A002043
:10F8F4006C2B0300AC2C03009C2C030010B582B0CD
:10F90400314B1B6813F4804F03D0304B1B68032B1F
:10F914002BDC2F4B1B8803EB43018A002D4931F864
:10F9240013102D4B985A0BF0A3F868BB0AF0BEFADB
:10F93400274C20880021113001F042F8238801333C
:10F944009BB22380022B25D91F4B1B6813F4804FD5
:10F9540003D01E4B1B68032B29DC042264214FF4C3
:10F96400F01001F03FF802B010BD1C4BD3F8043581
:10F97400174A128801921A4A009240F26D121949EC
:10F98400042007F073F9C4E7174A40F2711100F03C
:10F994000DFECBE7154B188800F5807080B200F09F
:10F9A40033FC20880121113001F00AF8DBE70B4B0E
:10F9B400D3F804350E4A00924FF4BF72094904206B
:10F9C40007F054F9C9E700BF001A0020FC19002011
:10F9D400A41A0020C41A0020741A002000B00040A9
:10F9E400102D03005C2C0300002C0300C21A00201D
:10F9F400382D030000B583B01E4B1B6813F4804FF1
:10FA040003D01D4B1B68032B19DC1C4B1A881C4BA1
:10FA140033F812000CF01CFE00BB184B1A88194B6B
:10FA240033F812000DF086F9F0B9174B188800F579
:10FA3400807080B200F0E8FB03B05DF804FB134B68
:10FA4400D3F804350D4A12880192114A009240F20B
:10FA540085121049042007F009F9D6E70E4A4FF43D
:10FA6400C47100F0A3FDD8E70B4A40F2891100F0FD
:10FA74009DFDDAE7001A0020FC190020A41A0020DA
:10FA8400C41A0020A81A0020C21A002000B00040A6
:10FA9400EC2C03005C2C0300002C030010B582B096
:10FAA40004463A4B1B88022B05D97846384B1B6811
:10FAB400002B42D09847374B1B6813F4804F03D078
:10FAC400354B1B68032B3ADC344B1988344B03EB5E
:10FAD4004101608A0CF070FD00283ED12F4B1A883A
:10FAE400304B03EB4203A2682F490988608A0DF06A
:10FAF400DDF8002837D1294B1A882A4B33F8120035
:10FB040012F0FAFB002834D1244B1B88244A32F823
:10FB14001310244A32F8130012F09AFB00282ED155
:10FB24001E4A138801331380184B188800F580701F
:10FB340080B200F053FB02B010BD00DEBBE71B4BEC
:10FB4400D3F80435628A0192194A00924FF4C972BB
:10FB54001849042007F08AF8B6E7174A40F29511CD
:10FB640000F024FDBAE7144A4FF4CB7100F01EFDF7
:10FB7400C1E7114A40F2991100F018FDC4E70E4A9A
:10FB840040F29B1100F012FDCAE700BFA41A002046
:10FB940098340020001A0020FC190020C21A00200A
:10FBA400C41A0020A81A0020C01A002000B0004087
:10FBB400542D03005C2C0300002C030000B583B01B
:10FBC4001A4A04214FF4C04007F034F8184B1B685C
:10FBD40013F4804F0ED0174B1B68032B0ADD164B12
:10FBE400D3F80435154A009240F2AF1214490420A8
:10FBF40007F03CF800F052FF124800F061FF70B9C2
:10FC04000121112000F0DCFE00F0FAFDFFF732FDC7
:10FC140064210D4800F084FEFFF752FBFCE70B4A19
:10FC24004FF4D97100F0C2FCEAE700BF0D6C02008A
:10FC3400001A0020FC19002000B00040BC2C030076
:10FC44005C2C0300C5F3010021F50100002C030026
:10FC540010B58AB0B24B1B78033B072B00F27E81B0
:10FC6400DFE813F008000B0029004E0076009C002A
:10FC7400EA002C01AA4B04221A70AA4B1B6813F445
:10FC8400804F03D0A84B1B68032B04DC12F04EFBFF
:10FC940060B90AB010BDA54BD3F80435A44A00924C
:10FCA4006F22A449042006F0E1FFEFE7A24A702185
:10FCB40000F07CFCEDE79B4B1B6813F4804F03D0F2
:10FCC400994B1B68032B10DC9C4B04AC0FCB84E8D2
:10FCD4000F0022460021084612F054FB0028D8D019
:10FCE400954A792100F062FCD3E7904BD3F80435B0
:10FCF400934A009277228F49042006F0B7FFE3E786
:10FD0400884B1B6813F4804F03D0874B1B68032B6D
:10FD140013DC4FF6FF73ADF812300223ADF8103048
:10FD2400049A0021874B188812F0C0FB0028B0D039
:10FD3400814A852100F03AFCABE77C4BD3F80435CB
:10FD4400814A009280227B49042006F08FFFE0E77D
:10FD5400744B1B6813F4804F03D0734B1B68032B45
:10FD640011DC5923ADF812300021ADF81010049ABB
:10FD7400744B188812F09AFB00288AD06E4A91219D
:10FD840000F014FC85E7694BD3F804356F4A009200
:10FD94008C226849042006F069FFE2E70023CDF8CD
:10FDA4001230CDF81630CDF81A30CDF81E30CDF81B
:10FDB4002230ADF82630634A1288ADF810200121B4
:10FDC4008DF81410ADF8161003228DF81F209DF83D
:10FDD400202061F38702022060F301028DF82020C5
:10FDE4008DF821104FF0FF328DF825208DF8262054
:10FDF4008DF823008DF824304A4B1B6813F4804F90
:10FE040003D0494B1B68032B0ADC04A812F00AFB3D
:10FE140000283FF43EAF484AA72100F0C7FB38E76B
:10FE2400424BD3F804350191494A0092A522414935
:10FE3400042006F01BFFE8E70023CDF81230CDF8CC
:10FE44001630CDF81A30CDF81E30CDF82230ADF88A
:10FE540026303C4A1288ADF8102001218DF8141088
:10FE6400FF3A92B2ADF8162003208DF81F008DF8EA
:10FE7400211059218DF825108DF82630294B1B6847
:10FE840013F4804F03D0284B1B6883420ADC04A878
:10FE940012F0C8FA00283FF4FCAE274ABD2100F056
:10FEA40085FBF6E6214BD3F804350192294A0092EA
:10FEB400BB222049042006F0D9FEE8E7194B1B6851
:10FEC40013F4804F03D0184B1B68032B1CDC1D4B11
:10FED40018880023059303228DF810204CF6FE2287
:10FEE400ADF812205922ADF80E20ADF80C30039B6A
:10FEF40004AA06CA12F0B1FA00283FF4CAAE0E4AA8
:10FF0400CC2100F053FBC4E6084BD3F80435124A65
:10FF14000092C4220749042006F0A8FED7E700BFD8
:10FF2400DC1D0020001A0020FC19002000B0004055
:10FF3400382E0300282E0300CC2D0300842D03004B
:10FF4400542E0300201E0020642E0300882E03007C
:10FF5400B42E0300F42E0300342F03007846034B21
:10FF64001B680BB1984794E600DE92E698340020B3
:10FF740000B589B05F238DF804308DF805306E220A
:10FF84008DF806206F228DF8072072228DF8082044
:10FF940064228DF8092069228DF80A2063218DF8E6
:10FFA4000B108DF80C308DF80D3073218DF80E1078
:10FFB40065218DF80F106D218DF810108DF811202A
:10FFC4008DF812308DF813300023ADF81430ADF8ED
:10FFD4001630ADF818300E4A1288ADF81A209DF884
:10FFE4001C2002F0FE0263F341028DF81C2001AADA
:0CFFF4000146084811F04EFB28B9074BED
:020000022000DC
:1000000002221A7009B05DF804FB054A602100F075
:10001000CFFAF4E7201E0020AC1C0020DC1D0020DD
:10002000CC2D030030B587B004460378082B4CD89C
:10003000DFE803F005A7104B4B814B4D45005B4BB0
:100040001B78012B41D10430FFF794FF574B02225C
:100050001A703AE0564B1B6813F4804F03D0554B8F
:100060001B68032B08DC514B1B78022B0FD0032B92
:100070002BD1FFF7EFFD28E04F4BD3F804354F4A63
:100080000092E3224E49042006F0F2FDEBE7484BD4
:100090001B6813F4804F03D0464B1B68032B03DC13
:1000A000424B01221A7010E0434BD3F80435454A05
:1000B0000092E6224249042006F0DAFDF0E73B4BCD
:1000C00000221A700430FFF7EBFC07B030BD10239C
:1000D00000220121406811F00CFBB8B1344B1B68C1
:1000E00013F4804F0ED0334B1B68002B0ADD324BCC
:1000F000D3F804350190344A0092FD2230490120A2
:1001000006F0B6FD294B01221A70DEE7284B1B686A
:1001100013F4804FD9D0274B1B68032BD5DD264B1A
:10012000D3F80435294A00924FF4817224490420FF
:1001300006F09EFDC9E702AD254B0FCB85E80F0009
:1001400010222946606811F0DDFAA0B9184B1B682F
:1001500013F4804FB9D0174B1B68032BB5DD164B3A
:10016000D3F804351B4A009240F20B1214490420C4
:1001700006F07EFDA9E7184A4FF4857100F018FAE1
:10018000E4E70B4B1B6813F4804F9ED0094B1B68B0
:10019000032B9ADD084BD3F80435104A00924FF434
:1001A00088720749042006F063FD8EE7DC1D0020FD
:1001B000001A0020FC19002000B000404C2F030062
:1001C000282E03006C2F0300902F0300D42F030070
:1001D000942D0300F42F0300CC2D03001C300300EA
:1001E00008B5084B1880084B1B78022B05D0064B2E
:1001F00003221A70FFF72EFD08BD034B03221A706D
:10020000FAE700BF201E0020DC1D0020024B1880F2
:10021000024B01221A707047201E0020DC1D0020B6
:100220002DE9F04784B004AF002837D00C461546BE
:10023000002938D02388022B3DD048F20302934294
:1002400000F0818048F23E02934200F0938048F231
:100250003E02934200F0A38048F21902934200F05C
:10026000B38048F21902934200F0C38048F21F02A3
:10027000934215D16A4B1B780A2B11D163681B7806
:1002800033B17846674B1B68002B00F0C780984756
:10029000634B00221A70FFF733FB01E0FFF7ACFB62
:1002A000BD46BDE8F08778465E4B1B680BB19847AA
:1002B000C0E700DEBEE75A4A1278042ABDD15A4B85
:1002C0001B6813F4804F38D0584B1B68032B34DD68
:1002D000E946AE466B000833DB08A9EBC3039D4635
:1002E0000DF11008C446002312E06268D25C4FEAA8
:1002F000121A59004E4E306810F80A000CF813001C
:1003000002F00F0201313068825C0CF801200133E9
:100310007345EAD3002308F81530464BD3F804356B
:10032000CDF80880444A0192444A00924FF49D72ED
:100330004349042006F09CFCCD46394B05221A7037
:10034000FFF788FCACE7364A1278052A7FF47AAFCB
:1003500063681B7833B1062B04D07846314B1B6899
:1003600033B198472E4B06221A70FFF773FC97E7BC
:1003700000DEF7E72A4A1278062A7FF468AF63683E
:100380001B7823B17846274B1B6833B19847244B21
:1003900007221A70FFF75EFC82E700DEF7E7204ACB
:1003A0001278072A7FF458AF63681B7823B1784628
:1003B0001C4B1B6833B19847194B08221A70FFF782
:1003C00049FC6DE700DEF7E7154A1278082A7FF44A
:1003D00048AF63681B7823B17846124B1B6833B172
:1003E00098470F4B09221A70FFF734FC58E700DEDC
:1003F000F7E70B4A1278092A7FF438AF63681B7855
:1004000023B17846074B1B6833B19847044B0A2247
:100410001A70FFF71FFC43E700DEF7E700DE37E75F
:10042000DC1D002098340020001A0020FC19002058
:10043000041A002000B00040B02D0300C42D0300BA
:10044000282E030000B587B01F4B00221A7003ABA3
:100450001E4A07CA03C323F8022B120C1A701C4948
:100460001C4811F015F9B8B91B4B009303AB184A9F
:1004700018491A4811F0CCF8A0B919480DF020FF1E
:100480000146164811F0F0F890B9134811F044F9FC
:10049000A0B907B05DF804FB124A4FF4BA7100F03E
:1004A00087F8E1E70F4A40F2751100F081F8E4E7C0
:1004B0000C4A4FF4BB7100F07BF8E6E7094A40F2C2
:1004C000771100F075F8E4E7DC1D0020A42D03008F
:1004D000CC1A0020E01D002025000200AC1C0020EA
:1004E000EC1A0020CC2D030048DF704710DF704766
:1004F00060DF704761DF70474FF0A0434FF4F012A8
:10050000C3F80825C3F80C25EFF3108372B6002852
:10051000FDD1704710B582B004460C4B1B6813F434
:10052000804F0ED00A4B1B68002B0ADB094BD3F817
:1005300004350190084A00924E220849002006F036
:1005400097FB2046FFF7D8FF02B010BD001A00202D
:10055000FC19002000B00040CC300300BC30030088
:1005600010B584B00C460D4B1B6813F4804F10D0AF
:100570000B4B1B68002B0CDD0A4BD3F804350392A0
:1005800002910190084A009270220849012006F069
:100590006FFB2046FFF7B0FF04B010BD001A00202B
:1005A000FC19002000B00040A0310300BC30030063
:1005B00000B585B00D4B1B6813F4804F10D00C4B69
:1005C0001B68002B0CDD0B4BD3F804350390029114
:1005D0000192094A009248220849012006F048FB8E
:1005E0000120FFF789FF05B05DF804FB001A002029
:1005F000FC19002000B0004058300300BC3003005C
:1006000000B583B00C4B1B6813F4804F0DD00B4B1F
:100610001B68002B09DB0A4BD3F80435094A00920A
:1006200054220949002006F023FB0120FFF764FF54
:1006300003B05DF804FB00BF001A0020FC19002085
:1006400000B0004048300300BC30030000B583B068
:1006500002E0019804F0ACF801A8FFF745FF00287C
:10066000F7D04F23ADF8023005E0084804F09EF8BB
:100670004F23ADF802300DF102010448FFF73AFFB5
:100680000028F2D003B05DF804FB00BF241E002058
:1006900010B584B00446274B1B6813F4804F03D079
:1006A000254B1B68032B2CDC244B0393039B0293E9
:1006B000204B1B6813F4804F03D01F4B1B68032B88
:1006C0002ADC02A92046FFF713FF0446029A039B87
:1006D0009A4213D0174B1B6813F4804F0ED0164B61
:1006E0001B68012B0ADD164BD3F804350192154A1D
:1006F00000928C221449022006F0BAFA204604B077
:1007000010BD0F4BD3F80435104A00927A220E49DF
:10071000042006F0ADFAC7E7094BD3F80435039A75
:1007200001920B4A009283220749042006F0A0FAA6
:10073000C7E700BF001A0020FC190020C0190020E4
:1007400000B0004064310300BC30030038310300C6
:100750005431030000B58BB00AAB43F8240D254992
:100760001846FFF7C3FE28BB234BE02283F816236D
:1007700093F816335B09012B28D9042B29D0052BBC
:100780002AD01E4B9B68D3B91B4B4FF480021A60D2
:10079000002020BB00230393049305930693079343
:1007A0000893099303A8FFF773FFE8B900200BB083
:1007B0005DF804FB124A9321FFF7FAFED4E70F4AD3
:1007C000136843F4800313600020E2E742F2020062
:1007D000DFE742F20200DCE742F20200D9E7084A12
:1007E0009A21FFF7E5FED5E7054AA021FFF7E0FED5
:1007F000DCE700BF6105020000E100E0741E00209C
:100800007830030000B589B02F4B1B6813F4804F7C
:1008100003D02E4B1B68032B2ADC2D4B1868079046
:10082000FFF798FF284B1B6813F4804F03D0274B2A
:100830001B68032B27DC002305930693079B039378
:10084000244B049307238DF8183003A803F00EFF00
:1008500020BB1D4B1B6813F4804F03D01B4B1B6840
:10086000032B20DC03F078FF40BB09B05DF804FBEC
:10087000194BD3F80435194A0092BB2218490420B9
:1008800006F0F6F9C9E7144BD3F80435154A00927F
:10089000C5221349042006F0EBF9CCE7124ACB211C
:1008A000FFF786FED5E70C4BD3F804350F4A0092CC
:1008B000CD220B49042006F0DBF9D3E70A4ACE210A
:1008C000FFF776FED1E700BF001A0020FC190020D8
:1008D000443003001505020000B00040E83003007A
:1008E000BC300300043103007830030020310300E2
:1008F00008B50A4BD3F8403173B1094B1B683BB1C3
:100900000FF0A6F9002803DB054B1B689847F7E7B3
:10091000024B0022C3F8402108BD00BF00A00040E8
:10092000801E00202DE9D8480B461D4A10601D4C42
:100930000022C4F80425C4F808250922C4F81025AB
:100940000E4600275801D90E821B61EB070399015F
:1009500041EA92619001801A61EB0301CB0043EA06
:100960005073C20092197B41901843EB03014FF47E
:100970007A72002311F020FFC4F840050123C4F867
:1009800000324FF48032C4F804232360064BE02287
:1009900083F80A234FF480621A60BDE8D88800BF4C
:1009A000801E002000A0004000E100E04FF0A043C6
:1009B000D3F80425012303FA00F002420CBF1846C5
:1009C0000020704739B9012303FA00F04FF0A0432B
:1009D000C3F808057047012303FA00F04FF0A04365
:1009E000C3F80C057047000070B402F0FE0200244A
:1009F00000E0013494424CD24FF0A045D5F80435C4
:100A00004340C5F804354FF47A7303FB01F3002B20
:100A1000EFD0214D2D68214E00BF00BF00BF00BFA9
:100A200000BF00BF00BF00BFB5422FD000BF00BF56
:100A300000BF00BF00BF00BF00BF00BF00BF00BFBE
:100A400000BF00BF00BF00BF00BF00BF00BF00BFAE
:100A500000BF00BF00BF00BF00BF00BF00BF00BF9E
:100A600000BF00BF00BF00BF00BF00BF00BF00BF8E
:100A700000BF00BF00BF00BF00BF00BF00BF00BF7E
:100A800000BF00BF00BF00BF00BF00BF013BC3D11C
:100A9000AFE770BC704700BF0C1A00200024F400C0
:100AA00011230BE04FF0A04103F5E072032041F861
:100AB000220001229A40C1F808250133142BF1D9F4
:100AC00070470000F0B1104A1060002309E00F4A9F
:100AD000D25C02F5E0724FF0A0410D4841F82200CF
:100AE0000133032BF3D90B4B4FF00042C3F804231F
:100AF0000020C3F87C01084BC02283F80623402263
:100B00001A6070470E207047841E0020C031030019
:100B10000C0003000060004000E100E010B500247C
:100B2000144BC3F87C410EE041F69A13994208D960
:100B3000114BD3F80425114B1A60114B1B6820464A
:100B400098470134E4B2032C12D84FF0A043D3F8F5
:100B500010250C4B195D01238B409343F1D0074BBB
:100B60001B68054AD2F80425991ADDD5D11ADBE7AE
:100B700010BD00BF0060004000B00040881E002093
:100B8000841E0020C03103000620704708B5074BC3
:100B90001B784BB1064B1B680BB1984708BD01464B
:100BA000044802F0ABFCF9E70620F7E7A01E00209E
:100BB000A41E00208C1E0020064B074A92E803006A
:100BC00083E803000833443292E8030083E803001B
:100BD000704700BFA81E002060000010004870474A
:100BE000A81E002043DF704770B58CB003460E4648
:100BF00015466C46006859689A68DB680FC430680F
:100C00007168B268F3680FC46846FFF7EBFF08AC81
:100C10000FCC28606960AA60EB600CB070BD00006A
:100C2000002308E0074901EBC30000224280426034
:100C300001F8332001331F2BF4D9034B00221A6033
:100C4000704700BFB81E0020B81F002030B4054612
:100C50000F4B1B6800240AE01F230E4A12F83300D2
:100C6000A0B102EBC3025288AA4207D001341F2C64
:100C70000BD85A1E002BEFD01346EEE7054A02EBC5
:100C8000C30252688A42F1D100E0002030BC7047B4
:100C9000B81F0020B81E002030B40A4A13680A4C5E
:100CA00004EBC30568806960012104F833100B442C
:100CB0001360202B01D030BC7047134600221A600D
:100CC000F9E700BFB81F0020B81E0020C0F30C03D6
:100CD0008B4202D3C91A08447047C91A0844A0F5C8
:100CE00000507047C37D002B42D083780A7802F011
:100CF000800203F07F0313430B7002780B7803F03C
:100D00007F0343EAC2130B700378002B41D030B449
:100D10004378082B14BF002201224B7803F07F0395
:100D200043EAC2134B70858803F08003C5F3861431
:100D300023434B708A7802F0030242EA8502D2B262
:100D40008A70857902F0FC02C5F3C10422438A70DF
:100D5000CB7803F01F0343EA4513DBB2CB70C279B3
:100D600003F0E00302F01F021343CB7030BC704766
:100D700083780A7802F0BF029B0103F0400313431B
:100D80000B70C27803F0C00302F03F0213430B70F4
:100D9000B3E7704730B405460023184607E0114C0E
:100DA0006C2202FB0342928AAA4210D00133032B29
:100DB00016DC0C4C6C2202FB034292F84420002A01
:100DC000EDD10028F2D16C2202FB0340EEE76C2249
:100DD00002FB034292888A42E8D16C2000FB034068
:100DE00030BC70473020002010B403460A468969A1
:100DF0004978C1709169097881F001018170916928
:100E00004162118A0B2903D8D17A49B3012100E04C
:100E10000121197041B31649897D19BB042058700E
:100E2000118A01440B31134880FB0140C917C1EB03
:100E300060010139D971002199710021D97503F13F
:100E40000C0492E8030084E80300516919621189D7
:100E50009982917A9975D2699A625DF8044B7047CC
:100E60000021D6E70820DAE704215970E5E700BF42
:100E700018200020ABAAAA2A30B403460C460978F1
:100E8000817000214162A1680B2903D8217BF1B157
:100E9000012100E0012119700020587029B1A168DA
:100EA0000731C9080139D97198710121D97503F148
:100EB0000C0504F1100103C985E80300E18999825A
:100EC000A1691962217F99759A6230BC704700212F
:100ED000E1E700000021164B1B688B4226D9002356
:100EE000144A02EBC10252689A421DD910B4114A49
:100EF00052F8312002EBC30412F8332082420DD0A5
:100F000001330C4A02EBC10252689A42EFD8013118
:100F1000074B1B688B4205D90023F2E760685DF838
:100F2000044B70470020FAE70131D4E700207047F6
:100F3000BC1F0020C01F002070B58CB006460D46B7
:100F400014462C22002101A811F0ABFD0C238DF8D2
:100F50000430ADF808604FF0000365F300038DF82E
:100F60000A308DF80B4001A801F022FB0CB070BDD7
:100F700030B58DB005460C462C22002101A811F099
:100F800090FD0D238DF8043002958DF80C4001A8DA
:100F900001F00EFB0DB030BD00B58DB043784BB9FC
:100FA000084B9A4206D001238DF80430029201A822
:100FB00001F0FEFA044B186804F050FD0DB05DF826
:100FC00004FB00BF5EE6655ECC1F0020F0B40D6838
:100FD0004C688F68CE68D5601461576196610D6961
:100FE0004C69D56114620378DB091370D17DF9B1C6
:100FF000037803F07F0393700023537013789BB141
:1010000043789B0103F4FE53817843EA9103938074
:101010008378DB0003F01803C17843EA511393711E
:10102000C37803F01F03D37100235362F0BC7047F1
:101030000178C1F380119170017801F03F01D17006
:1010400043B190F90130002B02DB04235370D5E744
:101050000823FBE704235370D0E770B50C461E4607
:1010600003788BB104252A44A26000F10C032360AD
:10107000836A6360204605F063FA024610B923696B
:101080001D443560104670BD0125ECE72DE9F041A7
:101090008EB00D4616461C46804600282DD0002DE9
:1010A00033D0002C39D0636A0233059304F10C006D
:1010B000A378002B39D00121627801AF3B46082A82
:1010C00014BF0022012204F0D7FD0697CDF81C8042
:1010D000B2B2ADF820200B9515440C9563788DF8CD
:1010E0003430237B022B22D00023ADF8283005A812
:1010F00004F0BAFD0EB0BDE8F0817846144B1B68D1
:101100000BB19847CBE700DEC9E77846104B1B6868
:101110000BB19847C5E700DEC3E778460C4B1B6868
:101120000BB19847BFE700DEBDE70221C4E72369A2
:101130002BB1236909931023ADF82830D7E77846FF
:10114000034B1B680BB19847F3E700DEF1E700BFE4
:10115000983400202DE9F04186B004460D46C37D49
:10116000002B43D0082605FB06F8E379AB423FD0BD
:10117000A5716B46324601A92046FFF76EFF074670
:1011800070BB4DB994F84F3033B9A369C3F30C0366
:10119000A380012384F84F30E37DA3B994F84E3047
:1011A0008BB925B17846164B1B6833B39847B4F812
:1011B0004610627823468A1AA16E0846FFF766FF3A
:1011C000012384F84E3005992046FFF78BFDA16E70
:1011D00032464144009811F03BFC01A805F0DAF9D1
:1011E000B7FA87F0400906B0BDE8F0810C26BAE7EF
:1011F000B4F84660A6EB0806BAE700DED7E700BF02
:101200009834002070B5054690F84C40002605E063
:101210000136631C85F84C300134E4B2EB79A3420B
:101220000AD3AA6C0123A3401A42F5D121462846CD
:10123000FFF790FF0028EBD1304670BDF0B587B0C6
:1012400045781544C37DDBB10B239D4221D816465A
:101250000F4604466B462A4601A9FFF7FEFE0546E7
:10126000C0B905992046FFF73DFDE37D53B13246F5
:101270003946009811F0ECFB01A805F08BF909E064
:101280000F23E2E72346324600993846FFF7FEFE79
:10129000F2E70925284607B0F0BD000010B5044666
:1012A00090F84430012B04D078460E4B1B687BB17C
:1012B0009847237B012B0DD00B4BDB68A36303F016
:1012C00099FEA16B014404F12C0003F0EBFD10BD6D
:1012D00000DEEEE7A37D044AD168126902FB031326
:1012E000A363ECE7983400201820002038B50024D0
:1012F00000E00134032C13D80A4A6C2303FB0423B7
:1013000093F84430012BF4D16C2505FB04252846C5
:10131000FFF778FF0028ECD02846FFF7BFFFE8E78B
:1013200038BD00BF3020002038B5044690F8443066
:10133000022B04D07846084B1B6853B19847074BE3
:101340001D6803F057FE411904F12C0003F0AAFDBB
:1013500038BD00DEF3E700BF9834002018200020DD
:1013600038B5044690F84430022B04D078460B4B35
:101370001B688BB198470A4B5D7D5A689B6803FBDD
:10138000052503F037FE411904F14C0003F08AFDF6
:10139000012384F8643038BD00DEECE79834002087
:1013A0001820002010B504460C4B1B68806E98472F
:1013B0000023A36604F12C0003F03EFD94F84430B2
:1013C000022B05D0002084F8440002F011FD10BD6E
:1013D00004F14C0003F030FDF4E700BFD01F002003
:1013E00010B590B0044690F84430012B04D07846F4
:1013F0001A4B1B687BB3984701238DF81430236D7B
:10140000069305A801F0D4F82046FFF7CBFF0B2385
:101410008DF80C3000238DF80D308DF80E300493CC
:1014200003A8FFF7B3FBA0B10D4B1B6813F0200F0F
:101430000FD00C4B1B68012B0BDD0B4BD3F8043585
:1014400001900A4A00924FF4E1720949022005F026
:101450000FFC10B010BD00DECEE700BF98340020B6
:10146000001A0020FC19002000B0004034320300B4
:101470002532030030B585B00D46044600284DD016
:1014800008238DF808308DF8095000238DF80A30B4
:10149000039302A8FFF77AFB40B1334B1B6813F0AC
:1014A000200F03D0314B1B68012B3FDC23782BB975
:1014B00078462F4B1B68002B45D0984700238DF8AA
:1014C0000830E36903F001038DF80930A38AADF811
:1014D0000A30A188A069FFF7F9FB0390254A136839
:1014E000591C116003F00702234B03EBC20304AA4B
:1014F00012E9030083E803002946206DFFF738FD59
:101500002046FFF74FFF184B1B6813F0040F03D062
:10151000164B1B68032B18DC05B030BD7846144B06
:101520001B680BB19847ABE700DEA9E7134BD3F874
:1015300004350190124A009240F2AB121149022088
:1015400005F096FBB2E700DEB8E70C4BD3F80435A4
:1015500094F8442001920C4A009240F2B1120949D9
:10156000042005F085FBD7E7001A0020FC190020B5
:101570009834002014200020D41F002000B0004028
:101580003432030025320300C431030008B5084695
:101590000021FFF76FFF08BD10B50C4691F84430ED
:1015A000012B04D078460F4B1B6853B1984794F831
:1015B0004D306BB9237B012B05D02046FFF710FF80
:1015C00010BD00DEF3E700212046FFF753FFF7E7E9
:1015D000013B84F84D30002384F84C302046FFF75F
:1015E00011FEEDE798340020062900D07047F0B5D1
:1015F00085B00E4604460178890101F4FE51407819
:10160000A578E3781B0443EA0563257943EA0523BB
:1016100065791D4341EA9001D089FFF7BBFB07467E
:1016200018B190F84430012B16D0304B1B6813F0E2
:10163000040F03D02E4B1B68012B01DC05B0F0BD5D
:101640002C4BD3F804352C4A009240F2B2422B497D
:10165000022005F00DFBF1E706238DF8083000238A
:101660008DF809308DF80A60039402A8FFF78EFA0E
:1016700040B11E4B1B6813F0200F03D01C4B1B689E
:10168000012B1BDCBC6C2C43BC6425B33B7823B919
:1016900078461B4B1B681BB39847FB795A1C0123E8
:1016A0009340013B9C421DD0002387F84C303846C4
:1016B000FFF7A8FD3846FFF7F1FDBFE70D4BD3F864
:1016C000043501900F4A009240F2B6420B490220C5
:1016D00005F0CEFAD6E703213846FFF7CBFEADE79B
:1016E00000DEDAE73846FFF77BFEA7E7001A0020A6
:1016F000FC19002000B000407832030025320300BE
:1017000098340020343203002DE9F04389B080463C
:101710000F4614461E4695780DB32846FFF7DAFBB0
:101720008146C8B18DF80050236A0693A38AADF8AC
:101730000E3004AB04F10C0292E8030083E80300CE
:10174000A37D8DF81C30CDF80480029723788DF8A6
:101750000C3031466846C84709B0BDE8F083FFF752
:1017600043FFF9E72DE9F04104460E4615461F46B2
:10177000531EDBB2012B05D97846334B1B68002B77
:1017800049D09847A36E2BB178462F4B1B68002B8E
:1017900043D098472D4B1B6838469847A0660028D1
:1017A00050D03346224606F12001D3F80080D3F80A
:1017B00004E0D3F808C0D868C2F80080C2F804E09A
:1017C000C2F808C0D060103310328B42EDD11868D7
:1017D00059689B681060516093600023A364A4F86B
:1017E0004670B188B069FFF771FAA061012D16D07B
:1017F000174BA362002384F86430164B6365E465DD
:10180000154B6363E463012002F0F2FA84F844505C
:101810000120BDE8F08100DEB4E700DEBAE70F4B3F
:101820001B7D84F84D30002384F84E3084F84F300F
:1018300084F84C30B36A2365054BA362084B63639D
:10184000E463E0E70020E4E798340020C81F0020AC
:101850005EE6655E952402008D15020018200020CA
:101860009915020000B585B000238DF80F3098B1AE
:101870000346084602330B600DF10F0104F0F8F93E
:101880009DF80F3043B10D4B1B6813F0040F03D0CC
:101890000B4B1B68032B04DC9DF80F0005B05DF8B3
:1018A00004FB084BD3F80435074A009240F2F222B9
:1018B0000649042005F0DCF9EEE700BF001A00201D
:1018C000FC19002000B00040D8320300253203008C
:1018D0002DE9F0438FB004460E4615461F46D0F85A
:1018E0001890037823B181884846FFF7EFF9A0618B
:1018F00004F10C00A378002B3AD0012162780DF19D
:1019000028084346082A14BF0022012204F0B4F933
:10191000C4F81890CDF8088003966378EA1A92B25A
:10192000ADF810203244089207978DF82430002338
:10193000ADF81830237B022B1CD0A3786BB3237B2C
:10194000022B1BD02546002345F8243F2A46E17888
:10195000206A0BF0E5FB606A98B101A9FFF782FFEE
:1019600000283AD12A46E178206A0BF0D9FBF2E749
:101970000221C3E71023ADF81830DEE72369059391
:10198000E0E7237B022B2CD104F10C01E0890BF062
:1019900091FC0028D3D1052020E000236362237B43
:1019A000012B0DD02146002341F8243FA08A0BF0E3
:1019B000DFFB01A9606AFFF755FFA0B100200DE031
:1019C00004F12401E0890BF0D3FB01A9606AFFF761
:1019D00049FF0028E6D0002000E000200FB0BDE85D
:1019E000F0830520FAE70520F8E70000F0B5F1B034
:1019F00006460D4614461F4610AB0A4601462046D1
:101A0000FFF766FF00282FD0454B1B6813F0040F2B
:101A100003D0444B1B68052B74DC03238DF8143072
:101A2000A378002B7AD000238DF815308DF816504E
:101A3000069605A8FFF7AAF8002861D0384B1B6866
:101A400013F0200F5CD0374B1B68012B58DD364B51
:101A5000D3F804350190354A009240F227523449B8
:101A6000022005F005F94BE001238DF81430002326
:101A70008DF815306378EB1A8DF81630069605A8A8
:101A8000FFF784F8A0B1264B1B6813F0200F0FD08E
:101A9000244B1B68012B0BDD234BD3F8043501903D
:101AA000224A009240F20E522149022005F0E0F84D
:101AB00003AB01228DF80C20A28AADF80E20002283
:101AC00004928DF8142010AA06926278AD1AADF82F
:101AD0001C5008AA93E8030082E803000AAB04F153
:101AE0000C0292E8030083E80300A37D8DF83830F0
:101AF000236A0C93636A0D930F9705A800F058FDB5
:101B000071B0F0BD084BD3F804350A4A009240F298
:101B100021520749062005F0ABF87EE7022383E750
:101B2000001A0020FC19002000B0004034320300ED
:101B300025320300FC32030010B5D47D14B9FFF741
:101B400055FF10BDFFF7E0FDFBE700002DE9F04376
:101B500085B004AF43781344C47D9CB14FF48074C6
:101B60009C42C0F08980EFF3108C72B60024032CE5
:101B700010DC464E6C2505FB046595F8445025B1F4
:101B80000134F4E74FF4C074EAE735466C2606FBEF
:101B9000045400E00024BCF1000F00D162B6002C18
:101BA0006FD015460E46014601222046FFF7DAFDAA
:101BB000002868D02A463146A06E10F049FF344B09
:101BC0001B6813F0040F03D0324B1B68032B17DC88
:101BD0002F4B1B6813F0040F46D02E4B1B68032BB2
:101BE00042DD6D46B4F846E04FEA4E030833DB08A9
:101BF000A5EBC3039D460DF11008C44600231EE06B
:101C0000254BD3F80435254A009240F2EB322449A3
:101C1000042005F02DF8DBE7A26ED25C4FEA121922
:101C200059002048066816F809600CF8136002F0A5
:101C30000F0201310068825C0CF80120013373450A
:101C4000EAD3002308F81E30134BD3F80435CDF83F
:101C50000880154A0192154A00924FF47C7210498F
:101C6000042005F005F8AD462046FFF7CBFA2046E4
:101C7000FFF714FB002000E009200437BD46BDE853
:101C8000F0830420F9E70420F7E700BF30200020AC
:101C9000001A0020FC19002000B00040A832030008
:101CA00025320300041A0020CC320300C42D0300A7
:101CB00070B504460D461646808A02F001FC0128E4
:101CC0001AD1237BD3B1022B0BD094F91630002B01
:101CD00016DB237853B9324629462046FFF7AEFA81
:101CE0000BE02369002BF0D1102006E03246294694
:101CF0002046FFF72BFF00E0102070BD1020FCE70E
:101D00000720FAE710B582B00446037823B9784675
:101D1000144B1B681BB3984701238DF80030E3690F
:101D200003F001038DF80130A38AADF80230A188D9
:101D3000A069FEF7CBFF01900B4A1368591C116094
:101D400003F00702094B03EBC20302AA12E90300E6
:101D500083E803002046FFF725FB02B010BD00DE3C
:101D6000DAE700BF9834002014200020D41F0020A0
:101D700008B50649064800F04DF820B17846054BF5
:101D80001B680BB1984708BD00DEFCE71D29030066
:101D9000892803009834002010B5FFF7E9FF4FF4BD
:101DA000D8720021114810F07CFE06F0CBFA002416
:101DB0000F4B1C600F4B104A1A60104A5A604CF2CD
:101DC00050329A600E49D9601A6104221A759C75C6
:101DD00008225A750B4803F017FE0B4B18600B4B8B
:101DE0001C600B4806F008FC10BD00BF302000202E
:101DF000142000201820002080969800F04902004E
:101E000020A1070065200200CC1F0020BC1F00207D
:101E1000990F020008B50346B0FA80F040090A465F
:101E2000B1FA81F14909884210D14BB1EFF310802A
:101E300072B608490B60084B1A6048B962B606E0F2
:101E4000002AF3D1FFF794FF002000E00E2008BD28
:101E50000020FCE7C81F0020D01F002098B110B55B
:101E60008CB00446C36883B1836983B1436983B18D
:101E7000014601A8FEF7B8FF228AE16801A8FFF732
:101E800017FF0CB010BD0E2070470E20F9E70E2092
:101E9000F7E70E20F5E7D0B110B58CB004464068E6
:101EA000B8B1A269BAB1207C022816D0B8B194F9B1
:101EB0000020002A15DB0A46214601A8FEF7DCFFB8
:101EC000A268616801A8FFF7F3FE0CB010BD0E20F8
:101ED00070470E20F9E70E20F7E71020F5E71020F5
:101EE000F3E70720F1E7000010B58EB0037B012B6C
:101EF00003D0002420460EB010BD00228388C3F317
:101F000086148DF808409B008DF809300B0E8DF873
:101F10000A300B0C8DF80B300B0A8DF80C308DF855
:101F20000D100623089301238DF82830838AADF81D
:101F30002A300B928DF8182002AB0793036A0C939A
:101F40008DF82420C389ADF82630837D002B2ED157
:101F50008DF83420184906A8FFF79DFF0446002895
:101F6000C8D107238DF8103000238DF811300623D7
:101F70008DF8123002AB059304A8FEF707FE002887
:101F8000B8D00E4B1B6813F0200FB3D00C4B1B685E
:101F9000012BAFDD0B4BD3F8043501900A4A0092B8
:101FA00040F23F220949022004F062FEA2E7084BFA
:101FB0005B7D8DF83430CDE75EE6655E001A00206B
:101FC000FC19002000B00040343203002532030029
:101FD0001820002038B500240CE000DE1F4A6C23D6
:101FE00003FB0423DB795A1C01239340013B9D42F0
:101FF0002BD00134032C2FD8184A6C2303FB042365
:1020000093F84430022BF4D16C2303FB042393F8A0
:102010006430022BEDD16C2000FB0420816CFFF7B3
:1020200063FF0028E5D10D4A6C2303FB04F3D118AC
:1020300081F864008D6CD35C002BCFD17846084BBF
:102040001B68002BC9D09847C8E7044B6C2000FBE5
:102050000430FFF757FECCE738BD00BF302000202A
:102060009834002008B5FFF741F9FFF7B3FF0120CE
:1020700008BD0000F0B583B007460D46CC79631C5F
:10208000CA7D92B1082404FB03F482B14FF480733B
:10209000A3421DD2214B1B6813F0040F3AD0204BF2
:1020A0001B68002B06DC002635E00C24EBE74FF420
:1020B000C073EDE71B4BD3F8043501941A4A009224
:1020C0004FF413721949012004F0D2FD002622E0DA
:1020D000E96901F00101A88A06F0E2F8064678B93C
:1020E000E969002201F00101A88AFEF725FF00211D
:1020F0003846FFF7F9FE02210020FEF739FF0AE01B
:102100002346022229463846FFF72CFB06460028C4
:10211000EDD000E00026304603B0F0BD001A0020EC
:10212000FC19002000B00040643203002532030097
:1021300038B504468188808AFEF72CFE054610B12A
:1021400090F844300BB1284638BD2146FFF792FF86
:102150000028F8D10025F6E72DE9F04383B080464A
:102160000F4614469946137823B978466D4B1B6881
:1021700053B19847E56905F00105A68AA188A069D1
:10218000FEF7A4FD002302E000DEF3E70133072B96
:102190001DD8654A1268934216D2644A02EBC30204
:1021A00052689042F2D1614A02EBC30252889642D1
:1021B000ECD15E4A02EBC30252789542E6D15B4A0B
:1021C00012F83330012204E000231A4601E0002314
:1021D0001A46B2B173B1237823B97846514B1B68C4
:1021E00033B19847E1794B1C01219940013902E054
:1021F00000DEF7E700212046FFF776FE03B0BDE8DA
:10220000F0832046FFF794FF054668B3A26983690F
:102210009A42F3D3E269C3699A42EFD1444B1B68F7
:1022200013F0040F03D0434B1B68032B20DC28461C
:10223000FFF77AF82B7B012B28D0AA6CA179012318
:102240008B401A42DAD11343AB64A279EB799A42FC
:1022500024D0E37D002B5ED00823BB4227D004218D
:102260002846FFF707F9C9E70221FEF781FEC5E717
:10227000314BD3F80435A2790192304A009240F2F2
:10228000B1222F49042004F0F3FCD0E795F8643024
:10229000002BD2D12846FFF763F8CEE79BB2E27D50
:1022A000002A36D0082203FB0273A5F84630AB6E35
:1022B000A079E27D8AB308243A46414604FB003007
:1022C00010F0C6FBAC6C2B7823B97846154B1B6815
:1022D0002BB39847EB795A1C01239340013B9C4256
:1022E0008CD14B462A46B5F84610A86EFFF724FC61
:1022F000022385F86430A96C2846FFF7F5FD002815
:102300007FF47CAF002385F864302846FFF7FAFCA1
:1023100074E70C22C7E70C239FE70C24CCE700DE10
:10232000D8E700BF9834002014200020D41F0020DC
:10233000001A0020FC19002000B00040EC3203001D
:10234000253203002DE9F04192B0002800F093807F
:102350000546002A00F09180984614460F46002258
:102360001092119210A960880AF0A4FF30BB0323D9
:102370008DF80C3004238DF80D308DF80E70049517
:1023800003A8FEF703FCA0B13D4B1B6813F0200F20
:102390000FD03C4B1B68012B0BDD3B4BD3F80435B6
:1023A00001903A4A009240F2D6523949022004F094
:1023B0005FFC0026304612B0BDE8F081226902F0D1
:1023C0000102E168208905F087FF18B303238DF827
:1023D0000C3005238DF80D308DF80E70049503A890
:1023E000FEF7D4FBA0B1264B1B6813F0200F0FD0D3
:1023F000244B1B68012B0BDD234BD3F804350190D4
:10240000224A009240F2E1522149022004F030FCBD
:102410000026CFE7226902F00102E168208905F079
:1024200005FF0646C0B905AA21462846FEF7CEFD9F
:1024300008AB12AA12E9030083E8030003F098FA3C
:102440009DF8143083B1434605AA391F281DFFF7B4
:1024500083FE03F0B3FAADE72169002201F0010128
:102460002089FEF769FDA5E7434605AA791E681C89
:10247000FFF762FBEDE70E269CE70E269AE700BF0A
:10248000001A0020FC19002000B000403432030084
:102490002532030010B50C4691F84430022B04D0CD
:1024A0007846094B1B6863B19847022384F864306F
:1024B000A16C2046FFF718FD10B9002384F86430A2
:1024C00010BD00DEF1E700BF98340020002934D0B1
:1024D00000220A604A60A0F5967007282FD8DFE82E
:1024E00000F004090E13181D2227164A12684A60CC
:1024F00000207047134A52684A6000207047114A12
:1025000092684A60002070470E4AD2684A600020F4
:1025100070470C4A12694A6000207047094A127DD0
:102520004A6000207047074A527D4A600020704789
:10253000044A927D4A60002070470E2070470520B3
:10254000704700BF18200020F8B500B30546164BB1
:102550001F68F7B90E463C46B4420ED205EBC403E1
:102560005B68CBB115F8340010F0800F16D1B8B10C
:10257000FEF7B0FCB0B90134EEE70C4B43F837502E
:1025800003EBC7035E607B1C074A136002E00E2763
:1025900000E004273846F8BD0E27FBE70B27F9E7D4
:1025A0000F27F7E70F27F5E7BC1F0020C01F00200B
:1025B00038B5054618B10A4B1C686CB90EE0784670
:1025C000084B1B680BB19847F5E700DEF3E754F8BA
:1025D000043C284698472468002CF8D138BD00BF39
:1025E000E02100209834002010B5044620B1211DC0
:1025F000054804F04FFA10BD7846044B1B680BB138
:102600009847F4E700DEF2E7E0210020983400204C
:1026100010B5044620B1211D054804F079FA10BD1B
:102620007846044B1B680BB19847F4E700DEF2E7ED
:10263000E02100209834002008B503881A4492B2A3
:1026400002808A4208D003888B4204D37846054B27
:102650001B6823B1984708BD00230380F3E700DE21
:10266000F9E700BF9834002038B504460D4683686A
:10267000828813448B4204D078460F4B1B68B3B159
:1026800098472A880432204692B230F8041BFFF79C
:10269000D3FF2388A2889B1A9BB2042B04D87846C8
:1026A000054B1B682BB198470023AB7038BD00DE8B
:1026B000E7E700DEF8E700BF983400200B881944F4
:1026C00004318268038813448B4200D00A461046C6
:1026D000704738B504460D46FFF7F0FFEFF3108161
:1026E00072B6A26863881344834204D001B962B60B
:1026F0000423AB7038BDAA1A628001B962B6002308
:10270000AB70F7E78368194488787047008804380D
:1027100080B2704710B50B88934210D99B1A9BB2B8
:1027200044884CB90488E31A43800A80428883684D
:10273000134400229A7010BDE31A4380F5E79342D8
:10274000F9D07846034B1B680BB19847F3E700DEDE
:10275000F1E700BF9834002038B50446438882680A
:10276000D518D1520123AB700A1D92B230F8021B6A
:10277000FFF762FF6288A3889A4203D0A3681344DC
:1027800000229A70284638BD70B51646091A8DB2D7
:1027900014880434A4B2A54204D27846064B1B68C0
:1027A0003BB198472C1BA4B2042C01D8043D3580C2
:1027B00070BD00DEF6E700BF9834002083888B42AE
:1027C00010D310B4428881688C1803889B1A9BB27E
:1027D000043B8B520423A3700023438018465DF80A
:1027E000044B70470420704738B504460D46818875
:1027F000FFF788FF58B9238862889B1AAB4201DB38
:10280000002038BD29462046FFF7D8FFF9E704200D
:10281000F7E708B5038842889B1A8B4201DB00204A
:1028200008BDFFF7CBFFFBE7838842889B1A8B42EA
:1028300001DB002070470420704770B504460E4647
:102840000988043189B2428883889A420FD09A421B
:1028500011D8FFF7E9FF05463DB96088A188884295
:1028600000D321883246FFF78FFF284670BDFFF75F
:10287000BBFF0546F0E7FFF7CCFF0546ECE710B5D8
:1028800004468088A168014405E02046FFF7ECFE7D
:10289000A088A16801448B78042BF6D0084610BDAF
:1028A00070B5064615460C4600294FD0002E55D06F
:1028B000B4F1005F08D94FF08053D3F80C3103F521
:1028C0000023B4EB832F11D3B4F5000F08D94FF0D8
:1028D0008053D3F80C3103F50053B4EB832F05D3A9
:1028E0007846254B1B68002B40D098476B1E23442D
:1028F000B3F1005F08D94FF08052D2F80C2102F5F5
:102900000022B3EB822F11D3B3F5000F08D94FF09B
:102910008052D2F80C2102F50052B3EB822F05D37E
:102920007846154B1B68002B22D09847042D04D8FD
:102930007846114B1B68EBB19847358000237380B4
:10294000B380B460043D2580A37070BD78460A4B07
:102950001B680BB19847A9E700DEA7E77846064B4E
:102960001B680BB19847A3E700DEA1E700DEBDE7D7
:1029700000DEDBE700DEE0E79834002070B50446B7
:102980008088A1680144EFF3108672B68D78032D1C
:102990000AD12046FFF792FE014605E004238B7022
:1029A0002046FFF78BFE01468B78012B05D0A368EC
:1029B000CB1A9BB262889A42F0D1032D02D106B99C
:1029C00062B670BD2046FFF75AFFF8E7F0B583B056
:1029D0000E46ADF806200546D8B116B3BDF8064040
:1029E000002C2DD02846FFF791FE84422AD80334CC
:1029F000A4B224F0030402A921F8024DEFF31087DA
:102A000072B62846FFF719FF044690B1DFB962B6E7
:102A100019E078460D4B1B680BB19847DDE700DEE7
:102A2000DBE77846094B1B680BB19847D6E700DE19
:102A3000D4E7BDF806102846FFF78EFE3060E5E7C4
:102A4000092400E00924204603B0F0BD983400209A
:102A500070B582B00C46ADF80620054600283CD083
:102A6000002C42D0A378012B05D078462E4B1B6852
:102A7000002B42D098472288BDF806309A4205D2F2
:102A80007846294B1B68002B39D09847BDF8063093
:102A90002BB97846244B1B68002B32D09847BDF8E1
:102AA000063003339BB223F003039BB2ADF806302C
:102AB000228893420DD021462846FFF7FFFDEFF311
:102AC000108672B6AA686B88134483421BD006B97D
:102AD00062B60223A37002B070BD7846124B1B6829
:102AE0000BB19847BCE700DEBAE778460E4B1B688F
:102AF0000BB19847B6E700DEB4E700DEBBE700DEC7
:102B0000C4E700DECBE7A01A80B2A988814200D8D2
:102B100029880DF10602FFF737FEBDF80620214691
:102B20002846FFF7F7FDD2E79834002038B50C4669
:102B3000054650B18CB12846FFF7A1FE8378022BE1
:102B400013D0032B16D0052013E078460E4B1B68DC
:102B50000BB19847EEE700DEECE778460A4B1B68BE
:102B60000BB19847E7E700DEE5E7032383702060B9
:102B7000002038BD7846044B1B6813B198470020ED
:102B8000F7E700DE0020F4E79834002010B5044693
:102B900038B12046FFF773FE8378022B09D000205E
:102BA00010BD7846044B1B680BB19847F1E700DE77
:102BB000EFE70120F4E700BF9834002038B5054660
:102BC000D0B12846FFF75BFE04468078022814BF88
:102BD0000020012021468B78033BDBB2012B0AD871
:102BE0002846FFF76BFD01468078022814BF0020BD
:102BF00001208C42EFD138BD7846034B1B680BB1E6
:102C00009847DEE700DEDCE79834002038B50C4654
:102C1000054650B18CB1A378012B16D0032B19D1E6
:102C200021462846FFF720FD38BD78460D4B1B682E
:102C30000BB19847EEE700DEECE77846094B1B68DE
:102C40000BB19847E7E700DEE5E721462846FFF7A6
:102C500040FDE9E77846034B1B680BB19847E3E773
:102C600000DEE1E79834002008B50023092B09D8DD
:102C7000084A52F82320824201D00133F6E7064A7F
:102C8000536004E07846054B1B680BB1984708BDBC
:102C900000DEFCE788330300E421002098340020A4
:102CA00008B5064B986800221A605A609A60DA608C
:102CB0001A615A619A6105F07FF808BDE42100208D
:102CC00010B5294BDB688BB1274B1B7E23B17846AF
:102CD000264B1B6893B19847234B5B68092B1DD982
:102CE0007846224B1B685BB1984717E078461F4B2C
:102CF0001B680BB19847E7E700DEE5E700DEEBE78E
:102D000000DE0BE000DE02E0174B00225A60012CCF
:102D100001D0032C26D1144B1B7E1BBB124B5A68CF
:102D2000134B53F8223098470446022810D003284A
:102D3000EAD00128EBD10C4A536801335360092BC8
:102D4000E5D97846094B1B68002BDBD09847DEE7B6
:102D5000054B1B7E1BB1044B02221A70D7E7FFF70D
:102D60009FFFD4E710BD00BFE4210020983400206D
:102D700088330300104B1B681B685A1E12F1030FA7
:102D800018D8C3F30B020AB10020704710B50B4AE4
:102D9000D36000231376537601241470936008489F
:102DA000FFF762FF0749204601F0ACFAFFF788FF02
:102DB000204610BD0020704704220020E42100209E
:102DC000052E0200C92D020008B50B78032B06D092
:102DD0000B4B1B78012B06D0022B0BD008BD084BE8
:102DE00000221A76F4E7064B1B7E002BF6D1FFF784
:102DF00067FFF3E70B78032BF0D1FFF751FFEDE707
:102E0000E421002000B585B00A4BDB6802228DF872
:102E1000002001934FF480530293074A6946012032
:102E200001F086FA18B1002005B05DF804FB01201E
:102E3000FAE700BFE42100200022002000B585B0A1
:102E40000A4B1B6802228DF8002001934FF4805337
:102E50000293074A6946012001F06AFA18B100207E
:102E600005B05DF804FB0120FAE700BF0422002052
:102E700000220020164BDA68137951795B1A03F5AA
:102E80007F2303F6FF7302EB03339A4205D002F56A
:102E900080520F4BDA600320704700B585B00D4BB0
:102EA0001B6801208DF8000001930B4B0393042352
:102EB00002930A4A694601F03BFA18B1002005B0B6
:102EC0005DF804FB024B01221A760220F7E700BFEF
:102ED000E4210020042200200822002000220020FB
:102EE00000B585B00C4BDA680C4B1B68043301202D
:102EF0008DF800000192039340F6FC730293084A98
:102F0000694601F015FA28B90120034B187605B07F
:102F10005DF804FB0020FAE7E421002004220020F1
:102F20000022002000B585B00A4B1B6801208DF8F7
:102F300000000193084B039304230293074A694658
:102F400001F0F6F918B1002005B05DF804FB01208E
:102F5000FAE700BF04220020F02100200022002018
:102F600010B584B0114BDA681478114B1B68043328
:102F700001208DF800000193039202940D4A6946E6
:102F800001F0D6F980B90A4B1B6804F0FC041C441C
:102F90000434064B5C61D9680A780A441A6100223D
:102FA0005A76012004B010BD0020FBE7E421002088
:102FB000042200200022002000B585B0174BDB68FA
:102FC00018784FF6FF7203F58051184405F0C6FAE1
:102FD000F0B10246114BD9680B780B44984219D0D6
:102FE0000E4B5B7E93B10E4B01208DF800000192D9
:102FF0000393042302930B4A694601F099F958B9E7
:103000000120064B187605B05DF804FB064BEBE794
:103010000120F8E70120F6E70020F4E7E421002092
:103020006C350300002200206835030008B5104B02
:10303000DB681878002203F58051184405F08EFAF9
:1030400008B1012008BD0A4BDA68137951795B1A7F
:1030500003F57F2303F6FF7302EB03339A4205D097
:1030600002F58052024BDA600320EBE70220E9E729
:10307000E421002070B584B04E4BDD686A792B796D
:10308000591E8A4200F0908005F580510C780C445E
:1030900049490968081D0E7906449B1A03F57F23E8
:1030A00003F6FF731B0303F580531D446388013B44
:1030B0009BB247F6FE62934257D912E000DE18E059
:1030C00024F47F6424F00F0404F5805423781C4416
:1030D000A54247D96388013B9BB247F6FE62934203
:1030E00043D923882BB97846344B1B68002BE5D095
:1030F0009847238804EB830323F47F6222F00F02B6
:103100009342DDD06288B2F5FE4FD9D01C46DFE78E
:1031100000DE18E024F47F6424F00F0404F58054EA
:1031200023781C44A5421FD96388013B9BB247F614
:10313000FE62934219D923882BB978461F4B1B682E
:10314000002BE5D09847238804EB830323F47F62A8
:1031500022F00F029342DDD06288B2F5FE4FD9D043
:103160001C46DFE7002400E00024DCB1124B1968A4
:10317000628801F58051304605F0F0F90646B0B19D
:1031800001200C4B18768DF8000001940C4B039332
:10319000042302930B4A694601F0CAF80028CAD0FA
:1031A000002002E0012000E0012004B070BD0120F9
:1031B000FBE700BFE4210020042200209834002017
:1031C0006435030000220020F0B587B06E4B1B6908
:1031D00023B16D4B5B694BB100274BE078466B4BDD
:1031E0001B680BB19847F4E700DEF2E77846674BBF
:1031F0001B680BB19847EFE700DEEDE700DE18E053
:1032000024F47F6424F00F0404F5805423781C44D4
:10321000A5421DD96388013B9BB247F6FE629342EB
:1032200017D923882BB97846584B1B68002BE5D05B
:103230009847238804EB830323F47F6222F00F0274
:103240009342DDD06288B2F5FE4FD9D01C46DFE74D
:103250000024002C34D100230093019B002B6AD161
:10326000012724B1628847F6FF739A4202D1464B88
:1032700001225A76444B5B7E002B40F08180002F68
:103280007CD1414B5A6922F47F6626F00F06B61AAC
:1032900006F580561C69DD682B796A799B1A03F55F
:1032A0007F2303F6FF731B0303F580531D440023A4
:1032B00001936388013B9BB247F6FE629342B0D80C
:1032C000009409E000DE27E024F47F6424F00F047A
:1032D00004F5805423781C44A542BED92388019A62
:1032E00002EB83029642B8D9009B634023F47F63CC
:1032F00023F00F03002BB0D16388013B9BB247F64C
:10330000FE618B42A9D8019223882BB978461F4BC6
:103310001B68002BD6D09847238804EB830323F443
:103320007F6222F00F029342CED06288B2F5FE4F48
:10333000CAD01C46D0E7144A526901208DF8080013
:103340000392009A05920493114A02A900F0F0FF3B
:1033500090B90D49019B23F003024B6913444B6163
:1033600014B1094B1C617CE77846084B1B680BB114
:103370009847F6E700DEF4E7002002E0012000E0D5
:10338000012007B0F0BD00BFE421002098340020E8
:103390000022002008B54FF010235B69B3F1FF3F16
:1033A00003D04FF010235B6963B94FF0805251692D
:1033B000136903FB01F3A3F58053054A1360FFF77C
:1033C000D9FC08BD4FF010235B69A3F58053F2E7E9
:1033D00004220020024B1878003018BF01207047EB
:1033E000E421002010B584B00446244B1B782BB197
:1033F0007846234B1B68002B3BD098472378032B40
:1034000005D078461E4B1B68002B34D098471B4BC9
:103410009C60E268DA6000245C601C760120187011
:103420005C76184900F06EFFFFF74AFC0A238DF81E
:1034300008308DF809408DF80A40039402A8FDF782
:10344000A5FBA0B1104B1B6813F0200F0FD00F4B42
:103450001B68012B0BDD0E4BD3F8043501900D4A90
:1034600000924FF420720C49022003F001FC04B0DA
:1034700010BD00DEC2E700DEC9E700BFE421002086
:1034800098340020C92D0200001A0020FC190020E9
:1034900000B000403432030071330300014B186860
:1034A000704700BF0422002010B50446B8B163681D
:1034B0001BB123680BB1A36823B978460E4B1B6878
:1034C000ABB19847A3685A1E134204D078460A4B02
:1034D0001B6873B198470023E360236110BD7846F1
:1034E000054B1B680BB19847E1E700DEDFE700DE24
:1034F000E8E700DEEFE700BF98340020F8B5F8B148
:103500000446F9B18268FAB1EFF3108572B6026928
:1035100080680244E668B24203D1C5B962B60425A8
:1035200013E027686368013830401A4600FB0370D7
:103530000FF08EFAE3680133E36055B962B604E038
:103540000E2502E00E2500E009252846F8BD0425D9
:10355000FBE70025F9E770B5F0B104468268EAB1EF
:10356000EFF3108572B60669C268964210D008461D
:1035700021686268A368013B1E4006FB021108B186
:103580000FF066FA23690133236165B962B606E07C
:103590003DB962B6052502E00E2500E00925284662
:1035A00070BD0525FBE70025F9E70000C0F30B031C
:1035B00033BB39B301F6FF71090B134B0222C3F879
:1035C0000425114BD3F80034002BFAD000220AE076
:1035D0000D4BC3F808050C4BD3F80034002BFAD080
:1035E00000F5805001328A42F2D3074B0022C3F823
:1035F0000425054BD3F80034002BFAD00020704787
:10360000102070470920704700E0014010F0030FC0
:103610002FD111F0030F2FD182B312F0030F2FD14E
:1036200010B49208174B0124C3F80445154BD3F886
:103630000034002BFAD002E0043004312246541E3C
:1036400052B10B68B3F1FF3FF6D003600D4BD3F8D6
:103650000034002BFAD0EFE70A4B0021C3F8041521
:10366000084BD3F80034002BFAD010465DF8044B19
:1036700070471022104670471022FBE70922F9E735
:103680000922F7E700E00140064B1B68834202D1A4
:10369000002304E0134613B15A688242FAD1184657
:1036A000704700BF0C32002038B50C4B1B688342BA
:1036B00007D00446FFF7E8FF054630B163686B604A
:1036C00038BD5A68054B1A60FAE77846044B1B6808
:1036D0000BB19847F2E700DEF0E700BF0C320020A4
:1036E000983400200388033189B221F0030189B2A4
:1036F0008B4220D0024620D3581A08281FD930B454
:10370000EFF3108072B6118001F108055419591AAF
:1037100089B20839515300236380538833B9536801
:103720006360546068B962B630BC7047064B1A6873
:1037300062601C60F6E70020704707207047072092
:1037400070470020F0E700BF0C320020018000230A
:10375000438042607047000038B5134C4FF48055E9
:103760002A46002120460FF09CF9104B1C600AE00D
:10377000002228212046FFF7E9FF2388083323444D
:103780006360303D1C46502DF2D8083D04D1784688
:10379000074B1B6833B198470022A9B22046FFF7B8
:1037A000D5FF38BD00DEF7E70C2200200C320020E8
:1037B000983400202DE9F843CE1CB6B226F003065B
:1037C000B6B2731E9BB2B3F5BE7F80F08580EFF377
:1037D000108972B6444B1C6814B1804600272AE059
:1037E000B9F1000F7CD162B6042376E02846FFF7DA
:1037F0005BFF3D4B1B689C4216D0BD4206D02B8818
:103800002288134408332380012310E02046FFF769
:103810003BFF07460028F2D17846344B1B680BB1BA
:103820009847ECE700DEEAE70027E8E700230BB95A
:10383000274664686CB12388B3420AD21D46083516
:1038400025442B4B9D42F1D26B88002BCED0002318
:10385000EDE704B32388274AA2FB0323013E264A4F
:1038600082FB0612F617C6EB22160136B6EB531F83
:1038700017D3012363801FB363687B60B9F1000F26
:1038800000D162B6184B1B68A3421DD00834C8F89B
:103890000040002321E0B9F1000F23D162B60423D8
:1038A0001BE006EB8606F10089B22046FFF71AFFFF
:1038B00003460028DDD0B9F1000F0ED162B60CE04E
:1038C0006268094B1A60D9E77846084B1B680BB150
:1038D0009847DBE700DED9E709231846BDE8F883FF
:1038E0000423FAE70423F8E70C3200209834002080
:1038F0000C320020CDCCCCCC6766666670B5044631
:10390000194B984205D203F58053984226D20123E1
:1039100000E0012323B97846144B1B6803B3984792
:10392000A4F10806EFF3108572B634F8063C012BBB
:1039300004D078460D4B1B68A3B19847002124F8AA
:10394000061C34F8082C20460FF0ABF8084B1A6818
:1039500044F8042C1E6005B962B670BD0023D9E797
:1039600000DEDDE700DEE9E70C22002098340020CD
:103970000C32002010B5044608B1A04710BD7846AF
:10398000034B1B680BB19847F7E700DEF5E700BF74
:103990009834002008B508220221084804F050F8A5
:1039A00038B1074A91684160127B027204F08CF8CA
:1039B00008BD044804F0CEF9FAE700BF1432002035
:1039C00050320020D01900200E4B1B78CBB910B517
:1039D0000D4B5C6804F50054B4F1807F00D910BD34
:1039E00004220121094804F02BF830B1446004F0AE
:1039F0006BF8044B01221A70F1E7054804F0AAF9AC
:103A0000EDE770476432002050320020143200206D
:103A1000C019002000B58DB003908DF808100CA8D7
:103A2000022300F82C3DFEF7C3FD0DB05DF804FB4A
:103A300010B58CB00C469AB94B88012B28D1164B87
:103A40001B7823B97846154B1B683BB198476268D1
:103A5000134B5A60104B00221A7019E000DEF6E793
:103A6000032A04D078460D4B1B689BB198472C2243
:103A7000002101A80FF015F80E238DF804300394EF
:103A8000084BDA6805921B69069301A8FEF790FDC2
:103A90000CB010BD00DEEAE764320020983400204C
:103AA000503200201432002038B504F075F928B9DE
:103AB00002F05CF80028F8D020BFF6E701F058FFCC
:103AC000002211461A4803F005FF00252C4605E0A8
:103AD000051D02460021164803F0FCFE30B1438864
:103AE000012BF5D0022BF4D1041DF2E7A4B19DB156
:103AF0002268104B9A6022791A73AC4201D923795B
:103B000093B12A680B4B1A600A4B1A685A60FFF788
:103B10005BFF01F053FF38BD064B00221A609A602C
:103B20001A73FFF737FFEFE7024B00221A60EBE74B
:103B3000143200205032002008B504F075F9A0F5C9
:103B4000805008BD00B587B0002300930193029315
:103B5000039304930593FFF7EFFF00900123019374
:103B6000064B03936946064804F0A6F810B907B05F
:103B70005DF804FB034804F0EDF8F8E7313A020081
:103B800014320020E019002010B50C4B00241C60FA
:103B90005C609C60DC601C6101F02CFA084B586092
:103BA000084A9A60084ADA601C615C61074A14702E
:103BB000184601F0FBF8FFF7C5FF10BD503200209A
:103BC00038320020E13C0200008793036532002078
:103BD00038B501F0CDFE174B1B7B0BBB154B9B7B08
:103BE0001BBB144B1A8A41F282639A4204D8124BCF
:103BF0001B789BB1012300E00123C3B10D4D0123CC
:103C00002B7300242C82AB680133AB60FFF7C2FE3C
:103C1000A868297B0138FFF7FDFE02E00023ECE7EE
:103C2000082401F0CBFE204638BD0824F9E708241B
:103C3000F7E700BF503200206532002010B501F0D8
:103C400097FE244B5B7B9BB1224B9B7B03BB214BA1
:103C50001A8A41F282639A4204D81F4B1B782BB117
:103C6000012300E00123ABB1012302E00023FAE7C6
:103C700000231C4643B3174B00225A731B7B5BB1D6
:103C8000012B14D07846154B1B680BB398471BE0EB
:103C90000023EEE70023ECE7FFF79AFFA0B1784698
:103CA0000E4B1B680BB198470EE000DE0CE0094B91
:103CB000002119605960197319829868FFF7AAFEEC
:103CC000FFF768FEFFF780FE01F078FE204610BD8A
:103CD00000DEF9E7503200206532002098340020E1
:103CE00008B5244B1B7B93B1012B23D07846224B84
:103CF0001B68002B3BD098471E4A138A013313825E
:103D00001C4B5B8A13B1013B1A4A538208BD194B05
:103D10001A8A41F282639A4204D8184B1B783BB14D
:103D2000012300E00123002BE6D0FFF787FFE7E740
:103D30000023F8E70F4B1B8A41F28262934204D8BA
:103D40000E4A127872B1012200E00122002AD3D07B
:103D500042F2B012934207D9064B01225A73FFF781
:103D60006DFFCDE70022F1E7FFF768FFC4E700DE53
:103D7000C2E700BF50320020983400206532002096
:103D800010B5184B1A685B689A4225D20446154B49
:103D90001B7B012B13D0144B9A4212D2114B1A6881
:103DA0005B68403B9A4214D2EFF3108072B60D4A22
:103DB0001368591C1160236090B962B610BD0B4B9B
:103DC000EAE7084B01225A73FFF738FF0028EBD1CE
:103DD000E4E7FFF7F9FDE7E7FFF7F6FD0F20EDE772
:103DE0000020EBE750320020FFFF7F0000E0FF00E3
:103DF00008B590B90E4B1B6823B978460D4B1B686C
:103E00009BB198470A4A1368013B136063B90A4B98
:103E100000229A73FFF712FF06E0074B01229A7304
:103E2000034A13680133136008BD00DEEAE700BFF0
:103E300010320020983400205032002000B58DB0A0
:103E4000ADF808008DF80A100CA8032300F82C3DEB
:103E5000FEF7AEFB0DB05DF804FB000038B505467B
:103E60000C4601F085FD254B1B7B002B34D1234BE9
:103E70005B8A2BBB1CB9214B9B68AB4205D3FCB1C1
:103E80001E4B9B680133AB421AD21C4B9B682A33F2
:103E9000AB4223D3194B9B7B03BB184CA56023601B
:103EA0006360238242F60652628263732373FFF7D4
:103EB00071FDFFF789FD217BA068FFF7ABFD0DE0E9
:103EC00064B10E4B9B680133AB4207D10B4B01220F
:103ED0005A73FFF7B3FE01E0012B02D001F06EFD33
:103EE00038BD002CFAD1054B9B68AB42F6D1034B91
:103EF00001225A73FFF7A2FEF0E700BF5032002004
:103F0000014B9868704700BF50320020054B1B7B67
:103F1000012B02D0034B98687047024B9868013818
:103F2000704700BF50320020044B9B68584010F08F
:103F3000010F00D0013B1846704700BF50320020EF
:103F4000014B187B704700BF5032002008B5027843
:103F5000012A09D0022A15D07846114B1B68D3B12B
:103F600098474FF4FA7308E083685B1A98084FF497
:103F7000A97303FB00F303F5FA730A48984228BFBC
:103F8000184608BD83685B1A180B074B03FB00F348
:103F900003F5FA73F1E700DE4FF4FA73EDE700BFC3
:103FA00098340020A0860100645E010008B5037803
:103FB000012B08D0022B0CD07846074B1B682BB185
:103FC0009847002001E04FF4A97008BD00DE0020F2
:103FD000FBE70248F9E700BF98340020645E010067
:103FE0002DE9F041002724E02449B82303FB04F322
:103FF000CA5A0132CA520221284602F01FFC013679
:104000000221284602F0E0FB80B11C4AB82303FBE2
:104010000423D3F80880B8F1000FE5D0B82303FBE0
:1040200004F3D25A01463846C047DDE78EB901375E
:10403000FFB2022F1FD83C46B82303FB07F3083317
:104040000E4D1D4404350221284602F0BDFB00261A
:10405000DAE70021284602F07DFC0828E7D1074B6B
:10406000B82202FB0434A368002BE0D000220449EC
:1040700038469847DBE70120BDE8F0817032002028
:10408000B033030008B5082383731023437300F192
:104090001C0343610323037300F1180303610C3015
:1040A00002F016FC08BD000010B5044601210C30DA
:1040B00002F08AFBC8B10E4AC4F89C200022C4F862
:1040C000A0206168FFF742FFC4F8A400C4F8A8402C
:1040D000012384F8B43004F19C000AF0F1FD20B112
:1040E0007846044B1B680BB1984710BD00DEFCE717
:1040F0002942020098340020F8B506460C461746BF
:1041000015680378012B04D07846164B1B681BB347
:1041100098471549A1FB0431C9098900B468641B9B
:104120008C4200D30C4624B978460E4B1B68ABB1C9
:104130009847706825F00305F16822462944284411
:10414000FFF764FA20B17846064B1B6843B19847E5
:104150003B681C443C60F8BD00DEDAE700DEE8E7BF
:1041600000DEF5E798340020EB5DF260F8B5074615
:104170000C46164615680378022B04D07846154B7A
:104180001B680BB39847144BA3FB04231B0C1B03A6
:10419000BC68641B9C4200D31C4624B978460D4B76
:1041A0001B689BB19847786825F003052146284491
:1041B000FFF7FCF920B17846064B1B6843B19847DE
:1041C00033681C443460F8BD00DEDCE700DEEAE75B
:1041D00000DEF5E798340020B77609BB38B5054610
:1041E0000C4611462378012B08D0022B11D07846BB
:1041F0000C4B1B689BB19847002304E0021D20462E
:10420000FFF77AFFA3686868984214BF0020012076
:1042100038BD021D2046FFF7A9FFA368F3E700DEC3
:104220000023F0E7983400202DE9F8430F46D1F839
:10423000A450254B1B7863B90646A5F5FA7501F124
:104240000C090121484602F0BFFA804640B1002423
:1042500026E00AF085FD002387F8B430BDE8F88336
:1042600078461A4B1B680BB19847F0E700DEEEE783
:104270000AF076FD0121484602F0E0FA00237B6057
:1042800087F8B430124B186801F0E8FB3846FFF7A6
:104290000BFFE3E74046FFF789FE2044A8420CD815
:1042A0002A1B41463846FFF799FF0028E0D100F06D
:1042B000A1FE841BEED5341AECE70AF051FD384616
:1042C000FFF7F2FECAE700BF6C32002098340020EE
:1042D0006832002010B5084801F096FB074B1860C3
:1042E000002406E0064BB82000FB0430FFF7CAFEAE
:1042F0000134022CF6D910BDE13F020068320020E3
:104300007032002038B504460D46022804D978469C
:10431000054B1B6833B19847044BB82202FB0434A9
:10432000A56038BD00DEF7E7983400207032002029
:104330002DE9F84306460C461746022805D978466B
:104340005C4B1B68002B49D09847002C48D0237841
:10435000012B4DD0022B77D07846564B1B68002B93
:1043600000F094809847EFF3108872B6B82505FBEB
:1043700006F505F10803504D1D440435002128467B
:1043800002F022FA8146002800F08A8000212846A7
:1043900002F054FA20686168A268E368C9F8000076
:1043A000C9F80410C9F80820C9F80C302FB1424AE6
:1043B000B82303FB06235B883B803F4AB82303FBFB
:1043C00006235A8801325A8093F8B430002B69D101
:1043D0003A4B1B78002B5BD0002064E000DEB4E792
:1043E0007846344B1B680BB19847B0E700DEAEE768
:1043F000636813F0030F04D078462E4B1B68DBB1C3
:104400009847E36813F0030F04D07846294B1B68E4
:10441000A3B19847A36813F0030F04D07846254B47
:104420001B686BB19847A368002B9CD17846214B41
:104430001B683BB1984796E700DEE2E700DEE9E75C
:1044400000DEF0E700DE8EE76368C3F30B0323B101
:104450007846184B1B689BB19847A368C3F30B03BE
:1044600023B17846134B1B6863B19847A368002BB0
:104470007FF479AF78460F4B1B682BB1984772E7F2
:1044800000DEEAE700DEF1E700DE6CE700DE6AE767
:10449000094BB82000FB0630FFF706FE002002E0C3
:1044A000042000E00020B8F1000F00D162B6BDE8A2
:1044B000F88300BF98340020703200206C32002056
:1044C00018B1830B024AD05C70470020704700BFD0
:1044D000C033030012DF704700B583B01378A3B177
:1044E000042B14D1072110F8013C163B152B31D8B1
:1044F000DFE803F059303030303030303030303099
:10450000303030303030302E0F3A517DEBE7002123
:10451000E9E7022901D007291CD110F8021C013952
:1045200002F008F9B0B1264B1B6813F0400F11D010
:10453000244B1B68012B0DDD234BD3F80435019070
:10454000224A009287222249022002F091FB01E0D8
:10455000022902D003B05DF804FB10F8021C0139F7
:10456000C9B209F0D5FEF5E70229F3D110F8021C13
:104570000139C9B203F05EFF0028EBD0104B1B6875
:1045800013F0400FE6D00F4B1B68012BE2DD0E4B02
:10459000D3F8043501900F4A00929A220C49022068
:1045A00002F066FBD6E701884FF6E4639942D1D169
:1045B00010F8021C03390230FCF7E6FACAE700BF24
:1045C000001A0020FC19002000B00040183403003D
:1045D0000D3403004434030070B58AB00BF006F9C3
:1045E00058B3064600238DF8103005AC05460FCDB4
:1045F0000FC42B682360727D052A04D9337D03F034
:104600000F03072B20D1184B1B689BB104AB0393FE
:10461000337DC3F303038DF80430737D062B1DD95E
:10462000063B8DF8053006F11D0302930E4B1B6807
:1046300001A8984730460BF0B3F80BF0F1F880F082
:104640000100C0B20AB070BD307D04AB063A06F17D
:104650001D0100F00F0009F0F9FED4E700238DF8EA
:1046600005300293E2E700BFA034002070B582B0AD
:10467000344B1B78002B5BD100285DD04268324B55
:104680001A60067B002E59D00F2E01D0072E57D866
:104690000446FCF791FA0DF10700FFF71BFF0546F2
:1046A000002846D19DF80730012B01D0022540E0BB
:1046B000FCF7B6FA00F066FB304601F01BF92378F0
:1046C000012B25D0FA2001F029F80AF0D3FA1F486F
:1046D0000BF05AF90AF094F8FFF7FCFD03F066F8C6
:1046E00004F0B0FC204601F0D9FE2046FDF754FB53
:1046F00004F0C4FA42F2107003F028FE2046FFF7DF
:104700002BF8FCF741FA38B1062805D0054610E031
:10471000E07800F0BBF8D6E700F098FD0C4809F00F
:1047200077FE0C4B00221A60064B01221A7000E043
:104730000825284602B070BD0E25FAE70725F8E7E0
:104740000725F6E79D34002098340020D945020063
:10475000F0190020A034002010B50F4B1B78B3B126
:104760000E4B1B78ABB900F0FFFF20B178460C4B25
:104770001B6853B198470AF093FA044650B90AF0FF
:10478000F5FF064B01221A7004E000DEF3E708246F
:1047900000E00824204610BD9D3400209C340020F9
:1047A0009834002008B5FDF759FB08BD002070477C
:1047B00008B500F077FF002008BD08B5FDF714FF2D
:1047C00008BD000010B5044618B1002323606360E3
:1047D00010BD7846034B1B680BB19847F5E700DE28
:1047E000F3E700BF9834002038B50C46054668B1A1
:1047F000A4B100236360EFF3108372B62A68AAB1F4
:104800006A6854606C6003B962B638BD7846084B7C
:104810001B680BB19847EBE700DEE9E77846044BED
:104820001B680BB19847E4E700DEE2E72C60E9E79C
:104830009834002010B5044658B1EFF3108372B6D7
:10484000206808B142682260226852B103B962B69A
:1048500010BD7846044B1B680BB19847EDE700DEAE
:10486000EBE76260F2E700BF9834002010B5044621
:1048700008B1206810BD7846034B1B680BB1984700
:10488000F7E700DEF5E700BF98340020072814D8CA
:10489000DFE800F0080C1504110F0A0664207047C9
:1048A00014207047FA2070471E2070474FF4FA70AA
:1048B0007047322070474B207047FA20704796208F
:1048C000704753B130B4013B9BB2CC5CD55C6C40BB
:1048D000C454002BF7D130BC7047704770B50C46FC
:1048E0001546324E002333607360B360F360324686
:1048F0003146FCF779F996F90030002B02DB0021F4
:1049000010230CE0002110231CE0013B9BB2274840
:10491000C25C5200D2B20A43E254C25CD109002BFD
:10492000F3D194F90030002B1ADB0021102323E08F
:10493000013B9BB21D48C25C5200D2B20A43E25412
:10494000C25CD109002BF3D1102306E0013B9BB2DE
:10495000E25C1749C95C4A40E254002BF6D1E0E71B
:104960000021102314E0013B9BB2E25C5200D2B262
:104970000A43EA54E25CD109002BF4D170BD013B3B
:104980009BB2E25C5200D2B20A43EA54E25CD10923
:10499000002BF4D1102306E0013B9BB2EA5C0449F2
:1049A000C95C4A40EA54002BF6D1E7E7A434002062
:1049B000703403002DE9F04385B007460C461546D8
:1049C000984602F10F0636111FFA86F9354A364924
:1049D000FFF784FF354B00221A605A609A60DA6054
:1049E00005F00F05B9F1000F11D085B909F1FF30BD
:1049F0000001102308E0013B9BB22218D25C2A4937
:104A0000C95C4A400DF80320002BF4D120E0B1B27C
:104A10000139ADB22A4604EB011168460EF018F8D0
:104A200080230DF805306B1C03E000220DF80320F5
:104A300001330F2BF9DD102308E0013B9BB21DF879
:104A400003201849C95C4A400DF80320002BF4D11B
:104A5000002510E0013B9BB21449CA5C04EB0C003A
:104A6000C05C4240CA54002BF4D110490A46384673
:104A7000FCF7BAF80135B3B2013BAB4203DD4FEAB4
:104A8000051C1023EFE7094C1023224669462046F7
:104A9000FFF717FF424621463846FCF7A5F805B058
:104AA000BDE8F083C4340020B4340020A4340020D6
:104AB00010B50446436923B178461D4B1B686BB1A2
:104AC00098471C4B1B685BB160681A4B1B685B689E
